{
  "_format": "hh-sol-artifact-1",
  "contractName": "DataVerification",
  "sourceName": "contracts/DataVerification.sol",
  "abi": [
    {
      "inputs": [
        {
          "internalType": "address",
          "name": "_accessControlAddress",
          "type": "address"
        }
      ],
      "stateMutability": "nonpayable",
      "type": "constructor"
    },
    {
      "inputs": [
        {
          "internalType": "address",
          "name": "owner",
          "type": "address"
        }
      ],
      "name": "OwnableInvalidOwner",
      "type": "error"
    },
    {
      "inputs": [
        {
          "internalType": "address",
          "name": "account",
          "type": "address"
        }
      ],
      "name": "OwnableUnauthorizedAccount",
      "type": "error"
    },
    {
      "anonymous": false,
      "inputs": [
        {
          "indexed": true,
          "internalType": "uint256",
          "name": "tokenId",
          "type": "uint256"
        },
        {
          "indexed": false,
          "internalType": "enum DataVerification.VerificationStatus",
          "name": "status",
          "type": "uint8"
        },
        {
          "indexed": true,
          "internalType": "address",
          "name": "verifier",
          "type": "address"
        },
        {
          "indexed": false,
          "internalType": "string",
          "name": "comments",
          "type": "string"
        }
      ],
      "name": "DataVerified",
      "type": "event"
    },
    {
      "anonymous": false,
      "inputs": [
        {
          "indexed": true,
          "internalType": "address",
          "name": "previousOwner",
          "type": "address"
        },
        {
          "indexed": true,
          "internalType": "address",
          "name": "newOwner",
          "type": "address"
        }
      ],
      "name": "OwnershipTransferred",
      "type": "event"
    },
    {
      "inputs": [],
      "name": "accessControl",
      "outputs": [
        {
          "internalType": "contract IoTDataAccessControl",
          "name": "",
          "type": "address"
        }
      ],
      "stateMutability": "view",
      "type": "function"
    },
    {
      "inputs": [
        {
          "internalType": "uint256",
          "name": "tokenId",
          "type": "uint256"
        }
      ],
      "name": "getVerificationStatus",
      "outputs": [
        {
          "internalType": "enum DataVerification.VerificationStatus",
          "name": "",
          "type": "uint8"
        },
        {
          "internalType": "string",
          "name": "",
          "type": "string"
        },
        {
          "internalType": "address",
          "name": "",
          "type": "address"
        },
        {
          "internalType": "uint256",
          "name": "",
          "type": "uint256"
        }
      ],
      "stateMutability": "view",
      "type": "function"
    },
    {
      "inputs": [],
      "name": "nftContract",
      "outputs": [
        {
          "internalType": "address",
          "name": "",
          "type": "address"
        }
      ],
      "stateMutability": "view",
      "type": "function"
    },
    {
      "inputs": [],
      "name": "owner",
      "outputs": [
        {
          "internalType": "address",
          "name": "",
          "type": "address"
        }
      ],
      "stateMutability": "view",
      "type": "function"
    },
    {
      "inputs": [],
      "name": "renounceOwnership",
      "outputs": [],
      "stateMutability": "nonpayable",
      "type": "function"
    },
    {
      "inputs": [
        {
          "internalType": "address",
          "name": "_nftContract",
          "type": "address"
        }
      ],
      "name": "setNFTContract",
      "outputs": [],
      "stateMutability": "nonpayable",
      "type": "function"
    },
    {
      "inputs": [
        {
          "internalType": "address",
          "name": "newOwner",
          "type": "address"
        }
      ],
      "name": "transferOwnership",
      "outputs": [],
      "stateMutability": "nonpayable",
      "type": "function"
    },
    {
      "inputs": [
        {
          "internalType": "uint256",
          "name": "",
          "type": "uint256"
        }
      ],
      "name": "verificationResults",
      "outputs": [
        {
          "internalType": "enum DataVerification.VerificationStatus",
          "name": "status",
          "type": "uint8"
        },
        {
          "internalType": "string",
          "name": "comments",
          "type": "string"
        },
        {
          "internalType": "address",
          "name": "verifier",
          "type": "address"
        },
        {
          "internalType": "uint256",
          "name": "timestamp",
          "type": "uint256"
        }
      ],
      "stateMutability": "view",
      "type": "function"
    },
    {
      "inputs": [
        {
          "internalType": "uint256",
          "name": "tokenId",
          "type": "uint256"
        },
        {
          "internalType": "enum DataVerification.VerificationStatus",
          "name": "status",
          "type": "uint8"
        },
        {
          "internalType": "string",
          "name": "comments",
          "type": "string"
        }
      ],
      "name": "verifyData",
      "outputs": [],
      "stateMutability": "nonpayable",
      "type": "function"
    }
  ],
  "bytecode": "0x60a06040523480156200001157600080fd5b5060405162001ba238038062001ba283398181016040528101906200003791906200029a565b33600073ffffffffffffffffffffffffffffffffffffffff168173ffffffffffffffffffffffffffffffffffffffff1603620000ad5760006040517f1e4fbdf7000000000000000000000000000000000000000000000000000000008152600401620000a49190620002dd565b60405180910390fd5b620000be816200016c60201b60201c565b50600073ffffffffffffffffffffffffffffffffffffffff168173ffffffffffffffffffffffffffffffffffffffff160362000131576040517f08c379a000000000000000000000000000000000000000000000000000000000815260040162000128906200035b565b60405180910390fd5b8073ffffffffffffffffffffffffffffffffffffffff1660808173ffffffffffffffffffffffffffffffffffffffff1681525050506200037d565b60008060009054906101000a900473ffffffffffffffffffffffffffffffffffffffff169050816000806101000a81548173ffffffffffffffffffffffffffffffffffffffff021916908373ffffffffffffffffffffffffffffffffffffffff1602179055508173ffffffffffffffffffffffffffffffffffffffff168173ffffffffffffffffffffffffffffffffffffffff167f8be0079c531659141344cd1fd0a4f28419497f9722a3daafe3b4186f6b6457e060405160405180910390a35050565b600080fd5b600073ffffffffffffffffffffffffffffffffffffffff82169050919050565b6000620002628262000235565b9050919050565b620002748162000255565b81146200028057600080fd5b50565b600081519050620002948162000269565b92915050565b600060208284031215620002b357620002b262000230565b5b6000620002c38482850162000283565b91505092915050565b620002d78162000255565b82525050565b6000602082019050620002f46000830184620002cc565b92915050565b600082825260208201905092915050565b7f496e76616c696420416363657373436f6e74726f6c2061646472657373000000600082015250565b600062000343601d83620002fa565b915062000350826200030b565b602082019050919050565b60006020820190508181036000830152620003768162000334565b9050919050565b608051611802620003a0600039600081816101b8015261055601526118026000f3fe608060405234801561001057600080fd5b50600436106100935760003560e01c8063a7ccabdf11610066578063a7ccabdf14610111578063d56d229d1461012d578063e5f2993f1461014b578063f2fde38b14610167578063f33f1f071461018357610093565b806313007d55146100985780631d9425ca146100b6578063715018a6146100e95780638da5cb5b146100f3575b600080fd5b6100a06101b6565b6040516100ad9190610ce6565b60405180910390f35b6100d060048036038101906100cb9190610d4b565b6101da565b6040516100e09493929190610eaf565b60405180910390f35b6100f1610354565b005b6100fb610368565b6040516101089190610efb565b60405180910390f35b61012b60048036038101906101269190610f42565b610391565b005b61013561044c565b6040516101429190610efb565b60405180910390f35b610165600480360381019061016091906110c9565b610472565b005b610181600480360381019061017c9190610f42565b6109a9565b005b61019d60048036038101906101989190610d4b565b610a2f565b6040516101ad9493929190610eaf565b60405180910390f35b7f000000000000000000000000000000000000000000000000000000000000000081565b600060606000806000600260008781526020019081526020016000206040518060800160405290816000820160009054906101000a900460ff16600281111561022657610225610d78565b5b600281111561023857610237610d78565b5b815260200160018201805461024c90611167565b80601f016020809104026020016040519081016040528092919081815260200182805461027890611167565b80156102c55780601f1061029a576101008083540402835291602001916102c5565b820191906000526020600020905b8154815290600101906020018083116102a857829003601f168201915b505050505081526020016002820160009054906101000a900473ffffffffffffffffffffffffffffffffffffffff1673ffffffffffffffffffffffffffffffffffffffff1673ffffffffffffffffffffffffffffffffffffffff168152602001600382015481525050905080600001518160200151826040015183606001519450945094509450509193509193565b61035c610b14565b6103666000610b9b565b565b60008060009054906101000a900473ffffffffffffffffffffffffffffffffffffffff16905090565b610399610b14565b600073ffffffffffffffffffffffffffffffffffffffff168173ffffffffffffffffffffffffffffffffffffffff1603610408576040517f08c379a00000000000000000000000000000000000000000000000000000000081526004016103ff906111e4565b60405180910390fd5b80600160006101000a81548173ffffffffffffffffffffffffffffffffffffffff021916908373ffffffffffffffffffffffffffffffffffffffff16021790555050565b600160009054906101000a900473ffffffffffffffffffffffffffffffffffffffff1681565b600073ffffffffffffffffffffffffffffffffffffffff16600160009054906101000a900473ffffffffffffffffffffffffffffffffffffffff1673ffffffffffffffffffffffffffffffffffffffff1603610503576040517f08c379a00000000000000000000000000000000000000000000000000000000081526004016104fa90611250565b60405180910390fd5b3373ffffffffffffffffffffffffffffffffffffffff1660007f07a748cdae27df23563f47c0dd46ab79157d408f99e4fb57cd732acf62f94694600060405161054c91906112bc565b60405180910390a37f000000000000000000000000000000000000000000000000000000000000000073ffffffffffffffffffffffffffffffffffffffff166333105218336040518263ffffffff1660e01b81526004016105ad9190610efb565b602060405180830381865afa1580156105ca573d6000803e3d6000fd5b505050506040513d601f19601f820116820180604052508101906105ee9190611322565b61062d576040517f08c379a00000000000000000000000000000000000000000000000000000000081526004016106249061139b565b60405180910390fd5b600073ffffffffffffffffffffffffffffffffffffffff16600160009054906101000a900473ffffffffffffffffffffffffffffffffffffffff1673ffffffffffffffffffffffffffffffffffffffff16636352211e856040518263ffffffff1660e01b81526004016106a091906113bb565b602060405180830381865afa1580156106bd573d6000803e3d6000fd5b505050506040513d601f19601f820116820180604052508101906106e191906113eb565b73ffffffffffffffffffffffffffffffffffffffff1603610737576040517f08c379a000000000000000000000000000000000000000000000000000000000815260040161072e90611464565b60405180910390fd5b60028081111561074a57610749610d78565b5b82600281111561075d5761075c610d78565b5b036107a75760008151116107a6576040517f08c379a000000000000000000000000000000000000000000000000000000000815260040161079d906114d0565b60405180910390fd5b5b60405180608001604052808360028111156107c5576107c4610d78565b5b81526020018281526020013373ffffffffffffffffffffffffffffffffffffffff168152602001428152506002600085815260200190815260200160002060008201518160000160006101000a81548160ff0219169083600281111561082e5761082d610d78565b5b021790555060208201518160010190816108489190611692565b5060408201518160020160006101000a81548173ffffffffffffffffffffffffffffffffffffffff021916908373ffffffffffffffffffffffffffffffffffffffff16021790555060608201518160030155905050600160009054906101000a900473ffffffffffffffffffffffffffffffffffffffff1673ffffffffffffffffffffffffffffffffffffffff1663f320beac84600160028111156108f0576108ef610d78565b5b85600281111561090357610902610d78565b5b146040518363ffffffff1660e01b8152600401610921929190611773565b600060405180830381600087803b15801561093b57600080fd5b505af115801561094f573d6000803e3d6000fd5b505050503373ffffffffffffffffffffffffffffffffffffffff16837f07a748cdae27df23563f47c0dd46ab79157d408f99e4fb57cd732acf62f94694848460405161099c92919061179c565b60405180910390a3505050565b6109b1610b14565b600073ffffffffffffffffffffffffffffffffffffffff168173ffffffffffffffffffffffffffffffffffffffff1603610a235760006040517f1e4fbdf7000000000000000000000000000000000000000000000000000000008152600401610a1a9190610efb565b60405180910390fd5b610a2c81610b9b565b50565b60026020528060005260406000206000915090508060000160009054906101000a900460ff1690806001018054610a6590611167565b80601f0160208091040260200160405190810160405280929190818152602001828054610a9190611167565b8015610ade5780601f10610ab357610100808354040283529160200191610ade565b820191906000526020600020905b815481529060010190602001808311610ac157829003601f168201915b5050505050908060020160009054906101000a900473ffffffffffffffffffffffffffffffffffffffff16908060030154905084565b610b1c610c5f565b73ffffffffffffffffffffffffffffffffffffffff16610b3a610368565b73ffffffffffffffffffffffffffffffffffffffff1614610b9957610b5d610c5f565b6040517f118cdaa7000000000000000000000000000000000000000000000000000000008152600401610b909190610efb565b60405180910390fd5b565b60008060009054906101000a900473ffffffffffffffffffffffffffffffffffffffff169050816000806101000a81548173ffffffffffffffffffffffffffffffffffffffff021916908373ffffffffffffffffffffffffffffffffffffffff1602179055508173ffffffffffffffffffffffffffffffffffffffff168173ffffffffffffffffffffffffffffffffffffffff167f8be0079c531659141344cd1fd0a4f28419497f9722a3daafe3b4186f6b6457e060405160405180910390a35050565b600033905090565b600073ffffffffffffffffffffffffffffffffffffffff82169050919050565b6000819050919050565b6000610cac610ca7610ca284610c67565b610c87565b610c67565b9050919050565b6000610cbe82610c91565b9050919050565b6000610cd082610cb3565b9050919050565b610ce081610cc5565b82525050565b6000602082019050610cfb6000830184610cd7565b92915050565b6000604051905090565b600080fd5b600080fd5b6000819050919050565b610d2881610d15565b8114610d3357600080fd5b50565b600081359050610d4581610d1f565b92915050565b600060208284031215610d6157610d60610d0b565b5b6000610d6f84828501610d36565b91505092915050565b7f4e487b7100000000000000000000000000000000000000000000000000000000600052602160045260246000fd5b60038110610db857610db7610d78565b5b50565b6000819050610dc982610da7565b919050565b6000610dd982610dbb565b9050919050565b610de981610dce565b82525050565b600081519050919050565b600082825260208201905092915050565b60005b83811015610e29578082015181840152602081019050610e0e565b60008484015250505050565b6000601f19601f8301169050919050565b6000610e5182610def565b610e5b8185610dfa565b9350610e6b818560208601610e0b565b610e7481610e35565b840191505092915050565b6000610e8a82610c67565b9050919050565b610e9a81610e7f565b82525050565b610ea981610d15565b82525050565b6000608082019050610ec46000830187610de0565b8181036020830152610ed68186610e46565b9050610ee56040830185610e91565b610ef26060830184610ea0565b95945050505050565b6000602082019050610f106000830184610e91565b92915050565b610f1f81610e7f565b8114610f2a57600080fd5b50565b600081359050610f3c81610f16565b92915050565b600060208284031215610f5857610f57610d0b565b5b6000610f6684828501610f2d565b91505092915050565b60038110610f7c57600080fd5b50565b600081359050610f8e81610f6f565b92915050565b600080fd5b600080fd5b7f4e487b7100000000000000000000000000000000000000000000000000000000600052604160045260246000fd5b610fd682610e35565b810181811067ffffffffffffffff82111715610ff557610ff4610f9e565b5b80604052505050565b6000611008610d01565b90506110148282610fcd565b919050565b600067ffffffffffffffff82111561103457611033610f9e565b5b61103d82610e35565b9050602081019050919050565b82818337600083830152505050565b600061106c61106784611019565b610ffe565b90508281526020810184848401111561108857611087610f99565b5b61109384828561104a565b509392505050565b600082601f8301126110b0576110af610f94565b5b81356110c0848260208601611059565b91505092915050565b6000806000606084860312156110e2576110e1610d0b565b5b60006110f086828701610d36565b935050602061110186828701610f7f565b925050604084013567ffffffffffffffff81111561112257611121610d10565b5b61112e8682870161109b565b9150509250925092565b7f4e487b7100000000000000000000000000000000000000000000000000000000600052602260045260246000fd5b6000600282049050600182168061117f57607f821691505b60208210810361119257611191611138565b5b50919050565b7f496e76616c696420616464726573730000000000000000000000000000000000600082015250565b60006111ce600f83610dfa565b91506111d982611198565b602082019050919050565b600060208201905081810360008301526111fd816111c1565b9050919050565b7f4e465420636f6e7472616374206e6f7420736574000000000000000000000000600082015250565b600061123a601483610dfa565b915061124582611204565b602082019050919050565b600060208201905081810360008301526112698161122d565b9050919050565b7f44656275673a206d73672e73656e646572000000000000000000000000000000600082015250565b60006112a6601183610dfa565b91506112b182611270565b602082019050919050565b60006040820190506112d16000830184610de0565b81810360208301526112e281611299565b905092915050565b60008115159050919050565b6112ff816112ea565b811461130a57600080fd5b50565b60008151905061131c816112f6565b92915050565b60006020828403121561133857611337610d0b565b5b60006113468482850161130d565b91505092915050565b7f4f6e6c7920766572696669657273000000000000000000000000000000000000600082015250565b6000611385600e83610dfa565b91506113908261134f565b602082019050919050565b600060208201905081810360008301526113b481611378565b9050919050565b60006020820190506113d06000830184610ea0565b92915050565b6000815190506113e581610f16565b92915050565b60006020828403121561140157611400610d0b565b5b600061140f848285016113d6565b91505092915050565b7f496e76616c696420746f6b656e20494400000000000000000000000000000000600082015250565b600061144e601083610dfa565b915061145982611418565b602082019050919050565b6000602082019050818103600083015261147d81611441565b9050919050565b7f52656a656374696f6e20726571756972657320636f6d6d656e74730000000000600082015250565b60006114ba601b83610dfa565b91506114c582611484565b602082019050919050565b600060208201905081810360008301526114e9816114ad565b9050919050565b60008190508160005260206000209050919050565b60006020601f8301049050919050565b600082821b905092915050565b6000600883026115527fffffffffffffffffffffffffffffffffffffffffffffffffffffffffffffffff82611515565b61155c8683611515565b95508019841693508086168417925050509392505050565b600061158f61158a61158584610d15565b610c87565b610d15565b9050919050565b6000819050919050565b6115a983611574565b6115bd6115b582611596565b848454611522565b825550505050565b600090565b6115d26115c5565b6115dd8184846115a0565b505050565b5b81811015611601576115f66000826115ca565b6001810190506115e3565b5050565b601f82111561164657611617816114f0565b61162084611505565b8101602085101561162f578190505b61164361163b85611505565b8301826115e2565b50505b505050565b600082821c905092915050565b60006116696000198460080261164b565b1980831691505092915050565b60006116828383611658565b9150826002028217905092915050565b61169b82610def565b67ffffffffffffffff8111156116b4576116b3610f9e565b5b6116be8254611167565b6116c9828285611605565b600060209050601f8311600181146116fc57600084156116ea578287015190505b6116f48582611676565b86555061175c565b601f19841661170a866114f0565b60005b828110156117325784890151825560018201915060208501945060208101905061170d565b8683101561174f578489015161174b601f891682611658565b8355505b6001600288020188555050505b505050505050565b61176d816112ea565b82525050565b60006040820190506117886000830185610ea0565b6117956020830184611764565b9392505050565b60006040820190506117b16000830185610de0565b81810360208301526117c38184610e46565b9050939250505056fea264697066735822122034f854b787ec55824d1f9e01026b994cf2a91ca75af0a5f751510bda9473fc3564736f6c63430008140033",
  "linkReferences": {},
  "deployedLinkReferences": {}
}