{
  "_format": "hh-sol-artifact-1",
  "contractName": "IoTDataNFT",
  "sourceName": "contracts/IoTDataNFT.sol",
  "abi": [
    {
      "inputs": [
        {
          "internalType": "address",
          "name": "_marketplace",
          "type": "address"
        },
        {
          "internalType": "address",
          "name": "_accessControl",
          "type": "address"
        }
      ],
      "stateMutability": "nonpayable",
      "type": "constructor"
    },
    {
      "inputs": [
        {
          "internalType": "address",
          "name": "sender",
          "type": "address"
        },
        {
          "internalType": "uint256",
          "name": "tokenId",
          "type": "uint256"
        },
        {
          "internalType": "address",
          "name": "owner",
          "type": "address"
        }
      ],
      "name": "ERC721IncorrectOwner",
      "type": "error"
    },
    {
      "inputs": [
        {
          "internalType": "address",
          "name": "operator",
          "type": "address"
        },
        {
          "internalType": "uint256",
          "name": "tokenId",
          "type": "uint256"
        }
      ],
      "name": "ERC721InsufficientApproval",
      "type": "error"
    },
    {
      "inputs": [
        {
          "internalType": "address",
          "name": "approver",
          "type": "address"
        }
      ],
      "name": "ERC721InvalidApprover",
      "type": "error"
    },
    {
      "inputs": [
        {
          "internalType": "address",
          "name": "operator",
          "type": "address"
        }
      ],
      "name": "ERC721InvalidOperator",
      "type": "error"
    },
    {
      "inputs": [
        {
          "internalType": "address",
          "name": "owner",
          "type": "address"
        }
      ],
      "name": "ERC721InvalidOwner",
      "type": "error"
    },
    {
      "inputs": [
        {
          "internalType": "address",
          "name": "receiver",
          "type": "address"
        }
      ],
      "name": "ERC721InvalidReceiver",
      "type": "error"
    },
    {
      "inputs": [
        {
          "internalType": "address",
          "name": "sender",
          "type": "address"
        }
      ],
      "name": "ERC721InvalidSender",
      "type": "error"
    },
    {
      "inputs": [
        {
          "internalType": "uint256",
          "name": "tokenId",
          "type": "uint256"
        }
      ],
      "name": "ERC721NonexistentToken",
      "type": "error"
    },
    {
      "anonymous": false,
      "inputs": [
        {
          "indexed": true,
          "internalType": "address",
          "name": "owner",
          "type": "address"
        },
        {
          "indexed": true,
          "internalType": "address",
          "name": "approved",
          "type": "address"
        },
        {
          "indexed": true,
          "internalType": "uint256",
          "name": "tokenId",
          "type": "uint256"
        }
      ],
      "name": "Approval",
      "type": "event"
    },
    {
      "anonymous": false,
      "inputs": [
        {
          "indexed": true,
          "internalType": "address",
          "name": "owner",
          "type": "address"
        },
        {
          "indexed": true,
          "internalType": "address",
          "name": "operator",
          "type": "address"
        },
        {
          "indexed": false,
          "internalType": "bool",
          "name": "approved",
          "type": "bool"
        }
      ],
      "name": "ApprovalForAll",
      "type": "event"
    },
    {
      "anonymous": false,
      "inputs": [
        {
          "indexed": false,
          "internalType": "uint256",
          "name": "_fromTokenId",
          "type": "uint256"
        },
        {
          "indexed": false,
          "internalType": "uint256",
          "name": "_toTokenId",
          "type": "uint256"
        }
      ],
      "name": "BatchMetadataUpdate",
      "type": "event"
    },
    {
      "anonymous": false,
      "inputs": [
        {
          "indexed": true,
          "internalType": "uint256",
          "name": "tokenId",
          "type": "uint256"
        },
        {
          "indexed": true,
          "internalType": "address",
          "name": "owner",
          "type": "address"
        },
        {
          "indexed": false,
          "internalType": "string",
          "name": "deviceId",
          "type": "string"
        },
        {
          "indexed": false,
          "internalType": "uint256",
          "name": "timestamp",
          "type": "uint256"
        }
      ],
      "name": "DataNFTMinted",
      "type": "event"
    },
    {
      "anonymous": false,
      "inputs": [
        {
          "indexed": false,
          "internalType": "uint256",
          "name": "_tokenId",
          "type": "uint256"
        }
      ],
      "name": "MetadataUpdate",
      "type": "event"
    },
    {
      "anonymous": false,
      "inputs": [
        {
          "indexed": true,
          "internalType": "address",
          "name": "from",
          "type": "address"
        },
        {
          "indexed": true,
          "internalType": "address",
          "name": "to",
          "type": "address"
        },
        {
          "indexed": true,
          "internalType": "uint256",
          "name": "tokenId",
          "type": "uint256"
        }
      ],
      "name": "Transfer",
      "type": "event"
    },
    {
      "anonymous": false,
      "inputs": [
        {
          "indexed": true,
          "internalType": "uint256",
          "name": "tokenId",
          "type": "uint256"
        },
        {
          "indexed": false,
          "internalType": "bool",
          "name": "verified",
          "type": "bool"
        }
      ],
      "name": "VerificationUpdated",
      "type": "event"
    },
    {
      "inputs": [],
      "name": "accessControlContract",
      "outputs": [
        {
          "internalType": "contract IoTDataAccessControl",
          "name": "",
          "type": "address"
        }
      ],
      "stateMutability": "view",
      "type": "function"
    },
    {
      "inputs": [
        {
          "internalType": "address",
          "name": "to",
          "type": "address"
        },
        {
          "internalType": "uint256",
          "name": "tokenId",
          "type": "uint256"
        }
      ],
      "name": "approve",
      "outputs": [],
      "stateMutability": "nonpayable",
      "type": "function"
    },
    {
      "inputs": [
        {
          "internalType": "address",
          "name": "owner",
          "type": "address"
        }
      ],
      "name": "balanceOf",
      "outputs": [
        {
          "internalType": "uint256",
          "name": "",
          "type": "uint256"
        }
      ],
      "stateMutability": "view",
      "type": "function"
    },
    {
      "inputs": [],
      "name": "dataVerificationContract",
      "outputs": [
        {
          "internalType": "address",
          "name": "",
          "type": "address"
        }
      ],
      "stateMutability": "view",
      "type": "function"
    },
    {
      "inputs": [],
      "name": "getAllNFTs",
      "outputs": [
        {
          "components": [
            {
              "internalType": "uint256",
              "name": "tokenId",
              "type": "uint256"
            },
            {
              "internalType": "address",
              "name": "owner",
              "type": "address"
            },
            {
              "internalType": "string",
              "name": "uri",
              "type": "string"
            },
            {
              "internalType": "string",
              "name": "deviceId",
              "type": "string"
            },
            {
              "internalType": "uint256",
              "name": "timestamp",
              "type": "uint256"
            },
            {
              "internalType": "string",
              "name": "dataType",
              "type": "string"
            },
            {
              "internalType": "string",
              "name": "location",
              "type": "string"
            }
          ],
          "internalType": "struct IoTDataNFT.TokenInfo[]",
          "name": "",
          "type": "tuple[]"
        }
      ],
      "stateMutability": "view",
      "type": "function"
    },
    {
      "inputs": [],
      "name": "getAllUnverifiedNFTs",
      "outputs": [
        {
          "components": [
            {
              "internalType": "uint256",
              "name": "tokenId",
              "type": "uint256"
            },
            {
              "internalType": "address",
              "name": "owner",
              "type": "address"
            },
            {
              "internalType": "string",
              "name": "uri",
              "type": "string"
            },
            {
              "internalType": "string",
              "name": "deviceId",
              "type": "string"
            },
            {
              "internalType": "uint256",
              "name": "timestamp",
              "type": "uint256"
            },
            {
              "internalType": "string",
              "name": "dataType",
              "type": "string"
            },
            {
              "internalType": "string",
              "name": "location",
              "type": "string"
            }
          ],
          "internalType": "struct IoTDataNFT.TokenInfo[]",
          "name": "",
          "type": "tuple[]"
        }
      ],
      "stateMutability": "view",
      "type": "function"
    },
    {
      "inputs": [],
      "name": "getAllVerifiedNFTs",
      "outputs": [
        {
          "components": [
            {
              "internalType": "uint256",
              "name": "tokenId",
              "type": "uint256"
            },
            {
              "internalType": "address",
              "name": "owner",
              "type": "address"
            },
            {
              "internalType": "string",
              "name": "uri",
              "type": "string"
            },
            {
              "internalType": "string",
              "name": "deviceId",
              "type": "string"
            },
            {
              "internalType": "uint256",
              "name": "timestamp",
              "type": "uint256"
            },
            {
              "internalType": "string",
              "name": "dataType",
              "type": "string"
            },
            {
              "internalType": "string",
              "name": "location",
              "type": "string"
            }
          ],
          "internalType": "struct IoTDataNFT.TokenInfo[]",
          "name": "",
          "type": "tuple[]"
        }
      ],
      "stateMutability": "view",
      "type": "function"
    },
    {
      "inputs": [
        {
          "internalType": "uint256",
          "name": "tokenId",
          "type": "uint256"
        }
      ],
      "name": "getApproved",
      "outputs": [
        {
          "internalType": "address",
          "name": "",
          "type": "address"
        }
      ],
      "stateMutability": "view",
      "type": "function"
    },
    {
      "inputs": [
        {
          "internalType": "uint256",
          "name": "tokenId",
          "type": "uint256"
        }
      ],
      "name": "getNFTDetails",
      "outputs": [
        {
          "components": [
            {
              "internalType": "uint256",
              "name": "tokenId",
              "type": "uint256"
            },
            {
              "internalType": "address",
              "name": "owner",
              "type": "address"
            },
            {
              "internalType": "string",
              "name": "uri",
              "type": "string"
            },
            {
              "internalType": "string",
              "name": "deviceId",
              "type": "string"
            },
            {
              "internalType": "uint256",
              "name": "timestamp",
              "type": "uint256"
            },
            {
              "internalType": "string",
              "name": "dataType",
              "type": "string"
            },
            {
              "internalType": "string",
              "name": "location",
              "type": "string"
            }
          ],
          "internalType": "struct IoTDataNFT.TokenInfo",
          "name": "",
          "type": "tuple"
        }
      ],
      "stateMutability": "view",
      "type": "function"
    },
    {
      "inputs": [
        {
          "internalType": "address",
          "name": "owner",
          "type": "address"
        }
      ],
      "name": "getOwnedNFTs",
      "outputs": [
        {
          "components": [
            {
              "internalType": "uint256",
              "name": "tokenId",
              "type": "uint256"
            },
            {
              "internalType": "address",
              "name": "owner",
              "type": "address"
            },
            {
              "internalType": "string",
              "name": "uri",
              "type": "string"
            },
            {
              "internalType": "string",
              "name": "deviceId",
              "type": "string"
            },
            {
              "internalType": "uint256",
              "name": "timestamp",
              "type": "uint256"
            },
            {
              "internalType": "string",
              "name": "dataType",
              "type": "string"
            },
            {
              "internalType": "string",
              "name": "location",
              "type": "string"
            }
          ],
          "internalType": "struct IoTDataNFT.TokenInfo[]",
          "name": "",
          "type": "tuple[]"
        }
      ],
      "stateMutability": "view",
      "type": "function"
    },
    {
      "inputs": [
        {
          "internalType": "string",
          "name": "deviceId",
          "type": "string"
        }
      ],
      "name": "getTokensByDevice",
      "outputs": [
        {
          "components": [
            {
              "internalType": "uint256",
              "name": "tokenId",
              "type": "uint256"
            },
            {
              "internalType": "address",
              "name": "owner",
              "type": "address"
            },
            {
              "internalType": "string",
              "name": "uri",
              "type": "string"
            },
            {
              "internalType": "string",
              "name": "deviceId",
              "type": "string"
            },
            {
              "internalType": "uint256",
              "name": "timestamp",
              "type": "uint256"
            },
            {
              "internalType": "string",
              "name": "dataType",
              "type": "string"
            },
            {
              "internalType": "string",
              "name": "location",
              "type": "string"
            }
          ],
          "internalType": "struct IoTDataNFT.TokenInfo[]",
          "name": "",
          "type": "tuple[]"
        }
      ],
      "stateMutability": "view",
      "type": "function"
    },
    {
      "inputs": [
        {
          "internalType": "address",
          "name": "owner",
          "type": "address"
        },
        {
          "internalType": "address",
          "name": "operator",
          "type": "address"
        }
      ],
      "name": "isApprovedForAll",
      "outputs": [
        {
          "internalType": "bool",
          "name": "",
          "type": "bool"
        }
      ],
      "stateMutability": "view",
      "type": "function"
    },
    {
      "inputs": [
        {
          "internalType": "uint256",
          "name": "",
          "type": "uint256"
        }
      ],
      "name": "isVerified",
      "outputs": [
        {
          "internalType": "bool",
          "name": "",
          "type": "bool"
        }
      ],
      "stateMutability": "view",
      "type": "function"
    },
    {
      "inputs": [],
      "name": "marketplaceAddress",
      "outputs": [
        {
          "internalType": "address",
          "name": "",
          "type": "address"
        }
      ],
      "stateMutability": "view",
      "type": "function"
    },
    {
      "inputs": [],
      "name": "name",
      "outputs": [
        {
          "internalType": "string",
          "name": "",
          "type": "string"
        }
      ],
      "stateMutability": "view",
      "type": "function"
    },
    {
      "inputs": [
        {
          "internalType": "uint256",
          "name": "tokenId",
          "type": "uint256"
        }
      ],
      "name": "ownerOf",
      "outputs": [
        {
          "internalType": "address",
          "name": "",
          "type": "address"
        }
      ],
      "stateMutability": "view",
      "type": "function"
    },
    {
      "inputs": [
        {
          "internalType": "address",
          "name": "to",
          "type": "address"
        },
        {
          "internalType": "string",
          "name": "uri",
          "type": "string"
        },
        {
          "internalType": "string",
          "name": "deviceId",
          "type": "string"
        },
        {
          "internalType": "string",
          "name": "dataType",
          "type": "string"
        },
        {
          "internalType": "string",
          "name": "location",
          "type": "string"
        }
      ],
      "name": "safeMint",
      "outputs": [
        {
          "internalType": "uint256",
          "name": "",
          "type": "uint256"
        }
      ],
      "stateMutability": "nonpayable",
      "type": "function"
    },
    {
      "inputs": [
        {
          "internalType": "address",
          "name": "from",
          "type": "address"
        },
        {
          "internalType": "address",
          "name": "to",
          "type": "address"
        },
        {
          "internalType": "uint256",
          "name": "tokenId",
          "type": "uint256"
        }
      ],
      "name": "safeTransferFrom",
      "outputs": [],
      "stateMutability": "nonpayable",
      "type": "function"
    },
    {
      "inputs": [
        {
          "internalType": "address",
          "name": "from",
          "type": "address"
        },
        {
          "internalType": "address",
          "name": "to",
          "type": "address"
        },
        {
          "internalType": "uint256",
          "name": "tokenId",
          "type": "uint256"
        },
        {
          "internalType": "bytes",
          "name": "data",
          "type": "bytes"
        }
      ],
      "name": "safeTransferFrom",
      "outputs": [],
      "stateMutability": "nonpayable",
      "type": "function"
    },
    {
      "inputs": [
        {
          "internalType": "address",
          "name": "operator",
          "type": "address"
        },
        {
          "internalType": "bool",
          "name": "approved",
          "type": "bool"
        }
      ],
      "name": "setApprovalForAll",
      "outputs": [],
      "stateMutability": "nonpayable",
      "type": "function"
    },
    {
      "inputs": [
        {
          "internalType": "address",
          "name": "_verificationContract",
          "type": "address"
        }
      ],
      "name": "setDataVerificationContract",
      "outputs": [],
      "stateMutability": "nonpayable",
      "type": "function"
    },
    {
      "inputs": [
        {
          "internalType": "bytes4",
          "name": "interfaceId",
          "type": "bytes4"
        }
      ],
      "name": "supportsInterface",
      "outputs": [
        {
          "internalType": "bool",
          "name": "",
          "type": "bool"
        }
      ],
      "stateMutability": "view",
      "type": "function"
    },
    {
      "inputs": [],
      "name": "symbol",
      "outputs": [
        {
          "internalType": "string",
          "name": "",
          "type": "string"
        }
      ],
      "stateMutability": "view",
      "type": "function"
    },
    {
      "inputs": [
        {
          "internalType": "uint256",
          "name": "tokenId",
          "type": "uint256"
        }
      ],
      "name": "tokenURI",
      "outputs": [
        {
          "internalType": "string",
          "name": "",
          "type": "string"
        }
      ],
      "stateMutability": "view",
      "type": "function"
    },
    {
      "inputs": [
        {
          "internalType": "address",
          "name": "from",
          "type": "address"
        },
        {
          "internalType": "address",
          "name": "to",
          "type": "address"
        },
        {
          "internalType": "uint256",
          "name": "tokenId",
          "type": "uint256"
        }
      ],
      "name": "transferFrom",
      "outputs": [],
      "stateMutability": "nonpayable",
      "type": "function"
    },
    {
      "inputs": [
        {
          "internalType": "uint256",
          "name": "tokenId",
          "type": "uint256"
        },
        {
          "internalType": "bool",
          "name": "verified",
          "type": "bool"
        }
      ],
      "name": "updateVerificationStatus",
      "outputs": [],
      "stateMutability": "nonpayable",
      "type": "function"
    }
  ],
  "bytecode": "0x60a06040523480156200001157600080fd5b5060405162004361380380620043618339818101604052810190620000379190620001b0565b6040518060400160405280600a81526020017f496f54446174614e4654000000000000000000000000000000000000000000008152506040518060400160405280600481526020017f494f544e000000000000000000000000000000000000000000000000000000008152508160009081620000b4919062000471565b508060019081620000c6919062000471565b5050508173ffffffffffffffffffffffffffffffffffffffff1660808173ffffffffffffffffffffffffffffffffffffffff168152505080600960006101000a81548173ffffffffffffffffffffffffffffffffffffffff021916908373ffffffffffffffffffffffffffffffffffffffff160217905550505062000558565b600080fd5b600073ffffffffffffffffffffffffffffffffffffffff82169050919050565b600062000178826200014b565b9050919050565b6200018a816200016b565b81146200019657600080fd5b50565b600081519050620001aa816200017f565b92915050565b60008060408385031215620001ca57620001c962000146565b5b6000620001da8582860162000199565b9250506020620001ed8582860162000199565b9150509250929050565b600081519050919050565b7f4e487b7100000000000000000000000000000000000000000000000000000000600052604160045260246000fd5b7f4e487b7100000000000000000000000000000000000000000000000000000000600052602260045260246000fd5b600060028204905060018216806200027957607f821691505b6020821081036200028f576200028e62000231565b5b50919050565b60008190508160005260206000209050919050565b60006020601f8301049050919050565b600082821b905092915050565b600060088302620002f97fffffffffffffffffffffffffffffffffffffffffffffffffffffffffffffffff82620002ba565b620003058683620002ba565b95508019841693508086168417925050509392505050565b6000819050919050565b6000819050919050565b6000620003526200034c62000346846200031d565b62000327565b6200031d565b9050919050565b6000819050919050565b6200036e8362000331565b620003866200037d8262000359565b848454620002c7565b825550505050565b600090565b6200039d6200038e565b620003aa81848462000363565b505050565b5b81811015620003d257620003c660008262000393565b600181019050620003b0565b5050565b601f8211156200042157620003eb8162000295565b620003f684620002aa565b8101602085101562000406578190505b6200041e6200041585620002aa565b830182620003af565b50505b505050565b600082821c905092915050565b6000620004466000198460080262000426565b1980831691505092915050565b600062000461838362000433565b9150826002028217905092915050565b6200047c82620001f7565b67ffffffffffffffff81111562000498576200049762000202565b5b620004a4825462000260565b620004b1828285620003d6565b600060209050601f831160018114620004e95760008415620004d4578287015190505b620004e0858262000453565b86555062000550565b601f198416620004f98662000295565b60005b828110156200052357848901518255600182019150602085019450602081019050620004fc565b868310156200054357848901516200053f601f89168262000433565b8355505b6001600288020188555050505b505050505050565b608051613ded6200057460003960006111a30152613ded6000f3fe608060405234801561001057600080fd5b506004361061018e5760003560e01c8063751dcddb116100de578063b88d4fde11610097578063dec8bd1711610071578063dec8bd17146104cf578063e0391b09146104ed578063e985e9c51461050b578063f320beac1461053b5761018e565b8063b88d4fde14610465578063c87b56dd14610481578063daa17f49146104b15761018e565b8063751dcddb1461038f5780637e6abcd3146103ad57806382260f35146103dd5780638b0cd50b1461040d57806395d89b411461042b578063a22cb465146104495761018e565b806323b872dd1161014b57806342842e0e1161012557806342842e0e146102f75780636352211e14610313578063707a4e271461034357806370a082311461035f5761018e565b806323b872dd1461027b578063296c2b3a1461029757806337b6d96b146102c75761018e565b806301ffc9a71461019357806306fdde03146101c3578063081812fc146101e1578063095ea7b31461021157806318148f1b1461022d57806321fcc1851461025d575b600080fd5b6101ad60048036038101906101a89190612a7e565b610557565b6040516101ba9190612ac6565b60405180910390f35b6101cb610569565b6040516101d89190612b71565b60405180910390f35b6101fb60048036038101906101f69190612bc9565b6105fb565b6040516102089190612c37565b60405180910390f35b61022b60048036038101906102269190612c7e565b610617565b005b61024760048036038101906102429190612cbe565b61062d565b6040516102549190612ec6565b60405180910390f35b610265610759565b6040516102729190612f47565b60405180910390f35b61029560048036038101906102909190612f62565b61077f565b005b6102b160048036038101906102ac91906130ea565b610881565b6040516102be91906131e4565b60405180910390f35b6102e160048036038101906102dc9190612bc9565b610b6e565b6040516102ee9190612ac6565b60405180910390f35b610311600480360381019061030c9190612f62565b610b8e565b005b61032d60048036038101906103289190612bc9565b610bae565b60405161033a9190612c37565b60405180910390f35b61035d60048036038101906103589190612cbe565b610bc0565b005b61037960048036038101906103749190612cbe565b610ccd565b60405161038691906131e4565b60405180910390f35b610397610d87565b6040516103a49190612c37565b60405180910390f35b6103c760048036038101906103c291906131ff565b610dad565b6040516103d49190612ec6565b60405180910390f35b6103f760048036038101906103f29190612bc9565b610ee4565b60405161040491906132f9565b60405180910390f35b610415610f44565b6040516104229190612ec6565b60405180910390f35b6104336110c2565b6040516104409190612b71565b60405180910390f35b610463600480360381019061045e9190613347565b611154565b005b61047f600480360381019061047a9190613428565b61116a565b005b61049b60048036038101906104969190612bc9565b61118f565b6040516104a89190612b71565b60405180910390f35b6104b96111a1565b6040516104c69190612c37565b60405180910390f35b6104d76111c5565b6040516104e49190612ec6565b60405180910390f35b6104f5611341565b6040516105029190612ec6565b60405180910390f35b610525600480360381019061052091906134ab565b611410565b6040516105329190612ac6565b60405180910390f35b610555600480360381019061055091906134eb565b6114a4565b005b6000610562826116be565b9050919050565b6060600080546105789061355a565b80601f01602080910402602001604051908101604052809291908181526020018280546105a49061355a565b80156105f15780601f106105c6576101008083540402835291602001916105f1565b820191906000526020600020905b8154815290600101906020018083116105d457829003601f168201915b5050505050905090565b60006106068261171f565b50610610826117a7565b9050919050565b61062982826106246117e4565b6117ec565b5050565b6060600061063a83610ccd565b905060008167ffffffffffffffff81111561065857610657612fbf565b5b60405190808252806020026020018201604052801561069157816020015b61067e6129bf565b8152602001906001900390816106765790505b5090506000805b600d8054905081101561074d576000600d82815481106106bb576106ba61358b565b5b906000526020600020015490508673ffffffffffffffffffffffffffffffffffffffff166106e882610bae565b73ffffffffffffffffffffffffffffffffffffffff16036107395761070c816117fe565b84848151811061071f5761071e61358b565b5b60200260200101819052508280610735906135e9565b9350505b508080610745906135e9565b915050610698565b50819350505050919050565b600960009054906101000a900473ffffffffffffffffffffffffffffffffffffffff1681565b600073ffffffffffffffffffffffffffffffffffffffff168273ffffffffffffffffffffffffffffffffffffffff16036107f15760006040517f64a0ae920000000000000000000000000000000000000000000000000000000081526004016107e89190612c37565b60405180910390fd5b600061080583836108006117e4565b611a26565b90508373ffffffffffffffffffffffffffffffffffffffff168173ffffffffffffffffffffffffffffffffffffffff161461087b578382826040517f64283d7b00000000000000000000000000000000000000000000000000000000815260040161087293929190613631565b60405180910390fd5b50505050565b6000600960009054906101000a900473ffffffffffffffffffffffffffffffffffffffff1673ffffffffffffffffffffffffffffffffffffffff166391d14854600960009054906101000a900473ffffffffffffffffffffffffffffffffffffffff1673ffffffffffffffffffffffffffffffffffffffff1663d53913936040518163ffffffff1660e01b8152600401602060405180830381865afa15801561092e573d6000803e3d6000fd5b505050506040513d601f19601f82011682018060405250810190610952919061369e565b336040518363ffffffff1660e01b81526004016109709291906136da565b602060405180830381865afa15801561098d573d6000803e3d6000fd5b505050506040513d601f19601f820116820180604052508101906109b19190613718565b6109f0576040517f08c379a00000000000000000000000000000000000000000000000000000000081526004016109e790613791565b60405180910390fd5b600060076000815480929190610a05906135e9565b919050559050610a158782611c40565b610a1f8187611c5e565b604051806080016040528086815260200142815260200185815260200184815250600a60008381526020019081526020016000206000820151816000019081610a689190613953565b50602082015181600101556040820151816002019081610a889190613953565b506060820151816003019081610a9e9190613953565b50905050600c85604051610ab29190613a61565b9081526020016040518091039020819080600181540180825580915050600190039060005260206000200160009091909190915055600d8190806001815401808255809150506001900390600052602060002001600090919091909150558673ffffffffffffffffffffffffffffffffffffffff16817fcf0618c506ca527972552bed8cb18b4f15577efa47200694c895b07047651c2a8742604051610b59929190613a78565b60405180910390a38091505095945050505050565b600b6020528060005260406000206000915054906101000a900460ff1681565b610ba98383836040518060200160405280600081525061116a565b505050565b6000610bb98261171f565b9050919050565b600073ffffffffffffffffffffffffffffffffffffffff168173ffffffffffffffffffffffffffffffffffffffff1603610c2f576040517f08c379a0000000000000000000000000000000000000000000000000000000008152600401610c2690613af4565b60405180910390fd5b60008173ffffffffffffffffffffffffffffffffffffffff163b11610c89576040517f08c379a0000000000000000000000000000000000000000000000000000000008152600401610c8090613b60565b60405180910390fd5b80600860006101000a81548173ffffffffffffffffffffffffffffffffffffffff021916908373ffffffffffffffffffffffffffffffffffffffff16021790555050565b60008073ffffffffffffffffffffffffffffffffffffffff168273ffffffffffffffffffffffffffffffffffffffff1603610d405760006040517f89c62b64000000000000000000000000000000000000000000000000000000008152600401610d379190612c37565b60405180910390fd5b600360008373ffffffffffffffffffffffffffffffffffffffff1673ffffffffffffffffffffffffffffffffffffffff168152602001908152602001600020549050919050565b600860009054906101000a900473ffffffffffffffffffffffffffffffffffffffff1681565b60606000600c83604051610dc19190613a61565b9081526020016040518091039020805480602002602001604051908101604052809291908181526020018280548015610e1957602002820191906000526020600020905b815481526020019060010190808311610e05575b505050505090506000815167ffffffffffffffff811115610e3d57610e3c612fbf565b5b604051908082528060200260200182016040528015610e7657816020015b610e636129bf565b815260200190600190039081610e5b5790505b50905060005b8251811015610ed957610ea8838281518110610e9b57610e9a61358b565b5b60200260200101516117fe565b828281518110610ebb57610eba61358b565b5b60200260200101819052508080610ed1906135e9565b915050610e7c565b508092505050919050565b610eec6129bf565b610ef582611cba565b610f34576040517f08c379a0000000000000000000000000000000000000000000000000000000008152600401610f2b90613bcc565b60405180910390fd5b610f3d826117fe565b9050919050565b60606000805b600d80549050811015610fbd57600b6000600d8381548110610f6f57610f6e61358b565b5b9060005260206000200154815260200190815260200160002060009054906101000a900460ff1615610faa578180610fa6906135e9565b9250505b8080610fb5906135e9565b915050610f4a565b5060008167ffffffffffffffff811115610fda57610fd9612fbf565b5b60405190808252806020026020018201604052801561101357816020015b6110006129bf565b815260200190600190039081610ff85790505b5090506000805b600d805490508110156110b8576000600d828154811061103d5761103c61358b565b5b90600052602060002001549050600b600082815260200190815260200160002060009054906101000a900460ff16156110a457611079816117fe565b848480611085906135e9565b9550815181106110985761109761358b565b5b60200260200101819052505b5080806110b0906135e9565b91505061101a565b5081935050505090565b6060600180546110d19061355a565b80601f01602080910402602001604051908101604052809291908181526020018280546110fd9061355a565b801561114a5780601f1061111f5761010080835404028352916020019161114a565b820191906000526020600020905b81548152906001019060200180831161112d57829003601f168201915b5050505050905090565b61116661115f6117e4565b8383611cfb565b5050565b61117584848461077f565b6111896111806117e4565b85858585611e6a565b50505050565b606061119a8261201b565b9050919050565b7f000000000000000000000000000000000000000000000000000000000000000081565b60606000805b600d8054905081101561123d57600b6000600d83815481106111f0576111ef61358b565b5b9060005260206000200154815260200190815260200160002060009054906101000a900460ff1661122a578180611226906135e9565b9250505b8080611235906135e9565b9150506111cb565b5060008167ffffffffffffffff81111561125a57611259612fbf565b5b60405190808252806020026020018201604052801561129357816020015b6112806129bf565b8152602001906001900390816112785790505b5090506000805b600d80549050811015611337576000600d82815481106112bd576112bc61358b565b5b90600052602060002001549050600b600082815260200190815260200160002060009054906101000a900460ff16611323576112f8816117fe565b848480611304906135e9565b9550815181106113175761131661358b565b5b60200260200101819052505b50808061132f906135e9565b91505061129a565b5081935050505090565b60606000600d8054905067ffffffffffffffff81111561136457611363612fbf565b5b60405190808252806020026020018201604052801561139d57816020015b61138a6129bf565b8152602001906001900390816113825790505b50905060005b600d80549050811015611408576113d7600d82815481106113c7576113c661358b565b5b90600052602060002001546117fe565b8282815181106113ea576113e961358b565b5b60200260200101819052508080611400906135e9565b9150506113a3565b508091505090565b6000600560008473ffffffffffffffffffffffffffffffffffffffff1673ffffffffffffffffffffffffffffffffffffffff16815260200190815260200160002060008373ffffffffffffffffffffffffffffffffffffffff1673ffffffffffffffffffffffffffffffffffffffff16815260200190815260200160002060009054906101000a900460ff16905092915050565b600960009054906101000a900473ffffffffffffffffffffffffffffffffffffffff1673ffffffffffffffffffffffffffffffffffffffff166333105218336040518263ffffffff1660e01b81526004016114ff9190612c37565b602060405180830381865afa15801561151c573d6000803e3d6000fd5b505050506040513d601f19601f820116820180604052508101906115409190613718565b61157f576040517f08c379a000000000000000000000000000000000000000000000000000000000815260040161157690613791565b60405180910390fd5b600860009054906101000a900473ffffffffffffffffffffffffffffffffffffffff1673ffffffffffffffffffffffffffffffffffffffff163373ffffffffffffffffffffffffffffffffffffffff161461160f576040517f08c379a000000000000000000000000000000000000000000000000000000000815260040161160690613c38565b60405180910390fd5b61161882611cba565b611657576040517f08c379a000000000000000000000000000000000000000000000000000000000815260040161164e90613bcc565b60405180910390fd5b80600b600084815260200190815260200160002060006101000a81548160ff021916908315150217905550817f9a5939a701e315312ffd484f4e922faaa665911da46327fa44cf9991529200e7826040516116b29190612ac6565b60405180910390a25050565b6000634906490660e01b7bffffffffffffffffffffffffffffffffffffffffffffffffffffffff1916827bffffffffffffffffffffffffffffffffffffffffffffffffffffffff1916148061171857506117178261212e565b5b9050919050565b60008061172b83612210565b9050600073ffffffffffffffffffffffffffffffffffffffff168173ffffffffffffffffffffffffffffffffffffffff160361179e57826040517f7e27328900000000000000000000000000000000000000000000000000000000815260040161179591906131e4565b60405180910390fd5b80915050919050565b60006004600083815260200190815260200160002060009054906101000a900473ffffffffffffffffffffffffffffffffffffffff169050919050565b600033905090565b6117f9838383600161224d565b505050565b6118066129bf565b6000600a600084815260200190815260200160002090506040518060e0016040528084815260200161183785610bae565b73ffffffffffffffffffffffffffffffffffffffff16815260200161185b8561118f565b815260200182600001805461186f9061355a565b80601f016020809104026020016040519081016040528092919081815260200182805461189b9061355a565b80156118e85780601f106118bd576101008083540402835291602001916118e8565b820191906000526020600020905b8154815290600101906020018083116118cb57829003601f168201915b505050505081526020018260010154815260200182600201805461190b9061355a565b80601f01602080910402602001604051908101604052809291908181526020018280546119379061355a565b80156119845780601f1061195957610100808354040283529160200191611984565b820191906000526020600020905b81548152906001019060200180831161196757829003601f168201915b5050505050815260200182600301805461199d9061355a565b80601f01602080910402602001604051908101604052809291908181526020018280546119c99061355a565b8015611a165780601f106119eb57610100808354040283529160200191611a16565b820191906000526020600020905b8154815290600101906020018083116119f957829003601f168201915b5050505050815250915050919050565b600080611a3284612210565b9050600073ffffffffffffffffffffffffffffffffffffffff168373ffffffffffffffffffffffffffffffffffffffff1614611a7457611a73818486612412565b5b600073ffffffffffffffffffffffffffffffffffffffff168173ffffffffffffffffffffffffffffffffffffffff1614611b0557611ab660008560008061224d565b6001600360008373ffffffffffffffffffffffffffffffffffffffff1673ffffffffffffffffffffffffffffffffffffffff168152602001908152602001600020600082825403925050819055505b600073ffffffffffffffffffffffffffffffffffffffff168573ffffffffffffffffffffffffffffffffffffffff1614611b88576001600360008773ffffffffffffffffffffffffffffffffffffffff1673ffffffffffffffffffffffffffffffffffffffff168152602001908152602001600020600082825401925050819055505b846002600086815260200190815260200160002060006101000a81548173ffffffffffffffffffffffffffffffffffffffff021916908373ffffffffffffffffffffffffffffffffffffffff160217905550838573ffffffffffffffffffffffffffffffffffffffff168273ffffffffffffffffffffffffffffffffffffffff167fddf252ad1be2c89b69c2b068fc378daa952ba7f163c4a11628f55a4df523b3ef60405160405180910390a4809150509392505050565b611c5a8282604051806020016040528060008152506124d6565b5050565b80600660008481526020019081526020016000209081611c7e9190613953565b507ff8e1a15aba9398e019f0b49df1a4fde98ee17ae345cb5f6b5e2c27f5033e8ce782604051611cae91906131e4565b60405180910390a15050565b60008073ffffffffffffffffffffffffffffffffffffffff16611cdc83612210565b73ffffffffffffffffffffffffffffffffffffffff1614159050919050565b600073ffffffffffffffffffffffffffffffffffffffff168273ffffffffffffffffffffffffffffffffffffffff1603611d6c57816040517f5b08ba18000000000000000000000000000000000000000000000000000000008152600401611d639190612c37565b60405180910390fd5b80600560008573ffffffffffffffffffffffffffffffffffffffff1673ffffffffffffffffffffffffffffffffffffffff16815260200190815260200160002060008473ffffffffffffffffffffffffffffffffffffffff1673ffffffffffffffffffffffffffffffffffffffff16815260200190815260200160002060006101000a81548160ff0219169083151502179055508173ffffffffffffffffffffffffffffffffffffffff168373ffffffffffffffffffffffffffffffffffffffff167f17307eab39ab6107e8899845ad3d59bd9653f200f220920489ca2b5937696c3183604051611e5d9190612ac6565b60405180910390a3505050565b60008373ffffffffffffffffffffffffffffffffffffffff163b1115612014578273ffffffffffffffffffffffffffffffffffffffff1663150b7a02868685856040518563ffffffff1660e01b8152600401611ec99493929190613cad565b6020604051808303816000875af1925050508015611f0557506040513d601f19601f82011682018060405250810190611f029190613d0e565b60015b611f89573d8060008114611f35576040519150601f19603f3d011682016040523d82523d6000602084013e611f3a565b606091505b506000815103611f8157836040517f64a0ae92000000000000000000000000000000000000000000000000000000008152600401611f789190612c37565b60405180910390fd5b805181602001fd5b63150b7a0260e01b7bffffffffffffffffffffffffffffffffffffffffffffffffffffffff1916817bffffffffffffffffffffffffffffffffffffffffffffffffffffffff19161461201257836040517f64a0ae920000000000000000000000000000000000000000000000000000000081526004016120099190612c37565b60405180910390fd5b505b5050505050565b60606120268261171f565b5060006006600084815260200190815260200160002080546120479061355a565b80601f01602080910402602001604051908101604052809291908181526020018280546120739061355a565b80156120c05780601f10612095576101008083540402835291602001916120c0565b820191906000526020600020905b8154815290600101906020018083116120a357829003601f168201915b5050505050905060006120d16124fa565b905060008151036120e6578192505050612129565b60008251111561211b578082604051602001612103929190613d3b565b60405160208183030381529060405292505050612129565b61212484612511565b925050505b919050565b60007f80ac58cd000000000000000000000000000000000000000000000000000000007bffffffffffffffffffffffffffffffffffffffffffffffffffffffff1916827bffffffffffffffffffffffffffffffffffffffffffffffffffffffff191614806121f957507f5b5e139f000000000000000000000000000000000000000000000000000000007bffffffffffffffffffffffffffffffffffffffffffffffffffffffff1916827bffffffffffffffffffffffffffffffffffffffffffffffffffffffff1916145b8061220957506122088261257a565b5b9050919050565b60006002600083815260200190815260200160002060009054906101000a900473ffffffffffffffffffffffffffffffffffffffff169050919050565b80806122865750600073ffffffffffffffffffffffffffffffffffffffff168273ffffffffffffffffffffffffffffffffffffffff1614155b156123ba5760006122968461171f565b9050600073ffffffffffffffffffffffffffffffffffffffff168373ffffffffffffffffffffffffffffffffffffffff161415801561230157508273ffffffffffffffffffffffffffffffffffffffff168173ffffffffffffffffffffffffffffffffffffffff1614155b801561231457506123128184611410565b155b1561235657826040517fa9fbf51f00000000000000000000000000000000000000000000000000000000815260040161234d9190612c37565b60405180910390fd5b81156123b857838573ffffffffffffffffffffffffffffffffffffffff168273ffffffffffffffffffffffffffffffffffffffff167f8c5be1e5ebec7d5bd14f71427d1e84f3dd0314c0f7b2291e5b200ac8c7c3b92560405160405180910390a45b505b836004600085815260200190815260200160002060006101000a81548173ffffffffffffffffffffffffffffffffffffffff021916908373ffffffffffffffffffffffffffffffffffffffff16021790555050505050565b61241d8383836125e4565b6124d157600073ffffffffffffffffffffffffffffffffffffffff168373ffffffffffffffffffffffffffffffffffffffff160361249257806040517f7e27328900000000000000000000000000000000000000000000000000000000815260040161248991906131e4565b60405180910390fd5b81816040517f177e802f0000000000000000000000000000000000000000000000000000000081526004016124c8929190613d5f565b60405180910390fd5b505050565b6124e083836126a5565b6124f56124eb6117e4565b6000858585611e6a565b505050565b606060405180602001604052806000815250905090565b606061251c8261171f565b5060006125276124fa565b905060008151116125475760405180602001604052806000815250612572565b806125518461279e565b604051602001612562929190613d3b565b6040516020818303038152906040525b915050919050565b60007f01ffc9a7000000000000000000000000000000000000000000000000000000007bffffffffffffffffffffffffffffffffffffffffffffffffffffffff1916827bffffffffffffffffffffffffffffffffffffffffffffffffffffffff1916149050919050565b60008073ffffffffffffffffffffffffffffffffffffffff168373ffffffffffffffffffffffffffffffffffffffff161415801561269c57508273ffffffffffffffffffffffffffffffffffffffff168473ffffffffffffffffffffffffffffffffffffffff16148061265d575061265c8484611410565b5b8061269b57508273ffffffffffffffffffffffffffffffffffffffff16612683836117a7565b73ffffffffffffffffffffffffffffffffffffffff16145b5b90509392505050565b600073ffffffffffffffffffffffffffffffffffffffff168273ffffffffffffffffffffffffffffffffffffffff16036127175760006040517f64a0ae9200000000000000000000000000000000000000000000000000000000815260040161270e9190612c37565b60405180910390fd5b600061272583836000611a26565b9050600073ffffffffffffffffffffffffffffffffffffffff168173ffffffffffffffffffffffffffffffffffffffff16146127995760006040517f73c6ac6e0000000000000000000000000000000000000000000000000000000081526004016127909190612c37565b60405180910390fd5b505050565b6060600060016127ad8461286c565b01905060008167ffffffffffffffff8111156127cc576127cb612fbf565b5b6040519080825280601f01601f1916602001820160405280156127fe5781602001600182028036833780820191505090505b509050600082602001820190505b600115612861578080600190039150507f3031323334353637383961626364656600000000000000000000000000000000600a86061a8153600a858161285557612854613d88565b5b0494506000850361280c575b819350505050919050565b600080600090507a184f03e93ff9f4daa797ed6e38ed64bf6a1f01000000000000000083106128ca577a184f03e93ff9f4daa797ed6e38ed64bf6a1f01000000000000000083816128c0576128bf613d88565b5b0492506040810190505b6d04ee2d6d415b85acef81000000008310612907576d04ee2d6d415b85acef810000000083816128fd576128fc613d88565b5b0492506020810190505b662386f26fc10000831061293657662386f26fc10000838161292c5761292b613d88565b5b0492506010810190505b6305f5e100831061295f576305f5e100838161295557612954613d88565b5b0492506008810190505b612710831061298457612710838161297a57612979613d88565b5b0492506004810190505b606483106129a7576064838161299d5761299c613d88565b5b0492506002810190505b600a83106129b6576001810190505b80915050919050565b6040518060e0016040528060008152602001600073ffffffffffffffffffffffffffffffffffffffff16815260200160608152602001606081526020016000815260200160608152602001606081525090565b6000604051905090565b600080fd5b600080fd5b60007fffffffff0000000000000000000000000000000000000000000000000000000082169050919050565b612a5b81612a26565b8114612a6657600080fd5b50565b600081359050612a7881612a52565b92915050565b600060208284031215612a9457612a93612a1c565b5b6000612aa284828501612a69565b91505092915050565b60008115159050919050565b612ac081612aab565b82525050565b6000602082019050612adb6000830184612ab7565b92915050565b600081519050919050565b600082825260208201905092915050565b60005b83811015612b1b578082015181840152602081019050612b00565b60008484015250505050565b6000601f19601f8301169050919050565b6000612b4382612ae1565b612b4d8185612aec565b9350612b5d818560208601612afd565b612b6681612b27565b840191505092915050565b60006020820190508181036000830152612b8b8184612b38565b905092915050565b6000819050919050565b612ba681612b93565b8114612bb157600080fd5b50565b600081359050612bc381612b9d565b92915050565b600060208284031215612bdf57612bde612a1c565b5b6000612bed84828501612bb4565b91505092915050565b600073ffffffffffffffffffffffffffffffffffffffff82169050919050565b6000612c2182612bf6565b9050919050565b612c3181612c16565b82525050565b6000602082019050612c4c6000830184612c28565b92915050565b612c5b81612c16565b8114612c6657600080fd5b50565b600081359050612c7881612c52565b92915050565b60008060408385031215612c9557612c94612a1c565b5b6000612ca385828601612c69565b9250506020612cb485828601612bb4565b9150509250929050565b600060208284031215612cd457612cd3612a1c565b5b6000612ce284828501612c69565b91505092915050565b600081519050919050565b600082825260208201905092915050565b6000819050602082019050919050565b612d2081612b93565b82525050565b612d2f81612c16565b82525050565b600082825260208201905092915050565b6000612d5182612ae1565b612d5b8185612d35565b9350612d6b818560208601612afd565b612d7481612b27565b840191505092915050565b600060e083016000830151612d976000860182612d17565b506020830151612daa6020860182612d26565b5060408301518482036040860152612dc28282612d46565b91505060608301518482036060860152612ddc8282612d46565b9150506080830151612df16080860182612d17565b5060a083015184820360a0860152612e098282612d46565b91505060c083015184820360c0860152612e238282612d46565b9150508091505092915050565b6000612e3c8383612d7f565b905092915050565b6000602082019050919050565b6000612e5c82612ceb565b612e668185612cf6565b935083602082028501612e7885612d07565b8060005b85811015612eb45784840389528151612e958582612e30565b9450612ea083612e44565b925060208a01995050600181019050612e7c565b50829750879550505050505092915050565b60006020820190508181036000830152612ee08184612e51565b905092915050565b6000819050919050565b6000612f0d612f08612f0384612bf6565b612ee8565b612bf6565b9050919050565b6000612f1f82612ef2565b9050919050565b6000612f3182612f14565b9050919050565b612f4181612f26565b82525050565b6000602082019050612f5c6000830184612f38565b92915050565b600080600060608486031215612f7b57612f7a612a1c565b5b6000612f8986828701612c69565b9350506020612f9a86828701612c69565b9250506040612fab86828701612bb4565b9150509250925092565b600080fd5b600080fd5b7f4e487b7100000000000000000000000000000000000000000000000000000000600052604160045260246000fd5b612ff782612b27565b810181811067ffffffffffffffff8211171561301657613015612fbf565b5b80604052505050565b6000613029612a12565b90506130358282612fee565b919050565b600067ffffffffffffffff82111561305557613054612fbf565b5b61305e82612b27565b9050602081019050919050565b82818337600083830152505050565b600061308d6130888461303a565b61301f565b9050828152602081018484840111156130a9576130a8612fba565b5b6130b484828561306b565b509392505050565b600082601f8301126130d1576130d0612fb5565b5b81356130e184826020860161307a565b91505092915050565b600080600080600060a0868803121561310657613105612a1c565b5b600061311488828901612c69565b955050602086013567ffffffffffffffff81111561313557613134612a21565b5b613141888289016130bc565b945050604086013567ffffffffffffffff81111561316257613161612a21565b5b61316e888289016130bc565b935050606086013567ffffffffffffffff81111561318f5761318e612a21565b5b61319b888289016130bc565b925050608086013567ffffffffffffffff8111156131bc576131bb612a21565b5b6131c8888289016130bc565b9150509295509295909350565b6131de81612b93565b82525050565b60006020820190506131f960008301846131d5565b92915050565b60006020828403121561321557613214612a1c565b5b600082013567ffffffffffffffff81111561323357613232612a21565b5b61323f848285016130bc565b91505092915050565b600060e0830160008301516132606000860182612d17565b5060208301516132736020860182612d26565b506040830151848203604086015261328b8282612d46565b915050606083015184820360608601526132a58282612d46565b91505060808301516132ba6080860182612d17565b5060a083015184820360a08601526132d28282612d46565b91505060c083015184820360c08601526132ec8282612d46565b9150508091505092915050565b600060208201905081810360008301526133138184613248565b905092915050565b61332481612aab565b811461332f57600080fd5b50565b6000813590506133418161331b565b92915050565b6000806040838503121561335e5761335d612a1c565b5b600061336c85828601612c69565b925050602061337d85828601613332565b9150509250929050565b600067ffffffffffffffff8211156133a2576133a1612fbf565b5b6133ab82612b27565b9050602081019050919050565b60006133cb6133c684613387565b61301f565b9050828152602081018484840111156133e7576133e6612fba565b5b6133f284828561306b565b509392505050565b600082601f83011261340f5761340e612fb5565b5b813561341f8482602086016133b8565b91505092915050565b6000806000806080858703121561344257613441612a1c565b5b600061345087828801612c69565b945050602061346187828801612c69565b935050604061347287828801612bb4565b925050606085013567ffffffffffffffff81111561349357613492612a21565b5b61349f878288016133fa565b91505092959194509250565b600080604083850312156134c2576134c1612a1c565b5b60006134d085828601612c69565b92505060206134e185828601612c69565b9150509250929050565b6000806040838503121561350257613501612a1c565b5b600061351085828601612bb4565b925050602061352185828601613332565b9150509250929050565b7f4e487b7100000000000000000000000000000000000000000000000000000000600052602260045260246000fd5b6000600282049050600182168061357257607f821691505b6020821081036135855761358461352b565b5b50919050565b7f4e487b7100000000000000000000000000000000000000000000000000000000600052603260045260246000fd5b7f4e487b7100000000000000000000000000000000000000000000000000000000600052601160045260246000fd5b60006135f482612b93565b91507fffffffffffffffffffffffffffffffffffffffffffffffffffffffffffffffff8203613626576136256135ba565b5b600182019050919050565b60006060820190506136466000830186612c28565b61365360208301856131d5565b6136606040830184612c28565b949350505050565b6000819050919050565b61367b81613668565b811461368657600080fd5b50565b60008151905061369881613672565b92915050565b6000602082840312156136b4576136b3612a1c565b5b60006136c284828501613689565b91505092915050565b6136d481613668565b82525050565b60006040820190506136ef60008301856136cb565b6136fc6020830184612c28565b9392505050565b6000815190506137128161331b565b92915050565b60006020828403121561372e5761372d612a1c565b5b600061373c84828501613703565b91505092915050565b7f556e617574686f72697a656420726f6c65000000000000000000000000000000600082015250565b600061377b601183612aec565b915061378682613745565b602082019050919050565b600060208201905081810360008301526137aa8161376e565b9050919050565b60008190508160005260206000209050919050565b60006020601f8301049050919050565b600082821b905092915050565b6000600883026138137fffffffffffffffffffffffffffffffffffffffffffffffffffffffffffffffff826137d6565b61381d86836137d6565b95508019841693508086168417925050509392505050565b600061385061384b61384684612b93565b612ee8565b612b93565b9050919050565b6000819050919050565b61386a83613835565b61387e61387682613857565b8484546137e3565b825550505050565b600090565b613893613886565b61389e818484613861565b505050565b5b818110156138c2576138b760008261388b565b6001810190506138a4565b5050565b601f821115613907576138d8816137b1565b6138e1846137c6565b810160208510156138f0578190505b6139046138fc856137c6565b8301826138a3565b50505b505050565b600082821c905092915050565b600061392a6000198460080261390c565b1980831691505092915050565b60006139438383613919565b9150826002028217905092915050565b61395c82612ae1565b67ffffffffffffffff81111561397557613974612fbf565b5b61397f825461355a565b61398a8282856138c6565b600060209050601f8311600181146139bd57600084156139ab578287015190505b6139b58582613937565b865550613a1d565b601f1984166139cb866137b1565b60005b828110156139f3578489015182556001820191506020850194506020810190506139ce565b86831015613a105784890151613a0c601f891682613919565b8355505b6001600288020188555050505b505050505050565b600081905092915050565b6000613a3b82612ae1565b613a458185613a25565b9350613a55818560208601612afd565b80840191505092915050565b6000613a6d8284613a30565b915081905092915050565b60006040820190508181036000830152613a928185612b38565b9050613aa160208301846131d5565b9392505050565b7f496e76616c696420616464726573730000000000000000000000000000000000600082015250565b6000613ade600f83612aec565b9150613ae982613aa8565b602082019050919050565b60006020820190508181036000830152613b0d81613ad1565b9050919050565b7f4e6f74206120636f6e7472616374000000000000000000000000000000000000600082015250565b6000613b4a600e83612aec565b9150613b5582613b14565b602082019050919050565b60006020820190508181036000830152613b7981613b3d565b9050919050565b7f496e76616c696420746f6b656e20494400000000000000000000000000000000600082015250565b6000613bb6601083612aec565b9150613bc182613b80565b602082019050919050565b60006020820190508181036000830152613be581613ba9565b9050919050565b7f556e617574686f72697a656420636f6e74726163740000000000000000000000600082015250565b6000613c22601583612aec565b9150613c2d82613bec565b602082019050919050565b60006020820190508181036000830152613c5181613c15565b9050919050565b600081519050919050565b600082825260208201905092915050565b6000613c7f82613c58565b613c898185613c63565b9350613c99818560208601612afd565b613ca281612b27565b840191505092915050565b6000608082019050613cc26000830187612c28565b613ccf6020830186612c28565b613cdc60408301856131d5565b8181036060830152613cee8184613c74565b905095945050505050565b600081519050613d0881612a52565b92915050565b600060208284031215613d2457613d23612a1c565b5b6000613d3284828501613cf9565b91505092915050565b6000613d478285613a30565b9150613d538284613a30565b91508190509392505050565b6000604082019050613d746000830185612c28565b613d8160208301846131d5565b9392505050565b7f4e487b7100000000000000000000000000000000000000000000000000000000600052601260045260246000fdfea2646970667358221220acfbee6d49ef565fa64f6aa620bd8d9d45d4483188645666c9559ca322a32f7a64736f6c63430008140033",
  "linkReferences": {},
  "deployedLinkReferences": {}
}