{
  "_format": "hh-sol-artifact-1",
  "contractName": "IoTDataAccessControl",
  "sourceName": "contracts/IoTDataAccessControl.sol",
  "abi": [
    {
      "inputs": [],
      "stateMutability": "nonpayable",
      "type": "constructor"
    },
    {
      "inputs": [],
      "name": "AccessControlBadConfirmation",
      "type": "error"
    },
    {
      "inputs": [
        {
          "internalType": "address",
          "name": "account",
          "type": "address"
        },
        {
          "internalType": "bytes32",
          "name": "neededRole",
          "type": "bytes32"
        }
      ],
      "name": "AccessControlUnauthorizedAccount",
      "type": "error"
    },
    {
      "anonymous": false,
      "inputs": [
        {
          "indexed": true,
          "internalType": "bytes32",
          "name": "role",
          "type": "bytes32"
        },
        {
          "indexed": true,
          "internalType": "bytes32",
          "name": "previousAdminRole",
          "type": "bytes32"
        },
        {
          "indexed": true,
          "internalType": "bytes32",
          "name": "newAdminRole",
          "type": "bytes32"
        }
      ],
      "name": "RoleAdminChanged",
      "type": "event"
    },
    {
      "anonymous": false,
      "inputs": [
        {
          "indexed": true,
          "internalType": "bytes32",
          "name": "role",
          "type": "bytes32"
        },
        {
          "indexed": true,
          "internalType": "address",
          "name": "account",
          "type": "address"
        },
        {
          "indexed": true,
          "internalType": "address",
          "name": "sender",
          "type": "address"
        }
      ],
      "name": "RoleGranted",
      "type": "event"
    },
    {
      "anonymous": false,
      "inputs": [
        {
          "indexed": true,
          "internalType": "bytes32",
          "name": "role",
          "type": "bytes32"
        },
        {
          "indexed": true,
          "internalType": "address",
          "name": "account",
          "type": "address"
        }
      ],
      "name": "RoleGranted",
      "type": "event"
    },
    {
      "anonymous": false,
      "inputs": [
        {
          "indexed": true,
          "internalType": "bytes32",
          "name": "role",
          "type": "bytes32"
        },
        {
          "indexed": true,
          "internalType": "address",
          "name": "account",
          "type": "address"
        },
        {
          "indexed": true,
          "internalType": "address",
          "name": "sender",
          "type": "address"
        }
      ],
      "name": "RoleRevoked",
      "type": "event"
    },
    {
      "anonymous": false,
      "inputs": [
        {
          "indexed": true,
          "internalType": "bytes32",
          "name": "role",
          "type": "bytes32"
        },
        {
          "indexed": true,
          "internalType": "address",
          "name": "account",
          "type": "address"
        }
      ],
      "name": "RoleRevoked",
      "type": "event"
    },
    {
      "inputs": [],
      "name": "DATA_BUYER_ROLE",
      "outputs": [
        {
          "internalType": "bytes32",
          "name": "",
          "type": "bytes32"
        }
      ],
      "stateMutability": "view",
      "type": "function"
    },
    {
      "inputs": [],
      "name": "DEFAULT_ADMIN_ROLE",
      "outputs": [
        {
          "internalType": "bytes32",
          "name": "",
          "type": "bytes32"
        }
      ],
      "stateMutability": "view",
      "type": "function"
    },
    {
      "inputs": [],
      "name": "DEVICE_ROLE",
      "outputs": [
        {
          "internalType": "bytes32",
          "name": "",
          "type": "bytes32"
        }
      ],
      "stateMutability": "view",
      "type": "function"
    },
    {
      "inputs": [],
      "name": "MINTER_ROLE",
      "outputs": [
        {
          "internalType": "bytes32",
          "name": "",
          "type": "bytes32"
        }
      ],
      "stateMutability": "view",
      "type": "function"
    },
    {
      "inputs": [],
      "name": "VERIFIER_ROLE",
      "outputs": [
        {
          "internalType": "bytes32",
          "name": "",
          "type": "bytes32"
        }
      ],
      "stateMutability": "view",
      "type": "function"
    },
    {
      "inputs": [],
      "name": "getAllBuyers",
      "outputs": [
        {
          "internalType": "address[]",
          "name": "",
          "type": "address[]"
        }
      ],
      "stateMutability": "view",
      "type": "function"
    },
    {
      "inputs": [],
      "name": "getAllDevices",
      "outputs": [
        {
          "internalType": "address[]",
          "name": "",
          "type": "address[]"
        }
      ],
      "stateMutability": "view",
      "type": "function"
    },
    {
      "inputs": [],
      "name": "getAllVerifiers",
      "outputs": [
        {
          "internalType": "address[]",
          "name": "",
          "type": "address[]"
        }
      ],
      "stateMutability": "view",
      "type": "function"
    },
    {
      "inputs": [
        {
          "internalType": "bytes32",
          "name": "role",
          "type": "bytes32"
        }
      ],
      "name": "getRoleAdmin",
      "outputs": [
        {
          "internalType": "bytes32",
          "name": "",
          "type": "bytes32"
        }
      ],
      "stateMutability": "view",
      "type": "function"
    },
    {
      "inputs": [
        {
          "internalType": "address",
          "name": "account",
          "type": "address"
        }
      ],
      "name": "grantDataBuyerRole",
      "outputs": [],
      "stateMutability": "nonpayable",
      "type": "function"
    },
    {
      "inputs": [
        {
          "internalType": "address",
          "name": "account",
          "type": "address"
        }
      ],
      "name": "grantDeviceRole",
      "outputs": [],
      "stateMutability": "nonpayable",
      "type": "function"
    },
    {
      "inputs": [
        {
          "internalType": "address",
          "name": "account",
          "type": "address"
        }
      ],
      "name": "grantMinterRole",
      "outputs": [],
      "stateMutability": "nonpayable",
      "type": "function"
    },
    {
      "inputs": [
        {
          "internalType": "bytes32",
          "name": "role",
          "type": "bytes32"
        },
        {
          "internalType": "address",
          "name": "account",
          "type": "address"
        }
      ],
      "name": "grantRole",
      "outputs": [],
      "stateMutability": "nonpayable",
      "type": "function"
    },
    {
      "inputs": [
        {
          "internalType": "address",
          "name": "account",
          "type": "address"
        }
      ],
      "name": "grantVerifierRole",
      "outputs": [],
      "stateMutability": "nonpayable",
      "type": "function"
    },
    {
      "inputs": [
        {
          "internalType": "bytes32",
          "name": "role",
          "type": "bytes32"
        },
        {
          "internalType": "address",
          "name": "account",
          "type": "address"
        }
      ],
      "name": "hasRole",
      "outputs": [
        {
          "internalType": "bool",
          "name": "",
          "type": "bool"
        }
      ],
      "stateMutability": "view",
      "type": "function"
    },
    {
      "inputs": [
        {
          "internalType": "address",
          "name": "account",
          "type": "address"
        }
      ],
      "name": "isDataBuyer",
      "outputs": [
        {
          "internalType": "bool",
          "name": "",
          "type": "bool"
        }
      ],
      "stateMutability": "view",
      "type": "function"
    },
    {
      "inputs": [
        {
          "internalType": "address",
          "name": "account",
          "type": "address"
        }
      ],
      "name": "isDevice",
      "outputs": [
        {
          "internalType": "bool",
          "name": "",
          "type": "bool"
        }
      ],
      "stateMutability": "view",
      "type": "function"
    },
    {
      "inputs": [
        {
          "internalType": "address",
          "name": "account",
          "type": "address"
        }
      ],
      "name": "isVerifier",
      "outputs": [
        {
          "internalType": "bool",
          "name": "",
          "type": "bool"
        }
      ],
      "stateMutability": "view",
      "type": "function"
    },
    {
      "inputs": [
        {
          "internalType": "bytes32",
          "name": "role",
          "type": "bytes32"
        },
        {
          "internalType": "address",
          "name": "callerConfirmation",
          "type": "address"
        }
      ],
      "name": "renounceRole",
      "outputs": [],
      "stateMutability": "nonpayable",
      "type": "function"
    },
    {
      "inputs": [
        {
          "internalType": "address",
          "name": "account",
          "type": "address"
        }
      ],
      "name": "revokeBuyerRole",
      "outputs": [],
      "stateMutability": "nonpayable",
      "type": "function"
    },
    {
      "inputs": [
        {
          "internalType": "address",
          "name": "account",
          "type": "address"
        }
      ],
      "name": "revokeDeviceRole",
      "outputs": [],
      "stateMutability": "nonpayable",
      "type": "function"
    },
    {
      "inputs": [
        {
          "internalType": "address",
          "name": "account",
          "type": "address"
        }
      ],
      "name": "revokeMinterRole",
      "outputs": [],
      "stateMutability": "nonpayable",
      "type": "function"
    },
    {
      "inputs": [
        {
          "internalType": "bytes32",
          "name": "role",
          "type": "bytes32"
        },
        {
          "internalType": "address",
          "name": "account",
          "type": "address"
        }
      ],
      "name": "revokeRole",
      "outputs": [],
      "stateMutability": "nonpayable",
      "type": "function"
    },
    {
      "inputs": [
        {
          "internalType": "address",
          "name": "account",
          "type": "address"
        }
      ],
      "name": "revokeVerifierRole",
      "outputs": [],
      "stateMutability": "nonpayable",
      "type": "function"
    },
    {
      "inputs": [
        {
          "internalType": "bytes4",
          "name": "interfaceId",
          "type": "bytes4"
        }
      ],
      "name": "supportsInterface",
      "outputs": [
        {
          "internalType": "bool",
          "name": "",
          "type": "bool"
        }
      ],
      "stateMutability": "view",
      "type": "function"
    }
  ],
  "bytecode": "0x60806040523480156200001157600080fd5b50620000276000801b336200002e60201b60201c565b50620001a3565b60006200004283836200013160201b60201c565b6200012657600160008085815260200190815260200160002060000160008473ffffffffffffffffffffffffffffffffffffffff1673ffffffffffffffffffffffffffffffffffffffff16815260200190815260200160002060006101000a81548160ff021916908315150217905550620000c26200019b60201b60201c565b73ffffffffffffffffffffffffffffffffffffffff168273ffffffffffffffffffffffffffffffffffffffff16847f2f8788117e7eff1d82e926ec794901d17c78024a50270940304540a733656f0d60405160405180910390a4600190506200012b565b600090505b92915050565b600080600084815260200190815260200160002060000160008373ffffffffffffffffffffffffffffffffffffffff1673ffffffffffffffffffffffffffffffffffffffff16815260200190815260200160002060009054906101000a900460ff16905092915050565b600033905090565b6119aa80620001b36000396000f3fe608060405234801561001057600080fd5b50600436106101735760003560e01c806386cba22b116100de578063c06e8e4011610097578063e7705db611610071578063e7705db614610434578063e803c69c14610452578063f4cee6e514610482578063fb250e1a146104a057610173565b8063c06e8e40146103de578063d5391393146103fa578063d547741f1461041857610173565b806386cba22b1461031a57806391d1485414610338578063a217fddf14610368578063a3669aef14610386578063af8d1555146103a2578063b0e26d70146103c057610173565b806336568abe1161013057806336568abe1461025c5780633dd1eb6114610278578063526fc6c61461029457806369e2f0fb146102b05780636dc7a35f146102cc5780637a2a530d146102fc57610173565b806301ffc9a7146101785780630337c061146101a85780631881ec4d146101c4578063248a9ca3146101e05780632f2ff15d14610210578063331052181461022c575b600080fd5b610192600480360381019061018d919061158e565b6104bc565b60405161019f91906115d6565b60405180910390f35b6101c260048036038101906101bd919061164f565b610536565b005b6101de60048036038101906101d9919061164f565b6105e1565b005b6101fa60048036038101906101f591906116b2565b61068c565b60405161020791906116ee565b60405180910390f35b61022a60048036038101906102259190611709565b6106ab565b005b6102466004803603810190610241919061164f565b6106cd565b60405161025391906115d6565b60405180910390f35b61027660048036038101906102719190611709565b610726565b005b610292600480360381019061028d919061164f565b6107a1565b005b6102ae60048036038101906102a9919061164f565b610841565b005b6102ca60048036038101906102c5919061164f565b6108ec565b005b6102e660048036038101906102e1919061164f565b61098c565b6040516102f391906115d6565b60405180910390f35b6103046109e4565b6040516103119190611807565b60405180910390f35b610322610a75565b60405161032f9190611807565b60405180910390f35b610352600480360381019061034d9190611709565b610b06565b60405161035f91906115d6565b60405180910390f35b610370610b70565b60405161037d91906116ee565b60405180910390f35b6103a0600480360381019061039b919061164f565b610b77565b005b6103aa610c22565b6040516103b79190611807565b60405180910390f35b6103c8610cb3565b6040516103d591906116ee565b60405180910390f35b6103f860048036038101906103f3919061164f565b610cd7565b005b610402610d82565b60405161040f91906116ee565b60405180910390f35b610432600480360381019061042d9190611709565b610da6565b005b61043c610dc8565b60405161044991906116ee565b60405180910390f35b61046c6004803603810190610467919061164f565b610dec565b60405161047991906115d6565b60405180910390f35b61048a610e45565b60405161049791906116ee565b60405180910390f35b6104ba60048036038101906104b5919061164f565b610e69565b005b60007f7965db0b000000000000000000000000000000000000000000000000000000007bffffffffffffffffffffffffffffffffffffffffffffffffffffffff1916827bffffffffffffffffffffffffffffffffffffffffffffffffffffffff1916148061052f575061052e82610f14565b5b9050919050565b6000801b61054381610f7e565b61056d7f0ce23c3e399818cfee81a7ab0880f714e53d7672b08df0fa62f2843416e1ea0983610f92565b50610579600383611083565b8173ffffffffffffffffffffffffffffffffffffffff167f0ce23c3e399818cfee81a7ab0880f714e53d7672b08df0fa62f2843416e1ea097f2ae6a113c0ed5b78a53413ffbb7679881f11145ccfba4fb92e863dfcd5a1d2f360405160405180910390a35050565b6000801b6105ee81610f7e565b6106187f157d8338a9fc98763dff361a414c1db7b7b15f2381f42f06f0503270d3c148b58361119a565b5061062460058361128c565b8173ffffffffffffffffffffffffffffffffffffffff167f157d8338a9fc98763dff361a414c1db7b7b15f2381f42f06f0503270d3c148b57f155aaafb6329a2098580462df33ec4b7441b19729b9601c5fc17ae1cf99a8a5260405160405180910390a35050565b6000806000838152602001908152602001600020600101549050919050565b6106b48261068c565b6106bd81610f7e565b6106c78383610f92565b50505050565b6000600360010160008373ffffffffffffffffffffffffffffffffffffffff1673ffffffffffffffffffffffffffffffffffffffff16815260200190815260200160002060009054906101000a900460ff169050919050565b61072e6114d8565b73ffffffffffffffffffffffffffffffffffffffff168173ffffffffffffffffffffffffffffffffffffffff1614610792576040517f6697b23200000000000000000000000000000000000000000000000000000000815260040160405180910390fd5b61079c828261119a565b505050565b6000801b6107ae81610f7e565b6107d87f9f2df0fed2c77648de5860a4cc508cd0818c85b8b8a1ab4ceeef8d981c8956a683610f92565b508173ffffffffffffffffffffffffffffffffffffffff167f9f2df0fed2c77648de5860a4cc508cd0818c85b8b8a1ab4ceeef8d981c8956a67f2ae6a113c0ed5b78a53413ffbb7679881f11145ccfba4fb92e863dfcd5a1d2f360405160405180910390a35050565b6000801b61084e81610f7e565b6108787f157d8338a9fc98763dff361a414c1db7b7b15f2381f42f06f0503270d3c148b583610f92565b50610884600583611083565b8173ffffffffffffffffffffffffffffffffffffffff167f157d8338a9fc98763dff361a414c1db7b7b15f2381f42f06f0503270d3c148b57f2ae6a113c0ed5b78a53413ffbb7679881f11145ccfba4fb92e863dfcd5a1d2f360405160405180910390a35050565b6000801b6108f981610f7e565b6109237f9f2df0fed2c77648de5860a4cc508cd0818c85b8b8a1ab4ceeef8d981c8956a68361119a565b508173ffffffffffffffffffffffffffffffffffffffff167f9f2df0fed2c77648de5860a4cc508cd0818c85b8b8a1ab4ceeef8d981c8956a67f155aaafb6329a2098580462df33ec4b7441b19729b9601c5fc17ae1cf99a8a5260405160405180910390a35050565b60006001800160008373ffffffffffffffffffffffffffffffffffffffff1673ffffffffffffffffffffffffffffffffffffffff16815260200190815260200160002060009054906101000a900460ff169050919050565b60606001600001805480602002602001604051908101604052809291908181526020018280548015610a6b57602002820191906000526020600020905b8160009054906101000a900473ffffffffffffffffffffffffffffffffffffffff1673ffffffffffffffffffffffffffffffffffffffff1681526020019060010190808311610a21575b5050505050905090565b60606005600001805480602002602001604051908101604052809291908181526020018280548015610afc57602002820191906000526020600020905b8160009054906101000a900473ffffffffffffffffffffffffffffffffffffffff1673ffffffffffffffffffffffffffffffffffffffff1681526020019060010190808311610ab2575b5050505050905090565b600080600084815260200190815260200160002060000160008373ffffffffffffffffffffffffffffffffffffffff1673ffffffffffffffffffffffffffffffffffffffff16815260200190815260200160002060009054906101000a900460ff16905092915050565b6000801b81565b6000801b610b8481610f7e565b610bae7f0ce23c3e399818cfee81a7ab0880f714e53d7672b08df0fa62f2843416e1ea098361119a565b50610bba60038361128c565b8173ffffffffffffffffffffffffffffffffffffffff167f0ce23c3e399818cfee81a7ab0880f714e53d7672b08df0fa62f2843416e1ea097f155aaafb6329a2098580462df33ec4b7441b19729b9601c5fc17ae1cf99a8a5260405160405180910390a35050565b60606003600001805480602002602001604051908101604052809291908181526020018280548015610ca957602002820191906000526020600020905b8160009054906101000a900473ffffffffffffffffffffffffffffffffffffffff1673ffffffffffffffffffffffffffffffffffffffff1681526020019060010190808311610c5f575b5050505050905090565b7f48404ec5122cfef2c4b0b727fa211cfb1e815e1b19d5c56f7d3cc0c616120a2881565b6000801b610ce481610f7e565b610d0e7f48404ec5122cfef2c4b0b727fa211cfb1e815e1b19d5c56f7d3cc0c616120a288361119a565b50610d1a60018361128c565b8173ffffffffffffffffffffffffffffffffffffffff167f48404ec5122cfef2c4b0b727fa211cfb1e815e1b19d5c56f7d3cc0c616120a287f155aaafb6329a2098580462df33ec4b7441b19729b9601c5fc17ae1cf99a8a5260405160405180910390a35050565b7f9f2df0fed2c77648de5860a4cc508cd0818c85b8b8a1ab4ceeef8d981c8956a681565b610daf8261068c565b610db881610f7e565b610dc2838361119a565b50505050565b7f0ce23c3e399818cfee81a7ab0880f714e53d7672b08df0fa62f2843416e1ea0981565b6000600560010160008373ffffffffffffffffffffffffffffffffffffffff1673ffffffffffffffffffffffffffffffffffffffff16815260200190815260200160002060009054906101000a900460ff169050919050565b7f157d8338a9fc98763dff361a414c1db7b7b15f2381f42f06f0503270d3c148b581565b6000801b610e7681610f7e565b610ea07f48404ec5122cfef2c4b0b727fa211cfb1e815e1b19d5c56f7d3cc0c616120a2883610f92565b50610eac600183611083565b8173ffffffffffffffffffffffffffffffffffffffff167f48404ec5122cfef2c4b0b727fa211cfb1e815e1b19d5c56f7d3cc0c616120a287f2ae6a113c0ed5b78a53413ffbb7679881f11145ccfba4fb92e863dfcd5a1d2f360405160405180910390a35050565b60007f01ffc9a7000000000000000000000000000000000000000000000000000000007bffffffffffffffffffffffffffffffffffffffffffffffffffffffff1916827bffffffffffffffffffffffffffffffffffffffffffffffffffffffff1916149050919050565b610f8f81610f8a6114d8565b6114e0565b50565b6000610f9e8383610b06565b61107857600160008085815260200190815260200160002060000160008473ffffffffffffffffffffffffffffffffffffffff1673ffffffffffffffffffffffffffffffffffffffff16815260200190815260200160002060006101000a81548160ff0219169083151502179055506110156114d8565b73ffffffffffffffffffffffffffffffffffffffff168273ffffffffffffffffffffffffffffffffffffffff16847f2f8788117e7eff1d82e926ec794901d17c78024a50270940304540a733656f0d60405160405180910390a46001905061107d565b600090505b92915050565b8160010160008273ffffffffffffffffffffffffffffffffffffffff1673ffffffffffffffffffffffffffffffffffffffff16815260200190815260200160002060009054906101000a900460ff166111965781600001819080600181540180825580915050600190039060005260206000200160009091909190916101000a81548173ffffffffffffffffffffffffffffffffffffffff021916908373ffffffffffffffffffffffffffffffffffffffff16021790555060018260010160008373ffffffffffffffffffffffffffffffffffffffff1673ffffffffffffffffffffffffffffffffffffffff16815260200190815260200160002060006101000a81548160ff0219169083151502179055505b5050565b60006111a68383610b06565b1561128157600080600085815260200190815260200160002060000160008473ffffffffffffffffffffffffffffffffffffffff1673ffffffffffffffffffffffffffffffffffffffff16815260200190815260200160002060006101000a81548160ff02191690831515021790555061121e6114d8565b73ffffffffffffffffffffffffffffffffffffffff168273ffffffffffffffffffffffffffffffffffffffff16847ff6391f5c32d9c69d2a47ea670b442974b53935d1edc7fd64eb21e047a839171b60405160405180910390a460019050611286565b600090505b92915050565b8160010160008273ffffffffffffffffffffffffffffffffffffffff1673ffffffffffffffffffffffffffffffffffffffff16815260200190815260200160002060009054906101000a900460ff16156114d45760005b82600001805490508110156114d2578173ffffffffffffffffffffffffffffffffffffffff1683600001828154811061131f5761131e611829565b5b9060005260206000200160009054906101000a900473ffffffffffffffffffffffffffffffffffffffff1673ffffffffffffffffffffffffffffffffffffffff16036114bf57826000016001846000018054905061137d9190611891565b8154811061138e5761138d611829565b5b9060005260206000200160009054906101000a900473ffffffffffffffffffffffffffffffffffffffff168360000182815481106113cf576113ce611829565b5b9060005260206000200160006101000a81548173ffffffffffffffffffffffffffffffffffffffff021916908373ffffffffffffffffffffffffffffffffffffffff1602179055508260000180548061142b5761142a6118c5565b5b6001900381819060005260206000200160006101000a81549073ffffffffffffffffffffffffffffffffffffffff0219169055905560008360010160008473ffffffffffffffffffffffffffffffffffffffff1673ffffffffffffffffffffffffffffffffffffffff16815260200190815260200160002060006101000a81548160ff0219169083151502179055506114d2565b80806114ca906118f4565b9150506112e3565b505b5050565b600033905090565b6114ea8282610b06565b61152d5780826040517fe2517d3f00000000000000000000000000000000000000000000000000000000815260040161152492919061194b565b60405180910390fd5b5050565b600080fd5b60007fffffffff0000000000000000000000000000000000000000000000000000000082169050919050565b61156b81611536565b811461157657600080fd5b50565b60008135905061158881611562565b92915050565b6000602082840312156115a4576115a3611531565b5b60006115b284828501611579565b91505092915050565b60008115159050919050565b6115d0816115bb565b82525050565b60006020820190506115eb60008301846115c7565b92915050565b600073ffffffffffffffffffffffffffffffffffffffff82169050919050565b600061161c826115f1565b9050919050565b61162c81611611565b811461163757600080fd5b50565b60008135905061164981611623565b92915050565b60006020828403121561166557611664611531565b5b60006116738482850161163a565b91505092915050565b6000819050919050565b61168f8161167c565b811461169a57600080fd5b50565b6000813590506116ac81611686565b92915050565b6000602082840312156116c8576116c7611531565b5b60006116d68482850161169d565b91505092915050565b6116e88161167c565b82525050565b600060208201905061170360008301846116df565b92915050565b600080604083850312156117205761171f611531565b5b600061172e8582860161169d565b925050602061173f8582860161163a565b9150509250929050565b600081519050919050565b600082825260208201905092915050565b6000819050602082019050919050565b61177e81611611565b82525050565b60006117908383611775565b60208301905092915050565b6000602082019050919050565b60006117b482611749565b6117be8185611754565b93506117c983611765565b8060005b838110156117fa5781516117e18882611784565b97506117ec8361179c565b9250506001810190506117cd565b5085935050505092915050565b6000602082019050818103600083015261182181846117a9565b905092915050565b7f4e487b7100000000000000000000000000000000000000000000000000000000600052603260045260246000fd5b6000819050919050565b7f4e487b7100000000000000000000000000000000000000000000000000000000600052601160045260246000fd5b600061189c82611858565b91506118a783611858565b92508282039050818111156118bf576118be611862565b5b92915050565b7f4e487b7100000000000000000000000000000000000000000000000000000000600052603160045260246000fd5b60006118ff82611858565b91507fffffffffffffffffffffffffffffffffffffffffffffffffffffffffffffffff820361193157611930611862565b5b600182019050919050565b61194581611611565b82525050565b6000604082019050611960600083018561193c565b61196d60208301846116df565b939250505056fea2646970667358221220336f8d43b52bd6e48dfac9ad40e926bdb72b2693d8e190531a6eba70760ae3b564736f6c63430008140033",
  "linkReferences": {},
  "deployedLinkReferences": {}
}