{
  "_format": "hh-sol-artifact-1",
  "contractName": "IoTDataFactory",
  "sourceName": "contracts/IoTDataFactory.sol",
  "abi": [
    {
      "inputs": [
        {
          "internalType": "address",
          "name": "_nftAddress",
          "type": "address"
        },
        {
          "internalType": "address",
          "name": "_accessControlAddress",
          "type": "address"
        },
        {
          "internalType": "address",
          "name": "_verificationAddress",
          "type": "address"
        }
      ],
      "stateMutability": "nonpayable",
      "type": "constructor"
    },
    {
      "inputs": [
        {
          "internalType": "address",
          "name": "owner",
          "type": "address"
        }
      ],
      "name": "OwnableInvalidOwner",
      "type": "error"
    },
    {
      "inputs": [
        {
          "internalType": "address",
          "name": "account",
          "type": "address"
        }
      ],
      "name": "OwnableUnauthorizedAccount",
      "type": "error"
    },
    {
      "anonymous": false,
      "inputs": [
        {
          "indexed": true,
          "internalType": "uint256",
          "name": "tokenId",
          "type": "uint256"
        },
        {
          "indexed": true,
          "internalType": "string",
          "name": "dataType",
          "type": "string"
        },
        {
          "indexed": true,
          "internalType": "address",
          "name": "owner",
          "type": "address"
        }
      ],
      "name": "DataNFTGenerated",
      "type": "event"
    },
    {
      "anonymous": false,
      "inputs": [
        {
          "indexed": true,
          "internalType": "string",
          "name": "dataType",
          "type": "string"
        },
        {
          "indexed": false,
          "internalType": "string",
          "name": "metadataTemplate",
          "type": "string"
        },
        {
          "indexed": false,
          "internalType": "uint256",
          "name": "basePrice",
          "type": "uint256"
        }
      ],
      "name": "DataTemplateCreated",
      "type": "event"
    },
    {
      "anonymous": false,
      "inputs": [
        {
          "indexed": true,
          "internalType": "address",
          "name": "previousOwner",
          "type": "address"
        },
        {
          "indexed": true,
          "internalType": "address",
          "name": "newOwner",
          "type": "address"
        }
      ],
      "name": "OwnershipTransferred",
      "type": "event"
    },
    {
      "inputs": [],
      "name": "accessControl",
      "outputs": [
        {
          "internalType": "contract IoTDataAccessControl",
          "name": "",
          "type": "address"
        }
      ],
      "stateMutability": "view",
      "type": "function"
    },
    {
      "inputs": [
        {
          "internalType": "string",
          "name": "dataType",
          "type": "string"
        },
        {
          "internalType": "string",
          "name": "metadataTemplate",
          "type": "string"
        },
        {
          "internalType": "uint256",
          "name": "basePrice",
          "type": "uint256"
        }
      ],
      "name": "createTemplate",
      "outputs": [],
      "stateMutability": "nonpayable",
      "type": "function"
    },
    {
      "inputs": [
        {
          "internalType": "string",
          "name": "",
          "type": "string"
        }
      ],
      "name": "dataTemplates",
      "outputs": [
        {
          "internalType": "string",
          "name": "dataType",
          "type": "string"
        },
        {
          "internalType": "string",
          "name": "metadataTemplate",
          "type": "string"
        },
        {
          "internalType": "uint256",
          "name": "basePrice",
          "type": "uint256"
        }
      ],
      "stateMutability": "view",
      "type": "function"
    },
    {
      "inputs": [
        {
          "internalType": "string",
          "name": "deviceId",
          "type": "string"
        },
        {
          "internalType": "string",
          "name": "dataType",
          "type": "string"
        },
        {
          "internalType": "string",
          "name": "location",
          "type": "string"
        },
        {
          "internalType": "string",
          "name": "additionalMetadata",
          "type": "string"
        }
      ],
      "name": "generateDataNFT",
      "outputs": [
        {
          "internalType": "uint256",
          "name": "",
          "type": "uint256"
        }
      ],
      "stateMutability": "nonpayable",
      "type": "function"
    },
    {
      "inputs": [],
      "name": "nftContract",
      "outputs": [
        {
          "internalType": "contract IoTDataNFT",
          "name": "",
          "type": "address"
        }
      ],
      "stateMutability": "view",
      "type": "function"
    },
    {
      "inputs": [],
      "name": "owner",
      "outputs": [
        {
          "internalType": "address",
          "name": "",
          "type": "address"
        }
      ],
      "stateMutability": "view",
      "type": "function"
    },
    {
      "inputs": [],
      "name": "renounceOwnership",
      "outputs": [],
      "stateMutability": "nonpayable",
      "type": "function"
    },
    {
      "inputs": [
        {
          "internalType": "address",
          "name": "newOwner",
          "type": "address"
        }
      ],
      "name": "transferOwnership",
      "outputs": [],
      "stateMutability": "nonpayable",
      "type": "function"
    },
    {
      "inputs": [],
      "name": "verificationContract",
      "outputs": [
        {
          "internalType": "contract DataVerification",
          "name": "",
          "type": "address"
        }
      ],
      "stateMutability": "view",
      "type": "function"
    }
  ],
  "bytecode": "0x60806040523480156200001157600080fd5b5060405162001843380380620018438339818101604052810190620000379190620002b9565b33600073ffffffffffffffffffffffffffffffffffffffff168173ffffffffffffffffffffffffffffffffffffffff1603620000ad5760006040517f1e4fbdf7000000000000000000000000000000000000000000000000000000008152600401620000a4919062000326565b60405180910390fd5b620000be816200018b60201b60201c565b5082600160006101000a81548173ffffffffffffffffffffffffffffffffffffffff021916908373ffffffffffffffffffffffffffffffffffffffff16021790555081600260006101000a81548173ffffffffffffffffffffffffffffffffffffffff021916908373ffffffffffffffffffffffffffffffffffffffff16021790555080600360006101000a81548173ffffffffffffffffffffffffffffffffffffffff021916908373ffffffffffffffffffffffffffffffffffffffff16021790555050505062000343565b60008060009054906101000a900473ffffffffffffffffffffffffffffffffffffffff169050816000806101000a81548173ffffffffffffffffffffffffffffffffffffffff021916908373ffffffffffffffffffffffffffffffffffffffff1602179055508173ffffffffffffffffffffffffffffffffffffffff168173ffffffffffffffffffffffffffffffffffffffff167f8be0079c531659141344cd1fd0a4f28419497f9722a3daafe3b4186f6b6457e060405160405180910390a35050565b600080fd5b600073ffffffffffffffffffffffffffffffffffffffff82169050919050565b6000620002818262000254565b9050919050565b620002938162000274565b81146200029f57600080fd5b50565b600081519050620002b38162000288565b92915050565b600080600060608486031215620002d557620002d46200024f565b5b6000620002e586828701620002a2565b9350506020620002f886828701620002a2565b92505060406200030b86828701620002a2565b9150509250925092565b620003208162000274565b82525050565b60006020820190506200033d600083018462000315565b92915050565b6114f080620003536000396000f3fe608060405234801561001057600080fd5b50600436106100935760003560e01c8063886af10e11610066578063886af10e1461010e5780638da5cb5b1461012a5780639631e6b014610148578063d56d229d1461017a578063f2fde38b1461019857610093565b806313007d5514610098578063715018a6146100b65780637e222661146100c057806387c4b15d146100de575b600080fd5b6100a06101b4565b6040516100ad919061097d565b60405180910390f35b6100be6101da565b005b6100c86101ee565b6040516100d591906109b9565b60405180910390f35b6100f860048036038101906100f39190610b2e565b610214565b6040516101059190610c1e565b60405180910390f35b61012860048036038101906101239190610c65565b6104b8565b005b610132610586565b60405161013f9190610d11565b60405180910390f35b610162600480360381019061015d9190610d2c565b6105af565b60405161017193929190610df4565b60405180910390f35b6101826106ff565b60405161018f9190610e5a565b60405180910390f35b6101b260048036038101906101ad9190610ea1565b610725565b005b600260009054906101000a900473ffffffffffffffffffffffffffffffffffffffff1681565b6101e26107ab565b6101ec6000610832565b565b600360009054906101000a900473ffffffffffffffffffffffffffffffffffffffff1681565b6000600260009054906101000a900473ffffffffffffffffffffffffffffffffffffffff1673ffffffffffffffffffffffffffffffffffffffff16636dc7a35f336040518263ffffffff1660e01b81526004016102719190610d11565b602060405180830381865afa15801561028e573d6000803e3d6000fd5b505050506040513d601f19601f820116820180604052508101906102b29190610f06565b6102f1576040517f08c379a00000000000000000000000000000000000000000000000000000000081526004016102e890610f7f565b60405180910390fd5b60006004856040516103039190610fdb565b9081526020016040518091039020600001805461031f90611021565b905011610361576040517f08c379a00000000000000000000000000000000000000000000000000000000081526004016103589061109e565b60405180910390fd5b60006004856040516103739190610fdb565b908152602001604051809103902060010183604051602001610396929190611156565b60405160208183030381529060405290506000600160009054906101000a900473ffffffffffffffffffffffffffffffffffffffff1673ffffffffffffffffffffffffffffffffffffffff1663296c2b3a33848a8a8a6040518663ffffffff1660e01b815260040161040c95949392919061117a565b6020604051808303816000875af115801561042b573d6000803e3d6000fd5b505050506040513d601f19601f8201168201806040525081019061044f91906111fe565b90503373ffffffffffffffffffffffffffffffffffffffff16866040516104769190610fdb565b6040518091039020827fe7ae0959a5c764319dedf9aac1c10650dfeb5bf13fc73b0f0359e1993c188b7f60405160405180910390a48092505050949350505050565b6104c06107ab565b6040518060600160405280848152602001838152602001828152506004846040516104eb9190610fdb565b9081526020016040518091039020600082015181600001908161050e91906113b8565b50602082015181600101908161052491906113b8565b5060408201518160020155905050826040516105409190610fdb565b60405180910390207f8ee32e541a6394da22f796f51f36e9f31efad4f65dc633cd7cf2600c9735bd75838360405161057992919061148a565b60405180910390a2505050565b60008060009054906101000a900473ffffffffffffffffffffffffffffffffffffffff16905090565b6004818051602081018201805184825260208301602085012081835280955050505050506000915090508060000180546105e890611021565b80601f016020809104026020016040519081016040528092919081815260200182805461061490611021565b80156106615780601f1061063657610100808354040283529160200191610661565b820191906000526020600020905b81548152906001019060200180831161064457829003601f168201915b50505050509080600101805461067690611021565b80601f01602080910402602001604051908101604052809291908181526020018280546106a290611021565b80156106ef5780601f106106c4576101008083540402835291602001916106ef565b820191906000526020600020905b8154815290600101906020018083116106d257829003601f168201915b5050505050908060020154905083565b600160009054906101000a900473ffffffffffffffffffffffffffffffffffffffff1681565b61072d6107ab565b600073ffffffffffffffffffffffffffffffffffffffff168173ffffffffffffffffffffffffffffffffffffffff160361079f5760006040517f1e4fbdf70000000000000000000000000000000000000000000000000000000081526004016107969190610d11565b60405180910390fd5b6107a881610832565b50565b6107b36108f6565b73ffffffffffffffffffffffffffffffffffffffff166107d1610586565b73ffffffffffffffffffffffffffffffffffffffff1614610830576107f46108f6565b6040517f118cdaa70000000000000000000000000000000000000000000000000000000081526004016108279190610d11565b60405180910390fd5b565b60008060009054906101000a900473ffffffffffffffffffffffffffffffffffffffff169050816000806101000a81548173ffffffffffffffffffffffffffffffffffffffff021916908373ffffffffffffffffffffffffffffffffffffffff1602179055508173ffffffffffffffffffffffffffffffffffffffff168173ffffffffffffffffffffffffffffffffffffffff167f8be0079c531659141344cd1fd0a4f28419497f9722a3daafe3b4186f6b6457e060405160405180910390a35050565b600033905090565b600073ffffffffffffffffffffffffffffffffffffffff82169050919050565b6000819050919050565b600061094361093e610939846108fe565b61091e565b6108fe565b9050919050565b600061095582610928565b9050919050565b60006109678261094a565b9050919050565b6109778161095c565b82525050565b6000602082019050610992600083018461096e565b92915050565b60006109a38261094a565b9050919050565b6109b381610998565b82525050565b60006020820190506109ce60008301846109aa565b92915050565b6000604051905090565b600080fd5b600080fd5b600080fd5b600080fd5b6000601f19601f8301169050919050565b7f4e487b7100000000000000000000000000000000000000000000000000000000600052604160045260246000fd5b610a3b826109f2565b810181811067ffffffffffffffff82111715610a5a57610a59610a03565b5b80604052505050565b6000610a6d6109d4565b9050610a798282610a32565b919050565b600067ffffffffffffffff821115610a9957610a98610a03565b5b610aa2826109f2565b9050602081019050919050565b82818337600083830152505050565b6000610ad1610acc84610a7e565b610a63565b905082815260208101848484011115610aed57610aec6109ed565b5b610af8848285610aaf565b509392505050565b600082601f830112610b1557610b146109e8565b5b8135610b25848260208601610abe565b91505092915050565b60008060008060808587031215610b4857610b476109de565b5b600085013567ffffffffffffffff811115610b6657610b656109e3565b5b610b7287828801610b00565b945050602085013567ffffffffffffffff811115610b9357610b926109e3565b5b610b9f87828801610b00565b935050604085013567ffffffffffffffff811115610bc057610bbf6109e3565b5b610bcc87828801610b00565b925050606085013567ffffffffffffffff811115610bed57610bec6109e3565b5b610bf987828801610b00565b91505092959194509250565b6000819050919050565b610c1881610c05565b82525050565b6000602082019050610c336000830184610c0f565b92915050565b610c4281610c05565b8114610c4d57600080fd5b50565b600081359050610c5f81610c39565b92915050565b600080600060608486031215610c7e57610c7d6109de565b5b600084013567ffffffffffffffff811115610c9c57610c9b6109e3565b5b610ca886828701610b00565b935050602084013567ffffffffffffffff811115610cc957610cc86109e3565b5b610cd586828701610b00565b9250506040610ce686828701610c50565b9150509250925092565b6000610cfb826108fe565b9050919050565b610d0b81610cf0565b82525050565b6000602082019050610d266000830184610d02565b92915050565b600060208284031215610d4257610d416109de565b5b600082013567ffffffffffffffff811115610d6057610d5f6109e3565b5b610d6c84828501610b00565b91505092915050565b600081519050919050565b600082825260208201905092915050565b60005b83811015610daf578082015181840152602081019050610d94565b60008484015250505050565b6000610dc682610d75565b610dd08185610d80565b9350610de0818560208601610d91565b610de9816109f2565b840191505092915050565b60006060820190508181036000830152610e0e8186610dbb565b90508181036020830152610e228185610dbb565b9050610e316040830184610c0f565b949350505050565b6000610e448261094a565b9050919050565b610e5481610e39565b82525050565b6000602082019050610e6f6000830184610e4b565b92915050565b610e7e81610cf0565b8114610e8957600080fd5b50565b600081359050610e9b81610e75565b92915050565b600060208284031215610eb757610eb66109de565b5b6000610ec584828501610e8c565b91505092915050565b60008115159050919050565b610ee381610ece565b8114610eee57600080fd5b50565b600081519050610f0081610eda565b92915050565b600060208284031215610f1c57610f1b6109de565b5b6000610f2a84828501610ef1565b91505092915050565b7f4f6e6c7920646576696365732063616e2067656e657261746520646174610000600082015250565b6000610f69601e83610d80565b9150610f7482610f33565b602082019050919050565b60006020820190508181036000830152610f9881610f5c565b9050919050565b600081905092915050565b6000610fb582610d75565b610fbf8185610f9f565b9350610fcf818560208601610d91565b80840191505092915050565b6000610fe78284610faa565b915081905092915050565b7f4e487b7100000000000000000000000000000000000000000000000000000000600052602260045260246000fd5b6000600282049050600182168061103957607f821691505b60208210810361104c5761104b610ff2565b5b50919050565b7f496e76616c696420646174612074797065000000000000000000000000000000600082015250565b6000611088601183610d80565b915061109382611052565b602082019050919050565b600060208201905081810360008301526110b78161107b565b9050919050565b60008190508160005260206000209050919050565b600081546110e081611021565b6110ea8186610f9f565b94506001821660008114611105576001811461111a5761114d565b60ff198316865281151582028601935061114d565b611123856110be565b60005b8381101561114557815481890152600182019150602081019050611126565b838801955050505b50505092915050565b600061116282856110d3565b915061116e8284610faa565b91508190509392505050565b600060a08201905061118f6000830188610d02565b81810360208301526111a18187610dbb565b905081810360408301526111b58186610dbb565b905081810360608301526111c98185610dbb565b905081810360808301526111dd8184610dbb565b90509695505050505050565b6000815190506111f881610c39565b92915050565b600060208284031215611214576112136109de565b5b6000611222848285016111e9565b91505092915050565b60006020601f8301049050919050565b600082821b905092915050565b6000600883026112787fffffffffffffffffffffffffffffffffffffffffffffffffffffffffffffffff8261123b565b611282868361123b565b95508019841693508086168417925050509392505050565b60006112b56112b06112ab84610c05565b61091e565b610c05565b9050919050565b6000819050919050565b6112cf8361129a565b6112e36112db826112bc565b848454611248565b825550505050565b600090565b6112f86112eb565b6113038184846112c6565b505050565b5b818110156113275761131c6000826112f0565b600181019050611309565b5050565b601f82111561136c5761133d816110be565b6113468461122b565b81016020851015611355578190505b6113696113618561122b565b830182611308565b50505b505050565b600082821c905092915050565b600061138f60001984600802611371565b1980831691505092915050565b60006113a8838361137e565b9150826002028217905092915050565b6113c182610d75565b67ffffffffffffffff8111156113da576113d9610a03565b5b6113e48254611021565b6113ef82828561132b565b600060209050601f8311600181146114225760008415611410578287015190505b61141a858261139c565b865550611482565b601f198416611430866110be565b60005b8281101561145857848901518255600182019150602085019450602081019050611433565b868310156114755784890151611471601f89168261137e565b8355505b6001600288020188555050505b505050505050565b600060408201905081810360008301526114a48185610dbb565b90506114b36020830184610c0f565b939250505056fea26469706673582212205af7cf05c3d5f18aead94ed4d7155fd1e319056eacacc10f4df8a29bb4146d8464736f6c63430008140033",
  "linkReferences": {},
  "deployedLinkReferences": {}
}