{
  "_format": "hh-sol-artifact-1",
  "contractName": "IoTDataAccessControl",
  "sourceName": "contracts/AccessControl.sol",
  "abi": [
    {
      "inputs": [],
      "stateMutability": "nonpayable",
      "type": "constructor"
    },
    {
      "inputs": [],
      "name": "AccessControlBadConfirmation",
      "type": "error"
    },
    {
      "inputs": [
        {
          "internalType": "address",
          "name": "account",
          "type": "address"
        },
        {
          "internalType": "bytes32",
          "name": "neededRole",
          "type": "bytes32"
        }
      ],
      "name": "AccessControlUnauthorizedAccount",
      "type": "error"
    },
    {
      "anonymous": false,
      "inputs": [
        {
          "indexed": true,
          "internalType": "bytes32",
          "name": "role",
          "type": "bytes32"
        },
        {
          "indexed": true,
          "internalType": "bytes32",
          "name": "previousAdminRole",
          "type": "bytes32"
        },
        {
          "indexed": true,
          "internalType": "bytes32",
          "name": "newAdminRole",
          "type": "bytes32"
        }
      ],
      "name": "RoleAdminChanged",
      "type": "event"
    },
    {
      "anonymous": false,
      "inputs": [
        {
          "indexed": true,
          "internalType": "bytes32",
          "name": "role",
          "type": "bytes32"
        },
        {
          "indexed": true,
          "internalType": "address",
          "name": "account",
          "type": "address"
        },
        {
          "indexed": true,
          "internalType": "address",
          "name": "sender",
          "type": "address"
        }
      ],
      "name": "RoleGranted",
      "type": "event"
    },
    {
      "anonymous": false,
      "inputs": [
        {
          "indexed": true,
          "internalType": "bytes32",
          "name": "role",
          "type": "bytes32"
        },
        {
          "indexed": true,
          "internalType": "address",
          "name": "account",
          "type": "address"
        },
        {
          "indexed": true,
          "internalType": "address",
          "name": "sender",
          "type": "address"
        }
      ],
      "name": "RoleRevoked",
      "type": "event"
    },
    {
      "inputs": [],
      "name": "DATA_BUYER_ROLE",
      "outputs": [
        {
          "internalType": "bytes32",
          "name": "",
          "type": "bytes32"
        }
      ],
      "stateMutability": "view",
      "type": "function"
    },
    {
      "inputs": [],
      "name": "DEFAULT_ADMIN_ROLE",
      "outputs": [
        {
          "internalType": "bytes32",
          "name": "",
          "type": "bytes32"
        }
      ],
      "stateMutability": "view",
      "type": "function"
    },
    {
      "inputs": [],
      "name": "DEVICE_ROLE",
      "outputs": [
        {
          "internalType": "bytes32",
          "name": "",
          "type": "bytes32"
        }
      ],
      "stateMutability": "view",
      "type": "function"
    },
    {
      "inputs": [],
      "name": "VERIFIER_ROLE",
      "outputs": [
        {
          "internalType": "bytes32",
          "name": "",
          "type": "bytes32"
        }
      ],
      "stateMutability": "view",
      "type": "function"
    },
    {
      "inputs": [
        {
          "internalType": "bytes32",
          "name": "role",
          "type": "bytes32"
        }
      ],
      "name": "getRoleAdmin",
      "outputs": [
        {
          "internalType": "bytes32",
          "name": "",
          "type": "bytes32"
        }
      ],
      "stateMutability": "view",
      "type": "function"
    },
    {
      "inputs": [
        {
          "internalType": "address",
          "name": "account",
          "type": "address"
        }
      ],
      "name": "grantDataBuyerRole",
      "outputs": [],
      "stateMutability": "nonpayable",
      "type": "function"
    },
    {
      "inputs": [
        {
          "internalType": "address",
          "name": "account",
          "type": "address"
        }
      ],
      "name": "grantDeviceRole",
      "outputs": [],
      "stateMutability": "nonpayable",
      "type": "function"
    },
    {
      "inputs": [
        {
          "internalType": "bytes32",
          "name": "role",
          "type": "bytes32"
        },
        {
          "internalType": "address",
          "name": "account",
          "type": "address"
        }
      ],
      "name": "grantRole",
      "outputs": [],
      "stateMutability": "nonpayable",
      "type": "function"
    },
    {
      "inputs": [
        {
          "internalType": "address",
          "name": "account",
          "type": "address"
        }
      ],
      "name": "grantVerifierRole",
      "outputs": [],
      "stateMutability": "nonpayable",
      "type": "function"
    },
    {
      "inputs": [
        {
          "internalType": "bytes32",
          "name": "role",
          "type": "bytes32"
        },
        {
          "internalType": "address",
          "name": "account",
          "type": "address"
        }
      ],
      "name": "hasRole",
      "outputs": [
        {
          "internalType": "bool",
          "name": "",
          "type": "bool"
        }
      ],
      "stateMutability": "view",
      "type": "function"
    },
    {
      "inputs": [
        {
          "internalType": "address",
          "name": "account",
          "type": "address"
        }
      ],
      "name": "isDataBuyer",
      "outputs": [
        {
          "internalType": "bool",
          "name": "",
          "type": "bool"
        }
      ],
      "stateMutability": "view",
      "type": "function"
    },
    {
      "inputs": [
        {
          "internalType": "address",
          "name": "account",
          "type": "address"
        }
      ],
      "name": "isDevice",
      "outputs": [
        {
          "internalType": "bool",
          "name": "",
          "type": "bool"
        }
      ],
      "stateMutability": "view",
      "type": "function"
    },
    {
      "inputs": [
        {
          "internalType": "address",
          "name": "account",
          "type": "address"
        }
      ],
      "name": "isVerifier",
      "outputs": [
        {
          "internalType": "bool",
          "name": "",
          "type": "bool"
        }
      ],
      "stateMutability": "view",
      "type": "function"
    },
    {
      "inputs": [
        {
          "internalType": "bytes32",
          "name": "role",
          "type": "bytes32"
        },
        {
          "internalType": "address",
          "name": "callerConfirmation",
          "type": "address"
        }
      ],
      "name": "renounceRole",
      "outputs": [],
      "stateMutability": "nonpayable",
      "type": "function"
    },
    {
      "inputs": [
        {
          "internalType": "bytes32",
          "name": "role",
          "type": "bytes32"
        },
        {
          "internalType": "address",
          "name": "account",
          "type": "address"
        }
      ],
      "name": "revokeRole",
      "outputs": [],
      "stateMutability": "nonpayable",
      "type": "function"
    },
    {
      "inputs": [
        {
          "internalType": "bytes4",
          "name": "interfaceId",
          "type": "bytes4"
        }
      ],
      "name": "supportsInterface",
      "outputs": [
        {
          "internalType": "bool",
          "name": "",
          "type": "bool"
        }
      ],
      "stateMutability": "view",
      "type": "function"
    }
  ],
  "bytecode": "0x608060405234801561001057600080fd5b506100246000801b3361002a60201b60201c565b50610199565b600061003c838361012760201b60201c565b61011c57600160008085815260200190815260200160002060000160008473ffffffffffffffffffffffffffffffffffffffff1673ffffffffffffffffffffffffffffffffffffffff16815260200190815260200160002060006101000a81548160ff0219169083151502179055506100b961019160201b60201c565b73ffffffffffffffffffffffffffffffffffffffff168273ffffffffffffffffffffffffffffffffffffffff16847f2f8788117e7eff1d82e926ec794901d17c78024a50270940304540a733656f0d60405160405180910390a460019050610121565b600090505b92915050565b600080600084815260200190815260200160002060000160008373ffffffffffffffffffffffffffffffffffffffff1673ffffffffffffffffffffffffffffffffffffffff16815260200190815260200160002060009054906101000a900460ff16905092915050565b600033905090565b610c04806101a86000396000f3fe608060405234801561001057600080fd5b50600436106101005760003560e01c806391d1485411610097578063e7705db611610066578063e7705db6146102bd578063e803c69c146102db578063f4cee6e51461030b578063fb250e1a1461032957610100565b806391d1485414610235578063a217fddf14610265578063b0e26d7014610283578063d547741f146102a157610100565b806333105218116100d3578063331052181461019d57806336568abe146101cd578063526fc6c6146101e95780636dc7a35f1461020557610100565b806301ffc9a7146101055780630337c06114610135578063248a9ca3146101515780632f2ff15d14610181575b600080fd5b61011f600480360381019061011a91906109db565b610345565b60405161012c9190610a23565b60405180910390f35b61014f600480360381019061014a9190610a9c565b6103bf565b005b61016b60048036038101906101669190610aff565b6103fa565b6040516101789190610b3b565b60405180910390f35b61019b60048036038101906101969190610b56565b610419565b005b6101b760048036038101906101b29190610a9c565b61043b565b6040516101c49190610a23565b60405180910390f35b6101e760048036038101906101e29190610b56565b61046e565b005b61020360048036038101906101fe9190610a9c565b6104e9565b005b61021f600480360381019061021a9190610a9c565b610524565b60405161022c9190610a23565b60405180910390f35b61024f600480360381019061024a9190610b56565b610557565b60405161025c9190610a23565b60405180910390f35b61026d6105c1565b60405161027a9190610b3b565b60405180910390f35b61028b6105c8565b6040516102989190610b3b565b60405180910390f35b6102bb60048036038101906102b69190610b56565b6105ec565b005b6102c561060e565b6040516102d29190610b3b565b60405180910390f35b6102f560048036038101906102f09190610a9c565b610632565b6040516103029190610a23565b60405180910390f35b610313610665565b6040516103209190610b3b565b60405180910390f35b610343600480360381019061033e9190610a9c565b610689565b005b60007f7965db0b000000000000000000000000000000000000000000000000000000007bffffffffffffffffffffffffffffffffffffffffffffffffffffffff1916827bffffffffffffffffffffffffffffffffffffffffffffffffffffffff191614806103b857506103b7826106c4565b5b9050919050565b6000801b6103cc8161072e565b6103f67f0ce23c3e399818cfee81a7ab0880f714e53d7672b08df0fa62f2843416e1ea0983610419565b5050565b6000806000838152602001908152602001600020600101549050919050565b610422826103fa565b61042b8161072e565b6104358383610742565b50505050565b60006104677f0ce23c3e399818cfee81a7ab0880f714e53d7672b08df0fa62f2843416e1ea0983610557565b9050919050565b610476610833565b73ffffffffffffffffffffffffffffffffffffffff168173ffffffffffffffffffffffffffffffffffffffff16146104da576040517f6697b23200000000000000000000000000000000000000000000000000000000815260040160405180910390fd5b6104e4828261083b565b505050565b6000801b6104f68161072e565b6105207f157d8338a9fc98763dff361a414c1db7b7b15f2381f42f06f0503270d3c148b583610419565b5050565b60006105507f48404ec5122cfef2c4b0b727fa211cfb1e815e1b19d5c56f7d3cc0c616120a2883610557565b9050919050565b600080600084815260200190815260200160002060000160008373ffffffffffffffffffffffffffffffffffffffff1673ffffffffffffffffffffffffffffffffffffffff16815260200190815260200160002060009054906101000a900460ff16905092915050565b6000801b81565b7f48404ec5122cfef2c4b0b727fa211cfb1e815e1b19d5c56f7d3cc0c616120a2881565b6105f5826103fa565b6105fe8161072e565b610608838361083b565b50505050565b7f0ce23c3e399818cfee81a7ab0880f714e53d7672b08df0fa62f2843416e1ea0981565b600061065e7f157d8338a9fc98763dff361a414c1db7b7b15f2381f42f06f0503270d3c148b583610557565b9050919050565b7f157d8338a9fc98763dff361a414c1db7b7b15f2381f42f06f0503270d3c148b581565b6000801b6106968161072e565b6106c07f48404ec5122cfef2c4b0b727fa211cfb1e815e1b19d5c56f7d3cc0c616120a2883610419565b5050565b60007f01ffc9a7000000000000000000000000000000000000000000000000000000007bffffffffffffffffffffffffffffffffffffffffffffffffffffffff1916827bffffffffffffffffffffffffffffffffffffffffffffffffffffffff1916149050919050565b61073f8161073a610833565b61092d565b50565b600061074e8383610557565b61082857600160008085815260200190815260200160002060000160008473ffffffffffffffffffffffffffffffffffffffff1673ffffffffffffffffffffffffffffffffffffffff16815260200190815260200160002060006101000a81548160ff0219169083151502179055506107c5610833565b73ffffffffffffffffffffffffffffffffffffffff168273ffffffffffffffffffffffffffffffffffffffff16847f2f8788117e7eff1d82e926ec794901d17c78024a50270940304540a733656f0d60405160405180910390a46001905061082d565b600090505b92915050565b600033905090565b60006108478383610557565b1561092257600080600085815260200190815260200160002060000160008473ffffffffffffffffffffffffffffffffffffffff1673ffffffffffffffffffffffffffffffffffffffff16815260200190815260200160002060006101000a81548160ff0219169083151502179055506108bf610833565b73ffffffffffffffffffffffffffffffffffffffff168273ffffffffffffffffffffffffffffffffffffffff16847ff6391f5c32d9c69d2a47ea670b442974b53935d1edc7fd64eb21e047a839171b60405160405180910390a460019050610927565b600090505b92915050565b6109378282610557565b61097a5780826040517fe2517d3f000000000000000000000000000000000000000000000000000000008152600401610971929190610ba5565b60405180910390fd5b5050565b600080fd5b60007fffffffff0000000000000000000000000000000000000000000000000000000082169050919050565b6109b881610983565b81146109c357600080fd5b50565b6000813590506109d5816109af565b92915050565b6000602082840312156109f1576109f061097e565b5b60006109ff848285016109c6565b91505092915050565b60008115159050919050565b610a1d81610a08565b82525050565b6000602082019050610a386000830184610a14565b92915050565b600073ffffffffffffffffffffffffffffffffffffffff82169050919050565b6000610a6982610a3e565b9050919050565b610a7981610a5e565b8114610a8457600080fd5b50565b600081359050610a9681610a70565b92915050565b600060208284031215610ab257610ab161097e565b5b6000610ac084828501610a87565b91505092915050565b6000819050919050565b610adc81610ac9565b8114610ae757600080fd5b50565b600081359050610af981610ad3565b92915050565b600060208284031215610b1557610b1461097e565b5b6000610b2384828501610aea565b91505092915050565b610b3581610ac9565b82525050565b6000602082019050610b506000830184610b2c565b92915050565b60008060408385031215610b6d57610b6c61097e565b5b6000610b7b85828601610aea565b9250506020610b8c85828601610a87565b9150509250929050565b610b9f81610a5e565b82525050565b6000604082019050610bba6000830185610b96565b610bc76020830184610b2c565b939250505056fea264697066735822122095256840b3ede7b297b562b7457dc8de60fa8c23787a2b3bb4047f93b91742c964736f6c63430008140033",
  "linkReferences": {},
  "deployedLinkReferences": {}
}