{
  "_format": "hh-sol-artifact-1",
  "contractName": "IoTDataFactory",
  "sourceName": "contracts/IoTDataFactory.sol",
  "abi": [
    {
      "inputs": [
        {
          "internalType": "address",
          "name": "nftAddress",
          "type": "address"
        },
        {
          "internalType": "address",
          "name": "accessControlAddress",
          "type": "address"
        },
        {
          "internalType": "address",
          "name": "verificationAddress",
          "type": "address"
        }
      ],
      "stateMutability": "nonpayable",
      "type": "constructor"
    },
    {
      "inputs": [
        {
          "internalType": "address",
          "name": "owner",
          "type": "address"
        }
      ],
      "name": "OwnableInvalidOwner",
      "type": "error"
    },
    {
      "inputs": [
        {
          "internalType": "address",
          "name": "account",
          "type": "address"
        }
      ],
      "name": "OwnableUnauthorizedAccount",
      "type": "error"
    },
    {
      "anonymous": false,
      "inputs": [
        {
          "indexed": true,
          "internalType": "uint256",
          "name": "tokenId",
          "type": "uint256"
        },
        {
          "indexed": true,
          "internalType": "string",
          "name": "dataType",
          "type": "string"
        },
        {
          "indexed": true,
          "internalType": "address",
          "name": "owner",
          "type": "address"
        }
      ],
      "name": "DataNFTGenerated",
      "type": "event"
    },
    {
      "anonymous": false,
      "inputs": [
        {
          "indexed": true,
          "internalType": "string",
          "name": "dataType",
          "type": "string"
        },
        {
          "indexed": false,
          "internalType": "string",
          "name": "metadataTemplate",
          "type": "string"
        },
        {
          "indexed": false,
          "internalType": "uint256",
          "name": "basePrice",
          "type": "uint256"
        }
      ],
      "name": "DataTemplateCreated",
      "type": "event"
    },
    {
      "anonymous": false,
      "inputs": [
        {
          "indexed": true,
          "internalType": "address",
          "name": "previousOwner",
          "type": "address"
        },
        {
          "indexed": true,
          "internalType": "address",
          "name": "newOwner",
          "type": "address"
        }
      ],
      "name": "OwnershipTransferred",
      "type": "event"
    },
    {
      "inputs": [],
      "name": "accessControl",
      "outputs": [
        {
          "internalType": "contract IoTDataAccessControl",
          "name": "",
          "type": "address"
        }
      ],
      "stateMutability": "view",
      "type": "function"
    },
    {
      "inputs": [
        {
          "internalType": "string",
          "name": "dataType",
          "type": "string"
        },
        {
          "internalType": "string",
          "name": "metadataTemplate",
          "type": "string"
        },
        {
          "internalType": "uint256",
          "name": "basePrice",
          "type": "uint256"
        }
      ],
      "name": "createTemplate",
      "outputs": [],
      "stateMutability": "nonpayable",
      "type": "function"
    },
    {
      "inputs": [
        {
          "internalType": "string",
          "name": "",
          "type": "string"
        }
      ],
      "name": "dataTemplates",
      "outputs": [
        {
          "internalType": "string",
          "name": "dataType",
          "type": "string"
        },
        {
          "internalType": "string",
          "name": "metadataTemplate",
          "type": "string"
        },
        {
          "internalType": "uint256",
          "name": "basePrice",
          "type": "uint256"
        }
      ],
      "stateMutability": "view",
      "type": "function"
    },
    {
      "inputs": [
        {
          "internalType": "string",
          "name": "deviceId",
          "type": "string"
        },
        {
          "internalType": "string",
          "name": "dataType",
          "type": "string"
        },
        {
          "internalType": "string",
          "name": "location",
          "type": "string"
        },
        {
          "internalType": "string",
          "name": "additionalMetadata",
          "type": "string"
        }
      ],
      "name": "generateDataNFT",
      "outputs": [
        {
          "internalType": "uint256",
          "name": "",
          "type": "uint256"
        }
      ],
      "stateMutability": "nonpayable",
      "type": "function"
    },
    {
      "inputs": [],
      "name": "getAllTemplate",
      "outputs": [
        {
          "components": [
            {
              "internalType": "string",
              "name": "dataType",
              "type": "string"
            },
            {
              "internalType": "string",
              "name": "metadataTemplate",
              "type": "string"
            },
            {
              "internalType": "uint256",
              "name": "basePrice",
              "type": "uint256"
            }
          ],
          "internalType": "struct IoTDataFactory.DataTemplate[]",
          "name": "",
          "type": "tuple[]"
        }
      ],
      "stateMutability": "view",
      "type": "function"
    },
    {
      "inputs": [
        {
          "internalType": "string",
          "name": "dataType",
          "type": "string"
        }
      ],
      "name": "getTemplate",
      "outputs": [
        {
          "components": [
            {
              "internalType": "string",
              "name": "dataType",
              "type": "string"
            },
            {
              "internalType": "string",
              "name": "metadataTemplate",
              "type": "string"
            },
            {
              "internalType": "uint256",
              "name": "basePrice",
              "type": "uint256"
            }
          ],
          "internalType": "struct IoTDataFactory.DataTemplate",
          "name": "",
          "type": "tuple"
        }
      ],
      "stateMutability": "view",
      "type": "function"
    },
    {
      "inputs": [],
      "name": "getTemplateCount",
      "outputs": [
        {
          "internalType": "uint256",
          "name": "",
          "type": "uint256"
        }
      ],
      "stateMutability": "view",
      "type": "function"
    },
    {
      "inputs": [],
      "name": "nftContract",
      "outputs": [
        {
          "internalType": "contract IoTDataNFT",
          "name": "",
          "type": "address"
        }
      ],
      "stateMutability": "view",
      "type": "function"
    },
    {
      "inputs": [],
      "name": "owner",
      "outputs": [
        {
          "internalType": "address",
          "name": "",
          "type": "address"
        }
      ],
      "stateMutability": "view",
      "type": "function"
    },
    {
      "inputs": [],
      "name": "renounceOwnership",
      "outputs": [],
      "stateMutability": "nonpayable",
      "type": "function"
    },
    {
      "inputs": [
        {
          "internalType": "address",
          "name": "newOwner",
          "type": "address"
        }
      ],
      "name": "transferOwnership",
      "outputs": [],
      "stateMutability": "nonpayable",
      "type": "function"
    }
  ],
  "bytecode": "0x60c06040523480156200001157600080fd5b50604051620027f5380380620027f5833981810160405281019062000037919062000345565b33600073ffffffffffffffffffffffffffffffffffffffff168173ffffffffffffffffffffffffffffffffffffffff1603620000ad5760006040517f1e4fbdf7000000000000000000000000000000000000000000000000000000008152600401620000a49190620003b2565b60405180910390fd5b620000be816200021760201b60201c565b50600073ffffffffffffffffffffffffffffffffffffffff168373ffffffffffffffffffffffffffffffffffffffff16141580156200012a5750600073ffffffffffffffffffffffffffffffffffffffff168273ffffffffffffffffffffffffffffffffffffffff1614155b8015620001645750600073ffffffffffffffffffffffffffffffffffffffff168173ffffffffffffffffffffffffffffffffffffffff1614155b620001a6576040517f08c379a00000000000000000000000000000000000000000000000000000000081526004016200019d9062000430565b60405180910390fd5b8273ffffffffffffffffffffffffffffffffffffffff1660808173ffffffffffffffffffffffffffffffffffffffff16815250508173ffffffffffffffffffffffffffffffffffffffff1660a08173ffffffffffffffffffffffffffffffffffffffff168152505050505062000452565b60008060009054906101000a900473ffffffffffffffffffffffffffffffffffffffff169050816000806101000a81548173ffffffffffffffffffffffffffffffffffffffff021916908373ffffffffffffffffffffffffffffffffffffffff1602179055508173ffffffffffffffffffffffffffffffffffffffff168173ffffffffffffffffffffffffffffffffffffffff167f8be0079c531659141344cd1fd0a4f28419497f9722a3daafe3b4186f6b6457e060405160405180910390a35050565b600080fd5b600073ffffffffffffffffffffffffffffffffffffffff82169050919050565b60006200030d82620002e0565b9050919050565b6200031f8162000300565b81146200032b57600080fd5b50565b6000815190506200033f8162000314565b92915050565b600080600060608486031215620003615762000360620002db565b5b600062000371868287016200032e565b935050602062000384868287016200032e565b925050604062000397868287016200032e565b9150509250925092565b620003ac8162000300565b82525050565b6000602082019050620003c96000830184620003a1565b92915050565b600082825260208201905092915050565b7f496e76616c696420616464726573730000000000000000000000000000000000600082015250565b600062000418600f83620003cf565b91506200042582620003e0565b602082019050919050565b600060208201905081810360008301526200044b8162000409565b9050919050565b60805160a05161236f620004866000396000818161043601526105e301526000818161094d0152610e7a015261236f6000f3fe608060405234801561001057600080fd5b50600436106100a95760003560e01c806387c4b15d1161007157806387c4b15d14610142578063886af10e146101725780638da5cb5b1461018e5780639631e6b0146101ac578063d56d229d146101de578063f2fde38b146101fc576100a9565b806306d8b0ac146100ae57806313007d55146100cc5780635016959a146100ea578063715018a6146101085780637d67cd6f14610112575b600080fd5b6100b6610218565b6040516100c39190611258565b60405180910390f35b6100d4610434565b6040516100e191906112f9565b60405180910390f35b6100f2610458565b6040516100ff9190611323565b60405180910390f35b610110610465565b005b61012c60048036038101906101279190611487565b610479565b6040516101399190611527565b60405180910390f35b61015c600480360381019061015791906115a9565b6105df565b6040516101699190611323565b60405180910390f35b61018c600480360381019061018791906116be565b610a65565b005b610196610cff565b6040516101a39190611774565b60405180910390f35b6101c660048036038101906101c19190611487565b610d28565b6040516101d5939291906117d9565b60405180910390f35b6101e6610e78565b6040516101f3919061183f565b60405180910390f35b61021660048036038101906102119190611886565b610e9c565b005b6060600060018054905067ffffffffffffffff81111561023b5761023a61135c565b5b60405190808252806020026020018201604052801561027457816020015b610261611075565b8152602001906001900390816102595790505b50905060005b60018054905081101561042c5760026001828154811061029d5761029c6118b3565b5b906000526020600020016040516102b491906119e5565b90815260200160405180910390206040518060600160405290816000820180546102dd90611911565b80601f016020809104026020016040519081016040528092919081815260200182805461030990611911565b80156103565780601f1061032b57610100808354040283529160200191610356565b820191906000526020600020905b81548152906001019060200180831161033957829003601f168201915b5050505050815260200160018201805461036f90611911565b80601f016020809104026020016040519081016040528092919081815260200182805461039b90611911565b80156103e85780601f106103bd576101008083540402835291602001916103e8565b820191906000526020600020905b8154815290600101906020018083116103cb57829003601f168201915b5050505050815260200160028201548152505082828151811061040e5761040d6118b3565b5b6020026020010181905250808061042490611a2b565b91505061027a565b508091505090565b7f000000000000000000000000000000000000000000000000000000000000000081565b6000600180549050905090565b61046d610f22565b6104776000610fa9565b565b610481611075565b6002826040516104919190611aa4565b90815260200160405180910390206040518060600160405290816000820180546104ba90611911565b80601f01602080910402602001604051908101604052809291908181526020018280546104e690611911565b80156105335780601f1061050857610100808354040283529160200191610533565b820191906000526020600020905b81548152906001019060200180831161051657829003601f168201915b5050505050815260200160018201805461054c90611911565b80601f016020809104026020016040519081016040528092919081815260200182805461057890611911565b80156105c55780601f1061059a576101008083540402835291602001916105c5565b820191906000526020600020905b8154815290600101906020018083116105a857829003601f168201915b505050505081526020016002820154815250509050919050565b60007f000000000000000000000000000000000000000000000000000000000000000073ffffffffffffffffffffffffffffffffffffffff16636dc7a35f336040518263ffffffff1660e01b815260040161063a9190611774565b602060405180830381865afa158015610657573d6000803e3d6000fd5b505050506040513d601f19601f8201168201806040525081019061067b9190611af3565b6106ba576040517f08c379a00000000000000000000000000000000000000000000000000000000081526004016106b190611b6c565b60405180910390fd5b60008989905011610700576040517f08c379a00000000000000000000000000000000000000000000000000000000081526004016106f790611bd8565b60405180910390fd5b60008585905011610746576040517f08c379a000000000000000000000000000000000000000000000000000000000815260040161073d90611c44565b60405180910390fd5b60006002888860405161075a929190611c89565b9081526020016040518091039020600001805461077690611911565b9050116107b8576040517f08c379a00000000000000000000000000000000000000000000000000000000081526004016107af90611cee565b60405180910390fd5b6000600288886040516107cc929190611c89565b90815260200160405180910390206040518060600160405290816000820180546107f590611911565b80601f016020809104026020016040519081016040528092919081815260200182805461082190611911565b801561086e5780601f106108435761010080835404028352916020019161086e565b820191906000526020600020905b81548152906001019060200180831161085157829003601f168201915b5050505050815260200160018201805461088790611911565b80601f01602080910402602001604051908101604052809291908181526020018280546108b390611911565b80156109005780601f106108d557610100808354040283529160200191610900565b820191906000526020600020905b8154815290600101906020018083116108e357829003601f168201915b50505050508152602001600282015481525050905060008160200151858589898f8f6040516020016109389796959493929190611d34565b604051602081830303815290604052905060007f000000000000000000000000000000000000000000000000000000000000000073ffffffffffffffffffffffffffffffffffffffff1663296c2b3a33848f8f8f8f8f8f6040518963ffffffff1660e01b81526004016109b2989796959493929190611dd2565b6020604051808303816000875af11580156109d1573d6000803e3d6000fd5b505050506040513d601f19601f820116820180604052508101906109f59190611e5c565b90503373ffffffffffffffffffffffffffffffffffffffff168a8a604051610a1e929190611c89565b6040518091039020827fe7ae0959a5c764319dedf9aac1c10650dfeb5bf13fc73b0f0359e1993c188b7f60405160405180910390a480935050505098975050505050505050565b610a6d610f22565b60008585905011610ab3576040517f08c379a0000000000000000000000000000000000000000000000000000000008152600401610aaa90611ed5565b60405180910390fd5b600060028686604051610ac7929190611c89565b90815260200160405180910390206000018054610ae390611911565b905014610b25576040517f08c379a0000000000000000000000000000000000000000000000000000000008152600401610b1c90611f41565b60405180910390fd5b60008383905011610b6b576040517f08c379a0000000000000000000000000000000000000000000000000000000008152600401610b6290611fad565b60405180910390fd5b6001858590918060018154018082558091505060019003906000526020600020016000909192909192909192909192509182610ba8929190612165565b50604051806060016040528086868080601f016020809104026020016040519081016040528093929190818152602001838380828437600081840152601f19601f82011690508083019250505050505050815260200184848080601f016020809104026020016040519081016040528093929190818152602001838380828437600081840152601f19601f8201169050808301925050505050505081526020018281525060028686604051610c5e929190611c89565b90815260200160405180910390206000820151816000019081610c819190612235565b506020820151816001019081610c979190612235565b50604082015181600201559050508484604051610cb5929190611c89565b60405180910390207f8ee32e541a6394da22f796f51f36e9f31efad4f65dc633cd7cf2600c9735bd75848484604051610cf093929190612307565b60405180910390a25050505050565b60008060009054906101000a900473ffffffffffffffffffffffffffffffffffffffff16905090565b600281805160208101820180518482526020830160208501208183528095505050505050600091509050806000018054610d6190611911565b80601f0160208091040260200160405190810160405280929190818152602001828054610d8d90611911565b8015610dda5780601f10610daf57610100808354040283529160200191610dda565b820191906000526020600020905b815481529060010190602001808311610dbd57829003601f168201915b505050505090806001018054610def90611911565b80601f0160208091040260200160405190810160405280929190818152602001828054610e1b90611911565b8015610e685780601f10610e3d57610100808354040283529160200191610e68565b820191906000526020600020905b815481529060010190602001808311610e4b57829003601f168201915b5050505050908060020154905083565b7f000000000000000000000000000000000000000000000000000000000000000081565b610ea4610f22565b600073ffffffffffffffffffffffffffffffffffffffff168173ffffffffffffffffffffffffffffffffffffffff1603610f165760006040517f1e4fbdf7000000000000000000000000000000000000000000000000000000008152600401610f0d9190611774565b60405180910390fd5b610f1f81610fa9565b50565b610f2a61106d565b73ffffffffffffffffffffffffffffffffffffffff16610f48610cff565b73ffffffffffffffffffffffffffffffffffffffff1614610fa757610f6b61106d565b6040517f118cdaa7000000000000000000000000000000000000000000000000000000008152600401610f9e9190611774565b60405180910390fd5b565b60008060009054906101000a900473ffffffffffffffffffffffffffffffffffffffff169050816000806101000a81548173ffffffffffffffffffffffffffffffffffffffff021916908373ffffffffffffffffffffffffffffffffffffffff1602179055508173ffffffffffffffffffffffffffffffffffffffff168173ffffffffffffffffffffffffffffffffffffffff167f8be0079c531659141344cd1fd0a4f28419497f9722a3daafe3b4186f6b6457e060405160405180910390a35050565b600033905090565b60405180606001604052806060815260200160608152602001600081525090565b600081519050919050565b600082825260208201905092915050565b6000819050602082019050919050565b600081519050919050565b600082825260208201905092915050565b60005b838110156110fc5780820151818401526020810190506110e1565b60008484015250505050565b6000601f19601f8301169050919050565b6000611124826110c2565b61112e81856110cd565b935061113e8185602086016110de565b61114781611108565b840191505092915050565b6000819050919050565b61116581611152565b82525050565b600060608301600083015184820360008601526111888282611119565b915050602083015184820360208601526111a28282611119565b91505060408301516111b7604086018261115c565b508091505092915050565b60006111ce838361116b565b905092915050565b6000602082019050919050565b60006111ee82611096565b6111f881856110a1565b93508360208202850161120a856110b2565b8060005b85811015611246578484038952815161122785826111c2565b9450611232836111d6565b925060208a0199505060018101905061120e565b50829750879550505050505092915050565b6000602082019050818103600083015261127281846111e3565b905092915050565b600073ffffffffffffffffffffffffffffffffffffffff82169050919050565b6000819050919050565b60006112bf6112ba6112b58461127a565b61129a565b61127a565b9050919050565b60006112d1826112a4565b9050919050565b60006112e3826112c6565b9050919050565b6112f3816112d8565b82525050565b600060208201905061130e60008301846112ea565b92915050565b61131d81611152565b82525050565b60006020820190506113386000830184611314565b92915050565b6000604051905090565b600080fd5b600080fd5b600080fd5b600080fd5b7f4e487b7100000000000000000000000000000000000000000000000000000000600052604160045260246000fd5b61139482611108565b810181811067ffffffffffffffff821117156113b3576113b261135c565b5b80604052505050565b60006113c661133e565b90506113d2828261138b565b919050565b600067ffffffffffffffff8211156113f2576113f161135c565b5b6113fb82611108565b9050602081019050919050565b82818337600083830152505050565b600061142a611425846113d7565b6113bc565b90508281526020810184848401111561144657611445611357565b5b611451848285611408565b509392505050565b600082601f83011261146e5761146d611352565b5b813561147e848260208601611417565b91505092915050565b60006020828403121561149d5761149c611348565b5b600082013567ffffffffffffffff8111156114bb576114ba61134d565b5b6114c784828501611459565b91505092915050565b600060608301600083015184820360008601526114ed8282611119565b915050602083015184820360208601526115078282611119565b915050604083015161151c604086018261115c565b508091505092915050565b6000602082019050818103600083015261154181846114d0565b905092915050565b600080fd5b600080fd5b60008083601f84011261156957611568611352565b5b8235905067ffffffffffffffff81111561158657611585611549565b5b6020830191508360018202830111156115a2576115a161154e565b5b9250929050565b6000806000806000806000806080898b0312156115c9576115c8611348565b5b600089013567ffffffffffffffff8111156115e7576115e661134d565b5b6115f38b828c01611553565b9850985050602089013567ffffffffffffffff8111156116165761161561134d565b5b6116228b828c01611553565b9650965050604089013567ffffffffffffffff8111156116455761164461134d565b5b6116518b828c01611553565b9450945050606089013567ffffffffffffffff8111156116745761167361134d565b5b6116808b828c01611553565b92509250509295985092959890939650565b61169b81611152565b81146116a657600080fd5b50565b6000813590506116b881611692565b92915050565b6000806000806000606086880312156116da576116d9611348565b5b600086013567ffffffffffffffff8111156116f8576116f761134d565b5b61170488828901611553565b9550955050602086013567ffffffffffffffff8111156117275761172661134d565b5b61173388828901611553565b93509350506040611746888289016116a9565b9150509295509295909350565b600061175e8261127a565b9050919050565b61176e81611753565b82525050565b60006020820190506117896000830184611765565b92915050565b600082825260208201905092915050565b60006117ab826110c2565b6117b5818561178f565b93506117c58185602086016110de565b6117ce81611108565b840191505092915050565b600060608201905081810360008301526117f381866117a0565b9050818103602083015261180781856117a0565b90506118166040830184611314565b949350505050565b6000611829826112c6565b9050919050565b6118398161181e565b82525050565b60006020820190506118546000830184611830565b92915050565b61186381611753565b811461186e57600080fd5b50565b6000813590506118808161185a565b92915050565b60006020828403121561189c5761189b611348565b5b60006118aa84828501611871565b91505092915050565b7f4e487b7100000000000000000000000000000000000000000000000000000000600052603260045260246000fd5b7f4e487b7100000000000000000000000000000000000000000000000000000000600052602260045260246000fd5b6000600282049050600182168061192957607f821691505b60208210810361193c5761193b6118e2565b5b50919050565b600081905092915050565b60008190508160005260206000209050919050565b6000815461196f81611911565b6119798186611942565b9450600182166000811461199457600181146119a9576119dc565b60ff19831686528115158202860193506119dc565b6119b28561194d565b60005b838110156119d4578154818901526001820191506020810190506119b5565b838801955050505b50505092915050565b60006119f18284611962565b915081905092915050565b7f4e487b7100000000000000000000000000000000000000000000000000000000600052601160045260246000fd5b6000611a3682611152565b91507fffffffffffffffffffffffffffffffffffffffffffffffffffffffffffffffff8203611a6857611a676119fc565b5b600182019050919050565b6000611a7e826110c2565b611a888185611942565b9350611a988185602086016110de565b80840191505092915050565b6000611ab08284611a73565b915081905092915050565b60008115159050919050565b611ad081611abb565b8114611adb57600080fd5b50565b600081519050611aed81611ac7565b92915050565b600060208284031215611b0957611b08611348565b5b6000611b1784828501611ade565b91505092915050565b7f556e617574686f72697a65640000000000000000000000000000000000000000600082015250565b6000611b56600c8361178f565b9150611b6182611b20565b602082019050919050565b60006020820190508181036000830152611b8581611b49565b9050919050565b7f496e76616c696420646576696365204944000000000000000000000000000000600082015250565b6000611bc260118361178f565b9150611bcd82611b8c565b602082019050919050565b60006020820190508181036000830152611bf181611bb5565b9050919050565b7f496e76616c6964206c6f636174696f6e00000000000000000000000000000000600082015250565b6000611c2e60108361178f565b9150611c3982611bf8565b602082019050919050565b60006020820190508181036000830152611c5d81611c21565b9050919050565b6000611c708385611942565b9350611c7d838584611408565b82840190509392505050565b6000611c96828486611c64565b91508190509392505050565b7f496e76616c696420646174612074797065000000000000000000000000000000600082015250565b6000611cd860118361178f565b9150611ce382611ca2565b602082019050919050565b60006020820190508181036000830152611d0781611ccb565b9050919050565b7f7c00000000000000000000000000000000000000000000000000000000000000815250565b6000611d40828a611a73565b9150611d4b82611d0e565b600182019150611d5c82888a611c64565b9150611d6782611d0e565b600182019150611d78828688611c64565b9150611d8382611d0e565b600182019150611d94828486611c64565b915081905098975050505050505050565b6000611db1838561178f565b9350611dbe838584611408565b611dc783611108565b840190509392505050565b600060a082019050611de7600083018b611765565b8181036020830152611df9818a6117a0565b90508181036040830152611e0e81888a611da5565b90508181036060830152611e23818688611da5565b90508181036080830152611e38818486611da5565b90509998505050505050505050565b600081519050611e5681611692565b92915050565b600060208284031215611e7257611e71611348565b5b6000611e8084828501611e47565b91505092915050565b7f456d707479206461746120747970650000000000000000000000000000000000600082015250565b6000611ebf600f8361178f565b9150611eca82611e89565b602082019050919050565b60006020820190508181036000830152611eee81611eb2565b9050919050565b7f54656d706c617465206578697374730000000000000000000000000000000000600082015250565b6000611f2b600f8361178f565b9150611f3682611ef5565b602082019050919050565b60006020820190508181036000830152611f5a81611f1e565b9050919050565b7f456d7074792074656d706c617465000000000000000000000000000000000000600082015250565b6000611f97600e8361178f565b9150611fa282611f61565b602082019050919050565b60006020820190508181036000830152611fc681611f8a565b9050919050565b600082905092915050565b60006020601f8301049050919050565b600082821b905092915050565b6000600883026120257fffffffffffffffffffffffffffffffffffffffffffffffffffffffffffffffff82611fe8565b61202f8683611fe8565b95508019841693508086168417925050509392505050565b600061206261205d61205884611152565b61129a565b611152565b9050919050565b6000819050919050565b61207c83612047565b61209061208882612069565b848454611ff5565b825550505050565b600090565b6120a5612098565b6120b0818484612073565b505050565b5b818110156120d4576120c960008261209d565b6001810190506120b6565b5050565b601f821115612119576120ea8161194d565b6120f384611fd8565b81016020851015612102578190505b61211661210e85611fd8565b8301826120b5565b50505b505050565b600082821c905092915050565b600061213c6000198460080261211e565b1980831691505092915050565b6000612155838361212b565b9150826002028217905092915050565b61216f8383611fcd565b67ffffffffffffffff8111156121885761218761135c565b5b6121928254611911565b61219d8282856120d8565b6000601f8311600181146121cc57600084156121ba578287013590505b6121c48582612149565b86555061222c565b601f1984166121da8661194d565b60005b82811015612202578489013582556001820191506020850194506020810190506121dd565b8683101561221f578489013561221b601f89168261212b565b8355505b6001600288020188555050505b50505050505050565b61223e826110c2565b67ffffffffffffffff8111156122575761225661135c565b5b6122618254611911565b61226c8282856120d8565b600060209050601f83116001811461229f576000841561228d578287015190505b6122978582612149565b8655506122ff565b601f1984166122ad8661194d565b60005b828110156122d5578489015182556001820191506020850194506020810190506122b0565b868310156122f257848901516122ee601f89168261212b565b8355505b6001600288020188555050505b505050505050565b60006040820190508181036000830152612322818587611da5565b90506123316020830184611314565b94935050505056fea26469706673582212203fc73381072b7a84d3ee05902b04ebc67dd6456096000fa324a1079ad2a5bad364736f6c63430008140033",
  "linkReferences": {},
  "deployedLinkReferences": {}
}