{
  "_format": "hh-sol-artifact-1",
  "contractName": "Marketplace",
  "sourceName": "contracts/Marketplace.sol",
  "abi": [
    {
      "inputs": [
        {
          "internalType": "address",
          "name": "_paymentAddress",
          "type": "address"
        }
      ],
      "stateMutability": "nonpayable",
      "type": "constructor"
    },
    {
      "inputs": [],
      "name": "ReentrancyGuardReentrantCall",
      "type": "error"
    },
    {
      "anonymous": false,
      "inputs": [
        {
          "indexed": true,
          "internalType": "address",
          "name": "seller",
          "type": "address"
        },
        {
          "indexed": true,
          "internalType": "address",
          "name": "nftAddress",
          "type": "address"
        },
        {
          "indexed": true,
          "internalType": "uint256",
          "name": "tokenId",
          "type": "uint256"
        },
        {
          "indexed": false,
          "internalType": "uint256",
          "name": "price",
          "type": "uint256"
        }
      ],
      "name": "ItemListed",
      "type": "event"
    },
    {
      "anonymous": false,
      "inputs": [
        {
          "indexed": true,
          "internalType": "address",
          "name": "buyer",
          "type": "address"
        },
        {
          "indexed": true,
          "internalType": "address",
          "name": "nftAddress",
          "type": "address"
        },
        {
          "indexed": true,
          "internalType": "uint256",
          "name": "tokenId",
          "type": "uint256"
        },
        {
          "indexed": false,
          "internalType": "uint256",
          "name": "price",
          "type": "uint256"
        }
      ],
      "name": "ItemSold",
      "type": "event"
    },
    {
      "anonymous": false,
      "inputs": [
        {
          "indexed": true,
          "internalType": "address",
          "name": "seller",
          "type": "address"
        },
        {
          "indexed": true,
          "internalType": "address",
          "name": "nftAddress",
          "type": "address"
        },
        {
          "indexed": true,
          "internalType": "uint256",
          "name": "tokenId",
          "type": "uint256"
        }
      ],
      "name": "ListingCanceled",
      "type": "event"
    },
    {
      "inputs": [
        {
          "internalType": "uint256",
          "name": "",
          "type": "uint256"
        }
      ],
      "name": "allListings",
      "outputs": [
        {
          "internalType": "address",
          "name": "nftAddress",
          "type": "address"
        },
        {
          "internalType": "uint256",
          "name": "tokenId",
          "type": "uint256"
        },
        {
          "internalType": "uint256",
          "name": "price",
          "type": "uint256"
        },
        {
          "internalType": "address",
          "name": "seller",
          "type": "address"
        },
        {
          "internalType": "bool",
          "name": "isActive",
          "type": "bool"
        }
      ],
      "stateMutability": "view",
      "type": "function"
    },
    {
      "inputs": [
        {
          "internalType": "address",
          "name": "nftAddress",
          "type": "address"
        },
        {
          "internalType": "uint256",
          "name": "tokenId",
          "type": "uint256"
        }
      ],
      "name": "buyItem",
      "outputs": [],
      "stateMutability": "payable",
      "type": "function"
    },
    {
      "inputs": [
        {
          "internalType": "address",
          "name": "nftAddress",
          "type": "address"
        },
        {
          "internalType": "uint256",
          "name": "tokenId",
          "type": "uint256"
        }
      ],
      "name": "cancelListing",
      "outputs": [],
      "stateMutability": "nonpayable",
      "type": "function"
    },
    {
      "inputs": [],
      "name": "getActiveListings",
      "outputs": [
        {
          "components": [
            {
              "internalType": "address",
              "name": "nftAddress",
              "type": "address"
            },
            {
              "internalType": "uint256",
              "name": "tokenId",
              "type": "uint256"
            },
            {
              "internalType": "uint256",
              "name": "price",
              "type": "uint256"
            },
            {
              "internalType": "address",
              "name": "seller",
              "type": "address"
            },
            {
              "internalType": "bool",
              "name": "isActive",
              "type": "bool"
            }
          ],
          "internalType": "struct Marketplace.Listing[]",
          "name": "",
          "type": "tuple[]"
        }
      ],
      "stateMutability": "view",
      "type": "function"
    },
    {
      "inputs": [],
      "name": "getAllListings",
      "outputs": [
        {
          "components": [
            {
              "internalType": "address",
              "name": "nftAddress",
              "type": "address"
            },
            {
              "internalType": "uint256",
              "name": "tokenId",
              "type": "uint256"
            },
            {
              "internalType": "uint256",
              "name": "price",
              "type": "uint256"
            },
            {
              "internalType": "address",
              "name": "seller",
              "type": "address"
            },
            {
              "internalType": "bool",
              "name": "isActive",
              "type": "bool"
            }
          ],
          "internalType": "struct Marketplace.Listing[]",
          "name": "",
          "type": "tuple[]"
        }
      ],
      "stateMutability": "view",
      "type": "function"
    },
    {
      "inputs": [
        {
          "internalType": "address",
          "name": "nftAddress",
          "type": "address"
        },
        {
          "internalType": "uint256",
          "name": "tokenId",
          "type": "uint256"
        },
        {
          "internalType": "uint256",
          "name": "price",
          "type": "uint256"
        }
      ],
      "name": "listItem",
      "outputs": [],
      "stateMutability": "nonpayable",
      "type": "function"
    },
    {
      "inputs": [
        {
          "internalType": "address",
          "name": "",
          "type": "address"
        },
        {
          "internalType": "uint256",
          "name": "",
          "type": "uint256"
        }
      ],
      "name": "listings",
      "outputs": [
        {
          "internalType": "address",
          "name": "nftAddress",
          "type": "address"
        },
        {
          "internalType": "uint256",
          "name": "tokenId",
          "type": "uint256"
        },
        {
          "internalType": "uint256",
          "name": "price",
          "type": "uint256"
        },
        {
          "internalType": "address",
          "name": "seller",
          "type": "address"
        },
        {
          "internalType": "bool",
          "name": "isActive",
          "type": "bool"
        }
      ],
      "stateMutability": "view",
      "type": "function"
    },
    {
      "inputs": [],
      "name": "paymentContract",
      "outputs": [
        {
          "internalType": "contract Payment",
          "name": "",
          "type": "address"
        }
      ],
      "stateMutability": "view",
      "type": "function"
    },
    {
      "stateMutability": "payable",
      "type": "receive"
    }
  ],
  "bytecode": "0x60a06040523480156200001157600080fd5b506040516200205f3803806200205f833981810160405281019062000037919062000156565b6001600081905550600073ffffffffffffffffffffffffffffffffffffffff168173ffffffffffffffffffffffffffffffffffffffff1603620000b1576040517f08c379a0000000000000000000000000000000000000000000000000000000008152600401620000a890620001e9565b60405180910390fd5b8073ffffffffffffffffffffffffffffffffffffffff1660808173ffffffffffffffffffffffffffffffffffffffff1681525050506200020b565b600080fd5b600073ffffffffffffffffffffffffffffffffffffffff82169050919050565b60006200011e82620000f1565b9050919050565b620001308162000111565b81146200013c57600080fd5b50565b600081519050620001508162000125565b92915050565b6000602082840312156200016f576200016e620000ec565b5b60006200017f848285016200013f565b91505092915050565b600082825260208201905092915050565b7f496e76616c6964207061796d656e742061646472657373000000000000000000600082015250565b6000620001d160178362000188565b9150620001de8262000199565b602082019050919050565b600060208201905081810360008301526200020481620001c2565b9050919050565b608051611e316200022e60003960008181610b930152610e290152611e316000f3fe60806040526004361061007e5760003560e01c80639c91dd561161004e5780639c91dd56146101995780639f37092a146101c4578063ae73ccec146101e0578063b2ddee061461020b576100be565b806207df30146100c35780630eeaa2ef1461010457806387c35bc01461014557806389bfd38f14610170576100be565b366100be576040517f08c379a00000000000000000000000000000000000000000000000000000000081526004016100b590611417565b60405180910390fd5b600080fd5b3480156100cf57600080fd5b506100ea60048036038101906100e591906114d0565b610234565b6040516100fb959493929190611549565b60405180910390f35b34801561011057600080fd5b5061012b6004803603810190610126919061159c565b6102c4565b60405161013c959493929190611549565b60405180910390f35b34801561015157600080fd5b5061015a610357565b604051610167919061170d565b60405180910390f35b34801561017c57600080fd5b506101976004803603810190610192919061172f565b6105c0565b005b3480156101a557600080fd5b506101ae610b91565b6040516101bb91906117e1565b60405180910390f35b6101de60048036038101906101d991906114d0565b610bb5565b005b3480156101ec57600080fd5b506101f5610f6c565b604051610202919061170d565b60405180910390f35b34801561021757600080fd5b50610232600480360381019061022d91906114d0565b6110a6565b005b6001602052816000526040600020602052806000526040600020600091509150508060000160009054906101000a900473ffffffffffffffffffffffffffffffffffffffff16908060010154908060020154908060030160009054906101000a900473ffffffffffffffffffffffffffffffffffffffff16908060030160149054906101000a900460ff16905085565b600281815481106102d457600080fd5b90600052602060002090600402016000915090508060000160009054906101000a900473ffffffffffffffffffffffffffffffffffffffff16908060010154908060020154908060030160009054906101000a900473ffffffffffffffffffffffffffffffffffffffff16908060030160149054906101000a900460ff16905085565b6060600080600090505b6002805490508110156103c85760028181548110610382576103816117fc565b5b906000526020600020906004020160030160149054906101000a900460ff16156103b55781806103b19061185a565b9250505b80806103c09061185a565b915050610361565b5060008167ffffffffffffffff8111156103e5576103e46118a2565b5b60405190808252806020026020018201604052801561041e57816020015b61040b61135d565b8152602001906001900390816104035790505b509050600080600090505b6002805490508110156105b6576002818154811061044a576104496117fc565b5b906000526020600020906004020160030160149054906101000a900460ff16156105a35760028181548110610482576104816117fc565b5b90600052602060002090600402016040518060a00160405290816000820160009054906101000a900473ffffffffffffffffffffffffffffffffffffffff1673ffffffffffffffffffffffffffffffffffffffff1673ffffffffffffffffffffffffffffffffffffffff16815260200160018201548152602001600282015481526020016003820160009054906101000a900473ffffffffffffffffffffffffffffffffffffffff1673ffffffffffffffffffffffffffffffffffffffff1673ffffffffffffffffffffffffffffffffffffffff1681526020016003820160149054906101000a900460ff161515151581525050838381518110610589576105886117fc565b5b6020026020010181905250818061059f9061185a565b9250505b80806105ae9061185a565b915050610429565b5081935050505090565b6105c861126a565b6000811161060b576040517f08c379a00000000000000000000000000000000000000000000000000000000081526004016106029061191d565b60405180910390fd5b610614836112b0565b610653576040517f08c379a000000000000000000000000000000000000000000000000000000000815260040161064a90611989565b60405180910390fd5b60008390503373ffffffffffffffffffffffffffffffffffffffff168173ffffffffffffffffffffffffffffffffffffffff16636352211e856040518263ffffffff1660e01b81526004016106a891906119a9565b602060405180830381865afa1580156106c5573d6000803e3d6000fd5b505050506040513d601f19601f820116820180604052508101906106e991906119d9565b73ffffffffffffffffffffffffffffffffffffffff161461073f576040517f08c379a000000000000000000000000000000000000000000000000000000000815260040161073690611a52565b60405180910390fd5b3073ffffffffffffffffffffffffffffffffffffffff168173ffffffffffffffffffffffffffffffffffffffff1663081812fc856040518263ffffffff1660e01b815260040161078f91906119a9565b602060405180830381865afa1580156107ac573d6000803e3d6000fd5b505050506040513d601f19601f820116820180604052508101906107d091906119d9565b73ffffffffffffffffffffffffffffffffffffffff1614610826576040517f08c379a000000000000000000000000000000000000000000000000000000000815260040161081d90611abe565b60405180910390fd5b6040518060a001604052808573ffffffffffffffffffffffffffffffffffffffff1681526020018481526020018381526020013373ffffffffffffffffffffffffffffffffffffffff16815260200160011515815250600160008673ffffffffffffffffffffffffffffffffffffffff1673ffffffffffffffffffffffffffffffffffffffff168152602001908152602001600020600085815260200190815260200160002060008201518160000160006101000a81548173ffffffffffffffffffffffffffffffffffffffff021916908373ffffffffffffffffffffffffffffffffffffffff160217905550602082015181600101556040820151816002015560608201518160030160006101000a81548173ffffffffffffffffffffffffffffffffffffffff021916908373ffffffffffffffffffffffffffffffffffffffff16021790555060808201518160030160146101000a81548160ff0219169083151502179055509050506002600160008673ffffffffffffffffffffffffffffffffffffffff1673ffffffffffffffffffffffffffffffffffffffff168152602001908152602001600020600085815260200190815260200160002090806001815401808255809150506001900390600052602060002090600402016000909190919091506000820160009054906101000a900473ffffffffffffffffffffffffffffffffffffffff168160000160006101000a81548173ffffffffffffffffffffffffffffffffffffffff021916908373ffffffffffffffffffffffffffffffffffffffff16021790555060018201548160010155600282015481600201556003820160009054906101000a900473ffffffffffffffffffffffffffffffffffffffff168160030160006101000a81548173ffffffffffffffffffffffffffffffffffffffff021916908373ffffffffffffffffffffffffffffffffffffffff1602179055506003820160149054906101000a900460ff168160030160146101000a81548160ff0219169083151502179055505050828473ffffffffffffffffffffffffffffffffffffffff163373ffffffffffffffffffffffffffffffffffffffff167fd547e933094f12a9159076970143ebe73234e64480317844b0dcb36117116de485604051610b7b91906119a9565b60405180910390a450610b8c611353565b505050565b7f000000000000000000000000000000000000000000000000000000000000000081565b610bbd61126a565b6000600160008473ffffffffffffffffffffffffffffffffffffffff1673ffffffffffffffffffffffffffffffffffffffff168152602001908152602001600020600083815260200190815260200160002090508060030160149054906101000a900460ff16610c62576040517f08c379a0000000000000000000000000000000000000000000000000000000008152600401610c5990611b2a565b60405180910390fd5b80600201543414610ca8576040517f08c379a0000000000000000000000000000000000000000000000000000000008152600401610c9f90611b96565b60405180910390fd5b60008390503073ffffffffffffffffffffffffffffffffffffffff168173ffffffffffffffffffffffffffffffffffffffff1663081812fc856040518263ffffffff1660e01b8152600401610cfd91906119a9565b602060405180830381865afa158015610d1a573d6000803e3d6000fd5b505050506040513d601f19601f82011682018060405250810190610d3e91906119d9565b73ffffffffffffffffffffffffffffffffffffffff1614610d94576040517f08c379a0000000000000000000000000000000000000000000000000000000008152600401610d8b90611c02565b60405180910390fd5b8073ffffffffffffffffffffffffffffffffffffffff166342842e0e8360030160009054906101000a900473ffffffffffffffffffffffffffffffffffffffff1633866040518463ffffffff1660e01b8152600401610df593929190611c22565b600060405180830381600087803b158015610e0f57600080fd5b505af1158015610e23573d6000803e3d6000fd5b505050507f000000000000000000000000000000000000000000000000000000000000000073ffffffffffffffffffffffffffffffffffffffff16638fe123d7348460030160009054906101000a900473ffffffffffffffffffffffffffffffffffffffff166040518363ffffffff1660e01b8152600401610ea59190611c59565b6000604051808303818588803b158015610ebe57600080fd5b505af1158015610ed2573d6000803e3d6000fd5b505050505060008260030160146101000a81548160ff021916908315150217905550828473ffffffffffffffffffffffffffffffffffffffff163373ffffffffffffffffffffffffffffffffffffffff167fc36542c7a190a4c20a7f15a0ddc46871de452f269f15b0e621f11b48463b299f8560020154604051610f5691906119a9565b60405180910390a45050610f68611353565b5050565b60606002805480602002602001604051908101604052809291908181526020016000905b8282101561109d57838290600052602060002090600402016040518060a00160405290816000820160009054906101000a900473ffffffffffffffffffffffffffffffffffffffff1673ffffffffffffffffffffffffffffffffffffffff1673ffffffffffffffffffffffffffffffffffffffff16815260200160018201548152602001600282015481526020016003820160009054906101000a900473ffffffffffffffffffffffffffffffffffffffff1673ffffffffffffffffffffffffffffffffffffffff1673ffffffffffffffffffffffffffffffffffffffff1681526020016003820160149054906101000a900460ff16151515158152505081526020019060010190610f90565b50505050905090565b6110ae61126a565b6000600160008473ffffffffffffffffffffffffffffffffffffffff1673ffffffffffffffffffffffffffffffffffffffff168152602001908152602001600020600083815260200190815260200160002090503373ffffffffffffffffffffffffffffffffffffffff168160030160009054906101000a900473ffffffffffffffffffffffffffffffffffffffff1673ffffffffffffffffffffffffffffffffffffffff1614611194576040517f08c379a000000000000000000000000000000000000000000000000000000000815260040161118b90611cc0565b60405180910390fd5b8060030160149054906101000a900460ff166111e5576040517f08c379a00000000000000000000000000000000000000000000000000000000081526004016111dc90611d2c565b60405180910390fd5b60008160030160146101000a81548160ff021916908315150217905550818373ffffffffffffffffffffffffffffffffffffffff163373ffffffffffffffffffffffffffffffffffffffff167ffb87149f10f1ffda9c1df55fae0d68fe643c8be0790eec2f859205ed312cd68b60405160405180910390a450611266611353565b5050565b6002600054036112a6576040517f3ee5aeb500000000000000000000000000000000000000000000000000000000815260040160405180910390fd5b6002600081905550565b60008173ffffffffffffffffffffffffffffffffffffffff166301ffc9a77f80ac58cd000000000000000000000000000000000000000000000000000000006040518263ffffffff1660e01b815260040161130b9190611d87565b602060405180830381865afa158015611328573d6000803e3d6000fd5b505050506040513d601f19601f8201168201806040525081019061134c9190611dce565b9050919050565b6001600081905550565b6040518060a00160405280600073ffffffffffffffffffffffffffffffffffffffff1681526020016000815260200160008152602001600073ffffffffffffffffffffffffffffffffffffffff1681526020016000151581525090565b600082825260208201905092915050565b7f446972656374207061796d656e7473206e6f7420616c6c6f7765640000000000600082015250565b6000611401601b836113ba565b915061140c826113cb565b602082019050919050565b60006020820190508181036000830152611430816113f4565b9050919050565b600080fd5b600073ffffffffffffffffffffffffffffffffffffffff82169050919050565b60006114678261143c565b9050919050565b6114778161145c565b811461148257600080fd5b50565b6000813590506114948161146e565b92915050565b6000819050919050565b6114ad8161149a565b81146114b857600080fd5b50565b6000813590506114ca816114a4565b92915050565b600080604083850312156114e7576114e6611437565b5b60006114f585828601611485565b9250506020611506858286016114bb565b9150509250929050565b6115198161145c565b82525050565b6115288161149a565b82525050565b60008115159050919050565b6115438161152e565b82525050565b600060a08201905061155e6000830188611510565b61156b602083018761151f565b611578604083018661151f565b6115856060830185611510565b611592608083018461153a565b9695505050505050565b6000602082840312156115b2576115b1611437565b5b60006115c0848285016114bb565b91505092915050565b600081519050919050565b600082825260208201905092915050565b6000819050602082019050919050565b6115fe8161145c565b82525050565b61160d8161149a565b82525050565b61161c8161152e565b82525050565b60a08201600082015161163860008501826115f5565b50602082015161164b6020850182611604565b50604082015161165e6040850182611604565b50606082015161167160608501826115f5565b5060808201516116846080850182611613565b50505050565b60006116968383611622565b60a08301905092915050565b6000602082019050919050565b60006116ba826115c9565b6116c481856115d4565b93506116cf836115e5565b8060005b838110156117005781516116e7888261168a565b97506116f2836116a2565b9250506001810190506116d3565b5085935050505092915050565b6000602082019050818103600083015261172781846116af565b905092915050565b60008060006060848603121561174857611747611437565b5b600061175686828701611485565b9350506020611767868287016114bb565b9250506040611778868287016114bb565b9150509250925092565b6000819050919050565b60006117a76117a261179d8461143c565b611782565b61143c565b9050919050565b60006117b98261178c565b9050919050565b60006117cb826117ae565b9050919050565b6117db816117c0565b82525050565b60006020820190506117f660008301846117d2565b92915050565b7f4e487b7100000000000000000000000000000000000000000000000000000000600052603260045260246000fd5b7f4e487b7100000000000000000000000000000000000000000000000000000000600052601160045260246000fd5b60006118658261149a565b91507fffffffffffffffffffffffffffffffffffffffffffffffffffffffffffffffff82036118975761189661182b565b5b600182019050919050565b7f4e487b7100000000000000000000000000000000000000000000000000000000600052604160045260246000fd5b7f5072696365206d757374206265203e2030000000000000000000000000000000600082015250565b60006119076011836113ba565b9150611912826118d1565b602082019050919050565b60006020820190508181036000830152611936816118fa565b9050919050565b7f496e76616c6964204e465420636f6e7472616374000000000000000000000000600082015250565b60006119736014836113ba565b915061197e8261193d565b602082019050919050565b600060208201905081810360008301526119a281611966565b9050919050565b60006020820190506119be600083018461151f565b92915050565b6000815190506119d38161146e565b92915050565b6000602082840312156119ef576119ee611437565b5b60006119fd848285016119c4565b91505092915050565b7f4e6f74206f776e65720000000000000000000000000000000000000000000000600082015250565b6000611a3c6009836113ba565b9150611a4782611a06565b602082019050919050565b60006020820190508181036000830152611a6b81611a2f565b9050919050565b7f4e6f7420617070726f7665640000000000000000000000000000000000000000600082015250565b6000611aa8600c836113ba565b9150611ab382611a72565b602082019050919050565b60006020820190508181036000830152611ad781611a9b565b9050919050565b7f4974656d206e6f7420617661696c61626c650000000000000000000000000000600082015250565b6000611b146012836113ba565b9150611b1f82611ade565b602082019050919050565b60006020820190508181036000830152611b4381611b07565b9050919050565b7f496e636f7272656374207061796d656e74000000000000000000000000000000600082015250565b6000611b806011836113ba565b9150611b8b82611b4a565b602082019050919050565b60006020820190508181036000830152611baf81611b73565b9050919050565b7f417070726f76616c207265766f6b656400000000000000000000000000000000600082015250565b6000611bec6010836113ba565b9150611bf782611bb6565b602082019050919050565b60006020820190508181036000830152611c1b81611bdf565b9050919050565b6000606082019050611c376000830186611510565b611c446020830185611510565b611c51604083018461151f565b949350505050565b6000602082019050611c6e6000830184611510565b92915050565b7f4e6f742073656c6c657200000000000000000000000000000000000000000000600082015250565b6000611caa600a836113ba565b9150611cb582611c74565b602082019050919050565b60006020820190508181036000830152611cd981611c9d565b9050919050565b7f416c726561647920696e61637469766500000000000000000000000000000000600082015250565b6000611d166010836113ba565b9150611d2182611ce0565b602082019050919050565b60006020820190508181036000830152611d4581611d09565b9050919050565b60007fffffffff0000000000000000000000000000000000000000000000000000000082169050919050565b611d8181611d4c565b82525050565b6000602082019050611d9c6000830184611d78565b92915050565b611dab8161152e565b8114611db657600080fd5b50565b600081519050611dc881611da2565b92915050565b600060208284031215611de457611de3611437565b5b6000611df284828501611db9565b9150509291505056fea26469706673582212203be6519512ca44e0487d023852fd21a1a21e9b934a7dee6f19a515a05bfc1cfd64736f6c63430008140033",
  "linkReferences": {},
  "deployedLinkReferences": {}
}