{
  "_format": "hh-sol-artifact-1",
  "contractName": "Payment",
  "sourceName": "contracts/Payment.sol",
  "abi": [
    {
      "inputs": [
        {
          "internalType": "uint256",
          "name": "_feePercentage",
          "type": "uint256"
        },
        {
          "internalType": "address",
          "name": "_platformWallet",
          "type": "address"
        }
      ],
      "stateMutability": "nonpayable",
      "type": "constructor"
    },
    {
      "inputs": [
        {
          "internalType": "address",
          "name": "owner",
          "type": "address"
        }
      ],
      "name": "OwnableInvalidOwner",
      "type": "error"
    },
    {
      "inputs": [
        {
          "internalType": "address",
          "name": "account",
          "type": "address"
        }
      ],
      "name": "OwnableUnauthorizedAccount",
      "type": "error"
    },
    {
      "inputs": [],
      "name": "ReentrancyGuardReentrantCall",
      "type": "error"
    },
    {
      "anonymous": false,
      "inputs": [
        {
          "indexed": true,
          "internalType": "address",
          "name": "previousOwner",
          "type": "address"
        },
        {
          "indexed": true,
          "internalType": "address",
          "name": "newOwner",
          "type": "address"
        }
      ],
      "name": "OwnershipTransferred",
      "type": "event"
    },
    {
      "anonymous": false,
      "inputs": [
        {
          "indexed": true,
          "internalType": "address",
          "name": "seller",
          "type": "address"
        },
        {
          "indexed": true,
          "internalType": "address",
          "name": "buyer",
          "type": "address"
        },
        {
          "indexed": false,
          "internalType": "uint256",
          "name": "amount",
          "type": "uint256"
        },
        {
          "indexed": false,
          "internalType": "uint256",
          "name": "fee",
          "type": "uint256"
        }
      ],
      "name": "PaymentProcessed",
      "type": "event"
    },
    {
      "inputs": [],
      "name": "owner",
      "outputs": [
        {
          "internalType": "address",
          "name": "",
          "type": "address"
        }
      ],
      "stateMutability": "view",
      "type": "function"
    },
    {
      "inputs": [],
      "name": "platformFeePercentage",
      "outputs": [
        {
          "internalType": "uint256",
          "name": "",
          "type": "uint256"
        }
      ],
      "stateMutability": "view",
      "type": "function"
    },
    {
      "inputs": [],
      "name": "platformWallet",
      "outputs": [
        {
          "internalType": "address",
          "name": "",
          "type": "address"
        }
      ],
      "stateMutability": "view",
      "type": "function"
    },
    {
      "inputs": [
        {
          "internalType": "address",
          "name": "seller",
          "type": "address"
        }
      ],
      "name": "processPayment",
      "outputs": [],
      "stateMutability": "payable",
      "type": "function"
    },
    {
      "inputs": [],
      "name": "renounceOwnership",
      "outputs": [],
      "stateMutability": "nonpayable",
      "type": "function"
    },
    {
      "inputs": [
        {
          "internalType": "address",
          "name": "newOwner",
          "type": "address"
        }
      ],
      "name": "transferOwnership",
      "outputs": [],
      "stateMutability": "nonpayable",
      "type": "function"
    },
    {
      "inputs": [
        {
          "internalType": "uint256",
          "name": "newFeePercentage",
          "type": "uint256"
        }
      ],
      "name": "updateFeePercentage",
      "outputs": [],
      "stateMutability": "nonpayable",
      "type": "function"
    },
    {
      "inputs": [
        {
          "internalType": "address",
          "name": "newWallet",
          "type": "address"
        }
      ],
      "name": "updatePlatformWallet",
      "outputs": [],
      "stateMutability": "nonpayable",
      "type": "function"
    }
  ],
  "bytecode": "0x60806040523480156200001157600080fd5b5060405162000f5f38038062000f5f83398181016040528101906200003791906200027f565b33600073ffffffffffffffffffffffffffffffffffffffff168173ffffffffffffffffffffffffffffffffffffffff1603620000ad5760006040517f1e4fbdf7000000000000000000000000000000000000000000000000000000008152600401620000a49190620002d7565b60405180910390fd5b620000be816200011660201b60201c565b50600180819055508160028190555080600360006101000a81548173ffffffffffffffffffffffffffffffffffffffff021916908373ffffffffffffffffffffffffffffffffffffffff1602179055505050620002f4565b60008060009054906101000a900473ffffffffffffffffffffffffffffffffffffffff169050816000806101000a81548173ffffffffffffffffffffffffffffffffffffffff021916908373ffffffffffffffffffffffffffffffffffffffff1602179055508173ffffffffffffffffffffffffffffffffffffffff168173ffffffffffffffffffffffffffffffffffffffff167f8be0079c531659141344cd1fd0a4f28419497f9722a3daafe3b4186f6b6457e060405160405180910390a35050565b600080fd5b6000819050919050565b620001f481620001df565b81146200020057600080fd5b50565b6000815190506200021481620001e9565b92915050565b600073ffffffffffffffffffffffffffffffffffffffff82169050919050565b600062000247826200021a565b9050919050565b62000259816200023a565b81146200026557600080fd5b50565b60008151905062000279816200024e565b92915050565b60008060408385031215620002995762000298620001da565b5b6000620002a98582860162000203565b9250506020620002bc8582860162000268565b9150509250929050565b620002d1816200023a565b82525050565b6000602082019050620002ee6000830184620002c6565b92915050565b610c5b80620003046000396000f3fe60806040526004361061007b5760003560e01c8063ada4ef301161004e578063ada4ef3014610107578063cdd78cfc14610130578063f2fde38b1461015b578063fa2af9da146101845761007b565b80636cad3fb014610080578063715018a6146100a95780638da5cb5b146100c05780638fe123d7146100eb575b600080fd5b34801561008c57600080fd5b506100a760048036038101906100a291906107be565b6101af565b005b3480156100b557600080fd5b506100be610205565b005b3480156100cc57600080fd5b506100d5610219565b6040516100e2919061082c565b60405180910390f35b61010560048036038101906101009190610873565b610242565b005b34801561011357600080fd5b5061012e60048036038101906101299190610873565b610474565b005b34801561013c57600080fd5b5061014561052f565b60405161015291906108af565b60405180910390f35b34801561016757600080fd5b50610182600480360381019061017d9190610873565b610535565b005b34801561019057600080fd5b506101996105bb565b6040516101a6919061082c565b60405180910390f35b6101b76105e1565b60148111156101fb576040517f08c379a00000000000000000000000000000000000000000000000000000000081526004016101f290610927565b60405180910390fd5b8060028190555050565b61020d6105e1565b6102176000610668565b565b60008060009054906101000a900473ffffffffffffffffffffffffffffffffffffffff16905090565b61024a61072c565b6000341161028d576040517f08c379a0000000000000000000000000000000000000000000000000000000008152600401610284906109b9565b60405180910390fd5b600060646002543461029f9190610a08565b6102a99190610a79565b9050600081346102b99190610aaa565b90506000600360009054906101000a900473ffffffffffffffffffffffffffffffffffffffff1673ffffffffffffffffffffffffffffffffffffffff168360405161030390610b0f565b60006040518083038185875af1925050503d8060008114610340576040519150601f19603f3d011682016040523d82523d6000602084013e610345565b606091505b5050905060008473ffffffffffffffffffffffffffffffffffffffff168360405161036f90610b0f565b60006040518083038185875af1925050503d80600081146103ac576040519150601f19603f3d011682016040523d82523d6000602084013e6103b1565b606091505b505090508180156103bf5750805b6103fe576040517f08c379a00000000000000000000000000000000000000000000000000000000081526004016103f590610b70565b60405180910390fd5b3373ffffffffffffffffffffffffffffffffffffffff168573ffffffffffffffffffffffffffffffffffffffff167fa6c1325e03b867ee45303c64111dc7e52670f1da44597390374b5210cda6508d348760405161045d929190610b90565b60405180910390a350505050610471610772565b50565b61047c6105e1565b600073ffffffffffffffffffffffffffffffffffffffff168173ffffffffffffffffffffffffffffffffffffffff16036104eb576040517f08c379a00000000000000000000000000000000000000000000000000000000081526004016104e290610c05565b60405180910390fd5b80600360006101000a81548173ffffffffffffffffffffffffffffffffffffffff021916908373ffffffffffffffffffffffffffffffffffffffff16021790555050565b60025481565b61053d6105e1565b600073ffffffffffffffffffffffffffffffffffffffff168173ffffffffffffffffffffffffffffffffffffffff16036105af5760006040517f1e4fbdf70000000000000000000000000000000000000000000000000000000081526004016105a6919061082c565b60405180910390fd5b6105b881610668565b50565b600360009054906101000a900473ffffffffffffffffffffffffffffffffffffffff1681565b6105e961077b565b73ffffffffffffffffffffffffffffffffffffffff16610607610219565b73ffffffffffffffffffffffffffffffffffffffff16146106665761062a61077b565b6040517f118cdaa700000000000000000000000000000000000000000000000000000000815260040161065d919061082c565b60405180910390fd5b565b60008060009054906101000a900473ffffffffffffffffffffffffffffffffffffffff169050816000806101000a81548173ffffffffffffffffffffffffffffffffffffffff021916908373ffffffffffffffffffffffffffffffffffffffff1602179055508173ffffffffffffffffffffffffffffffffffffffff168173ffffffffffffffffffffffffffffffffffffffff167f8be0079c531659141344cd1fd0a4f28419497f9722a3daafe3b4186f6b6457e060405160405180910390a35050565b600260015403610768576040517f3ee5aeb500000000000000000000000000000000000000000000000000000000815260040160405180910390fd5b6002600181905550565b60018081905550565b600033905090565b600080fd5b6000819050919050565b61079b81610788565b81146107a657600080fd5b50565b6000813590506107b881610792565b92915050565b6000602082840312156107d4576107d3610783565b5b60006107e2848285016107a9565b91505092915050565b600073ffffffffffffffffffffffffffffffffffffffff82169050919050565b6000610816826107eb565b9050919050565b6108268161080b565b82525050565b6000602082019050610841600083018461081d565b92915050565b6108508161080b565b811461085b57600080fd5b50565b60008135905061086d81610847565b92915050565b60006020828403121561088957610888610783565b5b60006108978482850161085e565b91505092915050565b6108a981610788565b82525050565b60006020820190506108c460008301846108a0565b92915050565b600082825260208201905092915050565b7f4665652063616e6e6f7420657863656564203230250000000000000000000000600082015250565b60006109116015836108ca565b915061091c826108db565b602082019050919050565b6000602082019050818103600083015261094081610904565b9050919050565b7f5061796d656e7420616d6f756e74206d7573742062652067726561746572207460008201527f68616e2030000000000000000000000000000000000000000000000000000000602082015250565b60006109a36025836108ca565b91506109ae82610947565b604082019050919050565b600060208201905081810360008301526109d281610996565b9050919050565b7f4e487b7100000000000000000000000000000000000000000000000000000000600052601160045260246000fd5b6000610a1382610788565b9150610a1e83610788565b9250828202610a2c81610788565b91508282048414831517610a4357610a426109d9565b5b5092915050565b7f4e487b7100000000000000000000000000000000000000000000000000000000600052601260045260246000fd5b6000610a8482610788565b9150610a8f83610788565b925082610a9f57610a9e610a4a565b5b828204905092915050565b6000610ab582610788565b9150610ac083610788565b9250828203905081811115610ad857610ad76109d9565b5b92915050565b600081905092915050565b50565b6000610af9600083610ade565b9150610b0482610ae9565b600082019050919050565b6000610b1a82610aec565b9150819050919050565b7f5061796d656e74207472616e73666572206661696c6564000000000000000000600082015250565b6000610b5a6017836108ca565b9150610b6582610b24565b602082019050919050565b60006020820190508181036000830152610b8981610b4d565b9050919050565b6000604082019050610ba560008301856108a0565b610bb260208301846108a0565b9392505050565b7f496e76616c69642077616c6c6574206164647265737300000000000000000000600082015250565b6000610bef6016836108ca565b9150610bfa82610bb9565b602082019050919050565b60006020820190508181036000830152610c1e81610be2565b905091905056fea264697066735822122049cd4eea27230b82837460b4846e1e41d1e8355ffea733d82fb90f0091109ded64736f6c63430008140033",
  "linkReferences": {},
  "deployedLinkReferences": {}
}