{
  "_format": "hh-sol-artifact-1",
  "contractName": "Payment",
  "sourceName": "contracts/Payment.sol",
  "abi": [
    {
      "inputs": [
        {
          "internalType": "uint256",
          "name": "_feePercentage",
          "type": "uint256"
        },
        {
          "internalType": "address",
          "name": "_platformWallet",
          "type": "address"
        }
      ],
      "stateMutability": "nonpayable",
      "type": "constructor"
    },
    {
      "inputs": [
        {
          "internalType": "address",
          "name": "owner",
          "type": "address"
        }
      ],
      "name": "OwnableInvalidOwner",
      "type": "error"
    },
    {
      "inputs": [
        {
          "internalType": "address",
          "name": "account",
          "type": "address"
        }
      ],
      "name": "OwnableUnauthorizedAccount",
      "type": "error"
    },
    {
      "inputs": [],
      "name": "ReentrancyGuardReentrantCall",
      "type": "error"
    },
    {
      "anonymous": false,
      "inputs": [
        {
          "indexed": false,
          "internalType": "uint256",
          "name": "newFee",
          "type": "uint256"
        }
      ],
      "name": "FeeUpdated",
      "type": "event"
    },
    {
      "anonymous": false,
      "inputs": [
        {
          "indexed": true,
          "internalType": "address",
          "name": "previousOwner",
          "type": "address"
        },
        {
          "indexed": true,
          "internalType": "address",
          "name": "newOwner",
          "type": "address"
        }
      ],
      "name": "OwnershipTransferred",
      "type": "event"
    },
    {
      "anonymous": false,
      "inputs": [
        {
          "indexed": true,
          "internalType": "uint256",
          "name": "saleId",
          "type": "uint256"
        },
        {
          "indexed": true,
          "internalType": "address",
          "name": "seller",
          "type": "address"
        },
        {
          "indexed": true,
          "internalType": "address",
          "name": "buyer",
          "type": "address"
        },
        {
          "indexed": false,
          "internalType": "uint256",
          "name": "amount",
          "type": "uint256"
        },
        {
          "indexed": false,
          "internalType": "uint256",
          "name": "fee",
          "type": "uint256"
        }
      ],
      "name": "PaymentProcessed",
      "type": "event"
    },
    {
      "anonymous": false,
      "inputs": [
        {
          "indexed": false,
          "internalType": "address",
          "name": "newWallet",
          "type": "address"
        }
      ],
      "name": "WalletUpdated",
      "type": "event"
    },
    {
      "inputs": [],
      "name": "getPlatformSales",
      "outputs": [
        {
          "components": [
            {
              "internalType": "address",
              "name": "buyer",
              "type": "address"
            },
            {
              "internalType": "address",
              "name": "seller",
              "type": "address"
            },
            {
              "internalType": "uint256",
              "name": "amount",
              "type": "uint256"
            },
            {
              "internalType": "uint256",
              "name": "fee",
              "type": "uint256"
            },
            {
              "internalType": "uint256",
              "name": "timestamp",
              "type": "uint256"
            }
          ],
          "internalType": "struct Payment.SaleRecord[]",
          "name": "",
          "type": "tuple[]"
        }
      ],
      "stateMutability": "view",
      "type": "function"
    },
    {
      "inputs": [],
      "name": "getPlatformStats",
      "outputs": [
        {
          "internalType": "uint256",
          "name": "totalRevenue",
          "type": "uint256"
        },
        {
          "internalType": "uint256",
          "name": "totalSales",
          "type": "uint256"
        },
        {
          "internalType": "uint256",
          "name": "avgFeePerSale",
          "type": "uint256"
        }
      ],
      "stateMutability": "view",
      "type": "function"
    },
    {
      "inputs": [
        {
          "internalType": "address",
          "name": "seller",
          "type": "address"
        }
      ],
      "name": "getSalesHistory",
      "outputs": [
        {
          "components": [
            {
              "internalType": "address",
              "name": "buyer",
              "type": "address"
            },
            {
              "internalType": "address",
              "name": "seller",
              "type": "address"
            },
            {
              "internalType": "uint256",
              "name": "amount",
              "type": "uint256"
            },
            {
              "internalType": "uint256",
              "name": "fee",
              "type": "uint256"
            },
            {
              "internalType": "uint256",
              "name": "timestamp",
              "type": "uint256"
            }
          ],
          "internalType": "struct Payment.SaleRecord[]",
          "name": "",
          "type": "tuple[]"
        }
      ],
      "stateMutability": "view",
      "type": "function"
    },
    {
      "inputs": [
        {
          "internalType": "address",
          "name": "seller",
          "type": "address"
        }
      ],
      "name": "getSalesValue",
      "outputs": [
        {
          "internalType": "uint256",
          "name": "",
          "type": "uint256"
        }
      ],
      "stateMutability": "view",
      "type": "function"
    },
    {
      "inputs": [],
      "name": "getTotalSaleValue",
      "outputs": [
        {
          "internalType": "uint256",
          "name": "",
          "type": "uint256"
        }
      ],
      "stateMutability": "view",
      "type": "function"
    },
    {
      "inputs": [],
      "name": "owner",
      "outputs": [
        {
          "internalType": "address",
          "name": "",
          "type": "address"
        }
      ],
      "stateMutability": "view",
      "type": "function"
    },
    {
      "inputs": [],
      "name": "platformFeePercentage",
      "outputs": [
        {
          "internalType": "uint256",
          "name": "",
          "type": "uint256"
        }
      ],
      "stateMutability": "view",
      "type": "function"
    },
    {
      "inputs": [],
      "name": "platformTotalRevenue",
      "outputs": [
        {
          "internalType": "uint256",
          "name": "",
          "type": "uint256"
        }
      ],
      "stateMutability": "view",
      "type": "function"
    },
    {
      "inputs": [],
      "name": "platformWallet",
      "outputs": [
        {
          "internalType": "address",
          "name": "",
          "type": "address"
        }
      ],
      "stateMutability": "view",
      "type": "function"
    },
    {
      "inputs": [
        {
          "internalType": "address",
          "name": "seller",
          "type": "address"
        }
      ],
      "name": "processPayment",
      "outputs": [],
      "stateMutability": "payable",
      "type": "function"
    },
    {
      "inputs": [],
      "name": "renounceOwnership",
      "outputs": [],
      "stateMutability": "nonpayable",
      "type": "function"
    },
    {
      "inputs": [
        {
          "internalType": "address",
          "name": "",
          "type": "address"
        }
      ],
      "name": "salesBySeller",
      "outputs": [
        {
          "internalType": "uint256",
          "name": "",
          "type": "uint256"
        }
      ],
      "stateMutability": "view",
      "type": "function"
    },
    {
      "inputs": [
        {
          "internalType": "address",
          "name": "",
          "type": "address"
        },
        {
          "internalType": "uint256",
          "name": "",
          "type": "uint256"
        }
      ],
      "name": "salesHistory",
      "outputs": [
        {
          "internalType": "address",
          "name": "buyer",
          "type": "address"
        },
        {
          "internalType": "address",
          "name": "seller",
          "type": "address"
        },
        {
          "internalType": "uint256",
          "name": "amount",
          "type": "uint256"
        },
        {
          "internalType": "uint256",
          "name": "fee",
          "type": "uint256"
        },
        {
          "internalType": "uint256",
          "name": "timestamp",
          "type": "uint256"
        }
      ],
      "stateMutability": "view",
      "type": "function"
    },
    {
      "inputs": [
        {
          "internalType": "address",
          "name": "newOwner",
          "type": "address"
        }
      ],
      "name": "transferOwnership",
      "outputs": [],
      "stateMutability": "nonpayable",
      "type": "function"
    },
    {
      "inputs": [
        {
          "internalType": "uint256",
          "name": "newFeePercentage",
          "type": "uint256"
        }
      ],
      "name": "updateFeePercentage",
      "outputs": [],
      "stateMutability": "nonpayable",
      "type": "function"
    },
    {
      "inputs": [
        {
          "internalType": "address",
          "name": "newWallet",
          "type": "address"
        }
      ],
      "name": "updatePlatformWallet",
      "outputs": [],
      "stateMutability": "nonpayable",
      "type": "function"
    },
    {
      "stateMutability": "payable",
      "type": "receive"
    }
  ],
  "bytecode": "0x608060405234801561001057600080fd5b50604051611e1d380380611e1d8339818101604052810190610032919061031b565b33600073ffffffffffffffffffffffffffffffffffffffff168173ffffffffffffffffffffffffffffffffffffffff16036100a55760006040517f1e4fbdf700000000000000000000000000000000000000000000000000000000815260040161009c919061036a565b60405180910390fd5b6100b4816101be60201b60201c565b50600180819055506014821115610100576040517f08c379a00000000000000000000000000000000000000000000000000000000081526004016100f7906103e2565b60405180910390fd5b600073ffffffffffffffffffffffffffffffffffffffff168173ffffffffffffffffffffffffffffffffffffffff160361016f576040517f08c379a00000000000000000000000000000000000000000000000000000000081526004016101669061044e565b60405180910390fd5b8160028190555080600360006101000a81548173ffffffffffffffffffffffffffffffffffffffff021916908373ffffffffffffffffffffffffffffffffffffffff160217905550505061046e565b60008060009054906101000a900473ffffffffffffffffffffffffffffffffffffffff169050816000806101000a81548173ffffffffffffffffffffffffffffffffffffffff021916908373ffffffffffffffffffffffffffffffffffffffff1602179055508173ffffffffffffffffffffffffffffffffffffffff168173ffffffffffffffffffffffffffffffffffffffff167f8be0079c531659141344cd1fd0a4f28419497f9722a3daafe3b4186f6b6457e060405160405180910390a35050565b600080fd5b6000819050919050565b61029a81610287565b81146102a557600080fd5b50565b6000815190506102b781610291565b92915050565b600073ffffffffffffffffffffffffffffffffffffffff82169050919050565b60006102e8826102bd565b9050919050565b6102f8816102dd565b811461030357600080fd5b50565b600081519050610315816102ef565b92915050565b6000806040838503121561033257610331610282565b5b6000610340858286016102a8565b925050602061035185828601610306565b9150509250929050565b610364816102dd565b82525050565b600060208201905061037f600083018461035b565b92915050565b600082825260208201905092915050565b7f4665652065786365656473203230250000000000000000000000000000000000600082015250565b60006103cc600f83610385565b91506103d782610396565b602082019050919050565b600060208201905081810360008301526103fb816103bf565b9050919050565b7f496e76616c69642077616c6c6574000000000000000000000000000000000000600082015250565b6000610438600e83610385565b915061044382610402565b602082019050919050565b600060208201905081810360008301526104678161042b565b9050919050565b6119a08061047d6000396000f3fe6080604052600436106100f75760003560e01c8063715018a61161008a578063ada4ef3011610059578063ada4ef3014610369578063cdd78cfc14610392578063f2fde38b146103bd578063fa2af9da146103e657610137565b8063715018a6146102e05780637f73aa63146102f75780638da5cb5b146103225780638fe123d71461034d57610137565b806350675283116100c657806350675283146102125780635d1e37a61461023d578063605828f91461027a5780636cad3fb0146102b757610137565b80631047eaa31461013c5780631054b30214610167578063136d8883146101a457806327fe8b1f146101d157610137565b36610137576040517f08c379a000000000000000000000000000000000000000000000000000000000815260040161012e906111d6565b60405180910390fd5b600080fd5b34801561014857600080fd5b50610151610411565b60405161015e9190611367565b60405180910390f35b34801561017357600080fd5b5061018e600480360381019061018991906113ba565b610542565b60405161019b9190611367565b60405180910390f35b3480156101b057600080fd5b506101b96106aa565b6040516101c8939291906113f6565b60405180910390f35b3480156101dd57600080fd5b506101f860048036038101906101f39190611459565b6106e9565b6040516102099594939291906114a8565b60405180910390f35b34801561021e57600080fd5b5061022761077c565b60405161023491906114fb565b60405180910390f35b34801561024957600080fd5b50610264600480360381019061025f91906113ba565b610782565b60405161027191906114fb565b60405180910390f35b34801561028657600080fd5b506102a1600480360381019061029c91906113ba565b6107cb565b6040516102ae91906114fb565b60405180910390f35b3480156102c357600080fd5b506102de60048036038101906102d99190611516565b6107e3565b005b3480156102ec57600080fd5b506102f5610870565b005b34801561030357600080fd5b5061030c610884565b60405161031991906114fb565b60405180910390f35b34801561032e57600080fd5b50610337610896565b6040516103449190611543565b60405180910390f35b610367600480360381019061036291906113ba565b6108bf565b005b34801561037557600080fd5b50610390600480360381019061038b91906113ba565b610e33565b005b34801561039e57600080fd5b506103a7610f25565b6040516103b491906114fb565b60405180910390f35b3480156103c957600080fd5b506103e460048036038101906103df91906113ba565b610f2b565b005b3480156103f257600080fd5b506103fb610fb1565b6040516104089190611543565b60405180910390f35b606061041b610fd7565b6008805480602002602001604051908101604052809291908181526020016000905b8282101561053957838290600052602060002090600502016040518060a00160405290816000820160009054906101000a900473ffffffffffffffffffffffffffffffffffffffff1673ffffffffffffffffffffffffffffffffffffffff1673ffffffffffffffffffffffffffffffffffffffff1681526020016001820160009054906101000a900473ffffffffffffffffffffffffffffffffffffffff1673ffffffffffffffffffffffffffffffffffffffff1673ffffffffffffffffffffffffffffffffffffffff16815260200160028201548152602001600382015481526020016004820154815250508152602001906001019061043d565b50505050905090565b6060600660008373ffffffffffffffffffffffffffffffffffffffff1673ffffffffffffffffffffffffffffffffffffffff168152602001908152602001600020805480602002602001604051908101604052809291908181526020016000905b8282101561069f57838290600052602060002090600502016040518060a00160405290816000820160009054906101000a900473ffffffffffffffffffffffffffffffffffffffff1673ffffffffffffffffffffffffffffffffffffffff1673ffffffffffffffffffffffffffffffffffffffff1681526020016001820160009054906101000a900473ffffffffffffffffffffffffffffffffffffffff1673ffffffffffffffffffffffffffffffffffffffff1673ffffffffffffffffffffffffffffffffffffffff1681526020016002820154815260200160038201548152602001600482015481525050815260200190600101906105a3565b505050509050919050565b60008060006106b7610fd7565b60045492506008805490509150600082116106d35760006106e2565b816004546106e191906115bc565b5b9050909192565b6006602052816000526040600020818154811061070557600080fd5b9060005260206000209060050201600091509150508060000160009054906101000a900473ffffffffffffffffffffffffffffffffffffffff16908060010160009054906101000a900473ffffffffffffffffffffffffffffffffffffffff16908060020154908060030154908060040154905085565b60045481565b6000600760008373ffffffffffffffffffffffffffffffffffffffff1673ffffffffffffffffffffffffffffffffffffffff168152602001908152602001600020549050919050565b60076020528060005260406000206000915090505481565b6107eb610fd7565b601481111561082f576040517f08c379a000000000000000000000000000000000000000000000000000000000815260040161082690611639565b60405180910390fd5b806002819055507f8c4d35e54a3f2ef1134138fd8ea3daee6a3c89e10d2665996babdf70261e2c768160405161086591906114fb565b60405180910390a150565b610878610fd7565b610882600061105e565b565b600061088e610fd7565b600454905090565b60008060009054906101000a900473ffffffffffffffffffffffffffffffffffffffff16905090565b6108c7611122565b6000341161090a576040517f08c379a0000000000000000000000000000000000000000000000000000000008152600401610901906116a5565b60405180910390fd5b600073ffffffffffffffffffffffffffffffffffffffff168173ffffffffffffffffffffffffffffffffffffffff1603610979576040517f08c379a000000000000000000000000000000000000000000000000000000000815260040161097090611711565b60405180910390fd5b600060646002543461098b9190611731565b61099591906115bc565b9050600081346109a59190611773565b90506000600360009054906101000a900473ffffffffffffffffffffffffffffffffffffffff1673ffffffffffffffffffffffffffffffffffffffff16836040516109ef906117d8565b60006040518083038185875af1925050503d8060008114610a2c576040519150601f19603f3d011682016040523d82523d6000602084013e610a31565b606091505b5050905060008473ffffffffffffffffffffffffffffffffffffffff1683604051610a5b906117d8565b60006040518083038185875af1925050503d8060008114610a98576040519150601f19603f3d011682016040523d82523d6000602084013e610a9d565b606091505b50509050818015610aab5750805b610aea576040517f08c379a0000000000000000000000000000000000000000000000000000000008152600401610ae190611839565b60405180910390fd5b60006040518060a001604052803373ffffffffffffffffffffffffffffffffffffffff1681526020018773ffffffffffffffffffffffffffffffffffffffff168152602001348152602001868152602001428152509050600660008773ffffffffffffffffffffffffffffffffffffffff1673ffffffffffffffffffffffffffffffffffffffff16815260200190815260200160002081908060018154018082558091505060019003906000526020600020906005020160009091909190915060008201518160000160006101000a81548173ffffffffffffffffffffffffffffffffffffffff021916908373ffffffffffffffffffffffffffffffffffffffff16021790555060208201518160010160006101000a81548173ffffffffffffffffffffffffffffffffffffffff021916908373ffffffffffffffffffffffffffffffffffffffff1602179055506040820151816002015560608201518160030155608082015181600401555050600881908060018154018082558091505060019003906000526020600020906005020160009091909190915060008201518160000160006101000a81548173ffffffffffffffffffffffffffffffffffffffff021916908373ffffffffffffffffffffffffffffffffffffffff16021790555060208201518160010160006101000a81548173ffffffffffffffffffffffffffffffffffffffff021916908373ffffffffffffffffffffffffffffffffffffffff160217905550604082015181600201556060820151816003015560808201518160040155505034600760008873ffffffffffffffffffffffffffffffffffffffff1673ffffffffffffffffffffffffffffffffffffffff1681526020019081526020016000206000828254610d819190611859565b925050819055508460046000828254610d9a9190611859565b9250508190555060056000815480929190610db49061188d565b91905055503373ffffffffffffffffffffffffffffffffffffffff168673ffffffffffffffffffffffffffffffffffffffff166005547fecad628f08f153c60db5527df2f1166b73539fe882a251c57aef1f6daf70a84f3489604051610e1b9291906118d5565b60405180910390a45050505050610e30611168565b50565b610e3b610fd7565b600073ffffffffffffffffffffffffffffffffffffffff168173ffffffffffffffffffffffffffffffffffffffff1603610eaa576040517f08c379a0000000000000000000000000000000000000000000000000000000008152600401610ea19061194a565b60405180910390fd5b80600360006101000a81548173ffffffffffffffffffffffffffffffffffffffff021916908373ffffffffffffffffffffffffffffffffffffffff1602179055507f4edbfac5b40fe46ac1af1fd222b224b38cfeeb9e21bd4fc6344526c245f7549b81604051610f1a9190611543565b60405180910390a150565b60025481565b610f33610fd7565b600073ffffffffffffffffffffffffffffffffffffffff168173ffffffffffffffffffffffffffffffffffffffff1603610fa55760006040517f1e4fbdf7000000000000000000000000000000000000000000000000000000008152600401610f9c9190611543565b60405180910390fd5b610fae8161105e565b50565b600360009054906101000a900473ffffffffffffffffffffffffffffffffffffffff1681565b610fdf611171565b73ffffffffffffffffffffffffffffffffffffffff16610ffd610896565b73ffffffffffffffffffffffffffffffffffffffff161461105c57611020611171565b6040517f118cdaa70000000000000000000000000000000000000000000000000000000081526004016110539190611543565b60405180910390fd5b565b60008060009054906101000a900473ffffffffffffffffffffffffffffffffffffffff169050816000806101000a81548173ffffffffffffffffffffffffffffffffffffffff021916908373ffffffffffffffffffffffffffffffffffffffff1602179055508173ffffffffffffffffffffffffffffffffffffffff168173ffffffffffffffffffffffffffffffffffffffff167f8be0079c531659141344cd1fd0a4f28419497f9722a3daafe3b4186f6b6457e060405160405180910390a35050565b60026001540361115e576040517f3ee5aeb500000000000000000000000000000000000000000000000000000000815260040160405180910390fd5b6002600181905550565b60018081905550565b600033905090565b600082825260208201905092915050565b7f446972656374207061796d656e74732064697361626c65640000000000000000600082015250565b60006111c0601883611179565b91506111cb8261118a565b602082019050919050565b600060208201905081810360008301526111ef816111b3565b9050919050565b600081519050919050565b600082825260208201905092915050565b6000819050602082019050919050565b600073ffffffffffffffffffffffffffffffffffffffff82169050919050565b600061124d82611222565b9050919050565b61125d81611242565b82525050565b6000819050919050565b61127681611263565b82525050565b60a0820160008201516112926000850182611254565b5060208201516112a56020850182611254565b5060408201516112b8604085018261126d565b5060608201516112cb606085018261126d565b5060808201516112de608085018261126d565b50505050565b60006112f0838361127c565b60a08301905092915050565b6000602082019050919050565b6000611314826111f6565b61131e8185611201565b935061132983611212565b8060005b8381101561135a57815161134188826112e4565b975061134c836112fc565b92505060018101905061132d565b5085935050505092915050565b600060208201905081810360008301526113818184611309565b905092915050565b600080fd5b61139781611242565b81146113a257600080fd5b50565b6000813590506113b48161138e565b92915050565b6000602082840312156113d0576113cf611389565b5b60006113de848285016113a5565b91505092915050565b6113f081611263565b82525050565b600060608201905061140b60008301866113e7565b61141860208301856113e7565b61142560408301846113e7565b949350505050565b61143681611263565b811461144157600080fd5b50565b6000813590506114538161142d565b92915050565b600080604083850312156114705761146f611389565b5b600061147e858286016113a5565b925050602061148f85828601611444565b9150509250929050565b6114a281611242565b82525050565b600060a0820190506114bd6000830188611499565b6114ca6020830187611499565b6114d760408301866113e7565b6114e460608301856113e7565b6114f160808301846113e7565b9695505050505050565b600060208201905061151060008301846113e7565b92915050565b60006020828403121561152c5761152b611389565b5b600061153a84828501611444565b91505092915050565b60006020820190506115586000830184611499565b92915050565b7f4e487b7100000000000000000000000000000000000000000000000000000000600052601260045260246000fd5b7f4e487b7100000000000000000000000000000000000000000000000000000000600052601160045260246000fd5b60006115c782611263565b91506115d283611263565b9250826115e2576115e161155e565b5b828204905092915050565b7f4665652065786365656473203230250000000000000000000000000000000000600082015250565b6000611623600f83611179565b915061162e826115ed565b602082019050919050565b6000602082019050818103600083015261165281611616565b9050919050565b7f4e6f207061796d656e7400000000000000000000000000000000000000000000600082015250565b600061168f600a83611179565b915061169a82611659565b602082019050919050565b600060208201905081810360008301526116be81611682565b9050919050565b7f496e76616c69642073656c6c6572000000000000000000000000000000000000600082015250565b60006116fb600e83611179565b9150611706826116c5565b602082019050919050565b6000602082019050818103600083015261172a816116ee565b9050919050565b600061173c82611263565b915061174783611263565b925082820261175581611263565b9150828204841483151761176c5761176b61158d565b5b5092915050565b600061177e82611263565b915061178983611263565b92508282039050818111156117a1576117a061158d565b5b92915050565b600081905092915050565b50565b60006117c26000836117a7565b91506117cd826117b2565b600082019050919050565b60006117e3826117b5565b9150819050919050565b7f5472616e73666572206661696c65640000000000000000000000000000000000600082015250565b6000611823600f83611179565b915061182e826117ed565b602082019050919050565b6000602082019050818103600083015261185281611816565b9050919050565b600061186482611263565b915061186f83611263565b92508282019050808211156118875761188661158d565b5b92915050565b600061189882611263565b91507fffffffffffffffffffffffffffffffffffffffffffffffffffffffffffffffff82036118ca576118c961158d565b5b600182019050919050565b60006040820190506118ea60008301856113e7565b6118f760208301846113e7565b9392505050565b7f496e76616c69642077616c6c6574000000000000000000000000000000000000600082015250565b6000611934600e83611179565b915061193f826118fe565b602082019050919050565b6000602082019050818103600083015261196381611927565b905091905056fea2646970667358221220b08f2710324ef3f1e35fd8fc328cddb81d6ee35c03b6f63285300b3ade84c0f064736f6c634300081c0033",
  "linkReferences": {},
  "deployedLinkReferences": {}
}