{
  "_format": "hh-sol-artifact-1",
  "contractName": "IoTDataFactory",
  "sourceName": "contracts/IoTDataFactory.sol",
  "abi": [
    {
      "inputs": [
        {
          "internalType": "address",
          "name": "nftAddress",
          "type": "address"
        },
        {
          "internalType": "address",
          "name": "accessControlAddress",
          "type": "address"
        },
        {
          "internalType": "address",
          "name": "verificationAddress",
          "type": "address"
        }
      ],
      "stateMutability": "nonpayable",
      "type": "constructor"
    },
    {
      "inputs": [
        {
          "internalType": "address",
          "name": "owner",
          "type": "address"
        }
      ],
      "name": "OwnableInvalidOwner",
      "type": "error"
    },
    {
      "inputs": [
        {
          "internalType": "address",
          "name": "account",
          "type": "address"
        }
      ],
      "name": "OwnableUnauthorizedAccount",
      "type": "error"
    },
    {
      "anonymous": false,
      "inputs": [
        {
          "indexed": true,
          "internalType": "uint256",
          "name": "tokenId",
          "type": "uint256"
        },
        {
          "indexed": true,
          "internalType": "string",
          "name": "dataType",
          "type": "string"
        },
        {
          "indexed": true,
          "internalType": "address",
          "name": "owner",
          "type": "address"
        }
      ],
      "name": "DataNFTGenerated",
      "type": "event"
    },
    {
      "anonymous": false,
      "inputs": [
        {
          "indexed": true,
          "internalType": "string",
          "name": "dataType",
          "type": "string"
        },
        {
          "indexed": false,
          "internalType": "string",
          "name": "metadataTemplate",
          "type": "string"
        },
        {
          "indexed": false,
          "internalType": "uint256",
          "name": "basePrice",
          "type": "uint256"
        }
      ],
      "name": "DataTemplateCreated",
      "type": "event"
    },
    {
      "anonymous": false,
      "inputs": [
        {
          "indexed": true,
          "internalType": "address",
          "name": "previousOwner",
          "type": "address"
        },
        {
          "indexed": true,
          "internalType": "address",
          "name": "newOwner",
          "type": "address"
        }
      ],
      "name": "OwnershipTransferred",
      "type": "event"
    },
    {
      "inputs": [],
      "name": "accessControl",
      "outputs": [
        {
          "internalType": "contract IoTDataAccessControl",
          "name": "",
          "type": "address"
        }
      ],
      "stateMutability": "view",
      "type": "function"
    },
    {
      "inputs": [
        {
          "internalType": "string",
          "name": "dataType",
          "type": "string"
        },
        {
          "internalType": "string",
          "name": "metadataTemplate",
          "type": "string"
        },
        {
          "internalType": "uint256",
          "name": "basePrice",
          "type": "uint256"
        }
      ],
      "name": "createTemplate",
      "outputs": [],
      "stateMutability": "nonpayable",
      "type": "function"
    },
    {
      "inputs": [
        {
          "internalType": "string",
          "name": "",
          "type": "string"
        }
      ],
      "name": "dataTemplates",
      "outputs": [
        {
          "internalType": "string",
          "name": "dataType",
          "type": "string"
        },
        {
          "internalType": "string",
          "name": "metadataTemplate",
          "type": "string"
        },
        {
          "internalType": "uint256",
          "name": "basePrice",
          "type": "uint256"
        }
      ],
      "stateMutability": "view",
      "type": "function"
    },
    {
      "inputs": [
        {
          "internalType": "string",
          "name": "deviceId",
          "type": "string"
        },
        {
          "internalType": "string",
          "name": "dataType",
          "type": "string"
        },
        {
          "internalType": "string",
          "name": "location",
          "type": "string"
        },
        {
          "internalType": "string",
          "name": "additionalMetadata",
          "type": "string"
        }
      ],
      "name": "generateDataNFT",
      "outputs": [
        {
          "internalType": "uint256",
          "name": "",
          "type": "uint256"
        }
      ],
      "stateMutability": "nonpayable",
      "type": "function"
    },
    {
      "inputs": [],
      "name": "getAllTemplate",
      "outputs": [
        {
          "components": [
            {
              "internalType": "string",
              "name": "dataType",
              "type": "string"
            },
            {
              "internalType": "string",
              "name": "metadataTemplate",
              "type": "string"
            },
            {
              "internalType": "uint256",
              "name": "basePrice",
              "type": "uint256"
            }
          ],
          "internalType": "struct IoTDataFactory.DataTemplate[]",
          "name": "",
          "type": "tuple[]"
        }
      ],
      "stateMutability": "view",
      "type": "function"
    },
    {
      "inputs": [
        {
          "internalType": "string",
          "name": "dataType",
          "type": "string"
        }
      ],
      "name": "getTemplate",
      "outputs": [
        {
          "components": [
            {
              "internalType": "string",
              "name": "dataType",
              "type": "string"
            },
            {
              "internalType": "string",
              "name": "metadataTemplate",
              "type": "string"
            },
            {
              "internalType": "uint256",
              "name": "basePrice",
              "type": "uint256"
            }
          ],
          "internalType": "struct IoTDataFactory.DataTemplate",
          "name": "",
          "type": "tuple"
        }
      ],
      "stateMutability": "view",
      "type": "function"
    },
    {
      "inputs": [],
      "name": "getTemplateCount",
      "outputs": [
        {
          "internalType": "uint256",
          "name": "",
          "type": "uint256"
        }
      ],
      "stateMutability": "view",
      "type": "function"
    },
    {
      "inputs": [],
      "name": "nftContract",
      "outputs": [
        {
          "internalType": "contract IoTDataNFT",
          "name": "",
          "type": "address"
        }
      ],
      "stateMutability": "view",
      "type": "function"
    },
    {
      "inputs": [],
      "name": "owner",
      "outputs": [
        {
          "internalType": "address",
          "name": "",
          "type": "address"
        }
      ],
      "stateMutability": "view",
      "type": "function"
    },
    {
      "inputs": [],
      "name": "renounceOwnership",
      "outputs": [],
      "stateMutability": "nonpayable",
      "type": "function"
    },
    {
      "inputs": [
        {
          "internalType": "address",
          "name": "newOwner",
          "type": "address"
        }
      ],
      "name": "transferOwnership",
      "outputs": [],
      "stateMutability": "nonpayable",
      "type": "function"
    }
  ],
  "bytecode": "0x60c060405234801561001057600080fd5b5060405161274d38038061274d8339818101604052810190610032919061032e565b33600073ffffffffffffffffffffffffffffffffffffffff168173ffffffffffffffffffffffffffffffffffffffff16036100a55760006040517f1e4fbdf700000000000000000000000000000000000000000000000000000000815260040161009c9190610390565b60405180910390fd5b6100b48161020760201b60201c565b50600073ffffffffffffffffffffffffffffffffffffffff168373ffffffffffffffffffffffffffffffffffffffff161415801561011f5750600073ffffffffffffffffffffffffffffffffffffffff168273ffffffffffffffffffffffffffffffffffffffff1614155b80156101585750600073ffffffffffffffffffffffffffffffffffffffff168173ffffffffffffffffffffffffffffffffffffffff1614155b610197576040517f08c379a000000000000000000000000000000000000000000000000000000000815260040161018e90610408565b60405180910390fd5b8273ffffffffffffffffffffffffffffffffffffffff1660808173ffffffffffffffffffffffffffffffffffffffff16815250508173ffffffffffffffffffffffffffffffffffffffff1660a08173ffffffffffffffffffffffffffffffffffffffff1681525050505050610428565b60008060009054906101000a900473ffffffffffffffffffffffffffffffffffffffff169050816000806101000a81548173ffffffffffffffffffffffffffffffffffffffff021916908373ffffffffffffffffffffffffffffffffffffffff1602179055508173ffffffffffffffffffffffffffffffffffffffff168173ffffffffffffffffffffffffffffffffffffffff167f8be0079c531659141344cd1fd0a4f28419497f9722a3daafe3b4186f6b6457e060405160405180910390a35050565b600080fd5b600073ffffffffffffffffffffffffffffffffffffffff82169050919050565b60006102fb826102d0565b9050919050565b61030b816102f0565b811461031657600080fd5b50565b60008151905061032881610302565b92915050565b600080600060608486031215610347576103466102cb565b5b600061035586828701610319565b935050602061036686828701610319565b925050604061037786828701610319565b9150509250925092565b61038a816102f0565b82525050565b60006020820190506103a56000830184610381565b92915050565b600082825260208201905092915050565b7f496e76616c696420616464726573730000000000000000000000000000000000600082015250565b60006103f2600f836103ab565b91506103fd826103bc565b602082019050919050565b60006020820190508181036000830152610421816103e5565b9050919050565b60805160a0516122f261045b6000396000818161043001526105dd0152600081816109470152610e7401526122f26000f3fe608060405234801561001057600080fd5b50600436106100a95760003560e01c806387c4b15d1161007157806387c4b15d14610142578063886af10e146101725780638da5cb5b1461018e5780639631e6b0146101ac578063d56d229d146101de578063f2fde38b146101fc576100a9565b806306d8b0ac146100ae57806313007d55146100cc5780635016959a146100ea578063715018a6146101085780637d67cd6f14610112575b600080fd5b6100b6610218565b6040516100c39190611252565b60405180910390f35b6100d461042e565b6040516100e191906112f3565b60405180910390f35b6100f2610452565b6040516100ff919061131d565b60405180910390f35b61011061045f565b005b61012c60048036038101906101279190611481565b610473565b6040516101399190611521565b60405180910390f35b61015c600480360381019061015791906115a3565b6105d9565b604051610169919061131d565b60405180910390f35b61018c600480360381019061018791906116b8565b610a5f565b005b610196610cf9565b6040516101a3919061176e565b60405180910390f35b6101c660048036038101906101c19190611481565b610d22565b6040516101d5939291906117d3565b60405180910390f35b6101e6610e72565b6040516101f39190611839565b60405180910390f35b61021660048036038101906102119190611880565b610e96565b005b6060600060018054905067ffffffffffffffff81111561023b5761023a611356565b5b60405190808252806020026020018201604052801561027457816020015b61026161106f565b8152602001906001900390816102595790505b50905060005b6001805490508110156104265760026001828154811061029d5761029c6118ad565b5b906000526020600020016040516102b491906119df565b90815260200160405180910390206040518060600160405290816000820180546102dd9061190b565b80601f01602080910402602001604051908101604052809291908181526020018280546103099061190b565b80156103565780601f1061032b57610100808354040283529160200191610356565b820191906000526020600020905b81548152906001019060200180831161033957829003601f168201915b5050505050815260200160018201805461036f9061190b565b80601f016020809104026020016040519081016040528092919081815260200182805461039b9061190b565b80156103e85780601f106103bd576101008083540402835291602001916103e8565b820191906000526020600020905b8154815290600101906020018083116103cb57829003601f168201915b5050505050815260200160028201548152505082828151811061040e5761040d6118ad565b5b6020026020010181905250808060010191505061027a565b508091505090565b7f000000000000000000000000000000000000000000000000000000000000000081565b6000600180549050905090565b610467610f1c565b6104716000610fa3565b565b61047b61106f565b60028260405161048b9190611a27565b90815260200160405180910390206040518060600160405290816000820180546104b49061190b565b80601f01602080910402602001604051908101604052809291908181526020018280546104e09061190b565b801561052d5780601f106105025761010080835404028352916020019161052d565b820191906000526020600020905b81548152906001019060200180831161051057829003601f168201915b505050505081526020016001820180546105469061190b565b80601f01602080910402602001604051908101604052809291908181526020018280546105729061190b565b80156105bf5780601f10610594576101008083540402835291602001916105bf565b820191906000526020600020905b8154815290600101906020018083116105a257829003601f168201915b505050505081526020016002820154815250509050919050565b60007f000000000000000000000000000000000000000000000000000000000000000073ffffffffffffffffffffffffffffffffffffffff16636dc7a35f336040518263ffffffff1660e01b8152600401610634919061176e565b602060405180830381865afa158015610651573d6000803e3d6000fd5b505050506040513d601f19601f820116820180604052508101906106759190611a76565b6106b4576040517f08c379a00000000000000000000000000000000000000000000000000000000081526004016106ab90611aef565b60405180910390fd5b600089899050116106fa576040517f08c379a00000000000000000000000000000000000000000000000000000000081526004016106f190611b5b565b60405180910390fd5b60008585905011610740576040517f08c379a000000000000000000000000000000000000000000000000000000000815260040161073790611bc7565b60405180910390fd5b600060028888604051610754929190611c0c565b908152602001604051809103902060000180546107709061190b565b9050116107b2576040517f08c379a00000000000000000000000000000000000000000000000000000000081526004016107a990611c71565b60405180910390fd5b6000600288886040516107c6929190611c0c565b90815260200160405180910390206040518060600160405290816000820180546107ef9061190b565b80601f016020809104026020016040519081016040528092919081815260200182805461081b9061190b565b80156108685780601f1061083d57610100808354040283529160200191610868565b820191906000526020600020905b81548152906001019060200180831161084b57829003601f168201915b505050505081526020016001820180546108819061190b565b80601f01602080910402602001604051908101604052809291908181526020018280546108ad9061190b565b80156108fa5780601f106108cf576101008083540402835291602001916108fa565b820191906000526020600020905b8154815290600101906020018083116108dd57829003601f168201915b50505050508152602001600282015481525050905060008160200151858589898f8f6040516020016109329796959493929190611cb7565b604051602081830303815290604052905060007f000000000000000000000000000000000000000000000000000000000000000073ffffffffffffffffffffffffffffffffffffffff1663296c2b3a33848f8f8f8f8f8f6040518963ffffffff1660e01b81526004016109ac989796959493929190611d55565b6020604051808303816000875af11580156109cb573d6000803e3d6000fd5b505050506040513d601f19601f820116820180604052508101906109ef9190611ddf565b90503373ffffffffffffffffffffffffffffffffffffffff168a8a604051610a18929190611c0c565b6040518091039020827fe7ae0959a5c764319dedf9aac1c10650dfeb5bf13fc73b0f0359e1993c188b7f60405160405180910390a480935050505098975050505050505050565b610a67610f1c565b60008585905011610aad576040517f08c379a0000000000000000000000000000000000000000000000000000000008152600401610aa490611e58565b60405180910390fd5b600060028686604051610ac1929190611c0c565b90815260200160405180910390206000018054610add9061190b565b905014610b1f576040517f08c379a0000000000000000000000000000000000000000000000000000000008152600401610b1690611ec4565b60405180910390fd5b60008383905011610b65576040517f08c379a0000000000000000000000000000000000000000000000000000000008152600401610b5c90611f30565b60405180910390fd5b6001858590918060018154018082558091505060019003906000526020600020016000909192909192909192909192509182610ba29291906120e8565b50604051806060016040528086868080601f016020809104026020016040519081016040528093929190818152602001838380828437600081840152601f19601f82011690508083019250505050505050815260200184848080601f016020809104026020016040519081016040528093929190818152602001838380828437600081840152601f19601f8201169050808301925050505050505081526020018281525060028686604051610c58929190611c0c565b90815260200160405180910390206000820151816000019081610c7b91906121b8565b506020820151816001019081610c9191906121b8565b50604082015181600201559050508484604051610caf929190611c0c565b60405180910390207f8ee32e541a6394da22f796f51f36e9f31efad4f65dc633cd7cf2600c9735bd75848484604051610cea9392919061228a565b60405180910390a25050505050565b60008060009054906101000a900473ffffffffffffffffffffffffffffffffffffffff16905090565b600281805160208101820180518482526020830160208501208183528095505050505050600091509050806000018054610d5b9061190b565b80601f0160208091040260200160405190810160405280929190818152602001828054610d879061190b565b8015610dd45780601f10610da957610100808354040283529160200191610dd4565b820191906000526020600020905b815481529060010190602001808311610db757829003601f168201915b505050505090806001018054610de99061190b565b80601f0160208091040260200160405190810160405280929190818152602001828054610e159061190b565b8015610e625780601f10610e3757610100808354040283529160200191610e62565b820191906000526020600020905b815481529060010190602001808311610e4557829003601f168201915b5050505050908060020154905083565b7f000000000000000000000000000000000000000000000000000000000000000081565b610e9e610f1c565b600073ffffffffffffffffffffffffffffffffffffffff168173ffffffffffffffffffffffffffffffffffffffff1603610f105760006040517f1e4fbdf7000000000000000000000000000000000000000000000000000000008152600401610f07919061176e565b60405180910390fd5b610f1981610fa3565b50565b610f24611067565b73ffffffffffffffffffffffffffffffffffffffff16610f42610cf9565b73ffffffffffffffffffffffffffffffffffffffff1614610fa157610f65611067565b6040517f118cdaa7000000000000000000000000000000000000000000000000000000008152600401610f98919061176e565b60405180910390fd5b565b60008060009054906101000a900473ffffffffffffffffffffffffffffffffffffffff169050816000806101000a81548173ffffffffffffffffffffffffffffffffffffffff021916908373ffffffffffffffffffffffffffffffffffffffff1602179055508173ffffffffffffffffffffffffffffffffffffffff168173ffffffffffffffffffffffffffffffffffffffff167f8be0079c531659141344cd1fd0a4f28419497f9722a3daafe3b4186f6b6457e060405160405180910390a35050565b600033905090565b60405180606001604052806060815260200160608152602001600081525090565b600081519050919050565b600082825260208201905092915050565b6000819050602082019050919050565b600081519050919050565b600082825260208201905092915050565b60005b838110156110f65780820151818401526020810190506110db565b60008484015250505050565b6000601f19601f8301169050919050565b600061111e826110bc565b61112881856110c7565b93506111388185602086016110d8565b61114181611102565b840191505092915050565b6000819050919050565b61115f8161114c565b82525050565b600060608301600083015184820360008601526111828282611113565b9150506020830151848203602086015261119c8282611113565b91505060408301516111b16040860182611156565b508091505092915050565b60006111c88383611165565b905092915050565b6000602082019050919050565b60006111e882611090565b6111f2818561109b565b935083602082028501611204856110ac565b8060005b85811015611240578484038952815161122185826111bc565b945061122c836111d0565b925060208a01995050600181019050611208565b50829750879550505050505092915050565b6000602082019050818103600083015261126c81846111dd565b905092915050565b600073ffffffffffffffffffffffffffffffffffffffff82169050919050565b6000819050919050565b60006112b96112b46112af84611274565b611294565b611274565b9050919050565b60006112cb8261129e565b9050919050565b60006112dd826112c0565b9050919050565b6112ed816112d2565b82525050565b600060208201905061130860008301846112e4565b92915050565b6113178161114c565b82525050565b6000602082019050611332600083018461130e565b92915050565b6000604051905090565b600080fd5b600080fd5b600080fd5b600080fd5b7f4e487b7100000000000000000000000000000000000000000000000000000000600052604160045260246000fd5b61138e82611102565b810181811067ffffffffffffffff821117156113ad576113ac611356565b5b80604052505050565b60006113c0611338565b90506113cc8282611385565b919050565b600067ffffffffffffffff8211156113ec576113eb611356565b5b6113f582611102565b9050602081019050919050565b82818337600083830152505050565b600061142461141f846113d1565b6113b6565b9050828152602081018484840111156114405761143f611351565b5b61144b848285611402565b509392505050565b600082601f8301126114685761146761134c565b5b8135611478848260208601611411565b91505092915050565b60006020828403121561149757611496611342565b5b600082013567ffffffffffffffff8111156114b5576114b4611347565b5b6114c184828501611453565b91505092915050565b600060608301600083015184820360008601526114e78282611113565b915050602083015184820360208601526115018282611113565b91505060408301516115166040860182611156565b508091505092915050565b6000602082019050818103600083015261153b81846114ca565b905092915050565b600080fd5b600080fd5b60008083601f8401126115635761156261134c565b5b8235905067ffffffffffffffff8111156115805761157f611543565b5b60208301915083600182028301111561159c5761159b611548565b5b9250929050565b6000806000806000806000806080898b0312156115c3576115c2611342565b5b600089013567ffffffffffffffff8111156115e1576115e0611347565b5b6115ed8b828c0161154d565b9850985050602089013567ffffffffffffffff8111156116105761160f611347565b5b61161c8b828c0161154d565b9650965050604089013567ffffffffffffffff81111561163f5761163e611347565b5b61164b8b828c0161154d565b9450945050606089013567ffffffffffffffff81111561166e5761166d611347565b5b61167a8b828c0161154d565b92509250509295985092959890939650565b6116958161114c565b81146116a057600080fd5b50565b6000813590506116b28161168c565b92915050565b6000806000806000606086880312156116d4576116d3611342565b5b600086013567ffffffffffffffff8111156116f2576116f1611347565b5b6116fe8882890161154d565b9550955050602086013567ffffffffffffffff81111561172157611720611347565b5b61172d8882890161154d565b93509350506040611740888289016116a3565b9150509295509295909350565b600061175882611274565b9050919050565b6117688161174d565b82525050565b6000602082019050611783600083018461175f565b92915050565b600082825260208201905092915050565b60006117a5826110bc565b6117af8185611789565b93506117bf8185602086016110d8565b6117c881611102565b840191505092915050565b600060608201905081810360008301526117ed818661179a565b90508181036020830152611801818561179a565b9050611810604083018461130e565b949350505050565b6000611823826112c0565b9050919050565b61183381611818565b82525050565b600060208201905061184e600083018461182a565b92915050565b61185d8161174d565b811461186857600080fd5b50565b60008135905061187a81611854565b92915050565b60006020828403121561189657611895611342565b5b60006118a48482850161186b565b91505092915050565b7f4e487b7100000000000000000000000000000000000000000000000000000000600052603260045260246000fd5b7f4e487b7100000000000000000000000000000000000000000000000000000000600052602260045260246000fd5b6000600282049050600182168061192357607f821691505b602082108103611936576119356118dc565b5b50919050565b600081905092915050565b60008190508160005260206000209050919050565b600081546119698161190b565b611973818661193c565b9450600182166000811461198e57600181146119a3576119d6565b60ff19831686528115158202860193506119d6565b6119ac85611947565b60005b838110156119ce578154818901526001820191506020810190506119af565b838801955050505b50505092915050565b60006119eb828461195c565b915081905092915050565b6000611a01826110bc565b611a0b818561193c565b9350611a1b8185602086016110d8565b80840191505092915050565b6000611a3382846119f6565b915081905092915050565b60008115159050919050565b611a5381611a3e565b8114611a5e57600080fd5b50565b600081519050611a7081611a4a565b92915050565b600060208284031215611a8c57611a8b611342565b5b6000611a9a84828501611a61565b91505092915050565b7f556e617574686f72697a65640000000000000000000000000000000000000000600082015250565b6000611ad9600c83611789565b9150611ae482611aa3565b602082019050919050565b60006020820190508181036000830152611b0881611acc565b9050919050565b7f496e76616c696420646576696365204944000000000000000000000000000000600082015250565b6000611b45601183611789565b9150611b5082611b0f565b602082019050919050565b60006020820190508181036000830152611b7481611b38565b9050919050565b7f496e76616c6964206c6f636174696f6e00000000000000000000000000000000600082015250565b6000611bb1601083611789565b9150611bbc82611b7b565b602082019050919050565b60006020820190508181036000830152611be081611ba4565b9050919050565b6000611bf3838561193c565b9350611c00838584611402565b82840190509392505050565b6000611c19828486611be7565b91508190509392505050565b7f496e76616c696420646174612074797065000000000000000000000000000000600082015250565b6000611c5b601183611789565b9150611c6682611c25565b602082019050919050565b60006020820190508181036000830152611c8a81611c4e565b9050919050565b7f7c00000000000000000000000000000000000000000000000000000000000000815250565b6000611cc3828a6119f6565b9150611cce82611c91565b600182019150611cdf82888a611be7565b9150611cea82611c91565b600182019150611cfb828688611be7565b9150611d0682611c91565b600182019150611d17828486611be7565b915081905098975050505050505050565b6000611d348385611789565b9350611d41838584611402565b611d4a83611102565b840190509392505050565b600060a082019050611d6a600083018b61175f565b8181036020830152611d7c818a61179a565b90508181036040830152611d9181888a611d28565b90508181036060830152611da6818688611d28565b90508181036080830152611dbb818486611d28565b90509998505050505050505050565b600081519050611dd98161168c565b92915050565b600060208284031215611df557611df4611342565b5b6000611e0384828501611dca565b91505092915050565b7f456d707479206461746120747970650000000000000000000000000000000000600082015250565b6000611e42600f83611789565b9150611e4d82611e0c565b602082019050919050565b60006020820190508181036000830152611e7181611e35565b9050919050565b7f54656d706c617465206578697374730000000000000000000000000000000000600082015250565b6000611eae600f83611789565b9150611eb982611e78565b602082019050919050565b60006020820190508181036000830152611edd81611ea1565b9050919050565b7f456d7074792074656d706c617465000000000000000000000000000000000000600082015250565b6000611f1a600e83611789565b9150611f2582611ee4565b602082019050919050565b60006020820190508181036000830152611f4981611f0d565b9050919050565b600082905092915050565b60006020601f8301049050919050565b600082821b905092915050565b600060088302611fa87fffffffffffffffffffffffffffffffffffffffffffffffffffffffffffffffff82611f6b565b611fb28683611f6b565b95508019841693508086168417925050509392505050565b6000611fe5611fe0611fdb8461114c565b611294565b61114c565b9050919050565b6000819050919050565b611fff83611fca565b61201361200b82611fec565b848454611f78565b825550505050565b600090565b61202861201b565b612033818484611ff6565b505050565b5b818110156120575761204c600082612020565b600181019050612039565b5050565b601f82111561209c5761206d81611947565b61207684611f5b565b81016020851015612085578190505b61209961209185611f5b565b830182612038565b50505b505050565b600082821c905092915050565b60006120bf600019846008026120a1565b1980831691505092915050565b60006120d883836120ae565b9150826002028217905092915050565b6120f28383611f50565b67ffffffffffffffff81111561210b5761210a611356565b5b612115825461190b565b61212082828561205b565b6000601f83116001811461214f576000841561213d578287013590505b61214785826120cc565b8655506121af565b601f19841661215d86611947565b60005b8281101561218557848901358255600182019150602085019450602081019050612160565b868310156121a2578489013561219e601f8916826120ae565b8355505b6001600288020188555050505b50505050505050565b6121c1826110bc565b67ffffffffffffffff8111156121da576121d9611356565b5b6121e4825461190b565b6121ef82828561205b565b600060209050601f8311600181146122225760008415612210578287015190505b61221a85826120cc565b865550612282565b601f19841661223086611947565b60005b8281101561225857848901518255600182019150602085019450602081019050612233565b868310156122755784890151612271601f8916826120ae565b8355505b6001600288020188555050505b505050505050565b600060408201905081810360008301526122a5818587611d28565b90506122b4602083018461130e565b94935050505056fea26469706673582212206ba06f4f50718dfa7e504923cb32c62c6c4bf4c51569aa56de468804f202260a64736f6c634300081c0033",
  "linkReferences": {},
  "deployedLinkReferences": {}
}