{
  "_format": "hh-sol-artifact-1",
  "contractName": "IoTDataFactory",
  "sourceName": "contracts/IoTDataFactory.sol",
  "abi": [
    {
      "inputs": [
        {
          "internalType": "address",
          "name": "_nftAddress",
          "type": "address"
        },
        {
          "internalType": "address",
          "name": "_accessControlAddress",
          "type": "address"
        },
        {
          "internalType": "address",
          "name": "_verificationAddress",
          "type": "address"
        }
      ],
      "stateMutability": "nonpayable",
      "type": "constructor"
    },
    {
      "inputs": [
        {
          "internalType": "address",
          "name": "owner",
          "type": "address"
        }
      ],
      "name": "OwnableInvalidOwner",
      "type": "error"
    },
    {
      "inputs": [
        {
          "internalType": "address",
          "name": "account",
          "type": "address"
        }
      ],
      "name": "OwnableUnauthorizedAccount",
      "type": "error"
    },
    {
      "anonymous": false,
      "inputs": [
        {
          "indexed": true,
          "internalType": "uint256",
          "name": "tokenId",
          "type": "uint256"
        },
        {
          "indexed": true,
          "internalType": "string",
          "name": "dataType",
          "type": "string"
        },
        {
          "indexed": true,
          "internalType": "address",
          "name": "owner",
          "type": "address"
        }
      ],
      "name": "DataNFTGenerated",
      "type": "event"
    },
    {
      "anonymous": false,
      "inputs": [
        {
          "indexed": true,
          "internalType": "string",
          "name": "dataType",
          "type": "string"
        },
        {
          "indexed": false,
          "internalType": "string",
          "name": "metadataTemplate",
          "type": "string"
        },
        {
          "indexed": false,
          "internalType": "uint256",
          "name": "basePrice",
          "type": "uint256"
        }
      ],
      "name": "DataTemplateCreated",
      "type": "event"
    },
    {
      "anonymous": false,
      "inputs": [
        {
          "indexed": true,
          "internalType": "address",
          "name": "previousOwner",
          "type": "address"
        },
        {
          "indexed": true,
          "internalType": "address",
          "name": "newOwner",
          "type": "address"
        }
      ],
      "name": "OwnershipTransferred",
      "type": "event"
    },
    {
      "inputs": [],
      "name": "accessControl",
      "outputs": [
        {
          "internalType": "contract IoTDataAccessControl",
          "name": "",
          "type": "address"
        }
      ],
      "stateMutability": "view",
      "type": "function"
    },
    {
      "inputs": [
        {
          "internalType": "string",
          "name": "dataType",
          "type": "string"
        },
        {
          "internalType": "string",
          "name": "metadataTemplate",
          "type": "string"
        },
        {
          "internalType": "uint256",
          "name": "basePrice",
          "type": "uint256"
        }
      ],
      "name": "createTemplate",
      "outputs": [],
      "stateMutability": "nonpayable",
      "type": "function"
    },
    {
      "inputs": [
        {
          "internalType": "string",
          "name": "",
          "type": "string"
        }
      ],
      "name": "dataTemplates",
      "outputs": [
        {
          "internalType": "string",
          "name": "dataType",
          "type": "string"
        },
        {
          "internalType": "string",
          "name": "metadataTemplate",
          "type": "string"
        },
        {
          "internalType": "uint256",
          "name": "basePrice",
          "type": "uint256"
        }
      ],
      "stateMutability": "view",
      "type": "function"
    },
    {
      "inputs": [
        {
          "internalType": "string",
          "name": "deviceId",
          "type": "string"
        },
        {
          "internalType": "string",
          "name": "dataType",
          "type": "string"
        },
        {
          "internalType": "string",
          "name": "location",
          "type": "string"
        },
        {
          "internalType": "string",
          "name": "additionalMetadata",
          "type": "string"
        }
      ],
      "name": "generateDataNFT",
      "outputs": [
        {
          "internalType": "uint256",
          "name": "",
          "type": "uint256"
        }
      ],
      "stateMutability": "nonpayable",
      "type": "function"
    },
    {
      "inputs": [],
      "name": "getAllTemplates",
      "outputs": [
        {
          "components": [
            {
              "internalType": "string",
              "name": "dataType",
              "type": "string"
            },
            {
              "internalType": "string",
              "name": "metadataTemplate",
              "type": "string"
            },
            {
              "internalType": "uint256",
              "name": "basePrice",
              "type": "uint256"
            }
          ],
          "internalType": "struct IoTDataFactory.DataTemplate[]",
          "name": "",
          "type": "tuple[]"
        }
      ],
      "stateMutability": "view",
      "type": "function"
    },
    {
      "inputs": [
        {
          "internalType": "string",
          "name": "dataType",
          "type": "string"
        }
      ],
      "name": "getTemplate",
      "outputs": [
        {
          "components": [
            {
              "internalType": "string",
              "name": "dataType",
              "type": "string"
            },
            {
              "internalType": "string",
              "name": "metadataTemplate",
              "type": "string"
            },
            {
              "internalType": "uint256",
              "name": "basePrice",
              "type": "uint256"
            }
          ],
          "internalType": "struct IoTDataFactory.DataTemplate",
          "name": "",
          "type": "tuple"
        }
      ],
      "stateMutability": "view",
      "type": "function"
    },
    {
      "inputs": [],
      "name": "getTemplateCount",
      "outputs": [
        {
          "internalType": "uint256",
          "name": "",
          "type": "uint256"
        }
      ],
      "stateMutability": "view",
      "type": "function"
    },
    {
      "inputs": [],
      "name": "nftContract",
      "outputs": [
        {
          "internalType": "contract IoTDataNFT",
          "name": "",
          "type": "address"
        }
      ],
      "stateMutability": "view",
      "type": "function"
    },
    {
      "inputs": [],
      "name": "owner",
      "outputs": [
        {
          "internalType": "address",
          "name": "",
          "type": "address"
        }
      ],
      "stateMutability": "view",
      "type": "function"
    },
    {
      "inputs": [],
      "name": "renounceOwnership",
      "outputs": [],
      "stateMutability": "nonpayable",
      "type": "function"
    },
    {
      "inputs": [
        {
          "internalType": "address",
          "name": "newOwner",
          "type": "address"
        }
      ],
      "name": "transferOwnership",
      "outputs": [],
      "stateMutability": "nonpayable",
      "type": "function"
    },
    {
      "inputs": [],
      "name": "verificationContract",
      "outputs": [
        {
          "internalType": "contract DataVerification",
          "name": "",
          "type": "address"
        }
      ],
      "stateMutability": "view",
      "type": "function"
    }
  ],
  "bytecode": "0x60e06040523480156200001157600080fd5b506040516200234b3803806200234b8339818101604052810190620000379190620003e8565b33600073ffffffffffffffffffffffffffffffffffffffff168173ffffffffffffffffffffffffffffffffffffffff1603620000ad5760006040517f1e4fbdf7000000000000000000000000000000000000000000000000000000008152600401620000a4919062000455565b60405180910390fd5b620000be81620002ba60201b60201c565b50600073ffffffffffffffffffffffffffffffffffffffff168373ffffffffffffffffffffffffffffffffffffffff160362000131576040517f08c379a00000000000000000000000000000000000000000000000000000000081526004016200012890620004d3565b60405180910390fd5b600073ffffffffffffffffffffffffffffffffffffffff168273ffffffffffffffffffffffffffffffffffffffff1603620001a3576040517f08c379a00000000000000000000000000000000000000000000000000000000081526004016200019a9062000545565b60405180910390fd5b600073ffffffffffffffffffffffffffffffffffffffff168173ffffffffffffffffffffffffffffffffffffffff160362000215576040517f08c379a00000000000000000000000000000000000000000000000000000000081526004016200020c90620005b7565b60405180910390fd5b8273ffffffffffffffffffffffffffffffffffffffff1660808173ffffffffffffffffffffffffffffffffffffffff16815250508173ffffffffffffffffffffffffffffffffffffffff1660a08173ffffffffffffffffffffffffffffffffffffffff16815250508073ffffffffffffffffffffffffffffffffffffffff1660c08173ffffffffffffffffffffffffffffffffffffffff1681525050505050620005d9565b60008060009054906101000a900473ffffffffffffffffffffffffffffffffffffffff169050816000806101000a81548173ffffffffffffffffffffffffffffffffffffffff021916908373ffffffffffffffffffffffffffffffffffffffff1602179055508173ffffffffffffffffffffffffffffffffffffffff168173ffffffffffffffffffffffffffffffffffffffff167f8be0079c531659141344cd1fd0a4f28419497f9722a3daafe3b4186f6b6457e060405160405180910390a35050565b600080fd5b600073ffffffffffffffffffffffffffffffffffffffff82169050919050565b6000620003b08262000383565b9050919050565b620003c281620003a3565b8114620003ce57600080fd5b50565b600081519050620003e281620003b7565b92915050565b6000806000606084860312156200040457620004036200037e565b5b60006200041486828701620003d1565b93505060206200042786828701620003d1565b92505060406200043a86828701620003d1565b9150509250925092565b6200044f81620003a3565b82525050565b60006020820190506200046c600083018462000444565b92915050565b600082825260208201905092915050565b7f496e76616c6964204e4654206164647265737300000000000000000000000000600082015250565b6000620004bb60138362000472565b9150620004c88262000483565b602082019050919050565b60006020820190508181036000830152620004ee81620004ac565b9050919050565b7f496e76616c69642061636365737320636f6e74726f6c20616464726573730000600082015250565b60006200052d601e8362000472565b91506200053a82620004f5565b602082019050919050565b6000602082019050818103600083015262000560816200051e565b9050919050565b7f496e76616c696420766572696669636174696f6e206164647265737300000000600082015250565b60006200059f601c8362000472565b9150620005ac8262000567565b602082019050919050565b60006020820190508181036000830152620005d28162000590565b9050919050565b60805160a05160c051611d3462000617600039600061045e01526000818161024301526104840152600081816106150152610bf00152611d346000f3fe608060405234801561001057600080fd5b50600436106100b45760003560e01c8063886af10e11610071578063886af10e1461017d5780638da5cb5b146101995780638e46a300146101b75780639631e6b0146101d5578063d56d229d14610207578063f2fde38b14610225576100b4565b806313007d55146100b95780635016959a146100d7578063715018a6146100f55780637d67cd6f146100ff5780637e2226611461012f57806387c4b15d1461014d575b600080fd5b6100c1610241565b6040516100ce9190610e8b565b60405180910390f35b6100df610265565b6040516100ec9190610ebf565b60405180910390f35b6100fd610272565b005b61011960048036038101906101149190611034565b610286565b6040516101269190611162565b60405180910390f35b61013761045c565b60405161014491906111a5565b60405180910390f35b610167600480360381019061016291906111c0565b610480565b6040516101749190610ebf565b60405180910390f35b610197600480360381019061019291906112c3565b610720565b005b6101a1610859565b6040516101ae919061136f565b60405180910390f35b6101bf610882565b6040516101cc91906114a3565b60405180910390f35b6101ef60048036038101906101ea9190611034565b610a9e565b6040516101fe9392919061150f565b60405180910390f35b61020f610bee565b60405161021c9190611575565b60405180910390f35b61023f600480360381019061023a91906115bc565b610c12565b005b7f000000000000000000000000000000000000000000000000000000000000000081565b6000600180549050905090565b61027a610c98565b6102846000610d1f565b565b61028e610deb565b60006002836040516102a09190611625565b908152602001604051809103902060000180546102bc9061166b565b9050116102fe576040517f08c379a00000000000000000000000000000000000000000000000000000000081526004016102f5906116e8565b60405180910390fd5b60028260405161030e9190611625565b90815260200160405180910390206040518060600160405290816000820180546103379061166b565b80601f01602080910402602001604051908101604052809291908181526020018280546103639061166b565b80156103b05780601f10610385576101008083540402835291602001916103b0565b820191906000526020600020905b81548152906001019060200180831161039357829003601f168201915b505050505081526020016001820180546103c99061166b565b80601f01602080910402602001604051908101604052809291908181526020018280546103f59061166b565b80156104425780601f1061041757610100808354040283529160200191610442565b820191906000526020600020905b81548152906001019060200180831161042557829003601f168201915b505050505081526020016002820154815250509050919050565b7f000000000000000000000000000000000000000000000000000000000000000081565b60007f000000000000000000000000000000000000000000000000000000000000000073ffffffffffffffffffffffffffffffffffffffff16636dc7a35f336040518263ffffffff1660e01b81526004016104db919061136f565b602060405180830381865afa1580156104f8573d6000803e3d6000fd5b505050506040513d601f19601f8201168201806040525081019061051c9190611740565b61055b576040517f08c379a0000000000000000000000000000000000000000000000000000000008152600401610552906117b9565b60405180910390fd5b600060028560405161056d9190611625565b908152602001604051809103902060000180546105899061166b565b9050116105cb576040517f08c379a00000000000000000000000000000000000000000000000000000000081526004016105c290611825565b60405180910390fd5b60006002856040516105dd9190611625565b9081526020016040518091039020600101836040516020016106009291906118dd565b604051602081830303815290604052905060007f000000000000000000000000000000000000000000000000000000000000000073ffffffffffffffffffffffffffffffffffffffff1663296c2b3a33848a8a8a6040518663ffffffff1660e01b8152600401610674959493929190611901565b6020604051808303816000875af1158015610693573d6000803e3d6000fd5b505050506040513d601f19601f820116820180604052508101906106b79190611985565b90503373ffffffffffffffffffffffffffffffffffffffff16866040516106de9190611625565b6040518091039020827fe7ae0959a5c764319dedf9aac1c10650dfeb5bf13fc73b0f0359e1993c188b7f60405160405180910390a48092505050949350505050565b610728610c98565b600060028460405161073a9190611625565b908152602001604051809103902060000180546107569061166b565b905003610793576001839080600181540180825580915050600190039060005260206000200160009091909190915090816107919190611b3f565b505b6040518060600160405280848152602001838152602001828152506002846040516107be9190611625565b908152602001604051809103902060008201518160000190816107e19190611b3f565b5060208201518160010190816107f79190611b3f565b5060408201518160020155905050826040516108139190611625565b60405180910390207f8ee32e541a6394da22f796f51f36e9f31efad4f65dc633cd7cf2600c9735bd75838360405161084c929190611c11565b60405180910390a2505050565b60008060009054906101000a900473ffffffffffffffffffffffffffffffffffffffff16905090565b6060600060018054905067ffffffffffffffff8111156108a5576108a4610f09565b5b6040519080825280602002602001820160405280156108de57816020015b6108cb610deb565b8152602001906001900390816108c35790505b50905060005b600180549050811015610a965760026001828154811061090757610906611c41565b5b9060005260206000200160405161091e9190611c70565b90815260200160405180910390206040518060600160405290816000820180546109479061166b565b80601f01602080910402602001604051908101604052809291908181526020018280546109739061166b565b80156109c05780601f10610995576101008083540402835291602001916109c0565b820191906000526020600020905b8154815290600101906020018083116109a357829003601f168201915b505050505081526020016001820180546109d99061166b565b80601f0160208091040260200160405190810160405280929190818152602001828054610a059061166b565b8015610a525780601f10610a2757610100808354040283529160200191610a52565b820191906000526020600020905b815481529060010190602001808311610a3557829003601f168201915b50505050508152602001600282015481525050828281518110610a7857610a77611c41565b5b60200260200101819052508080610a8e90611cb6565b9150506108e4565b508091505090565b600281805160208101820180518482526020830160208501208183528095505050505050600091509050806000018054610ad79061166b565b80601f0160208091040260200160405190810160405280929190818152602001828054610b039061166b565b8015610b505780601f10610b2557610100808354040283529160200191610b50565b820191906000526020600020905b815481529060010190602001808311610b3357829003601f168201915b505050505090806001018054610b659061166b565b80601f0160208091040260200160405190810160405280929190818152602001828054610b919061166b565b8015610bde5780601f10610bb357610100808354040283529160200191610bde565b820191906000526020600020905b815481529060010190602001808311610bc157829003601f168201915b5050505050908060020154905083565b7f000000000000000000000000000000000000000000000000000000000000000081565b610c1a610c98565b600073ffffffffffffffffffffffffffffffffffffffff168173ffffffffffffffffffffffffffffffffffffffff1603610c8c5760006040517f1e4fbdf7000000000000000000000000000000000000000000000000000000008152600401610c83919061136f565b60405180910390fd5b610c9581610d1f565b50565b610ca0610de3565b73ffffffffffffffffffffffffffffffffffffffff16610cbe610859565b73ffffffffffffffffffffffffffffffffffffffff1614610d1d57610ce1610de3565b6040517f118cdaa7000000000000000000000000000000000000000000000000000000008152600401610d14919061136f565b60405180910390fd5b565b60008060009054906101000a900473ffffffffffffffffffffffffffffffffffffffff169050816000806101000a81548173ffffffffffffffffffffffffffffffffffffffff021916908373ffffffffffffffffffffffffffffffffffffffff1602179055508173ffffffffffffffffffffffffffffffffffffffff168173ffffffffffffffffffffffffffffffffffffffff167f8be0079c531659141344cd1fd0a4f28419497f9722a3daafe3b4186f6b6457e060405160405180910390a35050565b600033905090565b60405180606001604052806060815260200160608152602001600081525090565b600073ffffffffffffffffffffffffffffffffffffffff82169050919050565b6000819050919050565b6000610e51610e4c610e4784610e0c565b610e2c565b610e0c565b9050919050565b6000610e6382610e36565b9050919050565b6000610e7582610e58565b9050919050565b610e8581610e6a565b82525050565b6000602082019050610ea06000830184610e7c565b92915050565b6000819050919050565b610eb981610ea6565b82525050565b6000602082019050610ed46000830184610eb0565b92915050565b6000604051905090565b600080fd5b600080fd5b600080fd5b600080fd5b6000601f19601f8301169050919050565b7f4e487b7100000000000000000000000000000000000000000000000000000000600052604160045260246000fd5b610f4182610ef8565b810181811067ffffffffffffffff82111715610f6057610f5f610f09565b5b80604052505050565b6000610f73610eda565b9050610f7f8282610f38565b919050565b600067ffffffffffffffff821115610f9f57610f9e610f09565b5b610fa882610ef8565b9050602081019050919050565b82818337600083830152505050565b6000610fd7610fd284610f84565b610f69565b905082815260208101848484011115610ff357610ff2610ef3565b5b610ffe848285610fb5565b509392505050565b600082601f83011261101b5761101a610eee565b5b813561102b848260208601610fc4565b91505092915050565b60006020828403121561104a57611049610ee4565b5b600082013567ffffffffffffffff81111561106857611067610ee9565b5b61107484828501611006565b91505092915050565b600081519050919050565b600082825260208201905092915050565b60005b838110156110b757808201518184015260208101905061109c565b60008484015250505050565b60006110ce8261107d565b6110d88185611088565b93506110e8818560208601611099565b6110f181610ef8565b840191505092915050565b61110581610ea6565b82525050565b6000606083016000830151848203600086015261112882826110c3565b9150506020830151848203602086015261114282826110c3565b915050604083015161115760408601826110fc565b508091505092915050565b6000602082019050818103600083015261117c818461110b565b905092915050565b600061118f82610e58565b9050919050565b61119f81611184565b82525050565b60006020820190506111ba6000830184611196565b92915050565b600080600080608085870312156111da576111d9610ee4565b5b600085013567ffffffffffffffff8111156111f8576111f7610ee9565b5b61120487828801611006565b945050602085013567ffffffffffffffff81111561122557611224610ee9565b5b61123187828801611006565b935050604085013567ffffffffffffffff81111561125257611251610ee9565b5b61125e87828801611006565b925050606085013567ffffffffffffffff81111561127f5761127e610ee9565b5b61128b87828801611006565b91505092959194509250565b6112a081610ea6565b81146112ab57600080fd5b50565b6000813590506112bd81611297565b92915050565b6000806000606084860312156112dc576112db610ee4565b5b600084013567ffffffffffffffff8111156112fa576112f9610ee9565b5b61130686828701611006565b935050602084013567ffffffffffffffff81111561132757611326610ee9565b5b61133386828701611006565b9250506040611344868287016112ae565b9150509250925092565b600061135982610e0c565b9050919050565b6113698161134e565b82525050565b60006020820190506113846000830184611360565b92915050565b600081519050919050565b600082825260208201905092915050565b6000819050602082019050919050565b600060608301600083015184820360008601526113d382826110c3565b915050602083015184820360208601526113ed82826110c3565b915050604083015161140260408601826110fc565b508091505092915050565b600061141983836113b6565b905092915050565b6000602082019050919050565b60006114398261138a565b6114438185611395565b935083602082028501611455856113a6565b8060005b858110156114915784840389528151611472858261140d565b945061147d83611421565b925060208a01995050600181019050611459565b50829750879550505050505092915050565b600060208201905081810360008301526114bd818461142e565b905092915050565b600082825260208201905092915050565b60006114e18261107d565b6114eb81856114c5565b93506114fb818560208601611099565b61150481610ef8565b840191505092915050565b6000606082019050818103600083015261152981866114d6565b9050818103602083015261153d81856114d6565b905061154c6040830184610eb0565b949350505050565b600061155f82610e58565b9050919050565b61156f81611554565b82525050565b600060208201905061158a6000830184611566565b92915050565b6115998161134e565b81146115a457600080fd5b50565b6000813590506115b681611590565b92915050565b6000602082840312156115d2576115d1610ee4565b5b60006115e0848285016115a7565b91505092915050565b600081905092915050565b60006115ff8261107d565b61160981856115e9565b9350611619818560208601611099565b80840191505092915050565b600061163182846115f4565b915081905092915050565b7f4e487b7100000000000000000000000000000000000000000000000000000000600052602260045260246000fd5b6000600282049050600182168061168357607f821691505b6020821081036116965761169561163c565b5b50919050565b7f54656d706c61746520646f6573206e6f74206578697374000000000000000000600082015250565b60006116d26017836114c5565b91506116dd8261169c565b602082019050919050565b60006020820190508181036000830152611701816116c5565b9050919050565b60008115159050919050565b61171d81611708565b811461172857600080fd5b50565b60008151905061173a81611714565b92915050565b60006020828403121561175657611755610ee4565b5b60006117648482850161172b565b91505092915050565b7f4f6e6c7920646576696365732063616e2067656e657261746520646174610000600082015250565b60006117a3601e836114c5565b91506117ae8261176d565b602082019050919050565b600060208201905081810360008301526117d281611796565b9050919050565b7f496e76616c696420646174612074797065000000000000000000000000000000600082015250565b600061180f6011836114c5565b915061181a826117d9565b602082019050919050565b6000602082019050818103600083015261183e81611802565b9050919050565b60008190508160005260206000209050919050565b600081546118678161166b565b61187181866115e9565b9450600182166000811461188c57600181146118a1576118d4565b60ff19831686528115158202860193506118d4565b6118aa85611845565b60005b838110156118cc578154818901526001820191506020810190506118ad565b838801955050505b50505092915050565b60006118e9828561185a565b91506118f582846115f4565b91508190509392505050565b600060a0820190506119166000830188611360565b818103602083015261192881876114d6565b9050818103604083015261193c81866114d6565b9050818103606083015261195081856114d6565b9050818103608083015261196481846114d6565b90509695505050505050565b60008151905061197f81611297565b92915050565b60006020828403121561199b5761199a610ee4565b5b60006119a984828501611970565b91505092915050565b60006020601f8301049050919050565b600082821b905092915050565b6000600883026119ff7fffffffffffffffffffffffffffffffffffffffffffffffffffffffffffffffff826119c2565b611a0986836119c2565b95508019841693508086168417925050509392505050565b6000611a3c611a37611a3284610ea6565b610e2c565b610ea6565b9050919050565b6000819050919050565b611a5683611a21565b611a6a611a6282611a43565b8484546119cf565b825550505050565b600090565b611a7f611a72565b611a8a818484611a4d565b505050565b5b81811015611aae57611aa3600082611a77565b600181019050611a90565b5050565b601f821115611af357611ac481611845565b611acd846119b2565b81016020851015611adc578190505b611af0611ae8856119b2565b830182611a8f565b50505b505050565b600082821c905092915050565b6000611b1660001984600802611af8565b1980831691505092915050565b6000611b2f8383611b05565b9150826002028217905092915050565b611b488261107d565b67ffffffffffffffff811115611b6157611b60610f09565b5b611b6b825461166b565b611b76828285611ab2565b600060209050601f831160018114611ba95760008415611b97578287015190505b611ba18582611b23565b865550611c09565b601f198416611bb786611845565b60005b82811015611bdf57848901518255600182019150602085019450602081019050611bba565b86831015611bfc5784890151611bf8601f891682611b05565b8355505b6001600288020188555050505b505050505050565b60006040820190508181036000830152611c2b81856114d6565b9050611c3a6020830184610eb0565b9392505050565b7f4e487b7100000000000000000000000000000000000000000000000000000000600052603260045260246000fd5b6000611c7c828461185a565b915081905092915050565b7f4e487b7100000000000000000000000000000000000000000000000000000000600052601160045260246000fd5b6000611cc182610ea6565b91507fffffffffffffffffffffffffffffffffffffffffffffffffffffffffffffffff8203611cf357611cf2611c87565b5b60018201905091905056fea2646970667358221220293bd326ac32d0e75ec8b1ddf201cd2312470317a27331639711655965cd041f64736f6c63430008140033",
  "linkReferences": {},
  "deployedLinkReferences": {}
}