{
  "_format": "hh-sol-artifact-1",
  "contractName": "DataVerification",
  "sourceName": "contracts/DataVerification.sol",
  "abi": [
    {
      "inputs": [
        {
          "internalType": "address",
          "name": "_accessControlAddress",
          "type": "address"
        }
      ],
      "stateMutability": "nonpayable",
      "type": "constructor"
    },
    {
      "inputs": [
        {
          "internalType": "address",
          "name": "owner",
          "type": "address"
        }
      ],
      "name": "OwnableInvalidOwner",
      "type": "error"
    },
    {
      "inputs": [
        {
          "internalType": "address",
          "name": "account",
          "type": "address"
        }
      ],
      "name": "OwnableUnauthorizedAccount",
      "type": "error"
    },
    {
      "anonymous": false,
      "inputs": [
        {
          "indexed": true,
          "internalType": "uint256",
          "name": "tokenId",
          "type": "uint256"
        },
        {
          "indexed": false,
          "internalType": "enum IDataVerification.VerificationStatus",
          "name": "status",
          "type": "uint8"
        },
        {
          "indexed": true,
          "internalType": "address",
          "name": "verifier",
          "type": "address"
        },
        {
          "indexed": false,
          "internalType": "string",
          "name": "comments",
          "type": "string"
        }
      ],
      "name": "DataVerified",
      "type": "event"
    },
    {
      "anonymous": false,
      "inputs": [
        {
          "indexed": true,
          "internalType": "address",
          "name": "previousOwner",
          "type": "address"
        },
        {
          "indexed": true,
          "internalType": "address",
          "name": "newOwner",
          "type": "address"
        }
      ],
      "name": "OwnershipTransferred",
      "type": "event"
    },
    {
      "inputs": [],
      "name": "accessControl",
      "outputs": [
        {
          "internalType": "contract IoTDataAccessControl",
          "name": "",
          "type": "address"
        }
      ],
      "stateMutability": "view",
      "type": "function"
    },
    {
      "inputs": [
        {
          "internalType": "uint256",
          "name": "tokenId",
          "type": "uint256"
        }
      ],
      "name": "getVerificationStatus",
      "outputs": [
        {
          "internalType": "enum IDataVerification.VerificationStatus",
          "name": "",
          "type": "uint8"
        },
        {
          "internalType": "string",
          "name": "",
          "type": "string"
        },
        {
          "internalType": "address",
          "name": "",
          "type": "address"
        },
        {
          "internalType": "uint256",
          "name": "",
          "type": "uint256"
        }
      ],
      "stateMutability": "view",
      "type": "function"
    },
    {
      "inputs": [],
      "name": "owner",
      "outputs": [
        {
          "internalType": "address",
          "name": "",
          "type": "address"
        }
      ],
      "stateMutability": "view",
      "type": "function"
    },
    {
      "inputs": [],
      "name": "renounceOwnership",
      "outputs": [],
      "stateMutability": "nonpayable",
      "type": "function"
    },
    {
      "inputs": [
        {
          "internalType": "address",
          "name": "newOwner",
          "type": "address"
        }
      ],
      "name": "transferOwnership",
      "outputs": [],
      "stateMutability": "nonpayable",
      "type": "function"
    },
    {
      "inputs": [
        {
          "internalType": "uint256",
          "name": "",
          "type": "uint256"
        }
      ],
      "name": "verificationResults",
      "outputs": [
        {
          "internalType": "enum IDataVerification.VerificationStatus",
          "name": "status",
          "type": "uint8"
        },
        {
          "internalType": "string",
          "name": "comments",
          "type": "string"
        },
        {
          "internalType": "address",
          "name": "verifier",
          "type": "address"
        },
        {
          "internalType": "uint256",
          "name": "timestamp",
          "type": "uint256"
        }
      ],
      "stateMutability": "view",
      "type": "function"
    },
    {
      "inputs": [
        {
          "internalType": "uint256",
          "name": "tokenId",
          "type": "uint256"
        },
        {
          "internalType": "enum IDataVerification.VerificationStatus",
          "name": "status",
          "type": "uint8"
        },
        {
          "internalType": "string",
          "name": "comments",
          "type": "string"
        }
      ],
      "name": "verifyData",
      "outputs": [],
      "stateMutability": "nonpayable",
      "type": "function"
    }
  ],
  "bytecode": "0x60806040523480156200001157600080fd5b50604051620013a9380380620013a9833981810160405281019062000037919062000235565b33600073ffffffffffffffffffffffffffffffffffffffff168173ffffffffffffffffffffffffffffffffffffffff1603620000ad5760006040517f1e4fbdf7000000000000000000000000000000000000000000000000000000008152600401620000a4919062000278565b60405180910390fd5b620000be816200010760201b60201c565b5080600160006101000a81548173ffffffffffffffffffffffffffffffffffffffff021916908373ffffffffffffffffffffffffffffffffffffffff1602179055505062000295565b60008060009054906101000a900473ffffffffffffffffffffffffffffffffffffffff169050816000806101000a81548173ffffffffffffffffffffffffffffffffffffffff021916908373ffffffffffffffffffffffffffffffffffffffff1602179055508173ffffffffffffffffffffffffffffffffffffffff168173ffffffffffffffffffffffffffffffffffffffff167f8be0079c531659141344cd1fd0a4f28419497f9722a3daafe3b4186f6b6457e060405160405180910390a35050565b600080fd5b600073ffffffffffffffffffffffffffffffffffffffff82169050919050565b6000620001fd82620001d0565b9050919050565b6200020f81620001f0565b81146200021b57600080fd5b50565b6000815190506200022f8162000204565b92915050565b6000602082840312156200024e576200024d620001cb565b5b60006200025e848285016200021e565b91505092915050565b6200027281620001f0565b82525050565b60006020820190506200028f600083018462000267565b92915050565b61110480620002a56000396000f3fe608060405234801561001057600080fd5b506004361061007d5760003560e01c80638da5cb5b1161005b5780638da5cb5b146100dd578063e5f2993f146100fb578063f2fde38b14610117578063f33f1f07146101335761007d565b806313007d55146100825780631d9425ca146100a0578063715018a6146100d3575b600080fd5b61008a610166565b60405161009791906108a7565b60405180910390f35b6100ba60048036038101906100b5919061090c565b61018c565b6040516100ca9493929190610a70565b60405180910390f35b6100db610306565b005b6100e561031a565b6040516100f29190610abc565b60405180910390f35b61011560048036038101906101109190610c31565b610343565b005b610131600480360381019061012c9190610ccc565b61056a565b005b61014d6004803603810190610148919061090c565b6105f0565b60405161015d9493929190610a70565b60405180910390f35b600160009054906101000a900473ffffffffffffffffffffffffffffffffffffffff1681565b600060606000806000600260008781526020019081526020016000206040518060800160405290816000820160009054906101000a900460ff1660028111156101d8576101d7610939565b5b60028111156101ea576101e9610939565b5b81526020016001820180546101fe90610d28565b80601f016020809104026020016040519081016040528092919081815260200182805461022a90610d28565b80156102775780601f1061024c57610100808354040283529160200191610277565b820191906000526020600020905b81548152906001019060200180831161025a57829003601f168201915b505050505081526020016002820160009054906101000a900473ffffffffffffffffffffffffffffffffffffffff1673ffffffffffffffffffffffffffffffffffffffff1673ffffffffffffffffffffffffffffffffffffffff168152602001600382015481525050905080600001518160200151826040015183606001519450945094509450509193509193565b61030e6106d5565b610318600061075c565b565b60008060009054906101000a900473ffffffffffffffffffffffffffffffffffffffff16905090565b600160009054906101000a900473ffffffffffffffffffffffffffffffffffffffff1673ffffffffffffffffffffffffffffffffffffffff166333105218336040518263ffffffff1660e01b815260040161039e9190610abc565b602060405180830381865afa1580156103bb573d6000803e3d6000fd5b505050506040513d601f19601f820116820180604052508101906103df9190610d91565b61041e576040517f08c379a000000000000000000000000000000000000000000000000000000000815260040161041590610e0a565b60405180910390fd5b604051806080016040528083600281111561043c5761043b610939565b5b81526020018281526020013373ffffffffffffffffffffffffffffffffffffffff168152602001428152506002600085815260200190815260200160002060008201518160000160006101000a81548160ff021916908360028111156104a5576104a4610939565b5b021790555060208201518160010190816104bf9190610fcc565b5060408201518160020160006101000a81548173ffffffffffffffffffffffffffffffffffffffff021916908373ffffffffffffffffffffffffffffffffffffffff160217905550606082015181600301559050503373ffffffffffffffffffffffffffffffffffffffff16837f07a748cdae27df23563f47c0dd46ab79157d408f99e4fb57cd732acf62f94694848460405161055d92919061109e565b60405180910390a3505050565b6105726106d5565b600073ffffffffffffffffffffffffffffffffffffffff168173ffffffffffffffffffffffffffffffffffffffff16036105e45760006040517f1e4fbdf70000000000000000000000000000000000000000000000000000000081526004016105db9190610abc565b60405180910390fd5b6105ed8161075c565b50565b60026020528060005260406000206000915090508060000160009054906101000a900460ff169080600101805461062690610d28565b80601f016020809104026020016040519081016040528092919081815260200182805461065290610d28565b801561069f5780601f106106745761010080835404028352916020019161069f565b820191906000526020600020905b81548152906001019060200180831161068257829003601f168201915b5050505050908060020160009054906101000a900473ffffffffffffffffffffffffffffffffffffffff16908060030154905084565b6106dd610820565b73ffffffffffffffffffffffffffffffffffffffff166106fb61031a565b73ffffffffffffffffffffffffffffffffffffffff161461075a5761071e610820565b6040517f118cdaa70000000000000000000000000000000000000000000000000000000081526004016107519190610abc565b60405180910390fd5b565b60008060009054906101000a900473ffffffffffffffffffffffffffffffffffffffff169050816000806101000a81548173ffffffffffffffffffffffffffffffffffffffff021916908373ffffffffffffffffffffffffffffffffffffffff1602179055508173ffffffffffffffffffffffffffffffffffffffff168173ffffffffffffffffffffffffffffffffffffffff167f8be0079c531659141344cd1fd0a4f28419497f9722a3daafe3b4186f6b6457e060405160405180910390a35050565b600033905090565b600073ffffffffffffffffffffffffffffffffffffffff82169050919050565b6000819050919050565b600061086d61086861086384610828565b610848565b610828565b9050919050565b600061087f82610852565b9050919050565b600061089182610874565b9050919050565b6108a181610886565b82525050565b60006020820190506108bc6000830184610898565b92915050565b6000604051905090565b600080fd5b600080fd5b6000819050919050565b6108e9816108d6565b81146108f457600080fd5b50565b600081359050610906816108e0565b92915050565b600060208284031215610922576109216108cc565b5b6000610930848285016108f7565b91505092915050565b7f4e487b7100000000000000000000000000000000000000000000000000000000600052602160045260246000fd5b6003811061097957610978610939565b5b50565b600081905061098a82610968565b919050565b600061099a8261097c565b9050919050565b6109aa8161098f565b82525050565b600081519050919050565b600082825260208201905092915050565b60005b838110156109ea5780820151818401526020810190506109cf565b60008484015250505050565b6000601f19601f8301169050919050565b6000610a12826109b0565b610a1c81856109bb565b9350610a2c8185602086016109cc565b610a35816109f6565b840191505092915050565b6000610a4b82610828565b9050919050565b610a5b81610a40565b82525050565b610a6a816108d6565b82525050565b6000608082019050610a8560008301876109a1565b8181036020830152610a978186610a07565b9050610aa66040830185610a52565b610ab36060830184610a61565b95945050505050565b6000602082019050610ad16000830184610a52565b92915050565b60038110610ae457600080fd5b50565b600081359050610af681610ad7565b92915050565b600080fd5b600080fd5b7f4e487b7100000000000000000000000000000000000000000000000000000000600052604160045260246000fd5b610b3e826109f6565b810181811067ffffffffffffffff82111715610b5d57610b5c610b06565b5b80604052505050565b6000610b706108c2565b9050610b7c8282610b35565b919050565b600067ffffffffffffffff821115610b9c57610b9b610b06565b5b610ba5826109f6565b9050602081019050919050565b82818337600083830152505050565b6000610bd4610bcf84610b81565b610b66565b905082815260208101848484011115610bf057610bef610b01565b5b610bfb848285610bb2565b509392505050565b600082601f830112610c1857610c17610afc565b5b8135610c28848260208601610bc1565b91505092915050565b600080600060608486031215610c4a57610c496108cc565b5b6000610c58868287016108f7565b9350506020610c6986828701610ae7565b925050604084013567ffffffffffffffff811115610c8a57610c896108d1565b5b610c9686828701610c03565b9150509250925092565b610ca981610a40565b8114610cb457600080fd5b50565b600081359050610cc681610ca0565b92915050565b600060208284031215610ce257610ce16108cc565b5b6000610cf084828501610cb7565b91505092915050565b7f4e487b7100000000000000000000000000000000000000000000000000000000600052602260045260246000fd5b60006002820490506001821680610d4057607f821691505b602082108103610d5357610d52610cf9565b5b50919050565b60008115159050919050565b610d6e81610d59565b8114610d7957600080fd5b50565b600081519050610d8b81610d65565b92915050565b600060208284031215610da757610da66108cc565b5b6000610db584828501610d7c565b91505092915050565b7f4f6e6c79207665726966696572732063616e2076657269667920646174610000600082015250565b6000610df4601e836109bb565b9150610dff82610dbe565b602082019050919050565b60006020820190508181036000830152610e2381610de7565b9050919050565b60008190508160005260206000209050919050565b60006020601f8301049050919050565b600082821b905092915050565b600060088302610e8c7fffffffffffffffffffffffffffffffffffffffffffffffffffffffffffffffff82610e4f565b610e968683610e4f565b95508019841693508086168417925050509392505050565b6000610ec9610ec4610ebf846108d6565b610848565b6108d6565b9050919050565b6000819050919050565b610ee383610eae565b610ef7610eef82610ed0565b848454610e5c565b825550505050565b600090565b610f0c610eff565b610f17818484610eda565b505050565b5b81811015610f3b57610f30600082610f04565b600181019050610f1d565b5050565b601f821115610f8057610f5181610e2a565b610f5a84610e3f565b81016020851015610f69578190505b610f7d610f7585610e3f565b830182610f1c565b50505b505050565b600082821c905092915050565b6000610fa360001984600802610f85565b1980831691505092915050565b6000610fbc8383610f92565b9150826002028217905092915050565b610fd5826109b0565b67ffffffffffffffff811115610fee57610fed610b06565b5b610ff88254610d28565b611003828285610f3f565b600060209050601f8311600181146110365760008415611024578287015190505b61102e8582610fb0565b865550611096565b601f19841661104486610e2a565b60005b8281101561106c57848901518255600182019150602085019450602081019050611047565b868310156110895784890151611085601f891682610f92565b8355505b6001600288020188555050505b505050505050565b60006040820190506110b360008301856109a1565b81810360208301526110c58184610a07565b9050939250505056fea26469706673582212201b78663dec7dc647a1c72235a75f948ec17c1d6b082b6d93d47d8ac5d3a1532964736f6c63430008140033",
  "linkReferences": {},
  "deployedLinkReferences": {}
}