{
  "_format": "hh-sol-artifact-1",
  "contractName": "DataVerification",
  "sourceName": "contracts/DataVerification.sol",
  "abi": [
    {
      "inputs": [
        {
          "internalType": "address",
          "name": "_accessControlAddress",
          "type": "address"
        }
      ],
      "stateMutability": "nonpayable",
      "type": "constructor"
    },
    {
      "inputs": [
        {
          "internalType": "address",
          "name": "owner",
          "type": "address"
        }
      ],
      "name": "OwnableInvalidOwner",
      "type": "error"
    },
    {
      "inputs": [
        {
          "internalType": "address",
          "name": "account",
          "type": "address"
        }
      ],
      "name": "OwnableUnauthorizedAccount",
      "type": "error"
    },
    {
      "anonymous": false,
      "inputs": [
        {
          "indexed": true,
          "internalType": "uint256",
          "name": "tokenId",
          "type": "uint256"
        },
        {
          "indexed": false,
          "internalType": "enum DataVerification.VerificationStatus",
          "name": "status",
          "type": "uint8"
        },
        {
          "indexed": true,
          "internalType": "address",
          "name": "verifier",
          "type": "address"
        },
        {
          "indexed": false,
          "internalType": "string",
          "name": "comments",
          "type": "string"
        }
      ],
      "name": "DataVerified",
      "type": "event"
    },
    {
      "anonymous": false,
      "inputs": [
        {
          "indexed": true,
          "internalType": "address",
          "name": "previousOwner",
          "type": "address"
        },
        {
          "indexed": true,
          "internalType": "address",
          "name": "newOwner",
          "type": "address"
        }
      ],
      "name": "OwnershipTransferred",
      "type": "event"
    },
    {
      "inputs": [],
      "name": "accessControl",
      "outputs": [
        {
          "internalType": "contract IoTDataAccessControl",
          "name": "",
          "type": "address"
        }
      ],
      "stateMutability": "view",
      "type": "function"
    },
    {
      "inputs": [
        {
          "internalType": "uint256",
          "name": "tokenId",
          "type": "uint256"
        }
      ],
      "name": "getVerificationStatus",
      "outputs": [
        {
          "internalType": "enum DataVerification.VerificationStatus",
          "name": "",
          "type": "uint8"
        },
        {
          "internalType": "string",
          "name": "",
          "type": "string"
        },
        {
          "internalType": "address",
          "name": "",
          "type": "address"
        },
        {
          "internalType": "uint256",
          "name": "",
          "type": "uint256"
        }
      ],
      "stateMutability": "view",
      "type": "function"
    },
    {
      "inputs": [],
      "name": "nftContract",
      "outputs": [
        {
          "internalType": "address",
          "name": "",
          "type": "address"
        }
      ],
      "stateMutability": "view",
      "type": "function"
    },
    {
      "inputs": [],
      "name": "owner",
      "outputs": [
        {
          "internalType": "address",
          "name": "",
          "type": "address"
        }
      ],
      "stateMutability": "view",
      "type": "function"
    },
    {
      "inputs": [],
      "name": "renounceOwnership",
      "outputs": [],
      "stateMutability": "nonpayable",
      "type": "function"
    },
    {
      "inputs": [
        {
          "internalType": "address",
          "name": "_nftContract",
          "type": "address"
        }
      ],
      "name": "setNFTContract",
      "outputs": [],
      "stateMutability": "nonpayable",
      "type": "function"
    },
    {
      "inputs": [
        {
          "internalType": "address",
          "name": "newOwner",
          "type": "address"
        }
      ],
      "name": "transferOwnership",
      "outputs": [],
      "stateMutability": "nonpayable",
      "type": "function"
    },
    {
      "inputs": [
        {
          "internalType": "uint256",
          "name": "",
          "type": "uint256"
        }
      ],
      "name": "verificationResults",
      "outputs": [
        {
          "internalType": "enum DataVerification.VerificationStatus",
          "name": "status",
          "type": "uint8"
        },
        {
          "internalType": "string",
          "name": "comments",
          "type": "string"
        },
        {
          "internalType": "address",
          "name": "verifier",
          "type": "address"
        },
        {
          "internalType": "uint256",
          "name": "timestamp",
          "type": "uint256"
        }
      ],
      "stateMutability": "view",
      "type": "function"
    },
    {
      "inputs": [
        {
          "internalType": "uint256",
          "name": "tokenId",
          "type": "uint256"
        },
        {
          "internalType": "enum DataVerification.VerificationStatus",
          "name": "status",
          "type": "uint8"
        },
        {
          "internalType": "string",
          "name": "comments",
          "type": "string"
        }
      ],
      "name": "verifyData",
      "outputs": [],
      "stateMutability": "nonpayable",
      "type": "function"
    }
  ],
  "bytecode": "0x60a06040523480156200001157600080fd5b5060405162001ad738038062001ad783398181016040528101906200003791906200029a565b33600073ffffffffffffffffffffffffffffffffffffffff168173ffffffffffffffffffffffffffffffffffffffff1603620000ad5760006040517f1e4fbdf7000000000000000000000000000000000000000000000000000000008152600401620000a49190620002dd565b60405180910390fd5b620000be816200016c60201b60201c565b50600073ffffffffffffffffffffffffffffffffffffffff168173ffffffffffffffffffffffffffffffffffffffff160362000131576040517f08c379a000000000000000000000000000000000000000000000000000000000815260040162000128906200035b565b60405180910390fd5b8073ffffffffffffffffffffffffffffffffffffffff1660808173ffffffffffffffffffffffffffffffffffffffff1681525050506200037d565b60008060009054906101000a900473ffffffffffffffffffffffffffffffffffffffff169050816000806101000a81548173ffffffffffffffffffffffffffffffffffffffff021916908373ffffffffffffffffffffffffffffffffffffffff1602179055508173ffffffffffffffffffffffffffffffffffffffff168173ffffffffffffffffffffffffffffffffffffffff167f8be0079c531659141344cd1fd0a4f28419497f9722a3daafe3b4186f6b6457e060405160405180910390a35050565b600080fd5b600073ffffffffffffffffffffffffffffffffffffffff82169050919050565b6000620002628262000235565b9050919050565b620002748162000255565b81146200028057600080fd5b50565b600081519050620002948162000269565b92915050565b600060208284031215620002b357620002b262000230565b5b6000620002c38482850162000283565b91505092915050565b620002d78162000255565b82525050565b6000602082019050620002f46000830184620002cc565b92915050565b600082825260208201905092915050565b7f496e76616c696420416363657373436f6e74726f6c2061646472657373000000600082015250565b600062000343601d83620002fa565b915062000350826200030b565b602082019050919050565b60006020820190508181036000830152620003768162000334565b9050919050565b608051611737620003a0600039600081816101b8015261050501526117376000f3fe608060405234801561001057600080fd5b50600436106100935760003560e01c8063a7ccabdf11610066578063a7ccabdf14610111578063d56d229d1461012d578063e5f2993f1461014b578063f2fde38b14610167578063f33f1f071461018357610093565b806313007d55146100985780631d9425ca146100b6578063715018a6146100e95780638da5cb5b146100f3575b600080fd5b6100a06101b6565b6040516100ad9190610c95565b60405180910390f35b6100d060048036038101906100cb9190610cfa565b6101da565b6040516100e09493929190610e5e565b60405180910390f35b6100f1610354565b005b6100fb610368565b6040516101089190610eaa565b60405180910390f35b61012b60048036038101906101269190610ef1565b610391565b005b61013561044c565b6040516101429190610eaa565b60405180910390f35b61016560048036038101906101609190611078565b610472565b005b610181600480360381019061017c9190610ef1565b610958565b005b61019d60048036038101906101989190610cfa565b6109de565b6040516101ad9493929190610e5e565b60405180910390f35b7f000000000000000000000000000000000000000000000000000000000000000081565b600060606000806000600260008781526020019081526020016000206040518060800160405290816000820160009054906101000a900460ff16600281111561022657610225610d27565b5b600281111561023857610237610d27565b5b815260200160018201805461024c90611116565b80601f016020809104026020016040519081016040528092919081815260200182805461027890611116565b80156102c55780601f1061029a576101008083540402835291602001916102c5565b820191906000526020600020905b8154815290600101906020018083116102a857829003601f168201915b505050505081526020016002820160009054906101000a900473ffffffffffffffffffffffffffffffffffffffff1673ffffffffffffffffffffffffffffffffffffffff1673ffffffffffffffffffffffffffffffffffffffff168152602001600382015481525050905080600001518160200151826040015183606001519450945094509450509193509193565b61035c610ac3565b6103666000610b4a565b565b60008060009054906101000a900473ffffffffffffffffffffffffffffffffffffffff16905090565b610399610ac3565b600073ffffffffffffffffffffffffffffffffffffffff168173ffffffffffffffffffffffffffffffffffffffff1603610408576040517f08c379a00000000000000000000000000000000000000000000000000000000081526004016103ff90611193565b60405180910390fd5b80600160006101000a81548173ffffffffffffffffffffffffffffffffffffffff021916908373ffffffffffffffffffffffffffffffffffffffff16021790555050565b600160009054906101000a900473ffffffffffffffffffffffffffffffffffffffff1681565b600073ffffffffffffffffffffffffffffffffffffffff16600160009054906101000a900473ffffffffffffffffffffffffffffffffffffffff1673ffffffffffffffffffffffffffffffffffffffff1603610503576040517f08c379a00000000000000000000000000000000000000000000000000000000081526004016104fa906111ff565b60405180910390fd5b7f000000000000000000000000000000000000000000000000000000000000000073ffffffffffffffffffffffffffffffffffffffff166333105218336040518263ffffffff1660e01b815260040161055c9190610eaa565b602060405180830381865afa158015610579573d6000803e3d6000fd5b505050506040513d601f19601f8201168201806040525081019061059d9190611257565b6105dc576040517f08c379a00000000000000000000000000000000000000000000000000000000081526004016105d3906112d0565b60405180910390fd5b600073ffffffffffffffffffffffffffffffffffffffff16600160009054906101000a900473ffffffffffffffffffffffffffffffffffffffff1673ffffffffffffffffffffffffffffffffffffffff16636352211e856040518263ffffffff1660e01b815260040161064f91906112f0565b602060405180830381865afa15801561066c573d6000803e3d6000fd5b505050506040513d601f19601f820116820180604052508101906106909190611320565b73ffffffffffffffffffffffffffffffffffffffff16036106e6576040517f08c379a00000000000000000000000000000000000000000000000000000000081526004016106dd90611399565b60405180910390fd5b6002808111156106f9576106f8610d27565b5b82600281111561070c5761070b610d27565b5b03610756576000815111610755576040517f08c379a000000000000000000000000000000000000000000000000000000000815260040161074c90611405565b60405180910390fd5b5b604051806080016040528083600281111561077457610773610d27565b5b81526020018281526020013373ffffffffffffffffffffffffffffffffffffffff168152602001428152506002600085815260200190815260200160002060008201518160000160006101000a81548160ff021916908360028111156107dd576107dc610d27565b5b021790555060208201518160010190816107f791906115c7565b5060408201518160020160006101000a81548173ffffffffffffffffffffffffffffffffffffffff021916908373ffffffffffffffffffffffffffffffffffffffff16021790555060608201518160030155905050600160009054906101000a900473ffffffffffffffffffffffffffffffffffffffff1673ffffffffffffffffffffffffffffffffffffffff1663f320beac846001600281111561089f5761089e610d27565b5b8560028111156108b2576108b1610d27565b5b146040518363ffffffff1660e01b81526004016108d09291906116a8565b600060405180830381600087803b1580156108ea57600080fd5b505af11580156108fe573d6000803e3d6000fd5b505050503373ffffffffffffffffffffffffffffffffffffffff16837f07a748cdae27df23563f47c0dd46ab79157d408f99e4fb57cd732acf62f94694848460405161094b9291906116d1565b60405180910390a3505050565b610960610ac3565b600073ffffffffffffffffffffffffffffffffffffffff168173ffffffffffffffffffffffffffffffffffffffff16036109d25760006040517f1e4fbdf70000000000000000000000000000000000000000000000000000000081526004016109c99190610eaa565b60405180910390fd5b6109db81610b4a565b50565b60026020528060005260406000206000915090508060000160009054906101000a900460ff1690806001018054610a1490611116565b80601f0160208091040260200160405190810160405280929190818152602001828054610a4090611116565b8015610a8d5780601f10610a6257610100808354040283529160200191610a8d565b820191906000526020600020905b815481529060010190602001808311610a7057829003601f168201915b5050505050908060020160009054906101000a900473ffffffffffffffffffffffffffffffffffffffff16908060030154905084565b610acb610c0e565b73ffffffffffffffffffffffffffffffffffffffff16610ae9610368565b73ffffffffffffffffffffffffffffffffffffffff1614610b4857610b0c610c0e565b6040517f118cdaa7000000000000000000000000000000000000000000000000000000008152600401610b3f9190610eaa565b60405180910390fd5b565b60008060009054906101000a900473ffffffffffffffffffffffffffffffffffffffff169050816000806101000a81548173ffffffffffffffffffffffffffffffffffffffff021916908373ffffffffffffffffffffffffffffffffffffffff1602179055508173ffffffffffffffffffffffffffffffffffffffff168173ffffffffffffffffffffffffffffffffffffffff167f8be0079c531659141344cd1fd0a4f28419497f9722a3daafe3b4186f6b6457e060405160405180910390a35050565b600033905090565b600073ffffffffffffffffffffffffffffffffffffffff82169050919050565b6000819050919050565b6000610c5b610c56610c5184610c16565b610c36565b610c16565b9050919050565b6000610c6d82610c40565b9050919050565b6000610c7f82610c62565b9050919050565b610c8f81610c74565b82525050565b6000602082019050610caa6000830184610c86565b92915050565b6000604051905090565b600080fd5b600080fd5b6000819050919050565b610cd781610cc4565b8114610ce257600080fd5b50565b600081359050610cf481610cce565b92915050565b600060208284031215610d1057610d0f610cba565b5b6000610d1e84828501610ce5565b91505092915050565b7f4e487b7100000000000000000000000000000000000000000000000000000000600052602160045260246000fd5b60038110610d6757610d66610d27565b5b50565b6000819050610d7882610d56565b919050565b6000610d8882610d6a565b9050919050565b610d9881610d7d565b82525050565b600081519050919050565b600082825260208201905092915050565b60005b83811015610dd8578082015181840152602081019050610dbd565b60008484015250505050565b6000601f19601f8301169050919050565b6000610e0082610d9e565b610e0a8185610da9565b9350610e1a818560208601610dba565b610e2381610de4565b840191505092915050565b6000610e3982610c16565b9050919050565b610e4981610e2e565b82525050565b610e5881610cc4565b82525050565b6000608082019050610e736000830187610d8f565b8181036020830152610e858186610df5565b9050610e946040830185610e40565b610ea16060830184610e4f565b95945050505050565b6000602082019050610ebf6000830184610e40565b92915050565b610ece81610e2e565b8114610ed957600080fd5b50565b600081359050610eeb81610ec5565b92915050565b600060208284031215610f0757610f06610cba565b5b6000610f1584828501610edc565b91505092915050565b60038110610f2b57600080fd5b50565b600081359050610f3d81610f1e565b92915050565b600080fd5b600080fd5b7f4e487b7100000000000000000000000000000000000000000000000000000000600052604160045260246000fd5b610f8582610de4565b810181811067ffffffffffffffff82111715610fa457610fa3610f4d565b5b80604052505050565b6000610fb7610cb0565b9050610fc38282610f7c565b919050565b600067ffffffffffffffff821115610fe357610fe2610f4d565b5b610fec82610de4565b9050602081019050919050565b82818337600083830152505050565b600061101b61101684610fc8565b610fad565b90508281526020810184848401111561103757611036610f48565b5b611042848285610ff9565b509392505050565b600082601f83011261105f5761105e610f43565b5b813561106f848260208601611008565b91505092915050565b60008060006060848603121561109157611090610cba565b5b600061109f86828701610ce5565b93505060206110b086828701610f2e565b925050604084013567ffffffffffffffff8111156110d1576110d0610cbf565b5b6110dd8682870161104a565b9150509250925092565b7f4e487b7100000000000000000000000000000000000000000000000000000000600052602260045260246000fd5b6000600282049050600182168061112e57607f821691505b602082108103611141576111406110e7565b5b50919050565b7f496e76616c696420616464726573730000000000000000000000000000000000600082015250565b600061117d600f83610da9565b915061118882611147565b602082019050919050565b600060208201905081810360008301526111ac81611170565b9050919050565b7f4e465420636f6e7472616374206e6f7420736574000000000000000000000000600082015250565b60006111e9601483610da9565b91506111f4826111b3565b602082019050919050565b60006020820190508181036000830152611218816111dc565b9050919050565b60008115159050919050565b6112348161121f565b811461123f57600080fd5b50565b6000815190506112518161122b565b92915050565b60006020828403121561126d5761126c610cba565b5b600061127b84828501611242565b91505092915050565b7f4f6e6c7920766572696669657273000000000000000000000000000000000000600082015250565b60006112ba600e83610da9565b91506112c582611284565b602082019050919050565b600060208201905081810360008301526112e9816112ad565b9050919050565b60006020820190506113056000830184610e4f565b92915050565b60008151905061131a81610ec5565b92915050565b60006020828403121561133657611335610cba565b5b60006113448482850161130b565b91505092915050565b7f496e76616c696420746f6b656e20494400000000000000000000000000000000600082015250565b6000611383601083610da9565b915061138e8261134d565b602082019050919050565b600060208201905081810360008301526113b281611376565b9050919050565b7f52656a656374696f6e20726571756972657320636f6d6d656e74730000000000600082015250565b60006113ef601b83610da9565b91506113fa826113b9565b602082019050919050565b6000602082019050818103600083015261141e816113e2565b9050919050565b60008190508160005260206000209050919050565b60006020601f8301049050919050565b600082821b905092915050565b6000600883026114877fffffffffffffffffffffffffffffffffffffffffffffffffffffffffffffffff8261144a565b611491868361144a565b95508019841693508086168417925050509392505050565b60006114c46114bf6114ba84610cc4565b610c36565b610cc4565b9050919050565b6000819050919050565b6114de836114a9565b6114f26114ea826114cb565b848454611457565b825550505050565b600090565b6115076114fa565b6115128184846114d5565b505050565b5b818110156115365761152b6000826114ff565b600181019050611518565b5050565b601f82111561157b5761154c81611425565b6115558461143a565b81016020851015611564578190505b6115786115708561143a565b830182611517565b50505b505050565b600082821c905092915050565b600061159e60001984600802611580565b1980831691505092915050565b60006115b7838361158d565b9150826002028217905092915050565b6115d082610d9e565b67ffffffffffffffff8111156115e9576115e8610f4d565b5b6115f38254611116565b6115fe82828561153a565b600060209050601f831160018114611631576000841561161f578287015190505b61162985826115ab565b865550611691565b601f19841661163f86611425565b60005b8281101561166757848901518255600182019150602085019450602081019050611642565b868310156116845784890151611680601f89168261158d565b8355505b6001600288020188555050505b505050505050565b6116a28161121f565b82525050565b60006040820190506116bd6000830185610e4f565b6116ca6020830184611699565b9392505050565b60006040820190506116e66000830185610d8f565b81810360208301526116f88184610df5565b9050939250505056fea26469706673582212209311b022d32f36dc8c4be40979630f3944dd086d0972cd415157e4a41009ae1864736f6c63430008140033",
  "linkReferences": {},
  "deployedLinkReferences": {}
}