{
  "_format": "hh-sol-artifact-1",
  "contractName": "IoTDataNFT",
  "sourceName": "contracts/IoTDataNFT.sol",
  "abi": [
    {
      "inputs": [
        {
          "internalType": "address",
          "name": "initialOwner",
          "type": "address"
        }
      ],
      "stateMutability": "nonpayable",
      "type": "constructor"
    },
    {
      "inputs": [],
      "name": "AccessControlBadConfirmation",
      "type": "error"
    },
    {
      "inputs": [
        {
          "internalType": "address",
          "name": "account",
          "type": "address"
        },
        {
          "internalType": "bytes32",
          "name": "neededRole",
          "type": "bytes32"
        }
      ],
      "name": "AccessControlUnauthorizedAccount",
      "type": "error"
    },
    {
      "inputs": [
        {
          "internalType": "address",
          "name": "sender",
          "type": "address"
        },
        {
          "internalType": "uint256",
          "name": "tokenId",
          "type": "uint256"
        },
        {
          "internalType": "address",
          "name": "owner",
          "type": "address"
        }
      ],
      "name": "ERC721IncorrectOwner",
      "type": "error"
    },
    {
      "inputs": [
        {
          "internalType": "address",
          "name": "operator",
          "type": "address"
        },
        {
          "internalType": "uint256",
          "name": "tokenId",
          "type": "uint256"
        }
      ],
      "name": "ERC721InsufficientApproval",
      "type": "error"
    },
    {
      "inputs": [
        {
          "internalType": "address",
          "name": "approver",
          "type": "address"
        }
      ],
      "name": "ERC721InvalidApprover",
      "type": "error"
    },
    {
      "inputs": [
        {
          "internalType": "address",
          "name": "operator",
          "type": "address"
        }
      ],
      "name": "ERC721InvalidOperator",
      "type": "error"
    },
    {
      "inputs": [
        {
          "internalType": "address",
          "name": "owner",
          "type": "address"
        }
      ],
      "name": "ERC721InvalidOwner",
      "type": "error"
    },
    {
      "inputs": [
        {
          "internalType": "address",
          "name": "receiver",
          "type": "address"
        }
      ],
      "name": "ERC721InvalidReceiver",
      "type": "error"
    },
    {
      "inputs": [
        {
          "internalType": "address",
          "name": "sender",
          "type": "address"
        }
      ],
      "name": "ERC721InvalidSender",
      "type": "error"
    },
    {
      "inputs": [
        {
          "internalType": "uint256",
          "name": "tokenId",
          "type": "uint256"
        }
      ],
      "name": "ERC721NonexistentToken",
      "type": "error"
    },
    {
      "inputs": [
        {
          "internalType": "address",
          "name": "owner",
          "type": "address"
        }
      ],
      "name": "OwnableInvalidOwner",
      "type": "error"
    },
    {
      "inputs": [
        {
          "internalType": "address",
          "name": "account",
          "type": "address"
        }
      ],
      "name": "OwnableUnauthorizedAccount",
      "type": "error"
    },
    {
      "anonymous": false,
      "inputs": [
        {
          "indexed": true,
          "internalType": "address",
          "name": "owner",
          "type": "address"
        },
        {
          "indexed": true,
          "internalType": "address",
          "name": "approved",
          "type": "address"
        },
        {
          "indexed": true,
          "internalType": "uint256",
          "name": "tokenId",
          "type": "uint256"
        }
      ],
      "name": "Approval",
      "type": "event"
    },
    {
      "anonymous": false,
      "inputs": [
        {
          "indexed": true,
          "internalType": "address",
          "name": "owner",
          "type": "address"
        },
        {
          "indexed": true,
          "internalType": "address",
          "name": "operator",
          "type": "address"
        },
        {
          "indexed": false,
          "internalType": "bool",
          "name": "approved",
          "type": "bool"
        }
      ],
      "name": "ApprovalForAll",
      "type": "event"
    },
    {
      "anonymous": false,
      "inputs": [
        {
          "indexed": false,
          "internalType": "uint256",
          "name": "_fromTokenId",
          "type": "uint256"
        },
        {
          "indexed": false,
          "internalType": "uint256",
          "name": "_toTokenId",
          "type": "uint256"
        }
      ],
      "name": "BatchMetadataUpdate",
      "type": "event"
    },
    {
      "anonymous": false,
      "inputs": [
        {
          "indexed": true,
          "internalType": "uint256",
          "name": "tokenId",
          "type": "uint256"
        },
        {
          "indexed": true,
          "internalType": "address",
          "name": "owner",
          "type": "address"
        },
        {
          "indexed": false,
          "internalType": "string",
          "name": "deviceId",
          "type": "string"
        },
        {
          "indexed": false,
          "internalType": "uint256",
          "name": "timestamp",
          "type": "uint256"
        }
      ],
      "name": "DataNFTMinted",
      "type": "event"
    },
    {
      "anonymous": false,
      "inputs": [
        {
          "indexed": false,
          "internalType": "uint256",
          "name": "_tokenId",
          "type": "uint256"
        }
      ],
      "name": "MetadataUpdate",
      "type": "event"
    },
    {
      "anonymous": false,
      "inputs": [
        {
          "indexed": true,
          "internalType": "address",
          "name": "previousOwner",
          "type": "address"
        },
        {
          "indexed": true,
          "internalType": "address",
          "name": "newOwner",
          "type": "address"
        }
      ],
      "name": "OwnershipTransferred",
      "type": "event"
    },
    {
      "anonymous": false,
      "inputs": [
        {
          "indexed": true,
          "internalType": "bytes32",
          "name": "role",
          "type": "bytes32"
        },
        {
          "indexed": true,
          "internalType": "bytes32",
          "name": "previousAdminRole",
          "type": "bytes32"
        },
        {
          "indexed": true,
          "internalType": "bytes32",
          "name": "newAdminRole",
          "type": "bytes32"
        }
      ],
      "name": "RoleAdminChanged",
      "type": "event"
    },
    {
      "anonymous": false,
      "inputs": [
        {
          "indexed": true,
          "internalType": "bytes32",
          "name": "role",
          "type": "bytes32"
        },
        {
          "indexed": true,
          "internalType": "address",
          "name": "account",
          "type": "address"
        },
        {
          "indexed": true,
          "internalType": "address",
          "name": "sender",
          "type": "address"
        }
      ],
      "name": "RoleGranted",
      "type": "event"
    },
    {
      "anonymous": false,
      "inputs": [
        {
          "indexed": true,
          "internalType": "bytes32",
          "name": "role",
          "type": "bytes32"
        },
        {
          "indexed": true,
          "internalType": "address",
          "name": "account",
          "type": "address"
        },
        {
          "indexed": true,
          "internalType": "address",
          "name": "sender",
          "type": "address"
        }
      ],
      "name": "RoleRevoked",
      "type": "event"
    },
    {
      "anonymous": false,
      "inputs": [
        {
          "indexed": true,
          "internalType": "address",
          "name": "from",
          "type": "address"
        },
        {
          "indexed": true,
          "internalType": "address",
          "name": "to",
          "type": "address"
        },
        {
          "indexed": true,
          "internalType": "uint256",
          "name": "tokenId",
          "type": "uint256"
        }
      ],
      "name": "Transfer",
      "type": "event"
    },
    {
      "inputs": [],
      "name": "DEFAULT_ADMIN_ROLE",
      "outputs": [
        {
          "internalType": "bytes32",
          "name": "",
          "type": "bytes32"
        }
      ],
      "stateMutability": "view",
      "type": "function"
    },
    {
      "inputs": [],
      "name": "MINTER_ROLE",
      "outputs": [
        {
          "internalType": "bytes32",
          "name": "",
          "type": "bytes32"
        }
      ],
      "stateMutability": "view",
      "type": "function"
    },
    {
      "inputs": [],
      "name": "VERIFIER_ROLE",
      "outputs": [
        {
          "internalType": "bytes32",
          "name": "",
          "type": "bytes32"
        }
      ],
      "stateMutability": "view",
      "type": "function"
    },
    {
      "inputs": [
        {
          "internalType": "address",
          "name": "to",
          "type": "address"
        },
        {
          "internalType": "uint256",
          "name": "tokenId",
          "type": "uint256"
        }
      ],
      "name": "approve",
      "outputs": [],
      "stateMutability": "nonpayable",
      "type": "function"
    },
    {
      "inputs": [
        {
          "internalType": "address",
          "name": "owner",
          "type": "address"
        }
      ],
      "name": "balanceOf",
      "outputs": [
        {
          "internalType": "uint256",
          "name": "",
          "type": "uint256"
        }
      ],
      "stateMutability": "view",
      "type": "function"
    },
    {
      "inputs": [],
      "name": "dataVerificationContract",
      "outputs": [
        {
          "internalType": "address",
          "name": "",
          "type": "address"
        }
      ],
      "stateMutability": "view",
      "type": "function"
    },
    {
      "inputs": [
        {
          "internalType": "uint256",
          "name": "tokenId",
          "type": "uint256"
        }
      ],
      "name": "getApproved",
      "outputs": [
        {
          "internalType": "address",
          "name": "",
          "type": "address"
        }
      ],
      "stateMutability": "view",
      "type": "function"
    },
    {
      "inputs": [
        {
          "internalType": "uint256",
          "name": "tokenId",
          "type": "uint256"
        }
      ],
      "name": "getIoTData",
      "outputs": [
        {
          "internalType": "string",
          "name": "deviceId",
          "type": "string"
        },
        {
          "internalType": "uint256",
          "name": "timestamp",
          "type": "uint256"
        },
        {
          "internalType": "string",
          "name": "dataType",
          "type": "string"
        },
        {
          "internalType": "string",
          "name": "location",
          "type": "string"
        }
      ],
      "stateMutability": "view",
      "type": "function"
    },
    {
      "inputs": [
        {
          "internalType": "bytes32",
          "name": "role",
          "type": "bytes32"
        }
      ],
      "name": "getRoleAdmin",
      "outputs": [
        {
          "internalType": "bytes32",
          "name": "",
          "type": "bytes32"
        }
      ],
      "stateMutability": "view",
      "type": "function"
    },
    {
      "inputs": [
        {
          "internalType": "string",
          "name": "deviceId",
          "type": "string"
        }
      ],
      "name": "getTokensByDevice",
      "outputs": [
        {
          "internalType": "uint256[]",
          "name": "",
          "type": "uint256[]"
        }
      ],
      "stateMutability": "view",
      "type": "function"
    },
    {
      "inputs": [
        {
          "internalType": "uint256",
          "name": "tokenId",
          "type": "uint256"
        }
      ],
      "name": "getVerificationStatus",
      "outputs": [
        {
          "internalType": "enum IDataVerification.VerificationStatus",
          "name": "status",
          "type": "uint8"
        },
        {
          "internalType": "string",
          "name": "comments",
          "type": "string"
        },
        {
          "internalType": "address",
          "name": "verifier",
          "type": "address"
        },
        {
          "internalType": "uint256",
          "name": "timestamp",
          "type": "uint256"
        }
      ],
      "stateMutability": "view",
      "type": "function"
    },
    {
      "inputs": [
        {
          "internalType": "bytes32",
          "name": "role",
          "type": "bytes32"
        },
        {
          "internalType": "address",
          "name": "account",
          "type": "address"
        }
      ],
      "name": "grantRole",
      "outputs": [],
      "stateMutability": "nonpayable",
      "type": "function"
    },
    {
      "inputs": [
        {
          "internalType": "bytes32",
          "name": "role",
          "type": "bytes32"
        },
        {
          "internalType": "address",
          "name": "account",
          "type": "address"
        }
      ],
      "name": "hasRole",
      "outputs": [
        {
          "internalType": "bool",
          "name": "",
          "type": "bool"
        }
      ],
      "stateMutability": "view",
      "type": "function"
    },
    {
      "inputs": [
        {
          "internalType": "address",
          "name": "owner",
          "type": "address"
        },
        {
          "internalType": "address",
          "name": "operator",
          "type": "address"
        }
      ],
      "name": "isApprovedForAll",
      "outputs": [
        {
          "internalType": "bool",
          "name": "",
          "type": "bool"
        }
      ],
      "stateMutability": "view",
      "type": "function"
    },
    {
      "inputs": [
        {
          "internalType": "uint256",
          "name": "",
          "type": "uint256"
        }
      ],
      "name": "isVerified",
      "outputs": [
        {
          "internalType": "bool",
          "name": "",
          "type": "bool"
        }
      ],
      "stateMutability": "view",
      "type": "function"
    },
    {
      "inputs": [],
      "name": "name",
      "outputs": [
        {
          "internalType": "string",
          "name": "",
          "type": "string"
        }
      ],
      "stateMutability": "view",
      "type": "function"
    },
    {
      "inputs": [],
      "name": "owner",
      "outputs": [
        {
          "internalType": "address",
          "name": "",
          "type": "address"
        }
      ],
      "stateMutability": "view",
      "type": "function"
    },
    {
      "inputs": [
        {
          "internalType": "uint256",
          "name": "tokenId",
          "type": "uint256"
        }
      ],
      "name": "ownerOf",
      "outputs": [
        {
          "internalType": "address",
          "name": "",
          "type": "address"
        }
      ],
      "stateMutability": "view",
      "type": "function"
    },
    {
      "inputs": [],
      "name": "renounceOwnership",
      "outputs": [],
      "stateMutability": "nonpayable",
      "type": "function"
    },
    {
      "inputs": [
        {
          "internalType": "bytes32",
          "name": "role",
          "type": "bytes32"
        },
        {
          "internalType": "address",
          "name": "callerConfirmation",
          "type": "address"
        }
      ],
      "name": "renounceRole",
      "outputs": [],
      "stateMutability": "nonpayable",
      "type": "function"
    },
    {
      "inputs": [
        {
          "internalType": "bytes32",
          "name": "role",
          "type": "bytes32"
        },
        {
          "internalType": "address",
          "name": "account",
          "type": "address"
        }
      ],
      "name": "revokeRole",
      "outputs": [],
      "stateMutability": "nonpayable",
      "type": "function"
    },
    {
      "inputs": [
        {
          "internalType": "address",
          "name": "to",
          "type": "address"
        },
        {
          "internalType": "string",
          "name": "uri",
          "type": "string"
        },
        {
          "internalType": "string",
          "name": "deviceId",
          "type": "string"
        },
        {
          "internalType": "string",
          "name": "dataType",
          "type": "string"
        },
        {
          "internalType": "string",
          "name": "location",
          "type": "string"
        }
      ],
      "name": "safeMint",
      "outputs": [
        {
          "internalType": "uint256",
          "name": "",
          "type": "uint256"
        }
      ],
      "stateMutability": "nonpayable",
      "type": "function"
    },
    {
      "inputs": [
        {
          "internalType": "address",
          "name": "from",
          "type": "address"
        },
        {
          "internalType": "address",
          "name": "to",
          "type": "address"
        },
        {
          "internalType": "uint256",
          "name": "tokenId",
          "type": "uint256"
        }
      ],
      "name": "safeTransferFrom",
      "outputs": [],
      "stateMutability": "nonpayable",
      "type": "function"
    },
    {
      "inputs": [
        {
          "internalType": "address",
          "name": "from",
          "type": "address"
        },
        {
          "internalType": "address",
          "name": "to",
          "type": "address"
        },
        {
          "internalType": "uint256",
          "name": "tokenId",
          "type": "uint256"
        },
        {
          "internalType": "bytes",
          "name": "data",
          "type": "bytes"
        }
      ],
      "name": "safeTransferFrom",
      "outputs": [],
      "stateMutability": "nonpayable",
      "type": "function"
    },
    {
      "inputs": [
        {
          "internalType": "address",
          "name": "operator",
          "type": "address"
        },
        {
          "internalType": "bool",
          "name": "approved",
          "type": "bool"
        }
      ],
      "name": "setApprovalForAll",
      "outputs": [],
      "stateMutability": "nonpayable",
      "type": "function"
    },
    {
      "inputs": [
        {
          "internalType": "address",
          "name": "_verificationContract",
          "type": "address"
        }
      ],
      "name": "setDataVerificationContract",
      "outputs": [],
      "stateMutability": "nonpayable",
      "type": "function"
    },
    {
      "inputs": [
        {
          "internalType": "bytes4",
          "name": "interfaceId",
          "type": "bytes4"
        }
      ],
      "name": "supportsInterface",
      "outputs": [
        {
          "internalType": "bool",
          "name": "",
          "type": "bool"
        }
      ],
      "stateMutability": "view",
      "type": "function"
    },
    {
      "inputs": [],
      "name": "symbol",
      "outputs": [
        {
          "internalType": "string",
          "name": "",
          "type": "string"
        }
      ],
      "stateMutability": "view",
      "type": "function"
    },
    {
      "inputs": [
        {
          "internalType": "uint256",
          "name": "tokenId",
          "type": "uint256"
        }
      ],
      "name": "tokenURI",
      "outputs": [
        {
          "internalType": "string",
          "name": "",
          "type": "string"
        }
      ],
      "stateMutability": "view",
      "type": "function"
    },
    {
      "inputs": [
        {
          "internalType": "address",
          "name": "from",
          "type": "address"
        },
        {
          "internalType": "address",
          "name": "to",
          "type": "address"
        },
        {
          "internalType": "uint256",
          "name": "tokenId",
          "type": "uint256"
        }
      ],
      "name": "transferFrom",
      "outputs": [],
      "stateMutability": "nonpayable",
      "type": "function"
    },
    {
      "inputs": [
        {
          "internalType": "address",
          "name": "newOwner",
          "type": "address"
        }
      ],
      "name": "transferOwnership",
      "outputs": [],
      "stateMutability": "nonpayable",
      "type": "function"
    },
    {
      "inputs": [
        {
          "internalType": "uint256",
          "name": "tokenId",
          "type": "uint256"
        },
        {
          "internalType": "bool",
          "name": "verified",
          "type": "bool"
        }
      ],
      "name": "updateVerificationStatus",
      "outputs": [],
      "stateMutability": "nonpayable",
      "type": "function"
    }
  ],
  "bytecode": "0x60806040523480156200001157600080fd5b50604051620045d3380380620045d3833981810160405281019062000037919062000448565b806040518060400160405280600a81526020017f496f54446174614e4654000000000000000000000000000000000000000000008152506040518060400160405280600481526020017f494f544e000000000000000000000000000000000000000000000000000000008152508160009081620000b59190620006f4565b508060019081620000c79190620006f4565b505050600073ffffffffffffffffffffffffffffffffffffffff168173ffffffffffffffffffffffffffffffffffffffff16036200013f5760006040517f1e4fbdf7000000000000000000000000000000000000000000000000000000008152600401620001369190620007ec565b60405180910390fd5b6200015081620001a160201b60201c565b50620001666000801b826200026760201b60201c565b50620001997f9f2df0fed2c77648de5860a4cc508cd0818c85b8b8a1ab4ceeef8d981c8956a6826200026760201b60201c565b505062000809565b6000600760009054906101000a900473ffffffffffffffffffffffffffffffffffffffff16905081600760006101000a81548173ffffffffffffffffffffffffffffffffffffffff021916908373ffffffffffffffffffffffffffffffffffffffff1602179055508173ffffffffffffffffffffffffffffffffffffffff168173ffffffffffffffffffffffffffffffffffffffff167f8be0079c531659141344cd1fd0a4f28419497f9722a3daafe3b4186f6b6457e060405160405180910390a35050565b60006200027b83836200036b60201b60201c565b620003605760016008600085815260200190815260200160002060000160008473ffffffffffffffffffffffffffffffffffffffff1673ffffffffffffffffffffffffffffffffffffffff16815260200190815260200160002060006101000a81548160ff021916908315150217905550620002fc620003d660201b60201c565b73ffffffffffffffffffffffffffffffffffffffff168273ffffffffffffffffffffffffffffffffffffffff16847f2f8788117e7eff1d82e926ec794901d17c78024a50270940304540a733656f0d60405160405180910390a46001905062000365565b600090505b92915050565b60006008600084815260200190815260200160002060000160008373ffffffffffffffffffffffffffffffffffffffff1673ffffffffffffffffffffffffffffffffffffffff16815260200190815260200160002060009054906101000a900460ff16905092915050565b600033905090565b600080fd5b600073ffffffffffffffffffffffffffffffffffffffff82169050919050565b60006200041082620003e3565b9050919050565b620004228162000403565b81146200042e57600080fd5b50565b600081519050620004428162000417565b92915050565b600060208284031215620004615762000460620003de565b5b6000620004718482850162000431565b91505092915050565b600081519050919050565b7f4e487b7100000000000000000000000000000000000000000000000000000000600052604160045260246000fd5b7f4e487b7100000000000000000000000000000000000000000000000000000000600052602260045260246000fd5b60006002820490506001821680620004fc57607f821691505b602082108103620005125762000511620004b4565b5b50919050565b60008190508160005260206000209050919050565b60006020601f8301049050919050565b600082821b905092915050565b6000600883026200057c7fffffffffffffffffffffffffffffffffffffffffffffffffffffffffffffffff826200053d565b6200058886836200053d565b95508019841693508086168417925050509392505050565b6000819050919050565b6000819050919050565b6000620005d5620005cf620005c984620005a0565b620005aa565b620005a0565b9050919050565b6000819050919050565b620005f183620005b4565b620006096200060082620005dc565b8484546200054a565b825550505050565b600090565b6200062062000611565b6200062d818484620005e6565b505050565b5b8181101562000655576200064960008262000616565b60018101905062000633565b5050565b601f821115620006a4576200066e8162000518565b62000679846200052d565b8101602085101562000689578190505b620006a162000698856200052d565b83018262000632565b50505b505050565b600082821c905092915050565b6000620006c960001984600802620006a9565b1980831691505092915050565b6000620006e48383620006b6565b9150826002028217905092915050565b620006ff826200047a565b67ffffffffffffffff8111156200071b576200071a62000485565b5b620007278254620004e3565b6200073482828562000659565b600060209050601f8311600181146200076c576000841562000757578287015190505b620007638582620006d6565b865550620007d3565b601f1984166200077c8662000518565b60005b82811015620007a6578489015182556001820191506020850194506020810190506200077f565b86831015620007c65784890151620007c2601f891682620006b6565b8355505b6001600288020188555050505b505050505050565b620007e68162000403565b82525050565b6000602082019050620008036000830184620007db565b92915050565b613dba80620008196000396000f3fe608060405234801561001057600080fd5b50600436106101f05760003560e01c8063751dcddb1161010f578063c87b56dd116100a2578063e985e9c511610071578063e985e9c5146105e0578063ee83687b14610610578063f2fde38b14610643578063f320beac1461065f576101f0565b8063c87b56dd14610558578063d539139314610588578063d547741f146105a6578063e7705db6146105c2576101f0565b806395d89b41116100de57806395d89b41146104e4578063a217fddf14610502578063a22cb46514610520578063b88d4fde1461053c576101f0565b8063751dcddb146104485780637e6abcd3146104665780638da5cb5b1461049657806391d14854146104b4576101f0565b80632f2ff15d116101875780636352211e116101565780636352211e146103c2578063707a4e27146103f257806370a082311461040e578063715018a61461043e576101f0565b80632f2ff15d1461033e57806336568abe1461035a57806337b6d96b1461037657806342842e0e146103a6576101f0565b80631d9425ca116101c35780631d9425ca1461028f57806323b872dd146102c2578063248a9ca3146102de578063296c2b3a1461030e576101f0565b806301ffc9a7146101f557806306fdde0314610225578063081812fc14610243578063095ea7b314610273575b600080fd5b61020f600480360381019061020a91906129c0565b61067b565b60405161021c9190612a08565b60405180910390f35b61022d61068d565b60405161023a9190612ab3565b60405180910390f35b61025d60048036038101906102589190612b0b565b61071f565b60405161026a9190612b79565b60405180910390f35b61028d60048036038101906102889190612bc0565b61073b565b005b6102a960048036038101906102a49190612b0b565b610751565b6040516102b99493929190612c86565b60405180910390f35b6102dc60048036038101906102d79190612cd2565b610850565b005b6102f860048036038101906102f39190612d5b565b610952565b6040516103059190612d97565b60405180910390f35b61032860048036038101906103239190612ee7565b610972565b6040516103359190612fd2565b60405180910390f35b61035860048036038101906103539190612fed565b610af8565b005b610374600480360381019061036f9190612fed565b610b1a565b005b610390600480360381019061038b9190612b0b565b610b95565b60405161039d9190612a08565b60405180910390f35b6103c060048036038101906103bb9190612cd2565b610bb5565b005b6103dc60048036038101906103d79190612b0b565b610bd5565b6040516103e99190612b79565b60405180910390f35b61040c6004803603810190610407919061302d565b610be7565b005b6104286004803603810190610423919061302d565b610ca2565b6040516104359190612fd2565b60405180910390f35b610446610d5c565b005b610450610d70565b60405161045d9190612b79565b60405180910390f35b610480600480360381019061047b91906130ba565b610d96565b60405161048d91906131c5565b60405180910390f35b61049e610e0f565b6040516104ab9190612b79565b60405180910390f35b6104ce60048036038101906104c99190612fed565b610e39565b6040516104db9190612a08565b60405180910390f35b6104ec610ea4565b6040516104f99190612ab3565b60405180910390f35b61050a610f36565b6040516105179190612d97565b60405180910390f35b61053a60048036038101906105359190613213565b610f3d565b005b610556600480360381019061055191906132f4565b610f53565b005b610572600480360381019061056d9190612b0b565b610f78565b60405161057f9190612ab3565b60405180910390f35b610590610f8a565b60405161059d9190612d97565b60405180910390f35b6105c060048036038101906105bb9190612fed565b610fae565b005b6105ca610fd0565b6040516105d79190612d97565b60405180910390f35b6105fa60048036038101906105f59190613377565b610ff4565b6040516106079190612a08565b60405180910390f35b61062a60048036038101906106259190612b0b565b611088565b60405161063a94939291906133b7565b60405180910390f35b61065d6004803603810190610658919061302d565b6112dd565b005b61067960048036038101906106749190613411565b611363565b005b60006106868261148b565b9050919050565b60606000805461069c90613480565b80601f01602080910402602001604051908101604052809291908181526020018280546106c890613480565b80156107155780601f106106ea57610100808354040283529160200191610715565b820191906000526020600020905b8154815290600101906020018083116106f857829003601f168201915b5050505050905090565b600061072a82611505565b506107348261158d565b9050919050565b61074d82826107486115ca565b6115d2565b5050565b60006060600080610761856115e4565b6107a0576040517f08c379a0000000000000000000000000000000000000000000000000000000008152600401610797906134fd565b60405180910390fd5b600a60009054906101000a900473ffffffffffffffffffffffffffffffffffffffff1673ffffffffffffffffffffffffffffffffffffffff16631d9425ca866040518263ffffffff1660e01b81526004016107fb9190612fd2565b600060405180830381865afa158015610818573d6000803e3d6000fd5b505050506040513d6000823e3d601f19601f8201168201806040525081019061084191906135dc565b93509350935093509193509193565b600073ffffffffffffffffffffffffffffffffffffffff168273ffffffffffffffffffffffffffffffffffffffff16036108c25760006040517f64a0ae920000000000000000000000000000000000000000000000000000000081526004016108b99190612b79565b60405180910390fd5b60006108d683836108d16115ca565b6115f2565b90508373ffffffffffffffffffffffffffffffffffffffff168173ffffffffffffffffffffffffffffffffffffffff161461094c578382826040517f64283d7b0000000000000000000000000000000000000000000000000000000081526004016109439392919061365f565b60405180910390fd5b50505050565b600060086000838152602001908152602001600020600101549050919050565b60007f9f2df0fed2c77648de5860a4cc508cd0818c85b8b8a1ab4ceeef8d981c8956a661099e8161180c565b60006009549050600960008154809291906109b8906136c5565b91905055506109c78882611820565b6109d1818861183e565b604051806080016040528087815260200142815260200186815260200185815250600b60008381526020019081526020016000206000820151816000019081610a1a91906138b9565b50602082015181600101556040820151816002019081610a3a91906138b9565b506060820151816003019081610a5091906138b9565b50905050600d86604051610a6491906139c7565b90815260200160405180910390208190806001815401808255809150506001900390600052602060002001600090919091909150558773ffffffffffffffffffffffffffffffffffffffff16817fcf0618c506ca527972552bed8cb18b4f15577efa47200694c895b07047651c2a8842604051610ae29291906139de565b60405180910390a3809250505095945050505050565b610b0182610952565b610b0a8161180c565b610b14838361189a565b50505050565b610b226115ca565b73ffffffffffffffffffffffffffffffffffffffff168173ffffffffffffffffffffffffffffffffffffffff1614610b86576040517f6697b23200000000000000000000000000000000000000000000000000000000815260040160405180910390fd5b610b90828261198c565b505050565b600c6020528060005260406000206000915054906101000a900460ff1681565b610bd083838360405180602001604052806000815250610f53565b505050565b6000610be082611a7f565b9050919050565b610bef611a91565b600073ffffffffffffffffffffffffffffffffffffffff168173ffffffffffffffffffffffffffffffffffffffff1603610c5e576040517f08c379a0000000000000000000000000000000000000000000000000000000008152600401610c5590613a5a565b60405180910390fd5b80600a60006101000a81548173ffffffffffffffffffffffffffffffffffffffff021916908373ffffffffffffffffffffffffffffffffffffffff16021790555050565b60008073ffffffffffffffffffffffffffffffffffffffff168273ffffffffffffffffffffffffffffffffffffffff1603610d155760006040517f89c62b64000000000000000000000000000000000000000000000000000000008152600401610d0c9190612b79565b60405180910390fd5b600360008373ffffffffffffffffffffffffffffffffffffffff1673ffffffffffffffffffffffffffffffffffffffff168152602001908152602001600020549050919050565b610d64611a91565b610d6e6000611b18565b565b600a60009054906101000a900473ffffffffffffffffffffffffffffffffffffffff1681565b6060600d8383604051610daa929190613a9f565b9081526020016040518091039020805480602002602001604051908101604052809291908181526020018280548015610e0257602002820191906000526020600020905b815481526020019060010190808311610dee575b5050505050905092915050565b6000600760009054906101000a900473ffffffffffffffffffffffffffffffffffffffff16905090565b60006008600084815260200190815260200160002060000160008373ffffffffffffffffffffffffffffffffffffffff1673ffffffffffffffffffffffffffffffffffffffff16815260200190815260200160002060009054906101000a900460ff16905092915050565b606060018054610eb390613480565b80601f0160208091040260200160405190810160405280929190818152602001828054610edf90613480565b8015610f2c5780601f10610f0157610100808354040283529160200191610f2c565b820191906000526020600020905b815481529060010190602001808311610f0f57829003601f168201915b5050505050905090565b6000801b81565b610f4f610f486115ca565b8383611bde565b5050565b610f5e848484610850565b610f72610f696115ca565b85858585611d4d565b50505050565b6060610f8382611efe565b9050919050565b7f9f2df0fed2c77648de5860a4cc508cd0818c85b8b8a1ab4ceeef8d981c8956a681565b610fb782610952565b610fc08161180c565b610fca838361198c565b50505050565b7f0ce23c3e399818cfee81a7ab0880f714e53d7672b08df0fa62f2843416e1ea0981565b6000600560008473ffffffffffffffffffffffffffffffffffffffff1673ffffffffffffffffffffffffffffffffffffffff16815260200190815260200160002060008373ffffffffffffffffffffffffffffffffffffffff1673ffffffffffffffffffffffffffffffffffffffff16815260200190815260200160002060009054906101000a900460ff16905092915050565b60606000606080611098856115e4565b6110d7576040517f08c379a00000000000000000000000000000000000000000000000000000000081526004016110ce90613b04565b60405180910390fd5b6000600b600087815260200190815260200160002060405180608001604052908160008201805461110790613480565b80601f016020809104026020016040519081016040528092919081815260200182805461113390613480565b80156111805780601f1061115557610100808354040283529160200191611180565b820191906000526020600020905b81548152906001019060200180831161116357829003601f168201915b50505050508152602001600182015481526020016002820180546111a390613480565b80601f01602080910402602001604051908101604052809291908181526020018280546111cf90613480565b801561121c5780601f106111f15761010080835404028352916020019161121c565b820191906000526020600020905b8154815290600101906020018083116111ff57829003601f168201915b5050505050815260200160038201805461123590613480565b80601f016020809104026020016040519081016040528092919081815260200182805461126190613480565b80156112ae5780601f10611283576101008083540402835291602001916112ae565b820191906000526020600020905b81548152906001019060200180831161129157829003601f168201915b505050505081525050905080600001518160200151826040015183606001519450945094509450509193509193565b6112e5611a91565b600073ffffffffffffffffffffffffffffffffffffffff168173ffffffffffffffffffffffffffffffffffffffff16036113575760006040517f1e4fbdf700000000000000000000000000000000000000000000000000000000815260040161134e9190612b79565b60405180910390fd5b61136081611b18565b50565b61138d7f0ce23c3e399818cfee81a7ab0880f714e53d7672b08df0fa62f2843416e1ea0933610e39565b6113cc576040517f08c379a00000000000000000000000000000000000000000000000000000000081526004016113c390613b70565b60405180910390fd5b600a60009054906101000a900473ffffffffffffffffffffffffffffffffffffffff1673ffffffffffffffffffffffffffffffffffffffff163373ffffffffffffffffffffffffffffffffffffffff161461145c576040517f08c379a000000000000000000000000000000000000000000000000000000000815260040161145390613bdc565b60405180910390fd5b80600c600084815260200190815260200160002060006101000a81548160ff0219169083151502179055505050565b60007f7965db0b000000000000000000000000000000000000000000000000000000007bffffffffffffffffffffffffffffffffffffffffffffffffffffffff1916827bffffffffffffffffffffffffffffffffffffffffffffffffffffffff191614806114fe57506114fd82612011565b5b9050919050565b60008061151183612072565b9050600073ffffffffffffffffffffffffffffffffffffffff168173ffffffffffffffffffffffffffffffffffffffff160361158457826040517f7e27328900000000000000000000000000000000000000000000000000000000815260040161157b9190612fd2565b60405180910390fd5b80915050919050565b60006004600083815260200190815260200160002060009054906101000a900473ffffffffffffffffffffffffffffffffffffffff169050919050565b600033905090565b6115df83838360016120af565b505050565b600060095482109050919050565b6000806115fe84612072565b9050600073ffffffffffffffffffffffffffffffffffffffff168373ffffffffffffffffffffffffffffffffffffffff16146116405761163f818486612274565b5b600073ffffffffffffffffffffffffffffffffffffffff168173ffffffffffffffffffffffffffffffffffffffff16146116d1576116826000856000806120af565b6001600360008373ffffffffffffffffffffffffffffffffffffffff1673ffffffffffffffffffffffffffffffffffffffff168152602001908152602001600020600082825403925050819055505b600073ffffffffffffffffffffffffffffffffffffffff168573ffffffffffffffffffffffffffffffffffffffff1614611754576001600360008773ffffffffffffffffffffffffffffffffffffffff1673ffffffffffffffffffffffffffffffffffffffff168152602001908152602001600020600082825401925050819055505b846002600086815260200190815260200160002060006101000a81548173ffffffffffffffffffffffffffffffffffffffff021916908373ffffffffffffffffffffffffffffffffffffffff160217905550838573ffffffffffffffffffffffffffffffffffffffff168273ffffffffffffffffffffffffffffffffffffffff167fddf252ad1be2c89b69c2b068fc378daa952ba7f163c4a11628f55a4df523b3ef60405160405180910390a4809150509392505050565b61181d816118186115ca565b612338565b50565b61183a828260405180602001604052806000815250612389565b5050565b8060066000848152602001908152602001600020908161185e91906138b9565b507ff8e1a15aba9398e019f0b49df1a4fde98ee17ae345cb5f6b5e2c27f5033e8ce78260405161188e9190612fd2565b60405180910390a15050565b60006118a68383610e39565b6119815760016008600085815260200190815260200160002060000160008473ffffffffffffffffffffffffffffffffffffffff1673ffffffffffffffffffffffffffffffffffffffff16815260200190815260200160002060006101000a81548160ff02191690831515021790555061191e6115ca565b73ffffffffffffffffffffffffffffffffffffffff168273ffffffffffffffffffffffffffffffffffffffff16847f2f8788117e7eff1d82e926ec794901d17c78024a50270940304540a733656f0d60405160405180910390a460019050611986565b600090505b92915050565b60006119988383610e39565b15611a745760006008600085815260200190815260200160002060000160008473ffffffffffffffffffffffffffffffffffffffff1673ffffffffffffffffffffffffffffffffffffffff16815260200190815260200160002060006101000a81548160ff021916908315150217905550611a116115ca565b73ffffffffffffffffffffffffffffffffffffffff168273ffffffffffffffffffffffffffffffffffffffff16847ff6391f5c32d9c69d2a47ea670b442974b53935d1edc7fd64eb21e047a839171b60405160405180910390a460019050611a79565b600090505b92915050565b6000611a8a82611505565b9050919050565b611a996115ca565b73ffffffffffffffffffffffffffffffffffffffff16611ab7610e0f565b73ffffffffffffffffffffffffffffffffffffffff1614611b1657611ada6115ca565b6040517f118cdaa7000000000000000000000000000000000000000000000000000000008152600401611b0d9190612b79565b60405180910390fd5b565b6000600760009054906101000a900473ffffffffffffffffffffffffffffffffffffffff16905081600760006101000a81548173ffffffffffffffffffffffffffffffffffffffff021916908373ffffffffffffffffffffffffffffffffffffffff1602179055508173ffffffffffffffffffffffffffffffffffffffff168173ffffffffffffffffffffffffffffffffffffffff167f8be0079c531659141344cd1fd0a4f28419497f9722a3daafe3b4186f6b6457e060405160405180910390a35050565b600073ffffffffffffffffffffffffffffffffffffffff168273ffffffffffffffffffffffffffffffffffffffff1603611c4f57816040517f5b08ba18000000000000000000000000000000000000000000000000000000008152600401611c469190612b79565b60405180910390fd5b80600560008573ffffffffffffffffffffffffffffffffffffffff1673ffffffffffffffffffffffffffffffffffffffff16815260200190815260200160002060008473ffffffffffffffffffffffffffffffffffffffff1673ffffffffffffffffffffffffffffffffffffffff16815260200190815260200160002060006101000a81548160ff0219169083151502179055508173ffffffffffffffffffffffffffffffffffffffff168373ffffffffffffffffffffffffffffffffffffffff167f17307eab39ab6107e8899845ad3d59bd9653f200f220920489ca2b5937696c3183604051611d409190612a08565b60405180910390a3505050565b60008373ffffffffffffffffffffffffffffffffffffffff163b1115611ef7578273ffffffffffffffffffffffffffffffffffffffff1663150b7a02868685856040518563ffffffff1660e01b8152600401611dac9493929190613c51565b6020604051808303816000875af1925050508015611de857506040513d601f19601f82011682018060405250810190611de59190613cb2565b60015b611e6c573d8060008114611e18576040519150601f19603f3d011682016040523d82523d6000602084013e611e1d565b606091505b506000815103611e6457836040517f64a0ae92000000000000000000000000000000000000000000000000000000008152600401611e5b9190612b79565b60405180910390fd5b805181602001fd5b63150b7a0260e01b7bffffffffffffffffffffffffffffffffffffffffffffffffffffffff1916817bffffffffffffffffffffffffffffffffffffffffffffffffffffffff191614611ef557836040517f64a0ae92000000000000000000000000000000000000000000000000000000008152600401611eec9190612b79565b60405180910390fd5b505b5050505050565b6060611f0982611505565b506000600660008481526020019081526020016000208054611f2a90613480565b80601f0160208091040260200160405190810160405280929190818152602001828054611f5690613480565b8015611fa35780601f10611f7857610100808354040283529160200191611fa3565b820191906000526020600020905b815481529060010190602001808311611f8657829003601f168201915b505050505090506000611fb46123ad565b90506000815103611fc957819250505061200c565b600082511115611ffe578082604051602001611fe6929190613cdf565b6040516020818303038152906040529250505061200c565b612007846123c4565b925050505b919050565b6000634906490660e01b7bffffffffffffffffffffffffffffffffffffffffffffffffffffffff1916827bffffffffffffffffffffffffffffffffffffffffffffffffffffffff1916148061206b575061206a8261242d565b5b9050919050565b60006002600083815260200190815260200160002060009054906101000a900473ffffffffffffffffffffffffffffffffffffffff169050919050565b80806120e85750600073ffffffffffffffffffffffffffffffffffffffff168273ffffffffffffffffffffffffffffffffffffffff1614155b1561221c5760006120f884611505565b9050600073ffffffffffffffffffffffffffffffffffffffff168373ffffffffffffffffffffffffffffffffffffffff161415801561216357508273ffffffffffffffffffffffffffffffffffffffff168173ffffffffffffffffffffffffffffffffffffffff1614155b801561217657506121748184610ff4565b155b156121b857826040517fa9fbf51f0000000000000000000000000000000000000000000000000000000081526004016121af9190612b79565b60405180910390fd5b811561221a57838573ffffffffffffffffffffffffffffffffffffffff168273ffffffffffffffffffffffffffffffffffffffff167f8c5be1e5ebec7d5bd14f71427d1e84f3dd0314c0f7b2291e5b200ac8c7c3b92560405160405180910390a45b505b836004600085815260200190815260200160002060006101000a81548173ffffffffffffffffffffffffffffffffffffffff021916908373ffffffffffffffffffffffffffffffffffffffff16021790555050505050565b61227f83838361250f565b61233357600073ffffffffffffffffffffffffffffffffffffffff168373ffffffffffffffffffffffffffffffffffffffff16036122f457806040517f7e2732890000000000000000000000000000000000000000000000000000000081526004016122eb9190612fd2565b60405180910390fd5b81816040517f177e802f00000000000000000000000000000000000000000000000000000000815260040161232a929190613d03565b60405180910390fd5b505050565b6123428282610e39565b6123855780826040517fe2517d3f00000000000000000000000000000000000000000000000000000000815260040161237c929190613d2c565b60405180910390fd5b5050565b61239383836125d0565b6123a861239e6115ca565b6000858585611d4d565b505050565b606060405180602001604052806000815250905090565b60606123cf82611505565b5060006123da6123ad565b905060008151116123fa5760405180602001604052806000815250612425565b80612404846126c9565b604051602001612415929190613cdf565b6040516020818303038152906040525b915050919050565b60007f80ac58cd000000000000000000000000000000000000000000000000000000007bffffffffffffffffffffffffffffffffffffffffffffffffffffffff1916827bffffffffffffffffffffffffffffffffffffffffffffffffffffffff191614806124f857507f5b5e139f000000000000000000000000000000000000000000000000000000007bffffffffffffffffffffffffffffffffffffffffffffffffffffffff1916827bffffffffffffffffffffffffffffffffffffffffffffffffffffffff1916145b80612508575061250782612797565b5b9050919050565b60008073ffffffffffffffffffffffffffffffffffffffff168373ffffffffffffffffffffffffffffffffffffffff16141580156125c757508273ffffffffffffffffffffffffffffffffffffffff168473ffffffffffffffffffffffffffffffffffffffff16148061258857506125878484610ff4565b5b806125c657508273ffffffffffffffffffffffffffffffffffffffff166125ae8361158d565b73ffffffffffffffffffffffffffffffffffffffff16145b5b90509392505050565b600073ffffffffffffffffffffffffffffffffffffffff168273ffffffffffffffffffffffffffffffffffffffff16036126425760006040517f64a0ae920000000000000000000000000000000000000000000000000000000081526004016126399190612b79565b60405180910390fd5b6000612650838360006115f2565b9050600073ffffffffffffffffffffffffffffffffffffffff168173ffffffffffffffffffffffffffffffffffffffff16146126c45760006040517f73c6ac6e0000000000000000000000000000000000000000000000000000000081526004016126bb9190612b79565b60405180910390fd5b505050565b6060600060016126d884612801565b01905060008167ffffffffffffffff8111156126f7576126f6612dbc565b5b6040519080825280601f01601f1916602001820160405280156127295781602001600182028036833780820191505090505b509050600082602001820190505b60011561278c578080600190039150507f3031323334353637383961626364656600000000000000000000000000000000600a86061a8153600a85816127805761277f613d55565b5b04945060008503612737575b819350505050919050565b60007f01ffc9a7000000000000000000000000000000000000000000000000000000007bffffffffffffffffffffffffffffffffffffffffffffffffffffffff1916827bffffffffffffffffffffffffffffffffffffffffffffffffffffffff1916149050919050565b600080600090507a184f03e93ff9f4daa797ed6e38ed64bf6a1f010000000000000000831061285f577a184f03e93ff9f4daa797ed6e38ed64bf6a1f010000000000000000838161285557612854613d55565b5b0492506040810190505b6d04ee2d6d415b85acef8100000000831061289c576d04ee2d6d415b85acef8100000000838161289257612891613d55565b5b0492506020810190505b662386f26fc1000083106128cb57662386f26fc1000083816128c1576128c0613d55565b5b0492506010810190505b6305f5e10083106128f4576305f5e10083816128ea576128e9613d55565b5b0492506008810190505b612710831061291957612710838161290f5761290e613d55565b5b0492506004810190505b6064831061293c576064838161293257612931613d55565b5b0492506002810190505b600a831061294b576001810190505b80915050919050565b6000604051905090565b600080fd5b600080fd5b60007fffffffff0000000000000000000000000000000000000000000000000000000082169050919050565b61299d81612968565b81146129a857600080fd5b50565b6000813590506129ba81612994565b92915050565b6000602082840312156129d6576129d561295e565b5b60006129e4848285016129ab565b91505092915050565b60008115159050919050565b612a02816129ed565b82525050565b6000602082019050612a1d60008301846129f9565b92915050565b600081519050919050565b600082825260208201905092915050565b60005b83811015612a5d578082015181840152602081019050612a42565b60008484015250505050565b6000601f19601f8301169050919050565b6000612a8582612a23565b612a8f8185612a2e565b9350612a9f818560208601612a3f565b612aa881612a69565b840191505092915050565b60006020820190508181036000830152612acd8184612a7a565b905092915050565b6000819050919050565b612ae881612ad5565b8114612af357600080fd5b50565b600081359050612b0581612adf565b92915050565b600060208284031215612b2157612b2061295e565b5b6000612b2f84828501612af6565b91505092915050565b600073ffffffffffffffffffffffffffffffffffffffff82169050919050565b6000612b6382612b38565b9050919050565b612b7381612b58565b82525050565b6000602082019050612b8e6000830184612b6a565b92915050565b612b9d81612b58565b8114612ba857600080fd5b50565b600081359050612bba81612b94565b92915050565b60008060408385031215612bd757612bd661295e565b5b6000612be585828601612bab565b9250506020612bf685828601612af6565b9150509250929050565b7f4e487b7100000000000000000000000000000000000000000000000000000000600052602160045260246000fd5b60038110612c4057612c3f612c00565b5b50565b6000819050612c5182612c2f565b919050565b6000612c6182612c43565b9050919050565b612c7181612c56565b82525050565b612c8081612ad5565b82525050565b6000608082019050612c9b6000830187612c68565b8181036020830152612cad8186612a7a565b9050612cbc6040830185612b6a565b612cc96060830184612c77565b95945050505050565b600080600060608486031215612ceb57612cea61295e565b5b6000612cf986828701612bab565b9350506020612d0a86828701612bab565b9250506040612d1b86828701612af6565b9150509250925092565b6000819050919050565b612d3881612d25565b8114612d4357600080fd5b50565b600081359050612d5581612d2f565b92915050565b600060208284031215612d7157612d7061295e565b5b6000612d7f84828501612d46565b91505092915050565b612d9181612d25565b82525050565b6000602082019050612dac6000830184612d88565b92915050565b600080fd5b600080fd5b7f4e487b7100000000000000000000000000000000000000000000000000000000600052604160045260246000fd5b612df482612a69565b810181811067ffffffffffffffff82111715612e1357612e12612dbc565b5b80604052505050565b6000612e26612954565b9050612e328282612deb565b919050565b600067ffffffffffffffff821115612e5257612e51612dbc565b5b612e5b82612a69565b9050602081019050919050565b82818337600083830152505050565b6000612e8a612e8584612e37565b612e1c565b905082815260208101848484011115612ea657612ea5612db7565b5b612eb1848285612e68565b509392505050565b600082601f830112612ece57612ecd612db2565b5b8135612ede848260208601612e77565b91505092915050565b600080600080600060a08688031215612f0357612f0261295e565b5b6000612f1188828901612bab565b955050602086013567ffffffffffffffff811115612f3257612f31612963565b5b612f3e88828901612eb9565b945050604086013567ffffffffffffffff811115612f5f57612f5e612963565b5b612f6b88828901612eb9565b935050606086013567ffffffffffffffff811115612f8c57612f8b612963565b5b612f9888828901612eb9565b925050608086013567ffffffffffffffff811115612fb957612fb8612963565b5b612fc588828901612eb9565b9150509295509295909350565b6000602082019050612fe76000830184612c77565b92915050565b600080604083850312156130045761300361295e565b5b600061301285828601612d46565b925050602061302385828601612bab565b9150509250929050565b6000602082840312156130435761304261295e565b5b600061305184828501612bab565b91505092915050565b600080fd5b600080fd5b60008083601f84011261307a57613079612db2565b5b8235905067ffffffffffffffff8111156130975761309661305a565b5b6020830191508360018202830111156130b3576130b261305f565b5b9250929050565b600080602083850312156130d1576130d061295e565b5b600083013567ffffffffffffffff8111156130ef576130ee612963565b5b6130fb85828601613064565b92509250509250929050565b600081519050919050565b600082825260208201905092915050565b6000819050602082019050919050565b61313c81612ad5565b82525050565b600061314e8383613133565b60208301905092915050565b6000602082019050919050565b600061317282613107565b61317c8185613112565b935061318783613123565b8060005b838110156131b857815161319f8882613142565b97506131aa8361315a565b92505060018101905061318b565b5085935050505092915050565b600060208201905081810360008301526131df8184613167565b905092915050565b6131f0816129ed565b81146131fb57600080fd5b50565b60008135905061320d816131e7565b92915050565b6000806040838503121561322a5761322961295e565b5b600061323885828601612bab565b9250506020613249858286016131fe565b9150509250929050565b600067ffffffffffffffff82111561326e5761326d612dbc565b5b61327782612a69565b9050602081019050919050565b600061329761329284613253565b612e1c565b9050828152602081018484840111156132b3576132b2612db7565b5b6132be848285612e68565b509392505050565b600082601f8301126132db576132da612db2565b5b81356132eb848260208601613284565b91505092915050565b6000806000806080858703121561330e5761330d61295e565b5b600061331c87828801612bab565b945050602061332d87828801612bab565b935050604061333e87828801612af6565b925050606085013567ffffffffffffffff81111561335f5761335e612963565b5b61336b878288016132c6565b91505092959194509250565b6000806040838503121561338e5761338d61295e565b5b600061339c85828601612bab565b92505060206133ad85828601612bab565b9150509250929050565b600060808201905081810360008301526133d18187612a7a565b90506133e06020830186612c77565b81810360408301526133f28185612a7a565b905081810360608301526134068184612a7a565b905095945050505050565b600080604083850312156134285761342761295e565b5b600061343685828601612af6565b9250506020613447858286016131fe565b9150509250929050565b7f4e487b7100000000000000000000000000000000000000000000000000000000600052602260045260246000fd5b6000600282049050600182168061349857607f821691505b6020821081036134ab576134aa613451565b5b50919050565b7f496e76616c696420746f6b656e49640000000000000000000000000000000000600082015250565b60006134e7600f83612a2e565b91506134f2826134b1565b602082019050919050565b60006020820190508181036000830152613516816134da565b9050919050565b6003811061352a57600080fd5b50565b60008151905061353c8161351d565b92915050565b600061355561355084612e37565b612e1c565b90508281526020810184848401111561357157613570612db7565b5b61357c848285612a3f565b509392505050565b600082601f83011261359957613598612db2565b5b81516135a9848260208601613542565b91505092915050565b6000815190506135c181612b94565b92915050565b6000815190506135d681612adf565b92915050565b600080600080608085870312156135f6576135f561295e565b5b60006136048782880161352d565b945050602085015167ffffffffffffffff81111561362557613624612963565b5b61363187828801613584565b9350506040613642878288016135b2565b9250506060613653878288016135c7565b91505092959194509250565b60006060820190506136746000830186612b6a565b6136816020830185612c77565b61368e6040830184612b6a565b949350505050565b7f4e487b7100000000000000000000000000000000000000000000000000000000600052601160045260246000fd5b60006136d082612ad5565b91507fffffffffffffffffffffffffffffffffffffffffffffffffffffffffffffffff820361370257613701613696565b5b600182019050919050565b60008190508160005260206000209050919050565b60006020601f8301049050919050565b600082821b905092915050565b60006008830261376f7fffffffffffffffffffffffffffffffffffffffffffffffffffffffffffffffff82613732565b6137798683613732565b95508019841693508086168417925050509392505050565b6000819050919050565b60006137b66137b16137ac84612ad5565b613791565b612ad5565b9050919050565b6000819050919050565b6137d08361379b565b6137e46137dc826137bd565b84845461373f565b825550505050565b600090565b6137f96137ec565b6138048184846137c7565b505050565b5b818110156138285761381d6000826137f1565b60018101905061380a565b5050565b601f82111561386d5761383e8161370d565b61384784613722565b81016020851015613856578190505b61386a61386285613722565b830182613809565b50505b505050565b600082821c905092915050565b600061389060001984600802613872565b1980831691505092915050565b60006138a9838361387f565b9150826002028217905092915050565b6138c282612a23565b67ffffffffffffffff8111156138db576138da612dbc565b5b6138e58254613480565b6138f082828561382c565b600060209050601f8311600181146139235760008415613911578287015190505b61391b858261389d565b865550613983565b601f1984166139318661370d565b60005b8281101561395957848901518255600182019150602085019450602081019050613934565b868310156139765784890151613972601f89168261387f565b8355505b6001600288020188555050505b505050505050565b600081905092915050565b60006139a182612a23565b6139ab818561398b565b93506139bb818560208601612a3f565b80840191505092915050565b60006139d38284613996565b915081905092915050565b600060408201905081810360008301526139f88185612a7a565b9050613a076020830184612c77565b9392505050565b7f496e76616c696420616464726573730000000000000000000000000000000000600082015250565b6000613a44600f83612a2e565b9150613a4f82613a0e565b602082019050919050565b60006020820190508181036000830152613a7381613a37565b9050919050565b6000613a86838561398b565b9350613a93838584612e68565b82840190509392505050565b6000613aac828486613a7a565b91508190509392505050565b7f546f6b656e20646f6573206e6f74206578697374000000000000000000000000600082015250565b6000613aee601483612a2e565b9150613af982613ab8565b602082019050919050565b60006020820190508181036000830152613b1d81613ae1565b9050919050565b7f4f6e6c7920766572696669657200000000000000000000000000000000000000600082015250565b6000613b5a600d83612a2e565b9150613b6582613b24565b602082019050919050565b60006020820190508181036000830152613b8981613b4d565b9050919050565b7f556e617574686f72697a65640000000000000000000000000000000000000000600082015250565b6000613bc6600c83612a2e565b9150613bd182613b90565b602082019050919050565b60006020820190508181036000830152613bf581613bb9565b9050919050565b600081519050919050565b600082825260208201905092915050565b6000613c2382613bfc565b613c2d8185613c07565b9350613c3d818560208601612a3f565b613c4681612a69565b840191505092915050565b6000608082019050613c666000830187612b6a565b613c736020830186612b6a565b613c806040830185612c77565b8181036060830152613c928184613c18565b905095945050505050565b600081519050613cac81612994565b92915050565b600060208284031215613cc857613cc761295e565b5b6000613cd684828501613c9d565b91505092915050565b6000613ceb8285613996565b9150613cf78284613996565b91508190509392505050565b6000604082019050613d186000830185612b6a565b613d256020830184612c77565b9392505050565b6000604082019050613d416000830185612b6a565b613d4e6020830184612d88565b9392505050565b7f4e487b7100000000000000000000000000000000000000000000000000000000600052601260045260246000fdfea2646970667358221220efe31e6c6aac0550723e093f6802538e48327a3a2f27b8eb0176de455350afc664736f6c63430008140033",
  "linkReferences": {},
  "deployedLinkReferences": {}
}