{
  "_format": "hh-sol-artifact-1",
  "contractName": "IoTDataNFT",
  "sourceName": "contracts/IoTDataNFT.sol",
  "abi": [
    {
      "inputs": [
        {
          "internalType": "address",
          "name": "initialOwner",
          "type": "address"
        }
      ],
      "stateMutability": "nonpayable",
      "type": "constructor"
    },
    {
      "inputs": [],
      "name": "AccessControlBadConfirmation",
      "type": "error"
    },
    {
      "inputs": [
        {
          "internalType": "address",
          "name": "account",
          "type": "address"
        },
        {
          "internalType": "bytes32",
          "name": "neededRole",
          "type": "bytes32"
        }
      ],
      "name": "AccessControlUnauthorizedAccount",
      "type": "error"
    },
    {
      "inputs": [
        {
          "internalType": "address",
          "name": "sender",
          "type": "address"
        },
        {
          "internalType": "uint256",
          "name": "tokenId",
          "type": "uint256"
        },
        {
          "internalType": "address",
          "name": "owner",
          "type": "address"
        }
      ],
      "name": "ERC721IncorrectOwner",
      "type": "error"
    },
    {
      "inputs": [
        {
          "internalType": "address",
          "name": "operator",
          "type": "address"
        },
        {
          "internalType": "uint256",
          "name": "tokenId",
          "type": "uint256"
        }
      ],
      "name": "ERC721InsufficientApproval",
      "type": "error"
    },
    {
      "inputs": [
        {
          "internalType": "address",
          "name": "approver",
          "type": "address"
        }
      ],
      "name": "ERC721InvalidApprover",
      "type": "error"
    },
    {
      "inputs": [
        {
          "internalType": "address",
          "name": "operator",
          "type": "address"
        }
      ],
      "name": "ERC721InvalidOperator",
      "type": "error"
    },
    {
      "inputs": [
        {
          "internalType": "address",
          "name": "owner",
          "type": "address"
        }
      ],
      "name": "ERC721InvalidOwner",
      "type": "error"
    },
    {
      "inputs": [
        {
          "internalType": "address",
          "name": "receiver",
          "type": "address"
        }
      ],
      "name": "ERC721InvalidReceiver",
      "type": "error"
    },
    {
      "inputs": [
        {
          "internalType": "address",
          "name": "sender",
          "type": "address"
        }
      ],
      "name": "ERC721InvalidSender",
      "type": "error"
    },
    {
      "inputs": [
        {
          "internalType": "uint256",
          "name": "tokenId",
          "type": "uint256"
        }
      ],
      "name": "ERC721NonexistentToken",
      "type": "error"
    },
    {
      "inputs": [
        {
          "internalType": "address",
          "name": "owner",
          "type": "address"
        }
      ],
      "name": "OwnableInvalidOwner",
      "type": "error"
    },
    {
      "inputs": [
        {
          "internalType": "address",
          "name": "account",
          "type": "address"
        }
      ],
      "name": "OwnableUnauthorizedAccount",
      "type": "error"
    },
    {
      "anonymous": false,
      "inputs": [
        {
          "indexed": true,
          "internalType": "address",
          "name": "owner",
          "type": "address"
        },
        {
          "indexed": true,
          "internalType": "address",
          "name": "approved",
          "type": "address"
        },
        {
          "indexed": true,
          "internalType": "uint256",
          "name": "tokenId",
          "type": "uint256"
        }
      ],
      "name": "Approval",
      "type": "event"
    },
    {
      "anonymous": false,
      "inputs": [
        {
          "indexed": true,
          "internalType": "address",
          "name": "owner",
          "type": "address"
        },
        {
          "indexed": true,
          "internalType": "address",
          "name": "operator",
          "type": "address"
        },
        {
          "indexed": false,
          "internalType": "bool",
          "name": "approved",
          "type": "bool"
        }
      ],
      "name": "ApprovalForAll",
      "type": "event"
    },
    {
      "anonymous": false,
      "inputs": [
        {
          "indexed": false,
          "internalType": "uint256",
          "name": "_fromTokenId",
          "type": "uint256"
        },
        {
          "indexed": false,
          "internalType": "uint256",
          "name": "_toTokenId",
          "type": "uint256"
        }
      ],
      "name": "BatchMetadataUpdate",
      "type": "event"
    },
    {
      "anonymous": false,
      "inputs": [
        {
          "indexed": true,
          "internalType": "uint256",
          "name": "tokenId",
          "type": "uint256"
        },
        {
          "indexed": true,
          "internalType": "address",
          "name": "owner",
          "type": "address"
        },
        {
          "indexed": false,
          "internalType": "string",
          "name": "deviceId",
          "type": "string"
        },
        {
          "indexed": false,
          "internalType": "uint256",
          "name": "timestamp",
          "type": "uint256"
        }
      ],
      "name": "DataNFTMinted",
      "type": "event"
    },
    {
      "anonymous": false,
      "inputs": [
        {
          "indexed": false,
          "internalType": "uint256",
          "name": "_tokenId",
          "type": "uint256"
        }
      ],
      "name": "MetadataUpdate",
      "type": "event"
    },
    {
      "anonymous": false,
      "inputs": [
        {
          "indexed": true,
          "internalType": "address",
          "name": "previousOwner",
          "type": "address"
        },
        {
          "indexed": true,
          "internalType": "address",
          "name": "newOwner",
          "type": "address"
        }
      ],
      "name": "OwnershipTransferred",
      "type": "event"
    },
    {
      "anonymous": false,
      "inputs": [
        {
          "indexed": true,
          "internalType": "bytes32",
          "name": "role",
          "type": "bytes32"
        },
        {
          "indexed": true,
          "internalType": "bytes32",
          "name": "previousAdminRole",
          "type": "bytes32"
        },
        {
          "indexed": true,
          "internalType": "bytes32",
          "name": "newAdminRole",
          "type": "bytes32"
        }
      ],
      "name": "RoleAdminChanged",
      "type": "event"
    },
    {
      "anonymous": false,
      "inputs": [
        {
          "indexed": true,
          "internalType": "bytes32",
          "name": "role",
          "type": "bytes32"
        },
        {
          "indexed": true,
          "internalType": "address",
          "name": "account",
          "type": "address"
        },
        {
          "indexed": true,
          "internalType": "address",
          "name": "sender",
          "type": "address"
        }
      ],
      "name": "RoleGranted",
      "type": "event"
    },
    {
      "anonymous": false,
      "inputs": [
        {
          "indexed": true,
          "internalType": "bytes32",
          "name": "role",
          "type": "bytes32"
        },
        {
          "indexed": true,
          "internalType": "address",
          "name": "account",
          "type": "address"
        },
        {
          "indexed": true,
          "internalType": "address",
          "name": "sender",
          "type": "address"
        }
      ],
      "name": "RoleRevoked",
      "type": "event"
    },
    {
      "anonymous": false,
      "inputs": [
        {
          "indexed": true,
          "internalType": "address",
          "name": "from",
          "type": "address"
        },
        {
          "indexed": true,
          "internalType": "address",
          "name": "to",
          "type": "address"
        },
        {
          "indexed": true,
          "internalType": "uint256",
          "name": "tokenId",
          "type": "uint256"
        }
      ],
      "name": "Transfer",
      "type": "event"
    },
    {
      "inputs": [],
      "name": "DEFAULT_ADMIN_ROLE",
      "outputs": [
        {
          "internalType": "bytes32",
          "name": "",
          "type": "bytes32"
        }
      ],
      "stateMutability": "view",
      "type": "function"
    },
    {
      "inputs": [],
      "name": "MINTER_ROLE",
      "outputs": [
        {
          "internalType": "bytes32",
          "name": "",
          "type": "bytes32"
        }
      ],
      "stateMutability": "view",
      "type": "function"
    },
    {
      "inputs": [],
      "name": "VERIFIER_ROLE",
      "outputs": [
        {
          "internalType": "bytes32",
          "name": "",
          "type": "bytes32"
        }
      ],
      "stateMutability": "view",
      "type": "function"
    },
    {
      "inputs": [
        {
          "internalType": "address",
          "name": "to",
          "type": "address"
        },
        {
          "internalType": "uint256",
          "name": "tokenId",
          "type": "uint256"
        }
      ],
      "name": "approve",
      "outputs": [],
      "stateMutability": "nonpayable",
      "type": "function"
    },
    {
      "inputs": [
        {
          "internalType": "address",
          "name": "owner",
          "type": "address"
        }
      ],
      "name": "balanceOf",
      "outputs": [
        {
          "internalType": "uint256",
          "name": "",
          "type": "uint256"
        }
      ],
      "stateMutability": "view",
      "type": "function"
    },
    {
      "inputs": [
        {
          "internalType": "uint256",
          "name": "tokenId",
          "type": "uint256"
        }
      ],
      "name": "getApproved",
      "outputs": [
        {
          "internalType": "address",
          "name": "",
          "type": "address"
        }
      ],
      "stateMutability": "view",
      "type": "function"
    },
    {
      "inputs": [
        {
          "internalType": "uint256",
          "name": "tokenId",
          "type": "uint256"
        }
      ],
      "name": "getIoTData",
      "outputs": [
        {
          "internalType": "string",
          "name": "deviceId",
          "type": "string"
        },
        {
          "internalType": "uint256",
          "name": "timestamp",
          "type": "uint256"
        },
        {
          "internalType": "string",
          "name": "dataType",
          "type": "string"
        },
        {
          "internalType": "string",
          "name": "location",
          "type": "string"
        }
      ],
      "stateMutability": "view",
      "type": "function"
    },
    {
      "inputs": [
        {
          "internalType": "bytes32",
          "name": "role",
          "type": "bytes32"
        }
      ],
      "name": "getRoleAdmin",
      "outputs": [
        {
          "internalType": "bytes32",
          "name": "",
          "type": "bytes32"
        }
      ],
      "stateMutability": "view",
      "type": "function"
    },
    {
      "inputs": [
        {
          "internalType": "bytes32",
          "name": "role",
          "type": "bytes32"
        },
        {
          "internalType": "address",
          "name": "account",
          "type": "address"
        }
      ],
      "name": "grantRole",
      "outputs": [],
      "stateMutability": "nonpayable",
      "type": "function"
    },
    {
      "inputs": [
        {
          "internalType": "bytes32",
          "name": "role",
          "type": "bytes32"
        },
        {
          "internalType": "address",
          "name": "account",
          "type": "address"
        }
      ],
      "name": "hasRole",
      "outputs": [
        {
          "internalType": "bool",
          "name": "",
          "type": "bool"
        }
      ],
      "stateMutability": "view",
      "type": "function"
    },
    {
      "inputs": [
        {
          "internalType": "address",
          "name": "owner",
          "type": "address"
        },
        {
          "internalType": "address",
          "name": "operator",
          "type": "address"
        }
      ],
      "name": "isApprovedForAll",
      "outputs": [
        {
          "internalType": "bool",
          "name": "",
          "type": "bool"
        }
      ],
      "stateMutability": "view",
      "type": "function"
    },
    {
      "inputs": [],
      "name": "name",
      "outputs": [
        {
          "internalType": "string",
          "name": "",
          "type": "string"
        }
      ],
      "stateMutability": "view",
      "type": "function"
    },
    {
      "inputs": [],
      "name": "owner",
      "outputs": [
        {
          "internalType": "address",
          "name": "",
          "type": "address"
        }
      ],
      "stateMutability": "view",
      "type": "function"
    },
    {
      "inputs": [
        {
          "internalType": "uint256",
          "name": "tokenId",
          "type": "uint256"
        }
      ],
      "name": "ownerOf",
      "outputs": [
        {
          "internalType": "address",
          "name": "",
          "type": "address"
        }
      ],
      "stateMutability": "view",
      "type": "function"
    },
    {
      "inputs": [],
      "name": "renounceOwnership",
      "outputs": [],
      "stateMutability": "nonpayable",
      "type": "function"
    },
    {
      "inputs": [
        {
          "internalType": "bytes32",
          "name": "role",
          "type": "bytes32"
        },
        {
          "internalType": "address",
          "name": "callerConfirmation",
          "type": "address"
        }
      ],
      "name": "renounceRole",
      "outputs": [],
      "stateMutability": "nonpayable",
      "type": "function"
    },
    {
      "inputs": [
        {
          "internalType": "bytes32",
          "name": "role",
          "type": "bytes32"
        },
        {
          "internalType": "address",
          "name": "account",
          "type": "address"
        }
      ],
      "name": "revokeRole",
      "outputs": [],
      "stateMutability": "nonpayable",
      "type": "function"
    },
    {
      "inputs": [
        {
          "internalType": "address",
          "name": "to",
          "type": "address"
        },
        {
          "internalType": "string",
          "name": "uri",
          "type": "string"
        },
        {
          "internalType": "string",
          "name": "deviceId",
          "type": "string"
        },
        {
          "internalType": "string",
          "name": "dataType",
          "type": "string"
        },
        {
          "internalType": "string",
          "name": "location",
          "type": "string"
        }
      ],
      "name": "safeMint",
      "outputs": [
        {
          "internalType": "uint256",
          "name": "",
          "type": "uint256"
        }
      ],
      "stateMutability": "nonpayable",
      "type": "function"
    },
    {
      "inputs": [
        {
          "internalType": "address",
          "name": "from",
          "type": "address"
        },
        {
          "internalType": "address",
          "name": "to",
          "type": "address"
        },
        {
          "internalType": "uint256",
          "name": "tokenId",
          "type": "uint256"
        }
      ],
      "name": "safeTransferFrom",
      "outputs": [],
      "stateMutability": "nonpayable",
      "type": "function"
    },
    {
      "inputs": [
        {
          "internalType": "address",
          "name": "from",
          "type": "address"
        },
        {
          "internalType": "address",
          "name": "to",
          "type": "address"
        },
        {
          "internalType": "uint256",
          "name": "tokenId",
          "type": "uint256"
        },
        {
          "internalType": "bytes",
          "name": "data",
          "type": "bytes"
        }
      ],
      "name": "safeTransferFrom",
      "outputs": [],
      "stateMutability": "nonpayable",
      "type": "function"
    },
    {
      "inputs": [
        {
          "internalType": "address",
          "name": "operator",
          "type": "address"
        },
        {
          "internalType": "bool",
          "name": "approved",
          "type": "bool"
        }
      ],
      "name": "setApprovalForAll",
      "outputs": [],
      "stateMutability": "nonpayable",
      "type": "function"
    },
    {
      "inputs": [
        {
          "internalType": "bytes4",
          "name": "interfaceId",
          "type": "bytes4"
        }
      ],
      "name": "supportsInterface",
      "outputs": [
        {
          "internalType": "bool",
          "name": "",
          "type": "bool"
        }
      ],
      "stateMutability": "view",
      "type": "function"
    },
    {
      "inputs": [],
      "name": "symbol",
      "outputs": [
        {
          "internalType": "string",
          "name": "",
          "type": "string"
        }
      ],
      "stateMutability": "view",
      "type": "function"
    },
    {
      "inputs": [
        {
          "internalType": "uint256",
          "name": "tokenId",
          "type": "uint256"
        }
      ],
      "name": "tokenURI",
      "outputs": [
        {
          "internalType": "string",
          "name": "",
          "type": "string"
        }
      ],
      "stateMutability": "view",
      "type": "function"
    },
    {
      "inputs": [
        {
          "internalType": "address",
          "name": "from",
          "type": "address"
        },
        {
          "internalType": "address",
          "name": "to",
          "type": "address"
        },
        {
          "internalType": "uint256",
          "name": "tokenId",
          "type": "uint256"
        }
      ],
      "name": "transferFrom",
      "outputs": [],
      "stateMutability": "nonpayable",
      "type": "function"
    },
    {
      "inputs": [
        {
          "internalType": "address",
          "name": "newOwner",
          "type": "address"
        }
      ],
      "name": "transferOwnership",
      "outputs": [],
      "stateMutability": "nonpayable",
      "type": "function"
    }
  ],
  "bytecode": "0x60806040523480156200001157600080fd5b5060405162003b1338038062003b13833981810160405281019062000037919062000448565b806040518060400160405280600a81526020017f496f54446174614e4654000000000000000000000000000000000000000000008152506040518060400160405280600481526020017f494f544e000000000000000000000000000000000000000000000000000000008152508160009081620000b59190620006f4565b508060019081620000c79190620006f4565b505050600073ffffffffffffffffffffffffffffffffffffffff168173ffffffffffffffffffffffffffffffffffffffff16036200013f5760006040517f1e4fbdf7000000000000000000000000000000000000000000000000000000008152600401620001369190620007ec565b60405180910390fd5b6200015081620001a160201b60201c565b50620001666000801b826200026760201b60201c565b50620001997f9f2df0fed2c77648de5860a4cc508cd0818c85b8b8a1ab4ceeef8d981c8956a6826200026760201b60201c565b505062000809565b6000600760009054906101000a900473ffffffffffffffffffffffffffffffffffffffff16905081600760006101000a81548173ffffffffffffffffffffffffffffffffffffffff021916908373ffffffffffffffffffffffffffffffffffffffff1602179055508173ffffffffffffffffffffffffffffffffffffffff168173ffffffffffffffffffffffffffffffffffffffff167f8be0079c531659141344cd1fd0a4f28419497f9722a3daafe3b4186f6b6457e060405160405180910390a35050565b60006200027b83836200036b60201b60201c565b620003605760016008600085815260200190815260200160002060000160008473ffffffffffffffffffffffffffffffffffffffff1673ffffffffffffffffffffffffffffffffffffffff16815260200190815260200160002060006101000a81548160ff021916908315150217905550620002fc620003d660201b60201c565b73ffffffffffffffffffffffffffffffffffffffff168273ffffffffffffffffffffffffffffffffffffffff16847f2f8788117e7eff1d82e926ec794901d17c78024a50270940304540a733656f0d60405160405180910390a46001905062000365565b600090505b92915050565b60006008600084815260200190815260200160002060000160008373ffffffffffffffffffffffffffffffffffffffff1673ffffffffffffffffffffffffffffffffffffffff16815260200190815260200160002060009054906101000a900460ff16905092915050565b600033905090565b600080fd5b600073ffffffffffffffffffffffffffffffffffffffff82169050919050565b60006200041082620003e3565b9050919050565b620004228162000403565b81146200042e57600080fd5b50565b600081519050620004428162000417565b92915050565b600060208284031215620004615762000460620003de565b5b6000620004718482850162000431565b91505092915050565b600081519050919050565b7f4e487b7100000000000000000000000000000000000000000000000000000000600052604160045260246000fd5b7f4e487b7100000000000000000000000000000000000000000000000000000000600052602260045260246000fd5b60006002820490506001821680620004fc57607f821691505b602082108103620005125762000511620004b4565b5b50919050565b60008190508160005260206000209050919050565b60006020601f8301049050919050565b600082821b905092915050565b6000600883026200057c7fffffffffffffffffffffffffffffffffffffffffffffffffffffffffffffffff826200053d565b6200058886836200053d565b95508019841693508086168417925050509392505050565b6000819050919050565b6000819050919050565b6000620005d5620005cf620005c984620005a0565b620005aa565b620005a0565b9050919050565b6000819050919050565b620005f183620005b4565b620006096200060082620005dc565b8484546200054a565b825550505050565b600090565b6200062062000611565b6200062d818484620005e6565b505050565b5b8181101562000655576200064960008262000616565b60018101905062000633565b5050565b601f821115620006a4576200066e8162000518565b62000679846200052d565b8101602085101562000689578190505b620006a162000698856200052d565b83018262000632565b50505b505050565b600082821c905092915050565b6000620006c960001984600802620006a9565b1980831691505092915050565b6000620006e48383620006b6565b9150826002028217905092915050565b620006ff826200047a565b67ffffffffffffffff8111156200071b576200071a62000485565b5b620007278254620004e3565b6200073482828562000659565b600060209050601f8311600181146200076c576000841562000757578287015190505b620007638582620006d6565b865550620007d3565b601f1984166200077c8662000518565b60005b82811015620007a6578489015182556001820191506020850194506020810190506200077f565b86831015620007c65784890151620007c2601f891682620006b6565b8355505b6001600288020188555050505b505050505050565b620007e68162000403565b82525050565b6000602082019050620008036000830184620007db565b92915050565b6132fa80620008196000396000f3fe608060405234801561001057600080fd5b506004361061018e5760003560e01c80638da5cb5b116100de578063c87b56dd11610097578063e7705db611610071578063e7705db614610493578063e985e9c5146104b1578063ee83687b146104e1578063f2fde38b146105145761018e565b8063c87b56dd14610429578063d539139314610459578063d547741f146104775761018e565b80638da5cb5b1461036757806391d148541461038557806395d89b41146103b5578063a217fddf146103d3578063a22cb465146103f1578063b88d4fde1461040d5761018e565b8063296c2b3a1161014b57806342842e0e1161012557806342842e0e146102e15780636352211e146102fd57806370a082311461032d578063715018a61461035d5761018e565b8063296c2b3a146102795780632f2ff15d146102a957806336568abe146102c55761018e565b806301ffc9a71461019357806306fdde03146101c3578063081812fc146101e1578063095ea7b31461021157806323b872dd1461022d578063248a9ca314610249575b600080fd5b6101ad60048036038101906101a891906124d7565b610530565b6040516101ba919061251f565b60405180910390f35b6101cb610542565b6040516101d891906125ca565b60405180910390f35b6101fb60048036038101906101f69190612622565b6105d4565b6040516102089190612690565b60405180910390f35b61022b600480360381019061022691906126d7565b6105f0565b005b61024760048036038101906102429190612717565b610606565b005b610263600480360381019061025e91906127a0565b610708565b60405161027091906127dc565b60405180910390f35b610293600480360381019061028e919061292c565b610728565b6040516102a09190612a26565b60405180910390f35b6102c360048036038101906102be9190612a41565b610869565b005b6102df60048036038101906102da9190612a41565b61088b565b005b6102fb60048036038101906102f69190612717565b610906565b005b61031760048036038101906103129190612622565b610926565b6040516103249190612690565b60405180910390f35b61034760048036038101906103429190612a81565b610980565b6040516103549190612a26565b60405180910390f35b610365610a3a565b005b61036f610a4e565b60405161037c9190612690565b60405180910390f35b61039f600480360381019061039a9190612a41565b610a78565b6040516103ac919061251f565b60405180910390f35b6103bd610ae3565b6040516103ca91906125ca565b60405180910390f35b6103db610b75565b6040516103e891906127dc565b60405180910390f35b61040b60048036038101906104069190612ada565b610b7c565b005b61042760048036038101906104229190612bbb565b610b92565b005b610443600480360381019061043e9190612622565b610bb7565b60405161045091906125ca565b60405180910390f35b610461610bc9565b60405161046e91906127dc565b60405180910390f35b610491600480360381019061048c9190612a41565b610bed565b005b61049b610c0f565b6040516104a891906127dc565b60405180910390f35b6104cb60048036038101906104c69190612c3e565b610c33565b6040516104d8919061251f565b60405180910390f35b6104fb60048036038101906104f69190612622565b610cc7565b60405161050b9493929190612c7e565b60405180910390f35b61052e60048036038101906105299190612a81565b610f1c565b005b600061053b82610fa2565b9050919050565b60606000805461055190612d07565b80601f016020809104026020016040519081016040528092919081815260200182805461057d90612d07565b80156105ca5780601f1061059f576101008083540402835291602001916105ca565b820191906000526020600020905b8154815290600101906020018083116105ad57829003601f168201915b5050505050905090565b60006105df8261101c565b506105e9826110a4565b9050919050565b61060282826105fd6110e1565b6110e9565b5050565b600073ffffffffffffffffffffffffffffffffffffffff168273ffffffffffffffffffffffffffffffffffffffff16036106785760006040517f64a0ae9200000000000000000000000000000000000000000000000000000000815260040161066f9190612690565b60405180910390fd5b600061068c83836106876110e1565b6110fb565b90508373ffffffffffffffffffffffffffffffffffffffff168173ffffffffffffffffffffffffffffffffffffffff1614610702578382826040517f64283d7b0000000000000000000000000000000000000000000000000000000081526004016106f993929190612d38565b60405180910390fd5b50505050565b600060086000838152602001908152602001600020600101549050919050565b60007f9f2df0fed2c77648de5860a4cc508cd0818c85b8b8a1ab4ceeef8d981c8956a661075481611315565b600060095490506009600081548092919061076e90612d9e565b919050555061077d8882611329565b6107878188611347565b604051806080016040528087815260200142815260200186815260200185815250600a600083815260200190815260200160002060008201518160000190816107d09190612f92565b506020820151816001015560408201518160020190816107f09190612f92565b5060608201518160030190816108069190612f92565b509050508773ffffffffffffffffffffffffffffffffffffffff16817fcf0618c506ca527972552bed8cb18b4f15577efa47200694c895b07047651c2a8842604051610853929190613064565b60405180910390a3809250505095945050505050565b61087282610708565b61087b81611315565b61088583836113a3565b50505050565b6108936110e1565b73ffffffffffffffffffffffffffffffffffffffff168173ffffffffffffffffffffffffffffffffffffffff16146108f7576040517f6697b23200000000000000000000000000000000000000000000000000000000815260040160405180910390fd5b6109018282611495565b505050565b61092183838360405180602001604052806000815250610b92565b505050565b600061093182611588565b610970576040517f08c379a0000000000000000000000000000000000000000000000000000000008152600401610967906130e0565b60405180910390fd5b61097982611596565b9050919050565b60008073ffffffffffffffffffffffffffffffffffffffff168273ffffffffffffffffffffffffffffffffffffffff16036109f35760006040517f89c62b640000000000000000000000000000000000000000000000000000000081526004016109ea9190612690565b60405180910390fd5b600360008373ffffffffffffffffffffffffffffffffffffffff1673ffffffffffffffffffffffffffffffffffffffff168152602001908152602001600020549050919050565b610a426115a8565b610a4c600061162f565b565b6000600760009054906101000a900473ffffffffffffffffffffffffffffffffffffffff16905090565b60006008600084815260200190815260200160002060000160008373ffffffffffffffffffffffffffffffffffffffff1673ffffffffffffffffffffffffffffffffffffffff16815260200190815260200160002060009054906101000a900460ff16905092915050565b606060018054610af290612d07565b80601f0160208091040260200160405190810160405280929190818152602001828054610b1e90612d07565b8015610b6b5780601f10610b4057610100808354040283529160200191610b6b565b820191906000526020600020905b815481529060010190602001808311610b4e57829003601f168201915b5050505050905090565b6000801b81565b610b8e610b876110e1565b83836116f5565b5050565b610b9d848484610606565b610bb1610ba86110e1565b85858585611864565b50505050565b6060610bc282611a15565b9050919050565b7f9f2df0fed2c77648de5860a4cc508cd0818c85b8b8a1ab4ceeef8d981c8956a681565b610bf682610708565b610bff81611315565b610c098383611495565b50505050565b7f0ce23c3e399818cfee81a7ab0880f714e53d7672b08df0fa62f2843416e1ea0981565b6000600560008473ffffffffffffffffffffffffffffffffffffffff1673ffffffffffffffffffffffffffffffffffffffff16815260200190815260200160002060008373ffffffffffffffffffffffffffffffffffffffff1673ffffffffffffffffffffffffffffffffffffffff16815260200190815260200160002060009054906101000a900460ff16905092915050565b60606000606080610cd785611588565b610d16576040517f08c379a0000000000000000000000000000000000000000000000000000000008152600401610d0d906130e0565b60405180910390fd5b6000600a6000878152602001908152602001600020604051806080016040529081600082018054610d4690612d07565b80601f0160208091040260200160405190810160405280929190818152602001828054610d7290612d07565b8015610dbf5780601f10610d9457610100808354040283529160200191610dbf565b820191906000526020600020905b815481529060010190602001808311610da257829003601f168201915b5050505050815260200160018201548152602001600282018054610de290612d07565b80601f0160208091040260200160405190810160405280929190818152602001828054610e0e90612d07565b8015610e5b5780601f10610e3057610100808354040283529160200191610e5b565b820191906000526020600020905b815481529060010190602001808311610e3e57829003601f168201915b50505050508152602001600382018054610e7490612d07565b80601f0160208091040260200160405190810160405280929190818152602001828054610ea090612d07565b8015610eed5780601f10610ec257610100808354040283529160200191610eed565b820191906000526020600020905b815481529060010190602001808311610ed057829003601f168201915b505050505081525050905080600001518160200151826040015183606001519450945094509450509193509193565b610f246115a8565b600073ffffffffffffffffffffffffffffffffffffffff168173ffffffffffffffffffffffffffffffffffffffff1603610f965760006040517f1e4fbdf7000000000000000000000000000000000000000000000000000000008152600401610f8d9190612690565b60405180910390fd5b610f9f8161162f565b50565b60007f7965db0b000000000000000000000000000000000000000000000000000000007bffffffffffffffffffffffffffffffffffffffffffffffffffffffff1916827bffffffffffffffffffffffffffffffffffffffffffffffffffffffff19161480611015575061101482611b28565b5b9050919050565b60008061102883611b89565b9050600073ffffffffffffffffffffffffffffffffffffffff168173ffffffffffffffffffffffffffffffffffffffff160361109b57826040517f7e2732890000000000000000000000000000000000000000000000000000000081526004016110929190612a26565b60405180910390fd5b80915050919050565b60006004600083815260200190815260200160002060009054906101000a900473ffffffffffffffffffffffffffffffffffffffff169050919050565b600033905090565b6110f68383836001611bc6565b505050565b60008061110784611b89565b9050600073ffffffffffffffffffffffffffffffffffffffff168373ffffffffffffffffffffffffffffffffffffffff161461114957611148818486611d8b565b5b600073ffffffffffffffffffffffffffffffffffffffff168173ffffffffffffffffffffffffffffffffffffffff16146111da5761118b600085600080611bc6565b6001600360008373ffffffffffffffffffffffffffffffffffffffff1673ffffffffffffffffffffffffffffffffffffffff168152602001908152602001600020600082825403925050819055505b600073ffffffffffffffffffffffffffffffffffffffff168573ffffffffffffffffffffffffffffffffffffffff161461125d576001600360008773ffffffffffffffffffffffffffffffffffffffff1673ffffffffffffffffffffffffffffffffffffffff168152602001908152602001600020600082825401925050819055505b846002600086815260200190815260200160002060006101000a81548173ffffffffffffffffffffffffffffffffffffffff021916908373ffffffffffffffffffffffffffffffffffffffff160217905550838573ffffffffffffffffffffffffffffffffffffffff168273ffffffffffffffffffffffffffffffffffffffff167fddf252ad1be2c89b69c2b068fc378daa952ba7f163c4a11628f55a4df523b3ef60405160405180910390a4809150509392505050565b611326816113216110e1565b611e4f565b50565b611343828260405180602001604052806000815250611ea0565b5050565b806006600084815260200190815260200160002090816113679190612f92565b507ff8e1a15aba9398e019f0b49df1a4fde98ee17ae345cb5f6b5e2c27f5033e8ce7826040516113979190612a26565b60405180910390a15050565b60006113af8383610a78565b61148a5760016008600085815260200190815260200160002060000160008473ffffffffffffffffffffffffffffffffffffffff1673ffffffffffffffffffffffffffffffffffffffff16815260200190815260200160002060006101000a81548160ff0219169083151502179055506114276110e1565b73ffffffffffffffffffffffffffffffffffffffff168273ffffffffffffffffffffffffffffffffffffffff16847f2f8788117e7eff1d82e926ec794901d17c78024a50270940304540a733656f0d60405160405180910390a46001905061148f565b600090505b92915050565b60006114a18383610a78565b1561157d5760006008600085815260200190815260200160002060000160008473ffffffffffffffffffffffffffffffffffffffff1673ffffffffffffffffffffffffffffffffffffffff16815260200190815260200160002060006101000a81548160ff02191690831515021790555061151a6110e1565b73ffffffffffffffffffffffffffffffffffffffff168273ffffffffffffffffffffffffffffffffffffffff16847ff6391f5c32d9c69d2a47ea670b442974b53935d1edc7fd64eb21e047a839171b60405160405180910390a460019050611582565b600090505b92915050565b600060095482109050919050565b60006115a18261101c565b9050919050565b6115b06110e1565b73ffffffffffffffffffffffffffffffffffffffff166115ce610a4e565b73ffffffffffffffffffffffffffffffffffffffff161461162d576115f16110e1565b6040517f118cdaa70000000000000000000000000000000000000000000000000000000081526004016116249190612690565b60405180910390fd5b565b6000600760009054906101000a900473ffffffffffffffffffffffffffffffffffffffff16905081600760006101000a81548173ffffffffffffffffffffffffffffffffffffffff021916908373ffffffffffffffffffffffffffffffffffffffff1602179055508173ffffffffffffffffffffffffffffffffffffffff168173ffffffffffffffffffffffffffffffffffffffff167f8be0079c531659141344cd1fd0a4f28419497f9722a3daafe3b4186f6b6457e060405160405180910390a35050565b600073ffffffffffffffffffffffffffffffffffffffff168273ffffffffffffffffffffffffffffffffffffffff160361176657816040517f5b08ba1800000000000000000000000000000000000000000000000000000000815260040161175d9190612690565b60405180910390fd5b80600560008573ffffffffffffffffffffffffffffffffffffffff1673ffffffffffffffffffffffffffffffffffffffff16815260200190815260200160002060008473ffffffffffffffffffffffffffffffffffffffff1673ffffffffffffffffffffffffffffffffffffffff16815260200190815260200160002060006101000a81548160ff0219169083151502179055508173ffffffffffffffffffffffffffffffffffffffff168373ffffffffffffffffffffffffffffffffffffffff167f17307eab39ab6107e8899845ad3d59bd9653f200f220920489ca2b5937696c3183604051611857919061251f565b60405180910390a3505050565b60008373ffffffffffffffffffffffffffffffffffffffff163b1115611a0e578273ffffffffffffffffffffffffffffffffffffffff1663150b7a02868685856040518563ffffffff1660e01b81526004016118c39493929190613155565b6020604051808303816000875af19250505080156118ff57506040513d601f19601f820116820180604052508101906118fc91906131b6565b60015b611983573d806000811461192f576040519150601f19603f3d011682016040523d82523d6000602084013e611934565b606091505b50600081510361197b57836040517f64a0ae920000000000000000000000000000000000000000000000000000000081526004016119729190612690565b60405180910390fd5b805181602001fd5b63150b7a0260e01b7bffffffffffffffffffffffffffffffffffffffffffffffffffffffff1916817bffffffffffffffffffffffffffffffffffffffffffffffffffffffff191614611a0c57836040517f64a0ae92000000000000000000000000000000000000000000000000000000008152600401611a039190612690565b60405180910390fd5b505b5050505050565b6060611a208261101c565b506000600660008481526020019081526020016000208054611a4190612d07565b80601f0160208091040260200160405190810160405280929190818152602001828054611a6d90612d07565b8015611aba5780601f10611a8f57610100808354040283529160200191611aba565b820191906000526020600020905b815481529060010190602001808311611a9d57829003601f168201915b505050505090506000611acb611ec4565b90506000815103611ae0578192505050611b23565b600082511115611b15578082604051602001611afd92919061321f565b60405160208183030381529060405292505050611b23565b611b1e84611edb565b925050505b919050565b6000634906490660e01b7bffffffffffffffffffffffffffffffffffffffffffffffffffffffff1916827bffffffffffffffffffffffffffffffffffffffffffffffffffffffff19161480611b825750611b8182611f44565b5b9050919050565b60006002600083815260200190815260200160002060009054906101000a900473ffffffffffffffffffffffffffffffffffffffff169050919050565b8080611bff5750600073ffffffffffffffffffffffffffffffffffffffff168273ffffffffffffffffffffffffffffffffffffffff1614155b15611d33576000611c0f8461101c565b9050600073ffffffffffffffffffffffffffffffffffffffff168373ffffffffffffffffffffffffffffffffffffffff1614158015611c7a57508273ffffffffffffffffffffffffffffffffffffffff168173ffffffffffffffffffffffffffffffffffffffff1614155b8015611c8d5750611c8b8184610c33565b155b15611ccf57826040517fa9fbf51f000000000000000000000000000000000000000000000000000000008152600401611cc69190612690565b60405180910390fd5b8115611d3157838573ffffffffffffffffffffffffffffffffffffffff168273ffffffffffffffffffffffffffffffffffffffff167f8c5be1e5ebec7d5bd14f71427d1e84f3dd0314c0f7b2291e5b200ac8c7c3b92560405160405180910390a45b505b836004600085815260200190815260200160002060006101000a81548173ffffffffffffffffffffffffffffffffffffffff021916908373ffffffffffffffffffffffffffffffffffffffff16021790555050505050565b611d96838383612026565b611e4a57600073ffffffffffffffffffffffffffffffffffffffff168373ffffffffffffffffffffffffffffffffffffffff1603611e0b57806040517f7e273289000000000000000000000000000000000000000000000000000000008152600401611e029190612a26565b60405180910390fd5b81816040517f177e802f000000000000000000000000000000000000000000000000000000008152600401611e41929190613243565b60405180910390fd5b505050565b611e598282610a78565b611e9c5780826040517fe2517d3f000000000000000000000000000000000000000000000000000000008152600401611e9392919061326c565b60405180910390fd5b5050565b611eaa83836120e7565b611ebf611eb56110e1565b6000858585611864565b505050565b606060405180602001604052806000815250905090565b6060611ee68261101c565b506000611ef1611ec4565b90506000815111611f115760405180602001604052806000815250611f3c565b80611f1b846121e0565b604051602001611f2c92919061321f565b6040516020818303038152906040525b915050919050565b60007f80ac58cd000000000000000000000000000000000000000000000000000000007bffffffffffffffffffffffffffffffffffffffffffffffffffffffff1916827bffffffffffffffffffffffffffffffffffffffffffffffffffffffff1916148061200f57507f5b5e139f000000000000000000000000000000000000000000000000000000007bffffffffffffffffffffffffffffffffffffffffffffffffffffffff1916827bffffffffffffffffffffffffffffffffffffffffffffffffffffffff1916145b8061201f575061201e826122ae565b5b9050919050565b60008073ffffffffffffffffffffffffffffffffffffffff168373ffffffffffffffffffffffffffffffffffffffff16141580156120de57508273ffffffffffffffffffffffffffffffffffffffff168473ffffffffffffffffffffffffffffffffffffffff16148061209f575061209e8484610c33565b5b806120dd57508273ffffffffffffffffffffffffffffffffffffffff166120c5836110a4565b73ffffffffffffffffffffffffffffffffffffffff16145b5b90509392505050565b600073ffffffffffffffffffffffffffffffffffffffff168273ffffffffffffffffffffffffffffffffffffffff16036121595760006040517f64a0ae920000000000000000000000000000000000000000000000000000000081526004016121509190612690565b60405180910390fd5b6000612167838360006110fb565b9050600073ffffffffffffffffffffffffffffffffffffffff168173ffffffffffffffffffffffffffffffffffffffff16146121db5760006040517f73c6ac6e0000000000000000000000000000000000000000000000000000000081526004016121d29190612690565b60405180910390fd5b505050565b6060600060016121ef84612318565b01905060008167ffffffffffffffff81111561220e5761220d612801565b5b6040519080825280601f01601f1916602001820160405280156122405781602001600182028036833780820191505090505b509050600082602001820190505b6001156122a3578080600190039150507f3031323334353637383961626364656600000000000000000000000000000000600a86061a8153600a858161229757612296613295565b5b0494506000850361224e575b819350505050919050565b60007f01ffc9a7000000000000000000000000000000000000000000000000000000007bffffffffffffffffffffffffffffffffffffffffffffffffffffffff1916827bffffffffffffffffffffffffffffffffffffffffffffffffffffffff1916149050919050565b600080600090507a184f03e93ff9f4daa797ed6e38ed64bf6a1f0100000000000000008310612376577a184f03e93ff9f4daa797ed6e38ed64bf6a1f010000000000000000838161236c5761236b613295565b5b0492506040810190505b6d04ee2d6d415b85acef810000000083106123b3576d04ee2d6d415b85acef810000000083816123a9576123a8613295565b5b0492506020810190505b662386f26fc1000083106123e257662386f26fc1000083816123d8576123d7613295565b5b0492506010810190505b6305f5e100831061240b576305f5e100838161240157612400613295565b5b0492506008810190505b612710831061243057612710838161242657612425613295565b5b0492506004810190505b60648310612453576064838161244957612448613295565b5b0492506002810190505b600a8310612462576001810190505b80915050919050565b6000604051905090565b600080fd5b600080fd5b60007fffffffff0000000000000000000000000000000000000000000000000000000082169050919050565b6124b48161247f565b81146124bf57600080fd5b50565b6000813590506124d1816124ab565b92915050565b6000602082840312156124ed576124ec612475565b5b60006124fb848285016124c2565b91505092915050565b60008115159050919050565b61251981612504565b82525050565b60006020820190506125346000830184612510565b92915050565b600081519050919050565b600082825260208201905092915050565b60005b83811015612574578082015181840152602081019050612559565b60008484015250505050565b6000601f19601f8301169050919050565b600061259c8261253a565b6125a68185612545565b93506125b6818560208601612556565b6125bf81612580565b840191505092915050565b600060208201905081810360008301526125e48184612591565b905092915050565b6000819050919050565b6125ff816125ec565b811461260a57600080fd5b50565b60008135905061261c816125f6565b92915050565b60006020828403121561263857612637612475565b5b60006126468482850161260d565b91505092915050565b600073ffffffffffffffffffffffffffffffffffffffff82169050919050565b600061267a8261264f565b9050919050565b61268a8161266f565b82525050565b60006020820190506126a56000830184612681565b92915050565b6126b48161266f565b81146126bf57600080fd5b50565b6000813590506126d1816126ab565b92915050565b600080604083850312156126ee576126ed612475565b5b60006126fc858286016126c2565b925050602061270d8582860161260d565b9150509250929050565b6000806000606084860312156127305761272f612475565b5b600061273e868287016126c2565b935050602061274f868287016126c2565b92505060406127608682870161260d565b9150509250925092565b6000819050919050565b61277d8161276a565b811461278857600080fd5b50565b60008135905061279a81612774565b92915050565b6000602082840312156127b6576127b5612475565b5b60006127c48482850161278b565b91505092915050565b6127d68161276a565b82525050565b60006020820190506127f160008301846127cd565b92915050565b600080fd5b600080fd5b7f4e487b7100000000000000000000000000000000000000000000000000000000600052604160045260246000fd5b61283982612580565b810181811067ffffffffffffffff8211171561285857612857612801565b5b80604052505050565b600061286b61246b565b90506128778282612830565b919050565b600067ffffffffffffffff82111561289757612896612801565b5b6128a082612580565b9050602081019050919050565b82818337600083830152505050565b60006128cf6128ca8461287c565b612861565b9050828152602081018484840111156128eb576128ea6127fc565b5b6128f68482856128ad565b509392505050565b600082601f830112612913576129126127f7565b5b81356129238482602086016128bc565b91505092915050565b600080600080600060a0868803121561294857612947612475565b5b6000612956888289016126c2565b955050602086013567ffffffffffffffff8111156129775761297661247a565b5b612983888289016128fe565b945050604086013567ffffffffffffffff8111156129a4576129a361247a565b5b6129b0888289016128fe565b935050606086013567ffffffffffffffff8111156129d1576129d061247a565b5b6129dd888289016128fe565b925050608086013567ffffffffffffffff8111156129fe576129fd61247a565b5b612a0a888289016128fe565b9150509295509295909350565b612a20816125ec565b82525050565b6000602082019050612a3b6000830184612a17565b92915050565b60008060408385031215612a5857612a57612475565b5b6000612a668582860161278b565b9250506020612a77858286016126c2565b9150509250929050565b600060208284031215612a9757612a96612475565b5b6000612aa5848285016126c2565b91505092915050565b612ab781612504565b8114612ac257600080fd5b50565b600081359050612ad481612aae565b92915050565b60008060408385031215612af157612af0612475565b5b6000612aff858286016126c2565b9250506020612b1085828601612ac5565b9150509250929050565b600067ffffffffffffffff821115612b3557612b34612801565b5b612b3e82612580565b9050602081019050919050565b6000612b5e612b5984612b1a565b612861565b905082815260208101848484011115612b7a57612b796127fc565b5b612b858482856128ad565b509392505050565b600082601f830112612ba257612ba16127f7565b5b8135612bb2848260208601612b4b565b91505092915050565b60008060008060808587031215612bd557612bd4612475565b5b6000612be3878288016126c2565b9450506020612bf4878288016126c2565b9350506040612c058782880161260d565b925050606085013567ffffffffffffffff811115612c2657612c2561247a565b5b612c3287828801612b8d565b91505092959194509250565b60008060408385031215612c5557612c54612475565b5b6000612c63858286016126c2565b9250506020612c74858286016126c2565b9150509250929050565b60006080820190508181036000830152612c988187612591565b9050612ca76020830186612a17565b8181036040830152612cb98185612591565b90508181036060830152612ccd8184612591565b905095945050505050565b7f4e487b7100000000000000000000000000000000000000000000000000000000600052602260045260246000fd5b60006002820490506001821680612d1f57607f821691505b602082108103612d3257612d31612cd8565b5b50919050565b6000606082019050612d4d6000830186612681565b612d5a6020830185612a17565b612d676040830184612681565b949350505050565b7f4e487b7100000000000000000000000000000000000000000000000000000000600052601160045260246000fd5b6000612da9826125ec565b91507fffffffffffffffffffffffffffffffffffffffffffffffffffffffffffffffff8203612ddb57612dda612d6f565b5b600182019050919050565b60008190508160005260206000209050919050565b60006020601f8301049050919050565b600082821b905092915050565b600060088302612e487fffffffffffffffffffffffffffffffffffffffffffffffffffffffffffffffff82612e0b565b612e528683612e0b565b95508019841693508086168417925050509392505050565b6000819050919050565b6000612e8f612e8a612e85846125ec565b612e6a565b6125ec565b9050919050565b6000819050919050565b612ea983612e74565b612ebd612eb582612e96565b848454612e18565b825550505050565b600090565b612ed2612ec5565b612edd818484612ea0565b505050565b5b81811015612f0157612ef6600082612eca565b600181019050612ee3565b5050565b601f821115612f4657612f1781612de6565b612f2084612dfb565b81016020851015612f2f578190505b612f43612f3b85612dfb565b830182612ee2565b50505b505050565b600082821c905092915050565b6000612f6960001984600802612f4b565b1980831691505092915050565b6000612f828383612f58565b9150826002028217905092915050565b612f9b8261253a565b67ffffffffffffffff811115612fb457612fb3612801565b5b612fbe8254612d07565b612fc9828285612f05565b600060209050601f831160018114612ffc5760008415612fea578287015190505b612ff48582612f76565b86555061305c565b601f19841661300a86612de6565b60005b828110156130325784890151825560018201915060208501945060208101905061300d565b8683101561304f578489015161304b601f891682612f58565b8355505b6001600288020188555050505b505050505050565b6000604082019050818103600083015261307e8185612591565b905061308d6020830184612a17565b9392505050565b7f546f6b656e20646f6573206e6f74206578697374000000000000000000000000600082015250565b60006130ca601483612545565b91506130d582613094565b602082019050919050565b600060208201905081810360008301526130f9816130bd565b9050919050565b600081519050919050565b600082825260208201905092915050565b600061312782613100565b613131818561310b565b9350613141818560208601612556565b61314a81612580565b840191505092915050565b600060808201905061316a6000830187612681565b6131776020830186612681565b6131846040830185612a17565b8181036060830152613196818461311c565b905095945050505050565b6000815190506131b0816124ab565b92915050565b6000602082840312156131cc576131cb612475565b5b60006131da848285016131a1565b91505092915050565b600081905092915050565b60006131f98261253a565b61320381856131e3565b9350613213818560208601612556565b80840191505092915050565b600061322b82856131ee565b915061323782846131ee565b91508190509392505050565b60006040820190506132586000830185612681565b6132656020830184612a17565b9392505050565b60006040820190506132816000830185612681565b61328e60208301846127cd565b9392505050565b7f4e487b7100000000000000000000000000000000000000000000000000000000600052601260045260246000fdfea2646970667358221220150b3dabb51bf4cede8c743238359a5d6df75ffaa25efe3d838b64b397aa4bb464736f6c63430008140033",
  "linkReferences": {},
  "deployedLinkReferences": {}
}