{
  "_format": "hh-sol-artifact-1",
  "contractName": "Payment",
  "sourceName": "contracts/Payment.sol",
  "abi": [
    {
      "inputs": [
        {
          "internalType": "uint256",
          "name": "_feePercentage",
          "type": "uint256"
        },
        {
          "internalType": "address",
          "name": "_platformWallet",
          "type": "address"
        }
      ],
      "stateMutability": "nonpayable",
      "type": "constructor"
    },
    {
      "inputs": [
        {
          "internalType": "address",
          "name": "owner",
          "type": "address"
        }
      ],
      "name": "OwnableInvalidOwner",
      "type": "error"
    },
    {
      "inputs": [
        {
          "internalType": "address",
          "name": "account",
          "type": "address"
        }
      ],
      "name": "OwnableUnauthorizedAccount",
      "type": "error"
    },
    {
      "inputs": [],
      "name": "ReentrancyGuardReentrantCall",
      "type": "error"
    },
    {
      "anonymous": false,
      "inputs": [
        {
          "indexed": true,
          "internalType": "address",
          "name": "previousOwner",
          "type": "address"
        },
        {
          "indexed": true,
          "internalType": "address",
          "name": "newOwner",
          "type": "address"
        }
      ],
      "name": "OwnershipTransferred",
      "type": "event"
    },
    {
      "anonymous": false,
      "inputs": [
        {
          "indexed": true,
          "internalType": "uint256",
          "name": "saleId",
          "type": "uint256"
        },
        {
          "indexed": true,
          "internalType": "address",
          "name": "seller",
          "type": "address"
        },
        {
          "indexed": true,
          "internalType": "address",
          "name": "buyer",
          "type": "address"
        },
        {
          "indexed": false,
          "internalType": "uint256",
          "name": "amount",
          "type": "uint256"
        },
        {
          "indexed": false,
          "internalType": "uint256",
          "name": "fee",
          "type": "uint256"
        }
      ],
      "name": "PaymentProcessed",
      "type": "event"
    },
    {
      "inputs": [],
      "name": "getPlatformSales",
      "outputs": [
        {
          "components": [
            {
              "internalType": "address",
              "name": "buyer",
              "type": "address"
            },
            {
              "internalType": "address",
              "name": "seller",
              "type": "address"
            },
            {
              "internalType": "uint256",
              "name": "amount",
              "type": "uint256"
            },
            {
              "internalType": "uint256",
              "name": "timestamp",
              "type": "uint256"
            }
          ],
          "internalType": "struct Payment.SaleRecord[]",
          "name": "",
          "type": "tuple[]"
        }
      ],
      "stateMutability": "view",
      "type": "function"
    },
    {
      "inputs": [],
      "name": "getPlatformStats",
      "outputs": [
        {
          "internalType": "uint256",
          "name": "totalRevenue",
          "type": "uint256"
        },
        {
          "internalType": "uint256",
          "name": "totalSales",
          "type": "uint256"
        },
        {
          "internalType": "uint256",
          "name": "avgSaleValue",
          "type": "uint256"
        }
      ],
      "stateMutability": "view",
      "type": "function"
    },
    {
      "inputs": [],
      "name": "getSalesHistory",
      "outputs": [
        {
          "components": [
            {
              "internalType": "address",
              "name": "buyer",
              "type": "address"
            },
            {
              "internalType": "uint256",
              "name": "amount",
              "type": "uint256"
            },
            {
              "internalType": "uint256",
              "name": "timestamp",
              "type": "uint256"
            }
          ],
          "internalType": "struct Payment.Sale[]",
          "name": "",
          "type": "tuple[]"
        }
      ],
      "stateMutability": "view",
      "type": "function"
    },
    {
      "inputs": [],
      "name": "getSalesValue",
      "outputs": [
        {
          "internalType": "uint256",
          "name": "",
          "type": "uint256"
        }
      ],
      "stateMutability": "view",
      "type": "function"
    },
    {
      "inputs": [],
      "name": "getTotalSaleValue",
      "outputs": [
        {
          "internalType": "uint256",
          "name": "",
          "type": "uint256"
        }
      ],
      "stateMutability": "view",
      "type": "function"
    },
    {
      "inputs": [],
      "name": "owner",
      "outputs": [
        {
          "internalType": "address",
          "name": "",
          "type": "address"
        }
      ],
      "stateMutability": "view",
      "type": "function"
    },
    {
      "inputs": [],
      "name": "platformFeePercentage",
      "outputs": [
        {
          "internalType": "uint256",
          "name": "",
          "type": "uint256"
        }
      ],
      "stateMutability": "view",
      "type": "function"
    },
    {
      "inputs": [],
      "name": "platformTotalRevenue",
      "outputs": [
        {
          "internalType": "uint256",
          "name": "",
          "type": "uint256"
        }
      ],
      "stateMutability": "view",
      "type": "function"
    },
    {
      "inputs": [],
      "name": "platformWallet",
      "outputs": [
        {
          "internalType": "address",
          "name": "",
          "type": "address"
        }
      ],
      "stateMutability": "view",
      "type": "function"
    },
    {
      "inputs": [
        {
          "internalType": "address",
          "name": "seller",
          "type": "address"
        }
      ],
      "name": "processPayment",
      "outputs": [],
      "stateMutability": "payable",
      "type": "function"
    },
    {
      "inputs": [],
      "name": "renounceOwnership",
      "outputs": [],
      "stateMutability": "nonpayable",
      "type": "function"
    },
    {
      "inputs": [
        {
          "internalType": "address",
          "name": "",
          "type": "address"
        }
      ],
      "name": "salesBySeller",
      "outputs": [
        {
          "internalType": "uint256",
          "name": "",
          "type": "uint256"
        }
      ],
      "stateMutability": "view",
      "type": "function"
    },
    {
      "inputs": [
        {
          "internalType": "address",
          "name": "",
          "type": "address"
        },
        {
          "internalType": "uint256",
          "name": "",
          "type": "uint256"
        }
      ],
      "name": "salesHistory",
      "outputs": [
        {
          "internalType": "address",
          "name": "buyer",
          "type": "address"
        },
        {
          "internalType": "uint256",
          "name": "amount",
          "type": "uint256"
        },
        {
          "internalType": "uint256",
          "name": "timestamp",
          "type": "uint256"
        }
      ],
      "stateMutability": "view",
      "type": "function"
    },
    {
      "inputs": [
        {
          "internalType": "address",
          "name": "newOwner",
          "type": "address"
        }
      ],
      "name": "transferOwnership",
      "outputs": [],
      "stateMutability": "nonpayable",
      "type": "function"
    },
    {
      "inputs": [
        {
          "internalType": "uint256",
          "name": "newFeePercentage",
          "type": "uint256"
        }
      ],
      "name": "updateFeePercentage",
      "outputs": [],
      "stateMutability": "nonpayable",
      "type": "function"
    },
    {
      "inputs": [
        {
          "internalType": "address",
          "name": "newWallet",
          "type": "address"
        }
      ],
      "name": "updatePlatformWallet",
      "outputs": [],
      "stateMutability": "nonpayable",
      "type": "function"
    }
  ],
  "bytecode": "0x60806040523480156200001157600080fd5b5060405162001abe38038062001abe83398181016040528101906200003791906200027f565b33600073ffffffffffffffffffffffffffffffffffffffff168173ffffffffffffffffffffffffffffffffffffffff1603620000ad5760006040517f1e4fbdf7000000000000000000000000000000000000000000000000000000008152600401620000a49190620002d7565b60405180910390fd5b620000be816200011660201b60201c565b50600180819055508160028190555080600360006101000a81548173ffffffffffffffffffffffffffffffffffffffff021916908373ffffffffffffffffffffffffffffffffffffffff1602179055505050620002f4565b60008060009054906101000a900473ffffffffffffffffffffffffffffffffffffffff169050816000806101000a81548173ffffffffffffffffffffffffffffffffffffffff021916908373ffffffffffffffffffffffffffffffffffffffff1602179055508173ffffffffffffffffffffffffffffffffffffffff168173ffffffffffffffffffffffffffffffffffffffff167f8be0079c531659141344cd1fd0a4f28419497f9722a3daafe3b4186f6b6457e060405160405180910390a35050565b600080fd5b6000819050919050565b620001f481620001df565b81146200020057600080fd5b50565b6000815190506200021481620001e9565b92915050565b600073ffffffffffffffffffffffffffffffffffffffff82169050919050565b600062000247826200021a565b9050919050565b62000259816200023a565b81146200026557600080fd5b50565b60008151905062000279816200024e565b92915050565b60008060408385031215620002995762000298620001da565b5b6000620002a98582860162000203565b9250506020620002bc8582860162000268565b9150509250929050565b620002d1816200023a565b82525050565b6000602082019050620002ee6000830184620002c6565b92915050565b6117ba80620003046000396000f3fe6080604052600436106100f35760003560e01c8063715018a61161008a578063ada4ef3011610059578063ada4ef30146102ff578063cdd78cfc14610328578063f2fde38b14610353578063fa2af9da1461037c576100f3565b8063715018a6146102765780637f73aa631461028d5780638da5cb5b146102b85780638fe123d7146102e3576100f3565b806350675283116100c657806350675283146101ba5780635e3ab723146101e5578063605828f9146102105780636cad3fb01461024d576100f3565b80631047eaa3146100f8578063136d88831461012357806327fe8b1f146101505780634541fa271461018f575b600080fd5b34801561010457600080fd5b5061010d6103a7565b60405161011a91906110bf565b60405180910390f35b34801561012f57600080fd5b506101386104ce565b604051610147939291906110f0565b60405180910390f35b34801561015c57600080fd5b5061017760048036038101906101729190611184565b61050d565b604051610186939291906111d3565b60405180910390f35b34801561019b57600080fd5b506101a4610574565b6040516101b191906112fb565b60405180910390f35b3480156101c657600080fd5b506101cf61067a565b6040516101dc919061131d565b60405180910390f35b3480156101f157600080fd5b506101fa610680565b604051610207919061131d565b60405180910390f35b34801561021c57600080fd5b5061023760048036038101906102329190611338565b6106c7565b604051610244919061131d565b60405180910390f35b34801561025957600080fd5b50610274600480360381019061026f9190611365565b6106df565b005b34801561028257600080fd5b5061028b610735565b005b34801561029957600080fd5b506102a2610749565b6040516102af919061131d565b60405180910390f35b3480156102c457600080fd5b506102cd61075b565b6040516102da9190611392565b60405180910390f35b6102fd60048036038101906102f89190611338565b610784565b005b34801561030b57600080fd5b5061032660048036038101906103219190611338565b610c52565b005b34801561033457600080fd5b5061033d610d0d565b60405161034a919061131d565b60405180910390f35b34801561035f57600080fd5b5061037a60048036038101906103759190611338565b610d13565b005b34801561038857600080fd5b50610391610d99565b60405161039e9190611392565b60405180910390f35b60606103b1610dbf565b6007805480602002602001604051908101604052809291908181526020016000905b828210156104c557838290600052602060002090600402016040518060800160405290816000820160009054906101000a900473ffffffffffffffffffffffffffffffffffffffff1673ffffffffffffffffffffffffffffffffffffffff1673ffffffffffffffffffffffffffffffffffffffff1681526020016001820160009054906101000a900473ffffffffffffffffffffffffffffffffffffffff1673ffffffffffffffffffffffffffffffffffffffff1673ffffffffffffffffffffffffffffffffffffffff16815260200160028201548152602001600382015481525050815260200190600101906103d3565b50505050905090565b60008060006104db610dbf565b60085492506007805490509150600082116104f7576000610506565b81600854610505919061140b565b5b9050909192565b6005602052816000526040600020818154811061052957600080fd5b9060005260206000209060030201600091509150508060000160009054906101000a900473ffffffffffffffffffffffffffffffffffffffff16908060010154908060020154905083565b6060600560003373ffffffffffffffffffffffffffffffffffffffff1673ffffffffffffffffffffffffffffffffffffffff168152602001908152602001600020805480602002602001604051908101604052809291908181526020016000905b8282101561067157838290600052602060002090600302016040518060600160405290816000820160009054906101000a900473ffffffffffffffffffffffffffffffffffffffff1673ffffffffffffffffffffffffffffffffffffffff1673ffffffffffffffffffffffffffffffffffffffff16815260200160018201548152602001600282015481525050815260200190600101906105d5565b50505050905090565b60085481565b6000600660003373ffffffffffffffffffffffffffffffffffffffff1673ffffffffffffffffffffffffffffffffffffffff16815260200190815260200160002054905090565b60066020528060005260406000206000915090505481565b6106e7610dbf565b601481111561072b576040517f08c379a000000000000000000000000000000000000000000000000000000000815260040161072290611499565b60405180910390fd5b8060028190555050565b61073d610dbf565b6107476000610e46565b565b6000610753610dbf565b600854905090565b60008060009054906101000a900473ffffffffffffffffffffffffffffffffffffffff16905090565b61078c610f0a565b600034116107cf576040517f08c379a00000000000000000000000000000000000000000000000000000000081526004016107c69061152b565b60405180910390fd5b60006064600254346107e1919061154b565b6107eb919061140b565b9050600081346107fb919061158d565b90506000600360009054906101000a900473ffffffffffffffffffffffffffffffffffffffff1673ffffffffffffffffffffffffffffffffffffffff1683604051610845906115f2565b60006040518083038185875af1925050503d8060008114610882576040519150601f19603f3d011682016040523d82523d6000602084013e610887565b606091505b5050905060008473ffffffffffffffffffffffffffffffffffffffff16836040516108b1906115f2565b60006040518083038185875af1925050503d80600081146108ee576040519150601f19603f3d011682016040523d82523d6000602084013e6108f3565b606091505b505090508180156109015750805b610940576040517f08c379a000000000000000000000000000000000000000000000000000000000815260040161093790611653565b60405180910390fd5b600560008673ffffffffffffffffffffffffffffffffffffffff1673ffffffffffffffffffffffffffffffffffffffff16815260200190815260200160002060405180606001604052803373ffffffffffffffffffffffffffffffffffffffff16815260200134815260200142815250908060018154018082558091505060019003906000526020600020906003020160009091909190915060008201518160000160006101000a81548173ffffffffffffffffffffffffffffffffffffffff021916908373ffffffffffffffffffffffffffffffffffffffff16021790555060208201518160010155604082015181600201555050600760405180608001604052803373ffffffffffffffffffffffffffffffffffffffff1681526020018773ffffffffffffffffffffffffffffffffffffffff16815260200134815260200142815250908060018154018082558091505060019003906000526020600020906004020160009091909190915060008201518160000160006101000a81548173ffffffffffffffffffffffffffffffffffffffff021916908373ffffffffffffffffffffffffffffffffffffffff16021790555060208201518160010160006101000a81548173ffffffffffffffffffffffffffffffffffffffff021916908373ffffffffffffffffffffffffffffffffffffffff1602179055506040820151816002015560608201518160030155505034600660008773ffffffffffffffffffffffffffffffffffffffff1673ffffffffffffffffffffffffffffffffffffffff1681526020019081526020016000206000828254610ba19190611673565b925050819055508360086000828254610bba9190611673565b9250508190555060046000815480929190610bd4906116a7565b91905055503373ffffffffffffffffffffffffffffffffffffffff168573ffffffffffffffffffffffffffffffffffffffff166004547fecad628f08f153c60db5527df2f1166b73539fe882a251c57aef1f6daf70a84f3488604051610c3b9291906116ef565b60405180910390a450505050610c4f610f50565b50565b610c5a610dbf565b600073ffffffffffffffffffffffffffffffffffffffff168173ffffffffffffffffffffffffffffffffffffffff1603610cc9576040517f08c379a0000000000000000000000000000000000000000000000000000000008152600401610cc090611764565b60405180910390fd5b80600360006101000a81548173ffffffffffffffffffffffffffffffffffffffff021916908373ffffffffffffffffffffffffffffffffffffffff16021790555050565b60025481565b610d1b610dbf565b600073ffffffffffffffffffffffffffffffffffffffff168173ffffffffffffffffffffffffffffffffffffffff1603610d8d5760006040517f1e4fbdf7000000000000000000000000000000000000000000000000000000008152600401610d849190611392565b60405180910390fd5b610d9681610e46565b50565b600360009054906101000a900473ffffffffffffffffffffffffffffffffffffffff1681565b610dc7610f59565b73ffffffffffffffffffffffffffffffffffffffff16610de561075b565b73ffffffffffffffffffffffffffffffffffffffff1614610e4457610e08610f59565b6040517f118cdaa7000000000000000000000000000000000000000000000000000000008152600401610e3b9190611392565b60405180910390fd5b565b60008060009054906101000a900473ffffffffffffffffffffffffffffffffffffffff169050816000806101000a81548173ffffffffffffffffffffffffffffffffffffffff021916908373ffffffffffffffffffffffffffffffffffffffff1602179055508173ffffffffffffffffffffffffffffffffffffffff168173ffffffffffffffffffffffffffffffffffffffff167f8be0079c531659141344cd1fd0a4f28419497f9722a3daafe3b4186f6b6457e060405160405180910390a35050565b600260015403610f46576040517f3ee5aeb500000000000000000000000000000000000000000000000000000000815260040160405180910390fd5b6002600181905550565b60018081905550565b600033905090565b600081519050919050565b600082825260208201905092915050565b6000819050602082019050919050565b600073ffffffffffffffffffffffffffffffffffffffff82169050919050565b6000610fb882610f8d565b9050919050565b610fc881610fad565b82525050565b6000819050919050565b610fe181610fce565b82525050565b608082016000820151610ffd6000850182610fbf565b5060208201516110106020850182610fbf565b5060408201516110236040850182610fd8565b5060608201516110366060850182610fd8565b50505050565b60006110488383610fe7565b60808301905092915050565b6000602082019050919050565b600061106c82610f61565b6110768185610f6c565b935061108183610f7d565b8060005b838110156110b2578151611099888261103c565b97506110a483611054565b925050600181019050611085565b5085935050505092915050565b600060208201905081810360008301526110d98184611061565b905092915050565b6110ea81610fce565b82525050565b600060608201905061110560008301866110e1565b61111260208301856110e1565b61111f60408301846110e1565b949350505050565b600080fd5b61113581610fad565b811461114057600080fd5b50565b6000813590506111528161112c565b92915050565b61116181610fce565b811461116c57600080fd5b50565b60008135905061117e81611158565b92915050565b6000806040838503121561119b5761119a611127565b5b60006111a985828601611143565b92505060206111ba8582860161116f565b9150509250929050565b6111cd81610fad565b82525050565b60006060820190506111e860008301866111c4565b6111f560208301856110e1565b61120260408301846110e1565b949350505050565b600081519050919050565b600082825260208201905092915050565b6000819050602082019050919050565b60608201600082015161124c6000850182610fbf565b50602082015161125f6020850182610fd8565b5060408201516112726040850182610fd8565b50505050565b60006112848383611236565b60608301905092915050565b6000602082019050919050565b60006112a88261120a565b6112b28185611215565b93506112bd83611226565b8060005b838110156112ee5781516112d58882611278565b97506112e083611290565b9250506001810190506112c1565b5085935050505092915050565b60006020820190508181036000830152611315818461129d565b905092915050565b600060208201905061133260008301846110e1565b92915050565b60006020828403121561134e5761134d611127565b5b600061135c84828501611143565b91505092915050565b60006020828403121561137b5761137a611127565b5b60006113898482850161116f565b91505092915050565b60006020820190506113a760008301846111c4565b92915050565b7f4e487b7100000000000000000000000000000000000000000000000000000000600052601260045260246000fd5b7f4e487b7100000000000000000000000000000000000000000000000000000000600052601160045260246000fd5b600061141682610fce565b915061142183610fce565b925082611431576114306113ad565b5b828204905092915050565b600082825260208201905092915050565b7f4665652063616e6e6f7420657863656564203230250000000000000000000000600082015250565b600061148360158361143c565b915061148e8261144d565b602082019050919050565b600060208201905081810360008301526114b281611476565b9050919050565b7f5061796d656e7420616d6f756e74206d7573742062652067726561746572207460008201527f68616e2030000000000000000000000000000000000000000000000000000000602082015250565b600061151560258361143c565b9150611520826114b9565b604082019050919050565b6000602082019050818103600083015261154481611508565b9050919050565b600061155682610fce565b915061156183610fce565b925082820261156f81610fce565b91508282048414831517611586576115856113dc565b5b5092915050565b600061159882610fce565b91506115a383610fce565b92508282039050818111156115bb576115ba6113dc565b5b92915050565b600081905092915050565b50565b60006115dc6000836115c1565b91506115e7826115cc565b600082019050919050565b60006115fd826115cf565b9150819050919050565b7f5061796d656e74207472616e73666572206661696c6564000000000000000000600082015250565b600061163d60178361143c565b915061164882611607565b602082019050919050565b6000602082019050818103600083015261166c81611630565b9050919050565b600061167e82610fce565b915061168983610fce565b92508282019050808211156116a1576116a06113dc565b5b92915050565b60006116b282610fce565b91507fffffffffffffffffffffffffffffffffffffffffffffffffffffffffffffffff82036116e4576116e36113dc565b5b600182019050919050565b600060408201905061170460008301856110e1565b61171160208301846110e1565b9392505050565b7f496e76616c69642077616c6c6574206164647265737300000000000000000000600082015250565b600061174e60168361143c565b915061175982611718565b602082019050919050565b6000602082019050818103600083015261177d81611741565b905091905056fea2646970667358221220b1fd05caceae690176daccfa3b5a12e283fb26ea8c8b16aa63c4c4b2e58672cb64736f6c63430008140033",
  "linkReferences": {},
  "deployedLinkReferences": {}
}