{
  "_format": "hh-sol-artifact-1",
  "contractName": "IoTDataNFT",
  "sourceName": "contracts/IoTDataNFT.sol",
  "abi": [
    {
      "inputs": [
        {
          "internalType": "address",
          "name": "_marketplace",
          "type": "address"
        },
        {
          "internalType": "address",
          "name": "_accessControl",
          "type": "address"
        }
      ],
      "stateMutability": "nonpayable",
      "type": "constructor"
    },
    {
      "inputs": [
        {
          "internalType": "address",
          "name": "sender",
          "type": "address"
        },
        {
          "internalType": "uint256",
          "name": "tokenId",
          "type": "uint256"
        },
        {
          "internalType": "address",
          "name": "owner",
          "type": "address"
        }
      ],
      "name": "ERC721IncorrectOwner",
      "type": "error"
    },
    {
      "inputs": [
        {
          "internalType": "address",
          "name": "operator",
          "type": "address"
        },
        {
          "internalType": "uint256",
          "name": "tokenId",
          "type": "uint256"
        }
      ],
      "name": "ERC721InsufficientApproval",
      "type": "error"
    },
    {
      "inputs": [
        {
          "internalType": "address",
          "name": "approver",
          "type": "address"
        }
      ],
      "name": "ERC721InvalidApprover",
      "type": "error"
    },
    {
      "inputs": [
        {
          "internalType": "address",
          "name": "operator",
          "type": "address"
        }
      ],
      "name": "ERC721InvalidOperator",
      "type": "error"
    },
    {
      "inputs": [
        {
          "internalType": "address",
          "name": "owner",
          "type": "address"
        }
      ],
      "name": "ERC721InvalidOwner",
      "type": "error"
    },
    {
      "inputs": [
        {
          "internalType": "address",
          "name": "receiver",
          "type": "address"
        }
      ],
      "name": "ERC721InvalidReceiver",
      "type": "error"
    },
    {
      "inputs": [
        {
          "internalType": "address",
          "name": "sender",
          "type": "address"
        }
      ],
      "name": "ERC721InvalidSender",
      "type": "error"
    },
    {
      "inputs": [
        {
          "internalType": "uint256",
          "name": "tokenId",
          "type": "uint256"
        }
      ],
      "name": "ERC721NonexistentToken",
      "type": "error"
    },
    {
      "anonymous": false,
      "inputs": [
        {
          "indexed": true,
          "internalType": "address",
          "name": "owner",
          "type": "address"
        },
        {
          "indexed": true,
          "internalType": "address",
          "name": "approved",
          "type": "address"
        },
        {
          "indexed": true,
          "internalType": "uint256",
          "name": "tokenId",
          "type": "uint256"
        }
      ],
      "name": "Approval",
      "type": "event"
    },
    {
      "anonymous": false,
      "inputs": [
        {
          "indexed": true,
          "internalType": "address",
          "name": "owner",
          "type": "address"
        },
        {
          "indexed": true,
          "internalType": "address",
          "name": "operator",
          "type": "address"
        },
        {
          "indexed": false,
          "internalType": "bool",
          "name": "approved",
          "type": "bool"
        }
      ],
      "name": "ApprovalForAll",
      "type": "event"
    },
    {
      "anonymous": false,
      "inputs": [
        {
          "indexed": false,
          "internalType": "uint256",
          "name": "_fromTokenId",
          "type": "uint256"
        },
        {
          "indexed": false,
          "internalType": "uint256",
          "name": "_toTokenId",
          "type": "uint256"
        }
      ],
      "name": "BatchMetadataUpdate",
      "type": "event"
    },
    {
      "anonymous": false,
      "inputs": [
        {
          "indexed": true,
          "internalType": "uint256",
          "name": "tokenId",
          "type": "uint256"
        },
        {
          "indexed": true,
          "internalType": "address",
          "name": "owner",
          "type": "address"
        },
        {
          "indexed": false,
          "internalType": "string",
          "name": "deviceId",
          "type": "string"
        },
        {
          "indexed": false,
          "internalType": "uint256",
          "name": "timestamp",
          "type": "uint256"
        }
      ],
      "name": "DataNFTMinted",
      "type": "event"
    },
    {
      "anonymous": false,
      "inputs": [
        {
          "indexed": false,
          "internalType": "uint256",
          "name": "_tokenId",
          "type": "uint256"
        }
      ],
      "name": "MetadataUpdate",
      "type": "event"
    },
    {
      "anonymous": false,
      "inputs": [
        {
          "indexed": true,
          "internalType": "address",
          "name": "from",
          "type": "address"
        },
        {
          "indexed": true,
          "internalType": "address",
          "name": "to",
          "type": "address"
        },
        {
          "indexed": true,
          "internalType": "uint256",
          "name": "tokenId",
          "type": "uint256"
        }
      ],
      "name": "Transfer",
      "type": "event"
    },
    {
      "anonymous": false,
      "inputs": [
        {
          "indexed": true,
          "internalType": "uint256",
          "name": "tokenId",
          "type": "uint256"
        },
        {
          "indexed": false,
          "internalType": "bool",
          "name": "verified",
          "type": "bool"
        }
      ],
      "name": "VerificationUpdated",
      "type": "event"
    },
    {
      "inputs": [],
      "name": "accessControlContract",
      "outputs": [
        {
          "internalType": "contract IoTDataAccessControl",
          "name": "",
          "type": "address"
        }
      ],
      "stateMutability": "view",
      "type": "function"
    },
    {
      "inputs": [
        {
          "internalType": "address",
          "name": "to",
          "type": "address"
        },
        {
          "internalType": "uint256",
          "name": "tokenId",
          "type": "uint256"
        }
      ],
      "name": "approve",
      "outputs": [],
      "stateMutability": "nonpayable",
      "type": "function"
    },
    {
      "inputs": [
        {
          "internalType": "address",
          "name": "owner",
          "type": "address"
        }
      ],
      "name": "balanceOf",
      "outputs": [
        {
          "internalType": "uint256",
          "name": "",
          "type": "uint256"
        }
      ],
      "stateMutability": "view",
      "type": "function"
    },
    {
      "inputs": [],
      "name": "dataVerificationContract",
      "outputs": [
        {
          "internalType": "address",
          "name": "",
          "type": "address"
        }
      ],
      "stateMutability": "view",
      "type": "function"
    },
    {
      "inputs": [],
      "name": "getAllUnverifiedNFTs",
      "outputs": [
        {
          "components": [
            {
              "internalType": "uint256",
              "name": "tokenId",
              "type": "uint256"
            },
            {
              "internalType": "address",
              "name": "owner",
              "type": "address"
            },
            {
              "internalType": "string",
              "name": "uri",
              "type": "string"
            },
            {
              "internalType": "string",
              "name": "deviceId",
              "type": "string"
            },
            {
              "internalType": "uint256",
              "name": "timestamp",
              "type": "uint256"
            },
            {
              "internalType": "string",
              "name": "dataType",
              "type": "string"
            },
            {
              "internalType": "string",
              "name": "location",
              "type": "string"
            }
          ],
          "internalType": "struct IoTDataNFT.TokenInfo[]",
          "name": "",
          "type": "tuple[]"
        }
      ],
      "stateMutability": "view",
      "type": "function"
    },
    {
      "inputs": [],
      "name": "getAllVerifiedNFTs",
      "outputs": [
        {
          "components": [
            {
              "internalType": "uint256",
              "name": "tokenId",
              "type": "uint256"
            },
            {
              "internalType": "address",
              "name": "owner",
              "type": "address"
            },
            {
              "internalType": "string",
              "name": "uri",
              "type": "string"
            },
            {
              "internalType": "string",
              "name": "deviceId",
              "type": "string"
            },
            {
              "internalType": "uint256",
              "name": "timestamp",
              "type": "uint256"
            },
            {
              "internalType": "string",
              "name": "dataType",
              "type": "string"
            },
            {
              "internalType": "string",
              "name": "location",
              "type": "string"
            }
          ],
          "internalType": "struct IoTDataNFT.TokenInfo[]",
          "name": "",
          "type": "tuple[]"
        }
      ],
      "stateMutability": "view",
      "type": "function"
    },
    {
      "inputs": [
        {
          "internalType": "uint256",
          "name": "tokenId",
          "type": "uint256"
        }
      ],
      "name": "getApproved",
      "outputs": [
        {
          "internalType": "address",
          "name": "",
          "type": "address"
        }
      ],
      "stateMutability": "view",
      "type": "function"
    },
    {
      "inputs": [
        {
          "internalType": "address",
          "name": "owner",
          "type": "address"
        },
        {
          "internalType": "address",
          "name": "operator",
          "type": "address"
        }
      ],
      "name": "isApprovedForAll",
      "outputs": [
        {
          "internalType": "bool",
          "name": "",
          "type": "bool"
        }
      ],
      "stateMutability": "view",
      "type": "function"
    },
    {
      "inputs": [
        {
          "internalType": "uint256",
          "name": "",
          "type": "uint256"
        }
      ],
      "name": "isVerified",
      "outputs": [
        {
          "internalType": "bool",
          "name": "",
          "type": "bool"
        }
      ],
      "stateMutability": "view",
      "type": "function"
    },
    {
      "inputs": [],
      "name": "marketplaceAddress",
      "outputs": [
        {
          "internalType": "address",
          "name": "",
          "type": "address"
        }
      ],
      "stateMutability": "view",
      "type": "function"
    },
    {
      "inputs": [],
      "name": "name",
      "outputs": [
        {
          "internalType": "string",
          "name": "",
          "type": "string"
        }
      ],
      "stateMutability": "view",
      "type": "function"
    },
    {
      "inputs": [
        {
          "internalType": "uint256",
          "name": "tokenId",
          "type": "uint256"
        }
      ],
      "name": "ownerOf",
      "outputs": [
        {
          "internalType": "address",
          "name": "",
          "type": "address"
        }
      ],
      "stateMutability": "view",
      "type": "function"
    },
    {
      "inputs": [
        {
          "internalType": "address",
          "name": "to",
          "type": "address"
        },
        {
          "internalType": "string",
          "name": "uri",
          "type": "string"
        },
        {
          "internalType": "string",
          "name": "deviceId",
          "type": "string"
        },
        {
          "internalType": "string",
          "name": "dataType",
          "type": "string"
        },
        {
          "internalType": "string",
          "name": "location",
          "type": "string"
        }
      ],
      "name": "safeMint",
      "outputs": [
        {
          "internalType": "uint256",
          "name": "",
          "type": "uint256"
        }
      ],
      "stateMutability": "nonpayable",
      "type": "function"
    },
    {
      "inputs": [
        {
          "internalType": "address",
          "name": "from",
          "type": "address"
        },
        {
          "internalType": "address",
          "name": "to",
          "type": "address"
        },
        {
          "internalType": "uint256",
          "name": "tokenId",
          "type": "uint256"
        }
      ],
      "name": "safeTransferFrom",
      "outputs": [],
      "stateMutability": "nonpayable",
      "type": "function"
    },
    {
      "inputs": [
        {
          "internalType": "address",
          "name": "from",
          "type": "address"
        },
        {
          "internalType": "address",
          "name": "to",
          "type": "address"
        },
        {
          "internalType": "uint256",
          "name": "tokenId",
          "type": "uint256"
        },
        {
          "internalType": "bytes",
          "name": "data",
          "type": "bytes"
        }
      ],
      "name": "safeTransferFrom",
      "outputs": [],
      "stateMutability": "nonpayable",
      "type": "function"
    },
    {
      "inputs": [
        {
          "internalType": "address",
          "name": "operator",
          "type": "address"
        },
        {
          "internalType": "bool",
          "name": "approved",
          "type": "bool"
        }
      ],
      "name": "setApprovalForAll",
      "outputs": [],
      "stateMutability": "nonpayable",
      "type": "function"
    },
    {
      "inputs": [
        {
          "internalType": "address",
          "name": "_verificationContract",
          "type": "address"
        }
      ],
      "name": "setDataVerificationContract",
      "outputs": [],
      "stateMutability": "nonpayable",
      "type": "function"
    },
    {
      "inputs": [
        {
          "internalType": "bytes4",
          "name": "interfaceId",
          "type": "bytes4"
        }
      ],
      "name": "supportsInterface",
      "outputs": [
        {
          "internalType": "bool",
          "name": "",
          "type": "bool"
        }
      ],
      "stateMutability": "view",
      "type": "function"
    },
    {
      "inputs": [],
      "name": "symbol",
      "outputs": [
        {
          "internalType": "string",
          "name": "",
          "type": "string"
        }
      ],
      "stateMutability": "view",
      "type": "function"
    },
    {
      "inputs": [
        {
          "internalType": "uint256",
          "name": "tokenId",
          "type": "uint256"
        }
      ],
      "name": "tokenURI",
      "outputs": [
        {
          "internalType": "string",
          "name": "",
          "type": "string"
        }
      ],
      "stateMutability": "view",
      "type": "function"
    },
    {
      "inputs": [
        {
          "internalType": "address",
          "name": "from",
          "type": "address"
        },
        {
          "internalType": "address",
          "name": "to",
          "type": "address"
        },
        {
          "internalType": "uint256",
          "name": "tokenId",
          "type": "uint256"
        }
      ],
      "name": "transferFrom",
      "outputs": [],
      "stateMutability": "nonpayable",
      "type": "function"
    },
    {
      "inputs": [
        {
          "internalType": "uint256",
          "name": "tokenId",
          "type": "uint256"
        },
        {
          "internalType": "bool",
          "name": "verified",
          "type": "bool"
        }
      ],
      "name": "updateVerificationStatus",
      "outputs": [],
      "stateMutability": "nonpayable",
      "type": "function"
    }
  ],
  "bytecode": "0x60a060405234801561001057600080fd5b50604051613d49380380613d498339818101604052810190610032919061019f565b6040518060400160405280600a81526020017f496f54446174614e4654000000000000000000000000000000000000000000008152506040518060400160405280600481526020017f494f544e0000000000000000000000000000000000000000000000000000000081525081600090816100ad919061042f565b5080600190816100bd919061042f565b5050508173ffffffffffffffffffffffffffffffffffffffff1660808173ffffffffffffffffffffffffffffffffffffffff168152505080600960006101000a81548173ffffffffffffffffffffffffffffffffffffffff021916908373ffffffffffffffffffffffffffffffffffffffff1602179055505050610501565b600080fd5b600073ffffffffffffffffffffffffffffffffffffffff82169050919050565b600061016c82610141565b9050919050565b61017c81610161565b811461018757600080fd5b50565b60008151905061019981610173565b92915050565b600080604083850312156101b6576101b561013c565b5b60006101c48582860161018a565b92505060206101d58582860161018a565b9150509250929050565b600081519050919050565b7f4e487b7100000000000000000000000000000000000000000000000000000000600052604160045260246000fd5b7f4e487b7100000000000000000000000000000000000000000000000000000000600052602260045260246000fd5b6000600282049050600182168061026057607f821691505b60208210810361027357610272610219565b5b50919050565b60008190508160005260206000209050919050565b60006020601f8301049050919050565b600082821b905092915050565b6000600883026102db7fffffffffffffffffffffffffffffffffffffffffffffffffffffffffffffffff8261029e565b6102e5868361029e565b95508019841693508086168417925050509392505050565b6000819050919050565b6000819050919050565b600061032c610327610322846102fd565b610307565b6102fd565b9050919050565b6000819050919050565b61034683610311565b61035a61035282610333565b8484546102ab565b825550505050565b600090565b61036f610362565b61037a81848461033d565b505050565b5b8181101561039e57610393600082610367565b600181019050610380565b5050565b601f8211156103e3576103b481610279565b6103bd8461028e565b810160208510156103cc578190505b6103e06103d88561028e565b83018261037f565b50505b505050565b600082821c905092915050565b6000610406600019846008026103e8565b1980831691505092915050565b600061041f83836103f5565b9150826002028217905092915050565b610438826101df565b67ffffffffffffffff811115610451576104506101ea565b5b61045b8254610248565b6104668282856103a2565b600060209050601f8311600181146104995760008415610487578287015190505b6104918582610413565b8655506104f9565b601f1984166104a786610279565b60005b828110156104cf578489015182556001820191506020850194506020810190506104aa565b868310156104ec57848901516104e8601f8916826103f5565b8355505b6001600288020188555050505b505050505050565b60805161382d61051c6000396000610dda015261382d6000f3fe608060405234801561001057600080fd5b50600436106101425760003560e01c806370a08231116100b8578063b88d4fde1161007c578063b88d4fde14610389578063c87b56dd146103a5578063daa17f49146103d5578063dec8bd17146103f3578063e985e9c514610411578063f320beac1461044157610142565b806370a08231146102e3578063751dcddb146103135780638b0cd50b1461033157806395d89b411461034f578063a22cb4651461036d57610142565b806323b872dd1161010a57806323b872dd146101ff578063296c2b3a1461021b57806337b6d96b1461024b57806342842e0e1461027b5780636352211e14610297578063707a4e27146102c757610142565b806301ffc9a71461014757806306fdde0314610177578063081812fc14610195578063095ea7b3146101c557806321fcc185146101e1575b600080fd5b610161600480360381019061015c91906125da565b61045d565b60405161016e9190612622565b60405180910390f35b61017f61046f565b60405161018c91906126cd565b60405180910390f35b6101af60048036038101906101aa9190612725565b610501565b6040516101bc9190612793565b60405180910390f35b6101df60048036038101906101da91906127da565b61051d565b005b6101e9610533565b6040516101f69190612879565b60405180910390f35b61021960048036038101906102149190612894565b610559565b005b61023560048036038101906102309190612a1c565b61065b565b6040516102429190612b16565b60405180910390f35b61026560048036038101906102609190612725565b610948565b6040516102729190612622565b60405180910390f35b61029560048036038101906102909190612894565b610968565b005b6102b160048036038101906102ac9190612725565b610988565b6040516102be9190612793565b60405180910390f35b6102e160048036038101906102dc9190612b31565b61099a565b005b6102fd60048036038101906102f89190612b31565b610aa7565b60405161030a9190612b16565b60405180910390f35b61031b610b61565b6040516103289190612793565b60405180910390f35b610339610b87565b6040516103469190612d39565b60405180910390f35b610357610cf9565b60405161036491906126cd565b60405180910390f35b61038760048036038101906103829190612d87565b610d8b565b005b6103a3600480360381019061039e9190612e68565b610da1565b005b6103bf60048036038101906103ba9190612725565b610dc6565b6040516103cc91906126cd565b60405180910390f35b6103dd610dd8565b6040516103ea9190612793565b60405180910390f35b6103fb610dfc565b6040516104089190612d39565b60405180910390f35b61042b60048036038101906104269190612eeb565b610f6c565b6040516104389190612622565b60405180910390f35b61045b60048036038101906104569190612f2b565b611000565b005b60006104688261121a565b9050919050565b60606000805461047e90612f9a565b80601f01602080910402602001604051908101604052809291908181526020018280546104aa90612f9a565b80156104f75780601f106104cc576101008083540402835291602001916104f7565b820191906000526020600020905b8154815290600101906020018083116104da57829003601f168201915b5050505050905090565b600061050c8261127b565b5061051682611303565b9050919050565b61052f828261052a611340565b611348565b5050565b600960009054906101000a900473ffffffffffffffffffffffffffffffffffffffff1681565b600073ffffffffffffffffffffffffffffffffffffffff168273ffffffffffffffffffffffffffffffffffffffff16036105cb5760006040517f64a0ae920000000000000000000000000000000000000000000000000000000081526004016105c29190612793565b60405180910390fd5b60006105df83836105da611340565b61135a565b90508373ffffffffffffffffffffffffffffffffffffffff168173ffffffffffffffffffffffffffffffffffffffff1614610655578382826040517f64283d7b00000000000000000000000000000000000000000000000000000000815260040161064c93929190612fcb565b60405180910390fd5b50505050565b6000600960009054906101000a900473ffffffffffffffffffffffffffffffffffffffff1673ffffffffffffffffffffffffffffffffffffffff166391d14854600960009054906101000a900473ffffffffffffffffffffffffffffffffffffffff1673ffffffffffffffffffffffffffffffffffffffff1663d53913936040518163ffffffff1660e01b8152600401602060405180830381865afa158015610708573d6000803e3d6000fd5b505050506040513d601f19601f8201168201806040525081019061072c9190613038565b336040518363ffffffff1660e01b815260040161074a929190613074565b602060405180830381865afa158015610767573d6000803e3d6000fd5b505050506040513d601f19601f8201168201806040525081019061078b91906130b2565b6107ca576040517f08c379a00000000000000000000000000000000000000000000000000000000081526004016107c19061312b565b60405180910390fd5b6000600760008154809291906107df9061317a565b9190505590506107ef8782611574565b6107f98187611592565b604051806080016040528086815260200142815260200185815260200184815250600a600083815260200190815260200160002060008201518160000190816108429190613364565b506020820151816001015560408201518160020190816108629190613364565b5060608201518160030190816108789190613364565b50905050600c8560405161088c9190613472565b9081526020016040518091039020819080600181540180825580915050600190039060005260206000200160009091909190915055600d8190806001815401808255809150506001900390600052602060002001600090919091909150558673ffffffffffffffffffffffffffffffffffffffff16817fcf0618c506ca527972552bed8cb18b4f15577efa47200694c895b07047651c2a8742604051610933929190613489565b60405180910390a38091505095945050505050565b600b6020528060005260406000206000915054906101000a900460ff1681565b61098383838360405180602001604052806000815250610da1565b505050565b60006109938261127b565b9050919050565b600073ffffffffffffffffffffffffffffffffffffffff168173ffffffffffffffffffffffffffffffffffffffff1603610a09576040517f08c379a0000000000000000000000000000000000000000000000000000000008152600401610a0090613505565b60405180910390fd5b60008173ffffffffffffffffffffffffffffffffffffffff163b11610a63576040517f08c379a0000000000000000000000000000000000000000000000000000000008152600401610a5a90613571565b60405180910390fd5b80600860006101000a81548173ffffffffffffffffffffffffffffffffffffffff021916908373ffffffffffffffffffffffffffffffffffffffff16021790555050565b60008073ffffffffffffffffffffffffffffffffffffffff168273ffffffffffffffffffffffffffffffffffffffff1603610b1a5760006040517f89c62b64000000000000000000000000000000000000000000000000000000008152600401610b119190612793565b60405180910390fd5b600360008373ffffffffffffffffffffffffffffffffffffffff1673ffffffffffffffffffffffffffffffffffffffff168152602001908152602001600020549050919050565b600860009054906101000a900473ffffffffffffffffffffffffffffffffffffffff1681565b60606000805b600d80549050811015610bfa57600b6000600d8381548110610bb257610bb1613591565b5b9060005260206000200154815260200190815260200160002060009054906101000a900460ff1615610bed578180610be99061317a565b9250505b8080600101915050610b8d565b5060008167ffffffffffffffff811115610c1757610c166128f1565b5b604051908082528060200260200182016040528015610c5057816020015b610c3d61251b565b815260200190600190039081610c355790505b5090506000805b600d80549050811015610cef576000600d8281548110610c7a57610c79613591565b5b90600052602060002001549050600b600082815260200190815260200160002060009054906101000a900460ff1615610ce157610cb6816115ee565b848480610cc29061317a565b955081518110610cd557610cd4613591565b5b60200260200101819052505b508080600101915050610c57565b5081935050505090565b606060018054610d0890612f9a565b80601f0160208091040260200160405190810160405280929190818152602001828054610d3490612f9a565b8015610d815780601f10610d5657610100808354040283529160200191610d81565b820191906000526020600020905b815481529060010190602001808311610d6457829003601f168201915b5050505050905090565b610d9d610d96611340565b8383611816565b5050565b610dac848484610559565b610dc0610db7611340565b85858585611985565b50505050565b6060610dd182611b36565b9050919050565b7f000000000000000000000000000000000000000000000000000000000000000081565b60606000805b600d80549050811015610e6e57600b6000600d8381548110610e2757610e26613591565b5b9060005260206000200154815260200190815260200160002060009054906101000a900460ff16610e61578180610e5d9061317a565b9250505b8080600101915050610e02565b5060008167ffffffffffffffff811115610e8b57610e8a6128f1565b5b604051908082528060200260200182016040528015610ec457816020015b610eb161251b565b815260200190600190039081610ea95790505b5090506000805b600d80549050811015610f62576000600d8281548110610eee57610eed613591565b5b90600052602060002001549050600b600082815260200190815260200160002060009054906101000a900460ff16610f5457610f29816115ee565b848480610f359061317a565b955081518110610f4857610f47613591565b5b60200260200101819052505b508080600101915050610ecb565b5081935050505090565b6000600560008473ffffffffffffffffffffffffffffffffffffffff1673ffffffffffffffffffffffffffffffffffffffff16815260200190815260200160002060008373ffffffffffffffffffffffffffffffffffffffff1673ffffffffffffffffffffffffffffffffffffffff16815260200190815260200160002060009054906101000a900460ff16905092915050565b600960009054906101000a900473ffffffffffffffffffffffffffffffffffffffff1673ffffffffffffffffffffffffffffffffffffffff166333105218336040518263ffffffff1660e01b815260040161105b9190612793565b602060405180830381865afa158015611078573d6000803e3d6000fd5b505050506040513d601f19601f8201168201806040525081019061109c91906130b2565b6110db576040517f08c379a00000000000000000000000000000000000000000000000000000000081526004016110d29061312b565b60405180910390fd5b600860009054906101000a900473ffffffffffffffffffffffffffffffffffffffff1673ffffffffffffffffffffffffffffffffffffffff163373ffffffffffffffffffffffffffffffffffffffff161461116b576040517f08c379a00000000000000000000000000000000000000000000000000000000081526004016111629061360c565b60405180910390fd5b61117482611c49565b6111b3576040517f08c379a00000000000000000000000000000000000000000000000000000000081526004016111aa90613678565b60405180910390fd5b80600b600084815260200190815260200160002060006101000a81548160ff021916908315150217905550817f9a5939a701e315312ffd484f4e922faaa665911da46327fa44cf9991529200e78260405161120e9190612622565b60405180910390a25050565b6000634906490660e01b7bffffffffffffffffffffffffffffffffffffffffffffffffffffffff1916827bffffffffffffffffffffffffffffffffffffffffffffffffffffffff19161480611274575061127382611c8a565b5b9050919050565b60008061128783611d6c565b9050600073ffffffffffffffffffffffffffffffffffffffff168173ffffffffffffffffffffffffffffffffffffffff16036112fa57826040517f7e2732890000000000000000000000000000000000000000000000000000000081526004016112f19190612b16565b60405180910390fd5b80915050919050565b60006004600083815260200190815260200160002060009054906101000a900473ffffffffffffffffffffffffffffffffffffffff169050919050565b600033905090565b6113558383836001611da9565b505050565b60008061136684611d6c565b9050600073ffffffffffffffffffffffffffffffffffffffff168373ffffffffffffffffffffffffffffffffffffffff16146113a8576113a7818486611f6e565b5b600073ffffffffffffffffffffffffffffffffffffffff168173ffffffffffffffffffffffffffffffffffffffff1614611439576113ea600085600080611da9565b6001600360008373ffffffffffffffffffffffffffffffffffffffff1673ffffffffffffffffffffffffffffffffffffffff168152602001908152602001600020600082825403925050819055505b600073ffffffffffffffffffffffffffffffffffffffff168573ffffffffffffffffffffffffffffffffffffffff16146114bc576001600360008773ffffffffffffffffffffffffffffffffffffffff1673ffffffffffffffffffffffffffffffffffffffff168152602001908152602001600020600082825401925050819055505b846002600086815260200190815260200160002060006101000a81548173ffffffffffffffffffffffffffffffffffffffff021916908373ffffffffffffffffffffffffffffffffffffffff160217905550838573ffffffffffffffffffffffffffffffffffffffff168273ffffffffffffffffffffffffffffffffffffffff167fddf252ad1be2c89b69c2b068fc378daa952ba7f163c4a11628f55a4df523b3ef60405160405180910390a4809150509392505050565b61158e828260405180602001604052806000815250612032565b5050565b806006600084815260200190815260200160002090816115b29190613364565b507ff8e1a15aba9398e019f0b49df1a4fde98ee17ae345cb5f6b5e2c27f5033e8ce7826040516115e29190612b16565b60405180910390a15050565b6115f661251b565b6000600a600084815260200190815260200160002090506040518060e0016040528084815260200161162785610988565b73ffffffffffffffffffffffffffffffffffffffff16815260200161164b85610dc6565b815260200182600001805461165f90612f9a565b80601f016020809104026020016040519081016040528092919081815260200182805461168b90612f9a565b80156116d85780601f106116ad576101008083540402835291602001916116d8565b820191906000526020600020905b8154815290600101906020018083116116bb57829003601f168201915b50505050508152602001826001015481526020018260020180546116fb90612f9a565b80601f016020809104026020016040519081016040528092919081815260200182805461172790612f9a565b80156117745780601f1061174957610100808354040283529160200191611774565b820191906000526020600020905b81548152906001019060200180831161175757829003601f168201915b5050505050815260200182600301805461178d90612f9a565b80601f01602080910402602001604051908101604052809291908181526020018280546117b990612f9a565b80156118065780601f106117db57610100808354040283529160200191611806565b820191906000526020600020905b8154815290600101906020018083116117e957829003601f168201915b5050505050815250915050919050565b600073ffffffffffffffffffffffffffffffffffffffff168273ffffffffffffffffffffffffffffffffffffffff160361188757816040517f5b08ba1800000000000000000000000000000000000000000000000000000000815260040161187e9190612793565b60405180910390fd5b80600560008573ffffffffffffffffffffffffffffffffffffffff1673ffffffffffffffffffffffffffffffffffffffff16815260200190815260200160002060008473ffffffffffffffffffffffffffffffffffffffff1673ffffffffffffffffffffffffffffffffffffffff16815260200190815260200160002060006101000a81548160ff0219169083151502179055508173ffffffffffffffffffffffffffffffffffffffff168373ffffffffffffffffffffffffffffffffffffffff167f17307eab39ab6107e8899845ad3d59bd9653f200f220920489ca2b5937696c31836040516119789190612622565b60405180910390a3505050565b60008373ffffffffffffffffffffffffffffffffffffffff163b1115611b2f578273ffffffffffffffffffffffffffffffffffffffff1663150b7a02868685856040518563ffffffff1660e01b81526004016119e494939291906136ed565b6020604051808303816000875af1925050508015611a2057506040513d601f19601f82011682018060405250810190611a1d919061374e565b60015b611aa4573d8060008114611a50576040519150601f19603f3d011682016040523d82523d6000602084013e611a55565b606091505b506000815103611a9c57836040517f64a0ae92000000000000000000000000000000000000000000000000000000008152600401611a939190612793565b60405180910390fd5b805181602001fd5b63150b7a0260e01b7bffffffffffffffffffffffffffffffffffffffffffffffffffffffff1916817bffffffffffffffffffffffffffffffffffffffffffffffffffffffff191614611b2d57836040517f64a0ae92000000000000000000000000000000000000000000000000000000008152600401611b249190612793565b60405180910390fd5b505b5050505050565b6060611b418261127b565b506000600660008481526020019081526020016000208054611b6290612f9a565b80601f0160208091040260200160405190810160405280929190818152602001828054611b8e90612f9a565b8015611bdb5780601f10611bb057610100808354040283529160200191611bdb565b820191906000526020600020905b815481529060010190602001808311611bbe57829003601f168201915b505050505090506000611bec612056565b90506000815103611c01578192505050611c44565b600082511115611c36578082604051602001611c1e92919061377b565b60405160208183030381529060405292505050611c44565b611c3f8461206d565b925050505b919050565b60008073ffffffffffffffffffffffffffffffffffffffff16611c6b83611d6c565b73ffffffffffffffffffffffffffffffffffffffff1614159050919050565b60007f80ac58cd000000000000000000000000000000000000000000000000000000007bffffffffffffffffffffffffffffffffffffffffffffffffffffffff1916827bffffffffffffffffffffffffffffffffffffffffffffffffffffffff19161480611d5557507f5b5e139f000000000000000000000000000000000000000000000000000000007bffffffffffffffffffffffffffffffffffffffffffffffffffffffff1916827bffffffffffffffffffffffffffffffffffffffffffffffffffffffff1916145b80611d655750611d64826120d6565b5b9050919050565b60006002600083815260200190815260200160002060009054906101000a900473ffffffffffffffffffffffffffffffffffffffff169050919050565b8080611de25750600073ffffffffffffffffffffffffffffffffffffffff168273ffffffffffffffffffffffffffffffffffffffff1614155b15611f16576000611df28461127b565b9050600073ffffffffffffffffffffffffffffffffffffffff168373ffffffffffffffffffffffffffffffffffffffff1614158015611e5d57508273ffffffffffffffffffffffffffffffffffffffff168173ffffffffffffffffffffffffffffffffffffffff1614155b8015611e705750611e6e8184610f6c565b155b15611eb257826040517fa9fbf51f000000000000000000000000000000000000000000000000000000008152600401611ea99190612793565b60405180910390fd5b8115611f1457838573ffffffffffffffffffffffffffffffffffffffff168273ffffffffffffffffffffffffffffffffffffffff167f8c5be1e5ebec7d5bd14f71427d1e84f3dd0314c0f7b2291e5b200ac8c7c3b92560405160405180910390a45b505b836004600085815260200190815260200160002060006101000a81548173ffffffffffffffffffffffffffffffffffffffff021916908373ffffffffffffffffffffffffffffffffffffffff16021790555050505050565b611f79838383612140565b61202d57600073ffffffffffffffffffffffffffffffffffffffff168373ffffffffffffffffffffffffffffffffffffffff1603611fee57806040517f7e273289000000000000000000000000000000000000000000000000000000008152600401611fe59190612b16565b60405180910390fd5b81816040517f177e802f00000000000000000000000000000000000000000000000000000000815260040161202492919061379f565b60405180910390fd5b505050565b61203c8383612201565b612051612047611340565b6000858585611985565b505050565b606060405180602001604052806000815250905090565b60606120788261127b565b506000612083612056565b905060008151116120a357604051806020016040528060008152506120ce565b806120ad846122fa565b6040516020016120be92919061377b565b6040516020818303038152906040525b915050919050565b60007f01ffc9a7000000000000000000000000000000000000000000000000000000007bffffffffffffffffffffffffffffffffffffffffffffffffffffffff1916827bffffffffffffffffffffffffffffffffffffffffffffffffffffffff1916149050919050565b60008073ffffffffffffffffffffffffffffffffffffffff168373ffffffffffffffffffffffffffffffffffffffff16141580156121f857508273ffffffffffffffffffffffffffffffffffffffff168473ffffffffffffffffffffffffffffffffffffffff1614806121b957506121b88484610f6c565b5b806121f757508273ffffffffffffffffffffffffffffffffffffffff166121df83611303565b73ffffffffffffffffffffffffffffffffffffffff16145b5b90509392505050565b600073ffffffffffffffffffffffffffffffffffffffff168273ffffffffffffffffffffffffffffffffffffffff16036122735760006040517f64a0ae9200000000000000000000000000000000000000000000000000000000815260040161226a9190612793565b60405180910390fd5b60006122818383600061135a565b9050600073ffffffffffffffffffffffffffffffffffffffff168173ffffffffffffffffffffffffffffffffffffffff16146122f55760006040517f73c6ac6e0000000000000000000000000000000000000000000000000000000081526004016122ec9190612793565b60405180910390fd5b505050565b606060006001612309846123c8565b01905060008167ffffffffffffffff811115612328576123276128f1565b5b6040519080825280601f01601f19166020018201604052801561235a5781602001600182028036833780820191505090505b509050600082602001820190505b6001156123bd578080600190039150507f3031323334353637383961626364656600000000000000000000000000000000600a86061a8153600a85816123b1576123b06137c8565b5b04945060008503612368575b819350505050919050565b600080600090507a184f03e93ff9f4daa797ed6e38ed64bf6a1f0100000000000000008310612426577a184f03e93ff9f4daa797ed6e38ed64bf6a1f010000000000000000838161241c5761241b6137c8565b5b0492506040810190505b6d04ee2d6d415b85acef81000000008310612463576d04ee2d6d415b85acef81000000008381612459576124586137c8565b5b0492506020810190505b662386f26fc10000831061249257662386f26fc100008381612488576124876137c8565b5b0492506010810190505b6305f5e10083106124bb576305f5e10083816124b1576124b06137c8565b5b0492506008810190505b61271083106124e05761271083816124d6576124d56137c8565b5b0492506004810190505b6064831061250357606483816124f9576124f86137c8565b5b0492506002810190505b600a8310612512576001810190505b80915050919050565b6040518060e0016040528060008152602001600073ffffffffffffffffffffffffffffffffffffffff16815260200160608152602001606081526020016000815260200160608152602001606081525090565b6000604051905090565b600080fd5b600080fd5b60007fffffffff0000000000000000000000000000000000000000000000000000000082169050919050565b6125b781612582565b81146125c257600080fd5b50565b6000813590506125d4816125ae565b92915050565b6000602082840312156125f0576125ef612578565b5b60006125fe848285016125c5565b91505092915050565b60008115159050919050565b61261c81612607565b82525050565b60006020820190506126376000830184612613565b92915050565b600081519050919050565b600082825260208201905092915050565b60005b8381101561267757808201518184015260208101905061265c565b60008484015250505050565b6000601f19601f8301169050919050565b600061269f8261263d565b6126a98185612648565b93506126b9818560208601612659565b6126c281612683565b840191505092915050565b600060208201905081810360008301526126e78184612694565b905092915050565b6000819050919050565b612702816126ef565b811461270d57600080fd5b50565b60008135905061271f816126f9565b92915050565b60006020828403121561273b5761273a612578565b5b600061274984828501612710565b91505092915050565b600073ffffffffffffffffffffffffffffffffffffffff82169050919050565b600061277d82612752565b9050919050565b61278d81612772565b82525050565b60006020820190506127a86000830184612784565b92915050565b6127b781612772565b81146127c257600080fd5b50565b6000813590506127d4816127ae565b92915050565b600080604083850312156127f1576127f0612578565b5b60006127ff858286016127c5565b925050602061281085828601612710565b9150509250929050565b6000819050919050565b600061283f61283a61283584612752565b61281a565b612752565b9050919050565b600061285182612824565b9050919050565b600061286382612846565b9050919050565b61287381612858565b82525050565b600060208201905061288e600083018461286a565b92915050565b6000806000606084860312156128ad576128ac612578565b5b60006128bb868287016127c5565b93505060206128cc868287016127c5565b92505060406128dd86828701612710565b9150509250925092565b600080fd5b600080fd5b7f4e487b7100000000000000000000000000000000000000000000000000000000600052604160045260246000fd5b61292982612683565b810181811067ffffffffffffffff82111715612948576129476128f1565b5b80604052505050565b600061295b61256e565b90506129678282612920565b919050565b600067ffffffffffffffff821115612987576129866128f1565b5b61299082612683565b9050602081019050919050565b82818337600083830152505050565b60006129bf6129ba8461296c565b612951565b9050828152602081018484840111156129db576129da6128ec565b5b6129e684828561299d565b509392505050565b600082601f830112612a0357612a026128e7565b5b8135612a138482602086016129ac565b91505092915050565b600080600080600060a08688031215612a3857612a37612578565b5b6000612a46888289016127c5565b955050602086013567ffffffffffffffff811115612a6757612a6661257d565b5b612a73888289016129ee565b945050604086013567ffffffffffffffff811115612a9457612a9361257d565b5b612aa0888289016129ee565b935050606086013567ffffffffffffffff811115612ac157612ac061257d565b5b612acd888289016129ee565b925050608086013567ffffffffffffffff811115612aee57612aed61257d565b5b612afa888289016129ee565b9150509295509295909350565b612b10816126ef565b82525050565b6000602082019050612b2b6000830184612b07565b92915050565b600060208284031215612b4757612b46612578565b5b6000612b55848285016127c5565b91505092915050565b600081519050919050565b600082825260208201905092915050565b6000819050602082019050919050565b612b93816126ef565b82525050565b612ba281612772565b82525050565b600082825260208201905092915050565b6000612bc48261263d565b612bce8185612ba8565b9350612bde818560208601612659565b612be781612683565b840191505092915050565b600060e083016000830151612c0a6000860182612b8a565b506020830151612c1d6020860182612b99565b5060408301518482036040860152612c358282612bb9565b91505060608301518482036060860152612c4f8282612bb9565b9150506080830151612c646080860182612b8a565b5060a083015184820360a0860152612c7c8282612bb9565b91505060c083015184820360c0860152612c968282612bb9565b9150508091505092915050565b6000612caf8383612bf2565b905092915050565b6000602082019050919050565b6000612ccf82612b5e565b612cd98185612b69565b935083602082028501612ceb85612b7a565b8060005b85811015612d275784840389528151612d088582612ca3565b9450612d1383612cb7565b925060208a01995050600181019050612cef565b50829750879550505050505092915050565b60006020820190508181036000830152612d538184612cc4565b905092915050565b612d6481612607565b8114612d6f57600080fd5b50565b600081359050612d8181612d5b565b92915050565b60008060408385031215612d9e57612d9d612578565b5b6000612dac858286016127c5565b9250506020612dbd85828601612d72565b9150509250929050565b600067ffffffffffffffff821115612de257612de16128f1565b5b612deb82612683565b9050602081019050919050565b6000612e0b612e0684612dc7565b612951565b905082815260208101848484011115612e2757612e266128ec565b5b612e3284828561299d565b509392505050565b600082601f830112612e4f57612e4e6128e7565b5b8135612e5f848260208601612df8565b91505092915050565b60008060008060808587031215612e8257612e81612578565b5b6000612e90878288016127c5565b9450506020612ea1878288016127c5565b9350506040612eb287828801612710565b925050606085013567ffffffffffffffff811115612ed357612ed261257d565b5b612edf87828801612e3a565b91505092959194509250565b60008060408385031215612f0257612f01612578565b5b6000612f10858286016127c5565b9250506020612f21858286016127c5565b9150509250929050565b60008060408385031215612f4257612f41612578565b5b6000612f5085828601612710565b9250506020612f6185828601612d72565b9150509250929050565b7f4e487b7100000000000000000000000000000000000000000000000000000000600052602260045260246000fd5b60006002820490506001821680612fb257607f821691505b602082108103612fc557612fc4612f6b565b5b50919050565b6000606082019050612fe06000830186612784565b612fed6020830185612b07565b612ffa6040830184612784565b949350505050565b6000819050919050565b61301581613002565b811461302057600080fd5b50565b6000815190506130328161300c565b92915050565b60006020828403121561304e5761304d612578565b5b600061305c84828501613023565b91505092915050565b61306e81613002565b82525050565b60006040820190506130896000830185613065565b6130966020830184612784565b9392505050565b6000815190506130ac81612d5b565b92915050565b6000602082840312156130c8576130c7612578565b5b60006130d68482850161309d565b91505092915050565b7f556e617574686f72697a656420726f6c65000000000000000000000000000000600082015250565b6000613115601183612648565b9150613120826130df565b602082019050919050565b6000602082019050818103600083015261314481613108565b9050919050565b7f4e487b7100000000000000000000000000000000000000000000000000000000600052601160045260246000fd5b6000613185826126ef565b91507fffffffffffffffffffffffffffffffffffffffffffffffffffffffffffffffff82036131b7576131b661314b565b5b600182019050919050565b60008190508160005260206000209050919050565b60006020601f8301049050919050565b600082821b905092915050565b6000600883026132247fffffffffffffffffffffffffffffffffffffffffffffffffffffffffffffffff826131e7565b61322e86836131e7565b95508019841693508086168417925050509392505050565b600061326161325c613257846126ef565b61281a565b6126ef565b9050919050565b6000819050919050565b61327b83613246565b61328f61328782613268565b8484546131f4565b825550505050565b600090565b6132a4613297565b6132af818484613272565b505050565b5b818110156132d3576132c860008261329c565b6001810190506132b5565b5050565b601f821115613318576132e9816131c2565b6132f2846131d7565b81016020851015613301578190505b61331561330d856131d7565b8301826132b4565b50505b505050565b600082821c905092915050565b600061333b6000198460080261331d565b1980831691505092915050565b6000613354838361332a565b9150826002028217905092915050565b61336d8261263d565b67ffffffffffffffff811115613386576133856128f1565b5b6133908254612f9a565b61339b8282856132d7565b600060209050601f8311600181146133ce57600084156133bc578287015190505b6133c68582613348565b86555061342e565b601f1984166133dc866131c2565b60005b82811015613404578489015182556001820191506020850194506020810190506133df565b86831015613421578489015161341d601f89168261332a565b8355505b6001600288020188555050505b505050505050565b600081905092915050565b600061344c8261263d565b6134568185613436565b9350613466818560208601612659565b80840191505092915050565b600061347e8284613441565b915081905092915050565b600060408201905081810360008301526134a38185612694565b90506134b26020830184612b07565b9392505050565b7f496e76616c696420616464726573730000000000000000000000000000000000600082015250565b60006134ef600f83612648565b91506134fa826134b9565b602082019050919050565b6000602082019050818103600083015261351e816134e2565b9050919050565b7f4e6f74206120636f6e7472616374000000000000000000000000000000000000600082015250565b600061355b600e83612648565b915061356682613525565b602082019050919050565b6000602082019050818103600083015261358a8161354e565b9050919050565b7f4e487b7100000000000000000000000000000000000000000000000000000000600052603260045260246000fd5b7f556e617574686f72697a656420636f6e74726163740000000000000000000000600082015250565b60006135f6601583612648565b9150613601826135c0565b602082019050919050565b60006020820190508181036000830152613625816135e9565b9050919050565b7f496e76616c696420746f6b656e20494400000000000000000000000000000000600082015250565b6000613662601083612648565b915061366d8261362c565b602082019050919050565b6000602082019050818103600083015261369181613655565b9050919050565b600081519050919050565b600082825260208201905092915050565b60006136bf82613698565b6136c981856136a3565b93506136d9818560208601612659565b6136e281612683565b840191505092915050565b60006080820190506137026000830187612784565b61370f6020830186612784565b61371c6040830185612b07565b818103606083015261372e81846136b4565b905095945050505050565b600081519050613748816125ae565b92915050565b60006020828403121561376457613763612578565b5b600061377284828501613739565b91505092915050565b60006137878285613441565b91506137938284613441565b91508190509392505050565b60006040820190506137b46000830185612784565b6137c16020830184612b07565b9392505050565b7f4e487b7100000000000000000000000000000000000000000000000000000000600052601260045260246000fdfea26469706673582212200ce148b5ed35685d0d2e34369d0ebea1d843c3c57c69b29b4ff6d1ad2c2d908964736f6c634300081c0033",
  "linkReferences": {},
  "deployedLinkReferences": {}
}