{
  "_format": "hh-sol-artifact-1",
  "contractName": "IoTDataNFT",
  "sourceName": "contracts/IoTDataNFT.sol",
  "abi": [
    {
      "inputs": [
        {
          "internalType": "address",
          "name": "_marketplace",
          "type": "address"
        },
        {
          "internalType": "address",
          "name": "_accessControl",
          "type": "address"
        }
      ],
      "stateMutability": "nonpayable",
      "type": "constructor"
    },
    {
      "inputs": [
        {
          "internalType": "address",
          "name": "sender",
          "type": "address"
        },
        {
          "internalType": "uint256",
          "name": "tokenId",
          "type": "uint256"
        },
        {
          "internalType": "address",
          "name": "owner",
          "type": "address"
        }
      ],
      "name": "ERC721IncorrectOwner",
      "type": "error"
    },
    {
      "inputs": [
        {
          "internalType": "address",
          "name": "operator",
          "type": "address"
        },
        {
          "internalType": "uint256",
          "name": "tokenId",
          "type": "uint256"
        }
      ],
      "name": "ERC721InsufficientApproval",
      "type": "error"
    },
    {
      "inputs": [
        {
          "internalType": "address",
          "name": "approver",
          "type": "address"
        }
      ],
      "name": "ERC721InvalidApprover",
      "type": "error"
    },
    {
      "inputs": [
        {
          "internalType": "address",
          "name": "operator",
          "type": "address"
        }
      ],
      "name": "ERC721InvalidOperator",
      "type": "error"
    },
    {
      "inputs": [
        {
          "internalType": "address",
          "name": "owner",
          "type": "address"
        }
      ],
      "name": "ERC721InvalidOwner",
      "type": "error"
    },
    {
      "inputs": [
        {
          "internalType": "address",
          "name": "receiver",
          "type": "address"
        }
      ],
      "name": "ERC721InvalidReceiver",
      "type": "error"
    },
    {
      "inputs": [
        {
          "internalType": "address",
          "name": "sender",
          "type": "address"
        }
      ],
      "name": "ERC721InvalidSender",
      "type": "error"
    },
    {
      "inputs": [
        {
          "internalType": "uint256",
          "name": "tokenId",
          "type": "uint256"
        }
      ],
      "name": "ERC721NonexistentToken",
      "type": "error"
    },
    {
      "anonymous": false,
      "inputs": [
        {
          "indexed": true,
          "internalType": "address",
          "name": "owner",
          "type": "address"
        },
        {
          "indexed": true,
          "internalType": "address",
          "name": "approved",
          "type": "address"
        },
        {
          "indexed": true,
          "internalType": "uint256",
          "name": "tokenId",
          "type": "uint256"
        }
      ],
      "name": "Approval",
      "type": "event"
    },
    {
      "anonymous": false,
      "inputs": [
        {
          "indexed": true,
          "internalType": "address",
          "name": "owner",
          "type": "address"
        },
        {
          "indexed": true,
          "internalType": "address",
          "name": "operator",
          "type": "address"
        },
        {
          "indexed": false,
          "internalType": "bool",
          "name": "approved",
          "type": "bool"
        }
      ],
      "name": "ApprovalForAll",
      "type": "event"
    },
    {
      "anonymous": false,
      "inputs": [
        {
          "indexed": false,
          "internalType": "uint256",
          "name": "_fromTokenId",
          "type": "uint256"
        },
        {
          "indexed": false,
          "internalType": "uint256",
          "name": "_toTokenId",
          "type": "uint256"
        }
      ],
      "name": "BatchMetadataUpdate",
      "type": "event"
    },
    {
      "anonymous": false,
      "inputs": [
        {
          "indexed": true,
          "internalType": "uint256",
          "name": "tokenId",
          "type": "uint256"
        },
        {
          "indexed": true,
          "internalType": "address",
          "name": "owner",
          "type": "address"
        },
        {
          "indexed": false,
          "internalType": "string",
          "name": "deviceId",
          "type": "string"
        },
        {
          "indexed": false,
          "internalType": "uint256",
          "name": "timestamp",
          "type": "uint256"
        }
      ],
      "name": "DataNFTMinted",
      "type": "event"
    },
    {
      "anonymous": false,
      "inputs": [
        {
          "indexed": false,
          "internalType": "uint256",
          "name": "_tokenId",
          "type": "uint256"
        }
      ],
      "name": "MetadataUpdate",
      "type": "event"
    },
    {
      "anonymous": false,
      "inputs": [
        {
          "indexed": true,
          "internalType": "address",
          "name": "from",
          "type": "address"
        },
        {
          "indexed": true,
          "internalType": "address",
          "name": "to",
          "type": "address"
        },
        {
          "indexed": true,
          "internalType": "uint256",
          "name": "tokenId",
          "type": "uint256"
        }
      ],
      "name": "Transfer",
      "type": "event"
    },
    {
      "anonymous": false,
      "inputs": [
        {
          "indexed": true,
          "internalType": "uint256",
          "name": "tokenId",
          "type": "uint256"
        },
        {
          "indexed": false,
          "internalType": "bool",
          "name": "verified",
          "type": "bool"
        }
      ],
      "name": "VerificationUpdated",
      "type": "event"
    },
    {
      "inputs": [],
      "name": "accessControlContract",
      "outputs": [
        {
          "internalType": "contract IoTDataAccessControl",
          "name": "",
          "type": "address"
        }
      ],
      "stateMutability": "view",
      "type": "function"
    },
    {
      "inputs": [
        {
          "internalType": "address",
          "name": "to",
          "type": "address"
        },
        {
          "internalType": "uint256",
          "name": "tokenId",
          "type": "uint256"
        }
      ],
      "name": "approve",
      "outputs": [],
      "stateMutability": "nonpayable",
      "type": "function"
    },
    {
      "inputs": [
        {
          "internalType": "address",
          "name": "owner",
          "type": "address"
        }
      ],
      "name": "balanceOf",
      "outputs": [
        {
          "internalType": "uint256",
          "name": "",
          "type": "uint256"
        }
      ],
      "stateMutability": "view",
      "type": "function"
    },
    {
      "inputs": [],
      "name": "dataVerificationContract",
      "outputs": [
        {
          "internalType": "address",
          "name": "",
          "type": "address"
        }
      ],
      "stateMutability": "view",
      "type": "function"
    },
    {
      "inputs": [],
      "name": "getAllUnverifiedNFTs",
      "outputs": [
        {
          "components": [
            {
              "internalType": "uint256",
              "name": "tokenId",
              "type": "uint256"
            },
            {
              "internalType": "address",
              "name": "owner",
              "type": "address"
            },
            {
              "internalType": "string",
              "name": "uri",
              "type": "string"
            },
            {
              "internalType": "string",
              "name": "deviceId",
              "type": "string"
            },
            {
              "internalType": "uint256",
              "name": "timestamp",
              "type": "uint256"
            },
            {
              "internalType": "string",
              "name": "dataType",
              "type": "string"
            },
            {
              "internalType": "string",
              "name": "location",
              "type": "string"
            }
          ],
          "internalType": "struct IoTDataNFT.TokenInfo[]",
          "name": "",
          "type": "tuple[]"
        }
      ],
      "stateMutability": "view",
      "type": "function"
    },
    {
      "inputs": [],
      "name": "getAllVerifiedNFTs",
      "outputs": [
        {
          "components": [
            {
              "internalType": "uint256",
              "name": "tokenId",
              "type": "uint256"
            },
            {
              "internalType": "address",
              "name": "owner",
              "type": "address"
            },
            {
              "internalType": "string",
              "name": "uri",
              "type": "string"
            },
            {
              "internalType": "string",
              "name": "deviceId",
              "type": "string"
            },
            {
              "internalType": "uint256",
              "name": "timestamp",
              "type": "uint256"
            },
            {
              "internalType": "string",
              "name": "dataType",
              "type": "string"
            },
            {
              "internalType": "string",
              "name": "location",
              "type": "string"
            }
          ],
          "internalType": "struct IoTDataNFT.TokenInfo[]",
          "name": "",
          "type": "tuple[]"
        }
      ],
      "stateMutability": "view",
      "type": "function"
    },
    {
      "inputs": [
        {
          "internalType": "uint256",
          "name": "tokenId",
          "type": "uint256"
        }
      ],
      "name": "getApproved",
      "outputs": [
        {
          "internalType": "address",
          "name": "",
          "type": "address"
        }
      ],
      "stateMutability": "view",
      "type": "function"
    },
    {
      "inputs": [
        {
          "internalType": "address",
          "name": "owner",
          "type": "address"
        },
        {
          "internalType": "address",
          "name": "operator",
          "type": "address"
        }
      ],
      "name": "isApprovedForAll",
      "outputs": [
        {
          "internalType": "bool",
          "name": "",
          "type": "bool"
        }
      ],
      "stateMutability": "view",
      "type": "function"
    },
    {
      "inputs": [
        {
          "internalType": "uint256",
          "name": "",
          "type": "uint256"
        }
      ],
      "name": "isVerified",
      "outputs": [
        {
          "internalType": "bool",
          "name": "",
          "type": "bool"
        }
      ],
      "stateMutability": "view",
      "type": "function"
    },
    {
      "inputs": [],
      "name": "marketplaceAddress",
      "outputs": [
        {
          "internalType": "address",
          "name": "",
          "type": "address"
        }
      ],
      "stateMutability": "view",
      "type": "function"
    },
    {
      "inputs": [],
      "name": "name",
      "outputs": [
        {
          "internalType": "string",
          "name": "",
          "type": "string"
        }
      ],
      "stateMutability": "view",
      "type": "function"
    },
    {
      "inputs": [
        {
          "internalType": "uint256",
          "name": "tokenId",
          "type": "uint256"
        }
      ],
      "name": "ownerOf",
      "outputs": [
        {
          "internalType": "address",
          "name": "",
          "type": "address"
        }
      ],
      "stateMutability": "view",
      "type": "function"
    },
    {
      "inputs": [
        {
          "internalType": "address",
          "name": "to",
          "type": "address"
        },
        {
          "internalType": "string",
          "name": "uri",
          "type": "string"
        },
        {
          "internalType": "string",
          "name": "deviceId",
          "type": "string"
        },
        {
          "internalType": "string",
          "name": "dataType",
          "type": "string"
        },
        {
          "internalType": "string",
          "name": "location",
          "type": "string"
        }
      ],
      "name": "safeMint",
      "outputs": [
        {
          "internalType": "uint256",
          "name": "",
          "type": "uint256"
        }
      ],
      "stateMutability": "nonpayable",
      "type": "function"
    },
    {
      "inputs": [
        {
          "internalType": "address",
          "name": "from",
          "type": "address"
        },
        {
          "internalType": "address",
          "name": "to",
          "type": "address"
        },
        {
          "internalType": "uint256",
          "name": "tokenId",
          "type": "uint256"
        }
      ],
      "name": "safeTransferFrom",
      "outputs": [],
      "stateMutability": "nonpayable",
      "type": "function"
    },
    {
      "inputs": [
        {
          "internalType": "address",
          "name": "from",
          "type": "address"
        },
        {
          "internalType": "address",
          "name": "to",
          "type": "address"
        },
        {
          "internalType": "uint256",
          "name": "tokenId",
          "type": "uint256"
        },
        {
          "internalType": "bytes",
          "name": "data",
          "type": "bytes"
        }
      ],
      "name": "safeTransferFrom",
      "outputs": [],
      "stateMutability": "nonpayable",
      "type": "function"
    },
    {
      "inputs": [
        {
          "internalType": "address",
          "name": "operator",
          "type": "address"
        },
        {
          "internalType": "bool",
          "name": "approved",
          "type": "bool"
        }
      ],
      "name": "setApprovalForAll",
      "outputs": [],
      "stateMutability": "nonpayable",
      "type": "function"
    },
    {
      "inputs": [
        {
          "internalType": "address",
          "name": "_verificationContract",
          "type": "address"
        }
      ],
      "name": "setDataVerificationContract",
      "outputs": [],
      "stateMutability": "nonpayable",
      "type": "function"
    },
    {
      "inputs": [
        {
          "internalType": "bytes4",
          "name": "interfaceId",
          "type": "bytes4"
        }
      ],
      "name": "supportsInterface",
      "outputs": [
        {
          "internalType": "bool",
          "name": "",
          "type": "bool"
        }
      ],
      "stateMutability": "view",
      "type": "function"
    },
    {
      "inputs": [],
      "name": "symbol",
      "outputs": [
        {
          "internalType": "string",
          "name": "",
          "type": "string"
        }
      ],
      "stateMutability": "view",
      "type": "function"
    },
    {
      "inputs": [
        {
          "internalType": "uint256",
          "name": "tokenId",
          "type": "uint256"
        }
      ],
      "name": "tokenURI",
      "outputs": [
        {
          "internalType": "string",
          "name": "",
          "type": "string"
        }
      ],
      "stateMutability": "view",
      "type": "function"
    },
    {
      "inputs": [
        {
          "internalType": "address",
          "name": "from",
          "type": "address"
        },
        {
          "internalType": "address",
          "name": "to",
          "type": "address"
        },
        {
          "internalType": "uint256",
          "name": "tokenId",
          "type": "uint256"
        }
      ],
      "name": "transferFrom",
      "outputs": [],
      "stateMutability": "nonpayable",
      "type": "function"
    },
    {
      "inputs": [
        {
          "internalType": "uint256",
          "name": "tokenId",
          "type": "uint256"
        },
        {
          "internalType": "bool",
          "name": "verified",
          "type": "bool"
        }
      ],
      "name": "updateVerificationStatus",
      "outputs": [],
      "stateMutability": "nonpayable",
      "type": "function"
    }
  ],
  "bytecode": "0x60a06040523480156200001157600080fd5b5060405162003db938038062003db98339818101604052810190620000379190620001b0565b6040518060400160405280600a81526020017f496f54446174614e4654000000000000000000000000000000000000000000008152506040518060400160405280600481526020017f494f544e000000000000000000000000000000000000000000000000000000008152508160009081620000b4919062000471565b508060019081620000c6919062000471565b5050508173ffffffffffffffffffffffffffffffffffffffff1660808173ffffffffffffffffffffffffffffffffffffffff168152505080600960006101000a81548173ffffffffffffffffffffffffffffffffffffffff021916908373ffffffffffffffffffffffffffffffffffffffff160217905550505062000558565b600080fd5b600073ffffffffffffffffffffffffffffffffffffffff82169050919050565b600062000178826200014b565b9050919050565b6200018a816200016b565b81146200019657600080fd5b50565b600081519050620001aa816200017f565b92915050565b60008060408385031215620001ca57620001c962000146565b5b6000620001da8582860162000199565b9250506020620001ed8582860162000199565b9150509250929050565b600081519050919050565b7f4e487b7100000000000000000000000000000000000000000000000000000000600052604160045260246000fd5b7f4e487b7100000000000000000000000000000000000000000000000000000000600052602260045260246000fd5b600060028204905060018216806200027957607f821691505b6020821081036200028f576200028e62000231565b5b50919050565b60008190508160005260206000209050919050565b60006020601f8301049050919050565b600082821b905092915050565b600060088302620002f97fffffffffffffffffffffffffffffffffffffffffffffffffffffffffffffffff82620002ba565b620003058683620002ba565b95508019841693508086168417925050509392505050565b6000819050919050565b6000819050919050565b6000620003526200034c62000346846200031d565b62000327565b6200031d565b9050919050565b6000819050919050565b6200036e8362000331565b620003866200037d8262000359565b848454620002c7565b825550505050565b600090565b6200039d6200038e565b620003aa81848462000363565b505050565b5b81811015620003d257620003c660008262000393565b600181019050620003b0565b5050565b601f8211156200042157620003eb8162000295565b620003f684620002aa565b8101602085101562000406578190505b6200041e6200041585620002aa565b830182620003af565b50505b505050565b600082821c905092915050565b6000620004466000198460080262000426565b1980831691505092915050565b600062000461838362000433565b9150826002028217905092915050565b6200047c82620001f7565b67ffffffffffffffff81111562000498576200049762000202565b5b620004a4825462000260565b620004b1828285620003d6565b600060209050601f831160018114620004e95760008415620004d4578287015190505b620004e0858262000453565b86555062000550565b601f198416620004f98662000295565b60005b828110156200052357848901518255600182019150602085019450602081019050620004fc565b868310156200054357848901516200053f601f89168262000433565b8355505b6001600288020188555050505b505050505050565b608051613845620005746000396000610de601526138456000f3fe608060405234801561001057600080fd5b50600436106101425760003560e01c806370a08231116100b8578063b88d4fde1161007c578063b88d4fde14610389578063c87b56dd146103a5578063daa17f49146103d5578063dec8bd17146103f3578063e985e9c514610411578063f320beac1461044157610142565b806370a08231146102e3578063751dcddb146103135780638b0cd50b1461033157806395d89b411461034f578063a22cb4651461036d57610142565b806323b872dd1161010a57806323b872dd146101ff578063296c2b3a1461021b57806337b6d96b1461024b57806342842e0e1461027b5780636352211e14610297578063707a4e27146102c757610142565b806301ffc9a71461014757806306fdde0314610177578063081812fc14610195578063095ea7b3146101c557806321fcc185146101e1575b600080fd5b610161600480360381019061015c91906125f2565b61045d565b60405161016e919061263a565b60405180910390f35b61017f61046f565b60405161018c91906126e5565b60405180910390f35b6101af60048036038101906101aa919061273d565b610501565b6040516101bc91906127ab565b60405180910390f35b6101df60048036038101906101da91906127f2565b61051d565b005b6101e9610533565b6040516101f69190612891565b60405180910390f35b610219600480360381019061021491906128ac565b610559565b005b61023560048036038101906102309190612a34565b61065b565b6040516102429190612b2e565b60405180910390f35b6102656004803603810190610260919061273d565b610948565b604051610272919061263a565b60405180910390f35b610295600480360381019061029091906128ac565b610968565b005b6102b160048036038101906102ac919061273d565b610988565b6040516102be91906127ab565b60405180910390f35b6102e160048036038101906102dc9190612b49565b61099a565b005b6102fd60048036038101906102f89190612b49565b610aa7565b60405161030a9190612b2e565b60405180910390f35b61031b610b61565b60405161032891906127ab565b60405180910390f35b610339610b87565b6040516103469190612d51565b60405180910390f35b610357610d05565b60405161036491906126e5565b60405180910390f35b61038760048036038101906103829190612d9f565b610d97565b005b6103a3600480360381019061039e9190612e80565b610dad565b005b6103bf60048036038101906103ba919061273d565b610dd2565b6040516103cc91906126e5565b60405180910390f35b6103dd610de4565b6040516103ea91906127ab565b60405180910390f35b6103fb610e08565b6040516104089190612d51565b60405180910390f35b61042b60048036038101906104269190612f03565b610f84565b604051610438919061263a565b60405180910390f35b61045b60048036038101906104569190612f43565b611018565b005b600061046882611232565b9050919050565b60606000805461047e90612fb2565b80601f01602080910402602001604051908101604052809291908181526020018280546104aa90612fb2565b80156104f75780601f106104cc576101008083540402835291602001916104f7565b820191906000526020600020905b8154815290600101906020018083116104da57829003601f168201915b5050505050905090565b600061050c82611293565b506105168261131b565b9050919050565b61052f828261052a611358565b611360565b5050565b600960009054906101000a900473ffffffffffffffffffffffffffffffffffffffff1681565b600073ffffffffffffffffffffffffffffffffffffffff168273ffffffffffffffffffffffffffffffffffffffff16036105cb5760006040517f64a0ae920000000000000000000000000000000000000000000000000000000081526004016105c291906127ab565b60405180910390fd5b60006105df83836105da611358565b611372565b90508373ffffffffffffffffffffffffffffffffffffffff168173ffffffffffffffffffffffffffffffffffffffff1614610655578382826040517f64283d7b00000000000000000000000000000000000000000000000000000000815260040161064c93929190612fe3565b60405180910390fd5b50505050565b6000600960009054906101000a900473ffffffffffffffffffffffffffffffffffffffff1673ffffffffffffffffffffffffffffffffffffffff166391d14854600960009054906101000a900473ffffffffffffffffffffffffffffffffffffffff1673ffffffffffffffffffffffffffffffffffffffff1663d53913936040518163ffffffff1660e01b8152600401602060405180830381865afa158015610708573d6000803e3d6000fd5b505050506040513d601f19601f8201168201806040525081019061072c9190613050565b336040518363ffffffff1660e01b815260040161074a92919061308c565b602060405180830381865afa158015610767573d6000803e3d6000fd5b505050506040513d601f19601f8201168201806040525081019061078b91906130ca565b6107ca576040517f08c379a00000000000000000000000000000000000000000000000000000000081526004016107c190613143565b60405180910390fd5b6000600760008154809291906107df90613192565b9190505590506107ef878261158c565b6107f981876115aa565b604051806080016040528086815260200142815260200185815260200184815250600a60008381526020019081526020016000206000820151816000019081610842919061337c565b50602082015181600101556040820151816002019081610862919061337c565b506060820151816003019081610878919061337c565b50905050600c8560405161088c919061348a565b9081526020016040518091039020819080600181540180825580915050600190039060005260206000200160009091909190915055600d8190806001815401808255809150506001900390600052602060002001600090919091909150558673ffffffffffffffffffffffffffffffffffffffff16817fcf0618c506ca527972552bed8cb18b4f15577efa47200694c895b07047651c2a87426040516109339291906134a1565b60405180910390a38091505095945050505050565b600b6020528060005260406000206000915054906101000a900460ff1681565b61098383838360405180602001604052806000815250610dad565b505050565b600061099382611293565b9050919050565b600073ffffffffffffffffffffffffffffffffffffffff168173ffffffffffffffffffffffffffffffffffffffff1603610a09576040517f08c379a0000000000000000000000000000000000000000000000000000000008152600401610a009061351d565b60405180910390fd5b60008173ffffffffffffffffffffffffffffffffffffffff163b11610a63576040517f08c379a0000000000000000000000000000000000000000000000000000000008152600401610a5a90613589565b60405180910390fd5b80600860006101000a81548173ffffffffffffffffffffffffffffffffffffffff021916908373ffffffffffffffffffffffffffffffffffffffff16021790555050565b60008073ffffffffffffffffffffffffffffffffffffffff168273ffffffffffffffffffffffffffffffffffffffff1603610b1a5760006040517f89c62b64000000000000000000000000000000000000000000000000000000008152600401610b1191906127ab565b60405180910390fd5b600360008373ffffffffffffffffffffffffffffffffffffffff1673ffffffffffffffffffffffffffffffffffffffff168152602001908152602001600020549050919050565b600860009054906101000a900473ffffffffffffffffffffffffffffffffffffffff1681565b60606000805b600d80549050811015610c0057600b6000600d8381548110610bb257610bb16135a9565b5b9060005260206000200154815260200190815260200160002060009054906101000a900460ff1615610bed578180610be990613192565b9250505b8080610bf890613192565b915050610b8d565b5060008167ffffffffffffffff811115610c1d57610c1c612909565b5b604051908082528060200260200182016040528015610c5657816020015b610c43612533565b815260200190600190039081610c3b5790505b5090506000805b600d80549050811015610cfb576000600d8281548110610c8057610c7f6135a9565b5b90600052602060002001549050600b600082815260200190815260200160002060009054906101000a900460ff1615610ce757610cbc81611606565b848480610cc890613192565b955081518110610cdb57610cda6135a9565b5b60200260200101819052505b508080610cf390613192565b915050610c5d565b5081935050505090565b606060018054610d1490612fb2565b80601f0160208091040260200160405190810160405280929190818152602001828054610d4090612fb2565b8015610d8d5780601f10610d6257610100808354040283529160200191610d8d565b820191906000526020600020905b815481529060010190602001808311610d7057829003601f168201915b5050505050905090565b610da9610da2611358565b838361182e565b5050565b610db8848484610559565b610dcc610dc3611358565b8585858561199d565b50505050565b6060610ddd82611b4e565b9050919050565b7f000000000000000000000000000000000000000000000000000000000000000081565b60606000805b600d80549050811015610e8057600b6000600d8381548110610e3357610e326135a9565b5b9060005260206000200154815260200190815260200160002060009054906101000a900460ff16610e6d578180610e6990613192565b9250505b8080610e7890613192565b915050610e0e565b5060008167ffffffffffffffff811115610e9d57610e9c612909565b5b604051908082528060200260200182016040528015610ed657816020015b610ec3612533565b815260200190600190039081610ebb5790505b5090506000805b600d80549050811015610f7a576000600d8281548110610f0057610eff6135a9565b5b90600052602060002001549050600b600082815260200190815260200160002060009054906101000a900460ff16610f6657610f3b81611606565b848480610f4790613192565b955081518110610f5a57610f596135a9565b5b60200260200101819052505b508080610f7290613192565b915050610edd565b5081935050505090565b6000600560008473ffffffffffffffffffffffffffffffffffffffff1673ffffffffffffffffffffffffffffffffffffffff16815260200190815260200160002060008373ffffffffffffffffffffffffffffffffffffffff1673ffffffffffffffffffffffffffffffffffffffff16815260200190815260200160002060009054906101000a900460ff16905092915050565b600960009054906101000a900473ffffffffffffffffffffffffffffffffffffffff1673ffffffffffffffffffffffffffffffffffffffff166333105218336040518263ffffffff1660e01b815260040161107391906127ab565b602060405180830381865afa158015611090573d6000803e3d6000fd5b505050506040513d601f19601f820116820180604052508101906110b491906130ca565b6110f3576040517f08c379a00000000000000000000000000000000000000000000000000000000081526004016110ea90613143565b60405180910390fd5b600860009054906101000a900473ffffffffffffffffffffffffffffffffffffffff1673ffffffffffffffffffffffffffffffffffffffff163373ffffffffffffffffffffffffffffffffffffffff1614611183576040517f08c379a000000000000000000000000000000000000000000000000000000000815260040161117a90613624565b60405180910390fd5b61118c82611c61565b6111cb576040517f08c379a00000000000000000000000000000000000000000000000000000000081526004016111c290613690565b60405180910390fd5b80600b600084815260200190815260200160002060006101000a81548160ff021916908315150217905550817f9a5939a701e315312ffd484f4e922faaa665911da46327fa44cf9991529200e782604051611226919061263a565b60405180910390a25050565b6000634906490660e01b7bffffffffffffffffffffffffffffffffffffffffffffffffffffffff1916827bffffffffffffffffffffffffffffffffffffffffffffffffffffffff1916148061128c575061128b82611ca2565b5b9050919050565b60008061129f83611d84565b9050600073ffffffffffffffffffffffffffffffffffffffff168173ffffffffffffffffffffffffffffffffffffffff160361131257826040517f7e2732890000000000000000000000000000000000000000000000000000000081526004016113099190612b2e565b60405180910390fd5b80915050919050565b60006004600083815260200190815260200160002060009054906101000a900473ffffffffffffffffffffffffffffffffffffffff169050919050565b600033905090565b61136d8383836001611dc1565b505050565b60008061137e84611d84565b9050600073ffffffffffffffffffffffffffffffffffffffff168373ffffffffffffffffffffffffffffffffffffffff16146113c0576113bf818486611f86565b5b600073ffffffffffffffffffffffffffffffffffffffff168173ffffffffffffffffffffffffffffffffffffffff161461145157611402600085600080611dc1565b6001600360008373ffffffffffffffffffffffffffffffffffffffff1673ffffffffffffffffffffffffffffffffffffffff168152602001908152602001600020600082825403925050819055505b600073ffffffffffffffffffffffffffffffffffffffff168573ffffffffffffffffffffffffffffffffffffffff16146114d4576001600360008773ffffffffffffffffffffffffffffffffffffffff1673ffffffffffffffffffffffffffffffffffffffff168152602001908152602001600020600082825401925050819055505b846002600086815260200190815260200160002060006101000a81548173ffffffffffffffffffffffffffffffffffffffff021916908373ffffffffffffffffffffffffffffffffffffffff160217905550838573ffffffffffffffffffffffffffffffffffffffff168273ffffffffffffffffffffffffffffffffffffffff167fddf252ad1be2c89b69c2b068fc378daa952ba7f163c4a11628f55a4df523b3ef60405160405180910390a4809150509392505050565b6115a682826040518060200160405280600081525061204a565b5050565b806006600084815260200190815260200160002090816115ca919061337c565b507ff8e1a15aba9398e019f0b49df1a4fde98ee17ae345cb5f6b5e2c27f5033e8ce7826040516115fa9190612b2e565b60405180910390a15050565b61160e612533565b6000600a600084815260200190815260200160002090506040518060e0016040528084815260200161163f85610988565b73ffffffffffffffffffffffffffffffffffffffff16815260200161166385610dd2565b815260200182600001805461167790612fb2565b80601f01602080910402602001604051908101604052809291908181526020018280546116a390612fb2565b80156116f05780601f106116c5576101008083540402835291602001916116f0565b820191906000526020600020905b8154815290600101906020018083116116d357829003601f168201915b505050505081526020018260010154815260200182600201805461171390612fb2565b80601f016020809104026020016040519081016040528092919081815260200182805461173f90612fb2565b801561178c5780601f106117615761010080835404028352916020019161178c565b820191906000526020600020905b81548152906001019060200180831161176f57829003601f168201915b505050505081526020018260030180546117a590612fb2565b80601f01602080910402602001604051908101604052809291908181526020018280546117d190612fb2565b801561181e5780601f106117f35761010080835404028352916020019161181e565b820191906000526020600020905b81548152906001019060200180831161180157829003601f168201915b5050505050815250915050919050565b600073ffffffffffffffffffffffffffffffffffffffff168273ffffffffffffffffffffffffffffffffffffffff160361189f57816040517f5b08ba1800000000000000000000000000000000000000000000000000000000815260040161189691906127ab565b60405180910390fd5b80600560008573ffffffffffffffffffffffffffffffffffffffff1673ffffffffffffffffffffffffffffffffffffffff16815260200190815260200160002060008473ffffffffffffffffffffffffffffffffffffffff1673ffffffffffffffffffffffffffffffffffffffff16815260200190815260200160002060006101000a81548160ff0219169083151502179055508173ffffffffffffffffffffffffffffffffffffffff168373ffffffffffffffffffffffffffffffffffffffff167f17307eab39ab6107e8899845ad3d59bd9653f200f220920489ca2b5937696c3183604051611990919061263a565b60405180910390a3505050565b60008373ffffffffffffffffffffffffffffffffffffffff163b1115611b47578273ffffffffffffffffffffffffffffffffffffffff1663150b7a02868685856040518563ffffffff1660e01b81526004016119fc9493929190613705565b6020604051808303816000875af1925050508015611a3857506040513d601f19601f82011682018060405250810190611a359190613766565b60015b611abc573d8060008114611a68576040519150601f19603f3d011682016040523d82523d6000602084013e611a6d565b606091505b506000815103611ab457836040517f64a0ae92000000000000000000000000000000000000000000000000000000008152600401611aab91906127ab565b60405180910390fd5b805181602001fd5b63150b7a0260e01b7bffffffffffffffffffffffffffffffffffffffffffffffffffffffff1916817bffffffffffffffffffffffffffffffffffffffffffffffffffffffff191614611b4557836040517f64a0ae92000000000000000000000000000000000000000000000000000000008152600401611b3c91906127ab565b60405180910390fd5b505b5050505050565b6060611b5982611293565b506000600660008481526020019081526020016000208054611b7a90612fb2565b80601f0160208091040260200160405190810160405280929190818152602001828054611ba690612fb2565b8015611bf35780601f10611bc857610100808354040283529160200191611bf3565b820191906000526020600020905b815481529060010190602001808311611bd657829003601f168201915b505050505090506000611c0461206e565b90506000815103611c19578192505050611c5c565b600082511115611c4e578082604051602001611c36929190613793565b60405160208183030381529060405292505050611c5c565b611c5784612085565b925050505b919050565b60008073ffffffffffffffffffffffffffffffffffffffff16611c8383611d84565b73ffffffffffffffffffffffffffffffffffffffff1614159050919050565b60007f80ac58cd000000000000000000000000000000000000000000000000000000007bffffffffffffffffffffffffffffffffffffffffffffffffffffffff1916827bffffffffffffffffffffffffffffffffffffffffffffffffffffffff19161480611d6d57507f5b5e139f000000000000000000000000000000000000000000000000000000007bffffffffffffffffffffffffffffffffffffffffffffffffffffffff1916827bffffffffffffffffffffffffffffffffffffffffffffffffffffffff1916145b80611d7d5750611d7c826120ee565b5b9050919050565b60006002600083815260200190815260200160002060009054906101000a900473ffffffffffffffffffffffffffffffffffffffff169050919050565b8080611dfa5750600073ffffffffffffffffffffffffffffffffffffffff168273ffffffffffffffffffffffffffffffffffffffff1614155b15611f2e576000611e0a84611293565b9050600073ffffffffffffffffffffffffffffffffffffffff168373ffffffffffffffffffffffffffffffffffffffff1614158015611e7557508273ffffffffffffffffffffffffffffffffffffffff168173ffffffffffffffffffffffffffffffffffffffff1614155b8015611e885750611e868184610f84565b155b15611eca57826040517fa9fbf51f000000000000000000000000000000000000000000000000000000008152600401611ec191906127ab565b60405180910390fd5b8115611f2c57838573ffffffffffffffffffffffffffffffffffffffff168273ffffffffffffffffffffffffffffffffffffffff167f8c5be1e5ebec7d5bd14f71427d1e84f3dd0314c0f7b2291e5b200ac8c7c3b92560405160405180910390a45b505b836004600085815260200190815260200160002060006101000a81548173ffffffffffffffffffffffffffffffffffffffff021916908373ffffffffffffffffffffffffffffffffffffffff16021790555050505050565b611f91838383612158565b61204557600073ffffffffffffffffffffffffffffffffffffffff168373ffffffffffffffffffffffffffffffffffffffff160361200657806040517f7e273289000000000000000000000000000000000000000000000000000000008152600401611ffd9190612b2e565b60405180910390fd5b81816040517f177e802f00000000000000000000000000000000000000000000000000000000815260040161203c9291906137b7565b60405180910390fd5b505050565b6120548383612219565b61206961205f611358565b600085858561199d565b505050565b606060405180602001604052806000815250905090565b606061209082611293565b50600061209b61206e565b905060008151116120bb57604051806020016040528060008152506120e6565b806120c584612312565b6040516020016120d6929190613793565b6040516020818303038152906040525b915050919050565b60007f01ffc9a7000000000000000000000000000000000000000000000000000000007bffffffffffffffffffffffffffffffffffffffffffffffffffffffff1916827bffffffffffffffffffffffffffffffffffffffffffffffffffffffff1916149050919050565b60008073ffffffffffffffffffffffffffffffffffffffff168373ffffffffffffffffffffffffffffffffffffffff161415801561221057508273ffffffffffffffffffffffffffffffffffffffff168473ffffffffffffffffffffffffffffffffffffffff1614806121d157506121d08484610f84565b5b8061220f57508273ffffffffffffffffffffffffffffffffffffffff166121f78361131b565b73ffffffffffffffffffffffffffffffffffffffff16145b5b90509392505050565b600073ffffffffffffffffffffffffffffffffffffffff168273ffffffffffffffffffffffffffffffffffffffff160361228b5760006040517f64a0ae9200000000000000000000000000000000000000000000000000000000815260040161228291906127ab565b60405180910390fd5b600061229983836000611372565b9050600073ffffffffffffffffffffffffffffffffffffffff168173ffffffffffffffffffffffffffffffffffffffff161461230d5760006040517f73c6ac6e00000000000000000000000000000000000000000000000000000000815260040161230491906127ab565b60405180910390fd5b505050565b606060006001612321846123e0565b01905060008167ffffffffffffffff8111156123405761233f612909565b5b6040519080825280601f01601f1916602001820160405280156123725781602001600182028036833780820191505090505b509050600082602001820190505b6001156123d5578080600190039150507f3031323334353637383961626364656600000000000000000000000000000000600a86061a8153600a85816123c9576123c86137e0565b5b04945060008503612380575b819350505050919050565b600080600090507a184f03e93ff9f4daa797ed6e38ed64bf6a1f010000000000000000831061243e577a184f03e93ff9f4daa797ed6e38ed64bf6a1f0100000000000000008381612434576124336137e0565b5b0492506040810190505b6d04ee2d6d415b85acef8100000000831061247b576d04ee2d6d415b85acef81000000008381612471576124706137e0565b5b0492506020810190505b662386f26fc1000083106124aa57662386f26fc1000083816124a05761249f6137e0565b5b0492506010810190505b6305f5e10083106124d3576305f5e10083816124c9576124c86137e0565b5b0492506008810190505b61271083106124f85761271083816124ee576124ed6137e0565b5b0492506004810190505b6064831061251b5760648381612511576125106137e0565b5b0492506002810190505b600a831061252a576001810190505b80915050919050565b6040518060e0016040528060008152602001600073ffffffffffffffffffffffffffffffffffffffff16815260200160608152602001606081526020016000815260200160608152602001606081525090565b6000604051905090565b600080fd5b600080fd5b60007fffffffff0000000000000000000000000000000000000000000000000000000082169050919050565b6125cf8161259a565b81146125da57600080fd5b50565b6000813590506125ec816125c6565b92915050565b60006020828403121561260857612607612590565b5b6000612616848285016125dd565b91505092915050565b60008115159050919050565b6126348161261f565b82525050565b600060208201905061264f600083018461262b565b92915050565b600081519050919050565b600082825260208201905092915050565b60005b8381101561268f578082015181840152602081019050612674565b60008484015250505050565b6000601f19601f8301169050919050565b60006126b782612655565b6126c18185612660565b93506126d1818560208601612671565b6126da8161269b565b840191505092915050565b600060208201905081810360008301526126ff81846126ac565b905092915050565b6000819050919050565b61271a81612707565b811461272557600080fd5b50565b60008135905061273781612711565b92915050565b60006020828403121561275357612752612590565b5b600061276184828501612728565b91505092915050565b600073ffffffffffffffffffffffffffffffffffffffff82169050919050565b60006127958261276a565b9050919050565b6127a58161278a565b82525050565b60006020820190506127c0600083018461279c565b92915050565b6127cf8161278a565b81146127da57600080fd5b50565b6000813590506127ec816127c6565b92915050565b6000806040838503121561280957612808612590565b5b6000612817858286016127dd565b925050602061282885828601612728565b9150509250929050565b6000819050919050565b600061285761285261284d8461276a565b612832565b61276a565b9050919050565b60006128698261283c565b9050919050565b600061287b8261285e565b9050919050565b61288b81612870565b82525050565b60006020820190506128a66000830184612882565b92915050565b6000806000606084860312156128c5576128c4612590565b5b60006128d3868287016127dd565b93505060206128e4868287016127dd565b92505060406128f586828701612728565b9150509250925092565b600080fd5b600080fd5b7f4e487b7100000000000000000000000000000000000000000000000000000000600052604160045260246000fd5b6129418261269b565b810181811067ffffffffffffffff821117156129605761295f612909565b5b80604052505050565b6000612973612586565b905061297f8282612938565b919050565b600067ffffffffffffffff82111561299f5761299e612909565b5b6129a88261269b565b9050602081019050919050565b82818337600083830152505050565b60006129d76129d284612984565b612969565b9050828152602081018484840111156129f3576129f2612904565b5b6129fe8482856129b5565b509392505050565b600082601f830112612a1b57612a1a6128ff565b5b8135612a2b8482602086016129c4565b91505092915050565b600080600080600060a08688031215612a5057612a4f612590565b5b6000612a5e888289016127dd565b955050602086013567ffffffffffffffff811115612a7f57612a7e612595565b5b612a8b88828901612a06565b945050604086013567ffffffffffffffff811115612aac57612aab612595565b5b612ab888828901612a06565b935050606086013567ffffffffffffffff811115612ad957612ad8612595565b5b612ae588828901612a06565b925050608086013567ffffffffffffffff811115612b0657612b05612595565b5b612b1288828901612a06565b9150509295509295909350565b612b2881612707565b82525050565b6000602082019050612b436000830184612b1f565b92915050565b600060208284031215612b5f57612b5e612590565b5b6000612b6d848285016127dd565b91505092915050565b600081519050919050565b600082825260208201905092915050565b6000819050602082019050919050565b612bab81612707565b82525050565b612bba8161278a565b82525050565b600082825260208201905092915050565b6000612bdc82612655565b612be68185612bc0565b9350612bf6818560208601612671565b612bff8161269b565b840191505092915050565b600060e083016000830151612c226000860182612ba2565b506020830151612c356020860182612bb1565b5060408301518482036040860152612c4d8282612bd1565b91505060608301518482036060860152612c678282612bd1565b9150506080830151612c7c6080860182612ba2565b5060a083015184820360a0860152612c948282612bd1565b91505060c083015184820360c0860152612cae8282612bd1565b9150508091505092915050565b6000612cc78383612c0a565b905092915050565b6000602082019050919050565b6000612ce782612b76565b612cf18185612b81565b935083602082028501612d0385612b92565b8060005b85811015612d3f5784840389528151612d208582612cbb565b9450612d2b83612ccf565b925060208a01995050600181019050612d07565b50829750879550505050505092915050565b60006020820190508181036000830152612d6b8184612cdc565b905092915050565b612d7c8161261f565b8114612d8757600080fd5b50565b600081359050612d9981612d73565b92915050565b60008060408385031215612db657612db5612590565b5b6000612dc4858286016127dd565b9250506020612dd585828601612d8a565b9150509250929050565b600067ffffffffffffffff821115612dfa57612df9612909565b5b612e038261269b565b9050602081019050919050565b6000612e23612e1e84612ddf565b612969565b905082815260208101848484011115612e3f57612e3e612904565b5b612e4a8482856129b5565b509392505050565b600082601f830112612e6757612e666128ff565b5b8135612e77848260208601612e10565b91505092915050565b60008060008060808587031215612e9a57612e99612590565b5b6000612ea8878288016127dd565b9450506020612eb9878288016127dd565b9350506040612eca87828801612728565b925050606085013567ffffffffffffffff811115612eeb57612eea612595565b5b612ef787828801612e52565b91505092959194509250565b60008060408385031215612f1a57612f19612590565b5b6000612f28858286016127dd565b9250506020612f39858286016127dd565b9150509250929050565b60008060408385031215612f5a57612f59612590565b5b6000612f6885828601612728565b9250506020612f7985828601612d8a565b9150509250929050565b7f4e487b7100000000000000000000000000000000000000000000000000000000600052602260045260246000fd5b60006002820490506001821680612fca57607f821691505b602082108103612fdd57612fdc612f83565b5b50919050565b6000606082019050612ff8600083018661279c565b6130056020830185612b1f565b613012604083018461279c565b949350505050565b6000819050919050565b61302d8161301a565b811461303857600080fd5b50565b60008151905061304a81613024565b92915050565b60006020828403121561306657613065612590565b5b60006130748482850161303b565b91505092915050565b6130868161301a565b82525050565b60006040820190506130a1600083018561307d565b6130ae602083018461279c565b9392505050565b6000815190506130c481612d73565b92915050565b6000602082840312156130e0576130df612590565b5b60006130ee848285016130b5565b91505092915050565b7f556e617574686f72697a656420726f6c65000000000000000000000000000000600082015250565b600061312d601183612660565b9150613138826130f7565b602082019050919050565b6000602082019050818103600083015261315c81613120565b9050919050565b7f4e487b7100000000000000000000000000000000000000000000000000000000600052601160045260246000fd5b600061319d82612707565b91507fffffffffffffffffffffffffffffffffffffffffffffffffffffffffffffffff82036131cf576131ce613163565b5b600182019050919050565b60008190508160005260206000209050919050565b60006020601f8301049050919050565b600082821b905092915050565b60006008830261323c7fffffffffffffffffffffffffffffffffffffffffffffffffffffffffffffffff826131ff565b61324686836131ff565b95508019841693508086168417925050509392505050565b600061327961327461326f84612707565b612832565b612707565b9050919050565b6000819050919050565b6132938361325e565b6132a761329f82613280565b84845461320c565b825550505050565b600090565b6132bc6132af565b6132c781848461328a565b505050565b5b818110156132eb576132e06000826132b4565b6001810190506132cd565b5050565b601f82111561333057613301816131da565b61330a846131ef565b81016020851015613319578190505b61332d613325856131ef565b8301826132cc565b50505b505050565b600082821c905092915050565b600061335360001984600802613335565b1980831691505092915050565b600061336c8383613342565b9150826002028217905092915050565b61338582612655565b67ffffffffffffffff81111561339e5761339d612909565b5b6133a88254612fb2565b6133b38282856132ef565b600060209050601f8311600181146133e657600084156133d4578287015190505b6133de8582613360565b865550613446565b601f1984166133f4866131da565b60005b8281101561341c578489015182556001820191506020850194506020810190506133f7565b868310156134395784890151613435601f891682613342565b8355505b6001600288020188555050505b505050505050565b600081905092915050565b600061346482612655565b61346e818561344e565b935061347e818560208601612671565b80840191505092915050565b60006134968284613459565b915081905092915050565b600060408201905081810360008301526134bb81856126ac565b90506134ca6020830184612b1f565b9392505050565b7f496e76616c696420616464726573730000000000000000000000000000000000600082015250565b6000613507600f83612660565b9150613512826134d1565b602082019050919050565b60006020820190508181036000830152613536816134fa565b9050919050565b7f4e6f74206120636f6e7472616374000000000000000000000000000000000000600082015250565b6000613573600e83612660565b915061357e8261353d565b602082019050919050565b600060208201905081810360008301526135a281613566565b9050919050565b7f4e487b7100000000000000000000000000000000000000000000000000000000600052603260045260246000fd5b7f556e617574686f72697a656420636f6e74726163740000000000000000000000600082015250565b600061360e601583612660565b9150613619826135d8565b602082019050919050565b6000602082019050818103600083015261363d81613601565b9050919050565b7f496e76616c696420746f6b656e20494400000000000000000000000000000000600082015250565b600061367a601083612660565b915061368582613644565b602082019050919050565b600060208201905081810360008301526136a98161366d565b9050919050565b600081519050919050565b600082825260208201905092915050565b60006136d7826136b0565b6136e181856136bb565b93506136f1818560208601612671565b6136fa8161269b565b840191505092915050565b600060808201905061371a600083018761279c565b613727602083018661279c565b6137346040830185612b1f565b818103606083015261374681846136cc565b905095945050505050565b600081519050613760816125c6565b92915050565b60006020828403121561377c5761377b612590565b5b600061378a84828501613751565b91505092915050565b600061379f8285613459565b91506137ab8284613459565b91508190509392505050565b60006040820190506137cc600083018561279c565b6137d96020830184612b1f565b9392505050565b7f4e487b7100000000000000000000000000000000000000000000000000000000600052601260045260246000fdfea26469706673582212206d48067adf7a080def4b482cd852af0b8614f0cc2af59b75c280dc009c585a9a64736f6c63430008140033",
  "linkReferences": {},
  "deployedLinkReferences": {}
}