{
  "_format": "hh-sol-artifact-1",
  "contractName": "Marketplace",
  "sourceName": "contracts/Marketplace.sol",
  "abi": [
    {
      "inputs": [
        {
          "internalType": "address",
          "name": "_paymentAddress",
          "type": "address"
        }
      ],
      "stateMutability": "nonpayable",
      "type": "constructor"
    },
    {
      "inputs": [],
      "name": "ReentrancyGuardReentrantCall",
      "type": "error"
    },
    {
      "anonymous": false,
      "inputs": [
        {
          "indexed": true,
          "internalType": "address",
          "name": "seller",
          "type": "address"
        },
        {
          "indexed": true,
          "internalType": "address",
          "name": "nftAddress",
          "type": "address"
        },
        {
          "indexed": true,
          "internalType": "uint256",
          "name": "tokenId",
          "type": "uint256"
        },
        {
          "indexed": false,
          "internalType": "uint256",
          "name": "price",
          "type": "uint256"
        }
      ],
      "name": "ItemListed",
      "type": "event"
    },
    {
      "anonymous": false,
      "inputs": [
        {
          "indexed": true,
          "internalType": "address",
          "name": "buyer",
          "type": "address"
        },
        {
          "indexed": true,
          "internalType": "address",
          "name": "nftAddress",
          "type": "address"
        },
        {
          "indexed": true,
          "internalType": "uint256",
          "name": "tokenId",
          "type": "uint256"
        },
        {
          "indexed": false,
          "internalType": "uint256",
          "name": "price",
          "type": "uint256"
        }
      ],
      "name": "ItemSold",
      "type": "event"
    },
    {
      "anonymous": false,
      "inputs": [
        {
          "indexed": true,
          "internalType": "address",
          "name": "seller",
          "type": "address"
        },
        {
          "indexed": true,
          "internalType": "address",
          "name": "nftAddress",
          "type": "address"
        },
        {
          "indexed": true,
          "internalType": "uint256",
          "name": "tokenId",
          "type": "uint256"
        }
      ],
      "name": "ListingCanceled",
      "type": "event"
    },
    {
      "inputs": [
        {
          "internalType": "uint256",
          "name": "",
          "type": "uint256"
        }
      ],
      "name": "allListings",
      "outputs": [
        {
          "internalType": "address",
          "name": "nftAddress",
          "type": "address"
        },
        {
          "internalType": "uint256",
          "name": "tokenId",
          "type": "uint256"
        },
        {
          "internalType": "uint256",
          "name": "price",
          "type": "uint256"
        },
        {
          "internalType": "address",
          "name": "seller",
          "type": "address"
        },
        {
          "internalType": "bool",
          "name": "isActive",
          "type": "bool"
        }
      ],
      "stateMutability": "view",
      "type": "function"
    },
    {
      "inputs": [
        {
          "internalType": "address",
          "name": "nftAddress",
          "type": "address"
        },
        {
          "internalType": "uint256",
          "name": "tokenId",
          "type": "uint256"
        }
      ],
      "name": "buyItem",
      "outputs": [],
      "stateMutability": "payable",
      "type": "function"
    },
    {
      "inputs": [
        {
          "internalType": "address",
          "name": "nftAddress",
          "type": "address"
        },
        {
          "internalType": "uint256",
          "name": "tokenId",
          "type": "uint256"
        }
      ],
      "name": "cancelListing",
      "outputs": [],
      "stateMutability": "nonpayable",
      "type": "function"
    },
    {
      "inputs": [],
      "name": "getActiveListings",
      "outputs": [
        {
          "components": [
            {
              "internalType": "address",
              "name": "nftAddress",
              "type": "address"
            },
            {
              "internalType": "uint256",
              "name": "tokenId",
              "type": "uint256"
            },
            {
              "internalType": "uint256",
              "name": "price",
              "type": "uint256"
            },
            {
              "internalType": "address",
              "name": "seller",
              "type": "address"
            },
            {
              "internalType": "bool",
              "name": "isActive",
              "type": "bool"
            }
          ],
          "internalType": "struct Marketplace.Listing[]",
          "name": "",
          "type": "tuple[]"
        }
      ],
      "stateMutability": "view",
      "type": "function"
    },
    {
      "inputs": [],
      "name": "getAllListings",
      "outputs": [
        {
          "components": [
            {
              "internalType": "address",
              "name": "nftAddress",
              "type": "address"
            },
            {
              "internalType": "uint256",
              "name": "tokenId",
              "type": "uint256"
            },
            {
              "internalType": "uint256",
              "name": "price",
              "type": "uint256"
            },
            {
              "internalType": "address",
              "name": "seller",
              "type": "address"
            },
            {
              "internalType": "bool",
              "name": "isActive",
              "type": "bool"
            }
          ],
          "internalType": "struct Marketplace.Listing[]",
          "name": "",
          "type": "tuple[]"
        }
      ],
      "stateMutability": "view",
      "type": "function"
    },
    {
      "inputs": [
        {
          "internalType": "address",
          "name": "nftAddress",
          "type": "address"
        },
        {
          "internalType": "uint256",
          "name": "tokenId",
          "type": "uint256"
        },
        {
          "internalType": "uint256",
          "name": "price",
          "type": "uint256"
        }
      ],
      "name": "listItem",
      "outputs": [],
      "stateMutability": "nonpayable",
      "type": "function"
    },
    {
      "inputs": [
        {
          "internalType": "address",
          "name": "",
          "type": "address"
        },
        {
          "internalType": "uint256",
          "name": "",
          "type": "uint256"
        }
      ],
      "name": "listings",
      "outputs": [
        {
          "internalType": "address",
          "name": "nftAddress",
          "type": "address"
        },
        {
          "internalType": "uint256",
          "name": "tokenId",
          "type": "uint256"
        },
        {
          "internalType": "uint256",
          "name": "price",
          "type": "uint256"
        },
        {
          "internalType": "address",
          "name": "seller",
          "type": "address"
        },
        {
          "internalType": "bool",
          "name": "isActive",
          "type": "bool"
        }
      ],
      "stateMutability": "view",
      "type": "function"
    },
    {
      "inputs": [],
      "name": "paymentContract",
      "outputs": [
        {
          "internalType": "contract Payment",
          "name": "",
          "type": "address"
        }
      ],
      "stateMutability": "view",
      "type": "function"
    },
    {
      "stateMutability": "payable",
      "type": "receive"
    }
  ],
  "bytecode": "0x60a060405234801561001057600080fd5b5060405161203738038061203783398181016040528101906100329190610146565b6001600081905550600073ffffffffffffffffffffffffffffffffffffffff168173ffffffffffffffffffffffffffffffffffffffff16036100a9576040517f08c379a00000000000000000000000000000000000000000000000000000000081526004016100a0906101d0565b60405180910390fd5b8073ffffffffffffffffffffffffffffffffffffffff1660808173ffffffffffffffffffffffffffffffffffffffff1681525050506101f0565b600080fd5b600073ffffffffffffffffffffffffffffffffffffffff82169050919050565b6000610113826100e8565b9050919050565b61012381610108565b811461012e57600080fd5b50565b6000815190506101408161011a565b92915050565b60006020828403121561015c5761015b6100e3565b5b600061016a84828501610131565b91505092915050565b600082825260208201905092915050565b7f496e76616c6964207061796d656e742061646472657373000000000000000000600082015250565b60006101ba601783610173565b91506101c582610184565b602082019050919050565b600060208201905081810360008301526101e9816101ad565b9050919050565b608051611e2561021260003960008181610b870152610e1d0152611e256000f3fe60806040526004361061007e5760003560e01c80639c91dd561161004e5780639c91dd56146101995780639f37092a146101c4578063ae73ccec146101e0578063b2ddee061461020b576100be565b806207df30146100c35780630eeaa2ef1461010457806387c35bc01461014557806389bfd38f14610170576100be565b366100be576040517f08c379a00000000000000000000000000000000000000000000000000000000081526004016100b59061140b565b60405180910390fd5b600080fd5b3480156100cf57600080fd5b506100ea60048036038101906100e591906114c4565b610234565b6040516100fb95949392919061153d565b60405180910390f35b34801561011057600080fd5b5061012b60048036038101906101269190611590565b6102c4565b60405161013c95949392919061153d565b60405180910390f35b34801561015157600080fd5b5061015a610357565b6040516101679190611701565b60405180910390f35b34801561017c57600080fd5b5061019760048036038101906101929190611723565b6105b4565b005b3480156101a557600080fd5b506101ae610b85565b6040516101bb91906117d5565b60405180910390f35b6101de60048036038101906101d991906114c4565b610ba9565b005b3480156101ec57600080fd5b506101f5610f60565b6040516102029190611701565b60405180910390f35b34801561021757600080fd5b50610232600480360381019061022d91906114c4565b61109a565b005b6001602052816000526040600020602052806000526040600020600091509150508060000160009054906101000a900473ffffffffffffffffffffffffffffffffffffffff16908060010154908060020154908060030160009054906101000a900473ffffffffffffffffffffffffffffffffffffffff16908060030160149054906101000a900460ff16905085565b600281815481106102d457600080fd5b90600052602060002090600402016000915090508060000160009054906101000a900473ffffffffffffffffffffffffffffffffffffffff16908060010154908060020154908060030160009054906101000a900473ffffffffffffffffffffffffffffffffffffffff16908060030160149054906101000a900460ff16905085565b6060600080600090505b6002805490508110156103c25760028181548110610382576103816117f0565b5b906000526020600020906004020160030160149054906101000a900460ff16156103b55781806103b19061184e565b9250505b8080600101915050610361565b5060008167ffffffffffffffff8111156103df576103de611896565b5b60405190808252806020026020018201604052801561041857816020015b610405611351565b8152602001906001900390816103fd5790505b509050600080600090505b6002805490508110156105aa5760028181548110610444576104436117f0565b5b906000526020600020906004020160030160149054906101000a900460ff161561059d576002818154811061047c5761047b6117f0565b5b90600052602060002090600402016040518060a00160405290816000820160009054906101000a900473ffffffffffffffffffffffffffffffffffffffff1673ffffffffffffffffffffffffffffffffffffffff1673ffffffffffffffffffffffffffffffffffffffff16815260200160018201548152602001600282015481526020016003820160009054906101000a900473ffffffffffffffffffffffffffffffffffffffff1673ffffffffffffffffffffffffffffffffffffffff1673ffffffffffffffffffffffffffffffffffffffff1681526020016003820160149054906101000a900460ff161515151581525050838381518110610583576105826117f0565b5b602002602001018190525081806105999061184e565b9250505b8080600101915050610423565b5081935050505090565b6105bc61125e565b600081116105ff576040517f08c379a00000000000000000000000000000000000000000000000000000000081526004016105f690611911565b60405180910390fd5b610608836112a4565b610647576040517f08c379a000000000000000000000000000000000000000000000000000000000815260040161063e9061197d565b60405180910390fd5b60008390503373ffffffffffffffffffffffffffffffffffffffff168173ffffffffffffffffffffffffffffffffffffffff16636352211e856040518263ffffffff1660e01b815260040161069c919061199d565b602060405180830381865afa1580156106b9573d6000803e3d6000fd5b505050506040513d601f19601f820116820180604052508101906106dd91906119cd565b73ffffffffffffffffffffffffffffffffffffffff1614610733576040517f08c379a000000000000000000000000000000000000000000000000000000000815260040161072a90611a46565b60405180910390fd5b3073ffffffffffffffffffffffffffffffffffffffff168173ffffffffffffffffffffffffffffffffffffffff1663081812fc856040518263ffffffff1660e01b8152600401610783919061199d565b602060405180830381865afa1580156107a0573d6000803e3d6000fd5b505050506040513d601f19601f820116820180604052508101906107c491906119cd565b73ffffffffffffffffffffffffffffffffffffffff161461081a576040517f08c379a000000000000000000000000000000000000000000000000000000000815260040161081190611ab2565b60405180910390fd5b6040518060a001604052808573ffffffffffffffffffffffffffffffffffffffff1681526020018481526020018381526020013373ffffffffffffffffffffffffffffffffffffffff16815260200160011515815250600160008673ffffffffffffffffffffffffffffffffffffffff1673ffffffffffffffffffffffffffffffffffffffff168152602001908152602001600020600085815260200190815260200160002060008201518160000160006101000a81548173ffffffffffffffffffffffffffffffffffffffff021916908373ffffffffffffffffffffffffffffffffffffffff160217905550602082015181600101556040820151816002015560608201518160030160006101000a81548173ffffffffffffffffffffffffffffffffffffffff021916908373ffffffffffffffffffffffffffffffffffffffff16021790555060808201518160030160146101000a81548160ff0219169083151502179055509050506002600160008673ffffffffffffffffffffffffffffffffffffffff1673ffffffffffffffffffffffffffffffffffffffff168152602001908152602001600020600085815260200190815260200160002090806001815401808255809150506001900390600052602060002090600402016000909190919091506000820160009054906101000a900473ffffffffffffffffffffffffffffffffffffffff168160000160006101000a81548173ffffffffffffffffffffffffffffffffffffffff021916908373ffffffffffffffffffffffffffffffffffffffff16021790555060018201548160010155600282015481600201556003820160009054906101000a900473ffffffffffffffffffffffffffffffffffffffff168160030160006101000a81548173ffffffffffffffffffffffffffffffffffffffff021916908373ffffffffffffffffffffffffffffffffffffffff1602179055506003820160149054906101000a900460ff168160030160146101000a81548160ff0219169083151502179055505050828473ffffffffffffffffffffffffffffffffffffffff163373ffffffffffffffffffffffffffffffffffffffff167fd547e933094f12a9159076970143ebe73234e64480317844b0dcb36117116de485604051610b6f919061199d565b60405180910390a450610b80611347565b505050565b7f000000000000000000000000000000000000000000000000000000000000000081565b610bb161125e565b6000600160008473ffffffffffffffffffffffffffffffffffffffff1673ffffffffffffffffffffffffffffffffffffffff168152602001908152602001600020600083815260200190815260200160002090508060030160149054906101000a900460ff16610c56576040517f08c379a0000000000000000000000000000000000000000000000000000000008152600401610c4d90611b1e565b60405180910390fd5b80600201543414610c9c576040517f08c379a0000000000000000000000000000000000000000000000000000000008152600401610c9390611b8a565b60405180910390fd5b60008390503073ffffffffffffffffffffffffffffffffffffffff168173ffffffffffffffffffffffffffffffffffffffff1663081812fc856040518263ffffffff1660e01b8152600401610cf1919061199d565b602060405180830381865afa158015610d0e573d6000803e3d6000fd5b505050506040513d601f19601f82011682018060405250810190610d3291906119cd565b73ffffffffffffffffffffffffffffffffffffffff1614610d88576040517f08c379a0000000000000000000000000000000000000000000000000000000008152600401610d7f90611bf6565b60405180910390fd5b8073ffffffffffffffffffffffffffffffffffffffff166342842e0e8360030160009054906101000a900473ffffffffffffffffffffffffffffffffffffffff1633866040518463ffffffff1660e01b8152600401610de993929190611c16565b600060405180830381600087803b158015610e0357600080fd5b505af1158015610e17573d6000803e3d6000fd5b505050507f000000000000000000000000000000000000000000000000000000000000000073ffffffffffffffffffffffffffffffffffffffff16638fe123d7348460030160009054906101000a900473ffffffffffffffffffffffffffffffffffffffff166040518363ffffffff1660e01b8152600401610e999190611c4d565b6000604051808303818588803b158015610eb257600080fd5b505af1158015610ec6573d6000803e3d6000fd5b505050505060008260030160146101000a81548160ff021916908315150217905550828473ffffffffffffffffffffffffffffffffffffffff163373ffffffffffffffffffffffffffffffffffffffff167fc36542c7a190a4c20a7f15a0ddc46871de452f269f15b0e621f11b48463b299f8560020154604051610f4a919061199d565b60405180910390a45050610f5c611347565b5050565b60606002805480602002602001604051908101604052809291908181526020016000905b8282101561109157838290600052602060002090600402016040518060a00160405290816000820160009054906101000a900473ffffffffffffffffffffffffffffffffffffffff1673ffffffffffffffffffffffffffffffffffffffff1673ffffffffffffffffffffffffffffffffffffffff16815260200160018201548152602001600282015481526020016003820160009054906101000a900473ffffffffffffffffffffffffffffffffffffffff1673ffffffffffffffffffffffffffffffffffffffff1673ffffffffffffffffffffffffffffffffffffffff1681526020016003820160149054906101000a900460ff16151515158152505081526020019060010190610f84565b50505050905090565b6110a261125e565b6000600160008473ffffffffffffffffffffffffffffffffffffffff1673ffffffffffffffffffffffffffffffffffffffff168152602001908152602001600020600083815260200190815260200160002090503373ffffffffffffffffffffffffffffffffffffffff168160030160009054906101000a900473ffffffffffffffffffffffffffffffffffffffff1673ffffffffffffffffffffffffffffffffffffffff1614611188576040517f08c379a000000000000000000000000000000000000000000000000000000000815260040161117f90611cb4565b60405180910390fd5b8060030160149054906101000a900460ff166111d9576040517f08c379a00000000000000000000000000000000000000000000000000000000081526004016111d090611d20565b60405180910390fd5b60008160030160146101000a81548160ff021916908315150217905550818373ffffffffffffffffffffffffffffffffffffffff163373ffffffffffffffffffffffffffffffffffffffff167ffb87149f10f1ffda9c1df55fae0d68fe643c8be0790eec2f859205ed312cd68b60405160405180910390a45061125a611347565b5050565b60026000540361129a576040517f3ee5aeb500000000000000000000000000000000000000000000000000000000815260040160405180910390fd5b6002600081905550565b60008173ffffffffffffffffffffffffffffffffffffffff166301ffc9a77f80ac58cd000000000000000000000000000000000000000000000000000000006040518263ffffffff1660e01b81526004016112ff9190611d7b565b602060405180830381865afa15801561131c573d6000803e3d6000fd5b505050506040513d601f19601f820116820180604052508101906113409190611dc2565b9050919050565b6001600081905550565b6040518060a00160405280600073ffffffffffffffffffffffffffffffffffffffff1681526020016000815260200160008152602001600073ffffffffffffffffffffffffffffffffffffffff1681526020016000151581525090565b600082825260208201905092915050565b7f446972656374207061796d656e7473206e6f7420616c6c6f7765640000000000600082015250565b60006113f5601b836113ae565b9150611400826113bf565b602082019050919050565b60006020820190508181036000830152611424816113e8565b9050919050565b600080fd5b600073ffffffffffffffffffffffffffffffffffffffff82169050919050565b600061145b82611430565b9050919050565b61146b81611450565b811461147657600080fd5b50565b60008135905061148881611462565b92915050565b6000819050919050565b6114a18161148e565b81146114ac57600080fd5b50565b6000813590506114be81611498565b92915050565b600080604083850312156114db576114da61142b565b5b60006114e985828601611479565b92505060206114fa858286016114af565b9150509250929050565b61150d81611450565b82525050565b61151c8161148e565b82525050565b60008115159050919050565b61153781611522565b82525050565b600060a0820190506115526000830188611504565b61155f6020830187611513565b61156c6040830186611513565b6115796060830185611504565b611586608083018461152e565b9695505050505050565b6000602082840312156115a6576115a561142b565b5b60006115b4848285016114af565b91505092915050565b600081519050919050565b600082825260208201905092915050565b6000819050602082019050919050565b6115f281611450565b82525050565b6116018161148e565b82525050565b61161081611522565b82525050565b60a08201600082015161162c60008501826115e9565b50602082015161163f60208501826115f8565b50604082015161165260408501826115f8565b50606082015161166560608501826115e9565b5060808201516116786080850182611607565b50505050565b600061168a8383611616565b60a08301905092915050565b6000602082019050919050565b60006116ae826115bd565b6116b881856115c8565b93506116c3836115d9565b8060005b838110156116f45781516116db888261167e565b97506116e683611696565b9250506001810190506116c7565b5085935050505092915050565b6000602082019050818103600083015261171b81846116a3565b905092915050565b60008060006060848603121561173c5761173b61142b565b5b600061174a86828701611479565b935050602061175b868287016114af565b925050604061176c868287016114af565b9150509250925092565b6000819050919050565b600061179b61179661179184611430565b611776565b611430565b9050919050565b60006117ad82611780565b9050919050565b60006117bf826117a2565b9050919050565b6117cf816117b4565b82525050565b60006020820190506117ea60008301846117c6565b92915050565b7f4e487b7100000000000000000000000000000000000000000000000000000000600052603260045260246000fd5b7f4e487b7100000000000000000000000000000000000000000000000000000000600052601160045260246000fd5b60006118598261148e565b91507fffffffffffffffffffffffffffffffffffffffffffffffffffffffffffffffff820361188b5761188a61181f565b5b600182019050919050565b7f4e487b7100000000000000000000000000000000000000000000000000000000600052604160045260246000fd5b7f5072696365206d757374206265203e2030000000000000000000000000000000600082015250565b60006118fb6011836113ae565b9150611906826118c5565b602082019050919050565b6000602082019050818103600083015261192a816118ee565b9050919050565b7f496e76616c6964204e465420636f6e7472616374000000000000000000000000600082015250565b60006119676014836113ae565b915061197282611931565b602082019050919050565b600060208201905081810360008301526119968161195a565b9050919050565b60006020820190506119b26000830184611513565b92915050565b6000815190506119c781611462565b92915050565b6000602082840312156119e3576119e261142b565b5b60006119f1848285016119b8565b91505092915050565b7f4e6f74206f776e65720000000000000000000000000000000000000000000000600082015250565b6000611a306009836113ae565b9150611a3b826119fa565b602082019050919050565b60006020820190508181036000830152611a5f81611a23565b9050919050565b7f4e6f7420617070726f7665640000000000000000000000000000000000000000600082015250565b6000611a9c600c836113ae565b9150611aa782611a66565b602082019050919050565b60006020820190508181036000830152611acb81611a8f565b9050919050565b7f4974656d206e6f7420617661696c61626c650000000000000000000000000000600082015250565b6000611b086012836113ae565b9150611b1382611ad2565b602082019050919050565b60006020820190508181036000830152611b3781611afb565b9050919050565b7f496e636f7272656374207061796d656e74000000000000000000000000000000600082015250565b6000611b746011836113ae565b9150611b7f82611b3e565b602082019050919050565b60006020820190508181036000830152611ba381611b67565b9050919050565b7f417070726f76616c207265766f6b656400000000000000000000000000000000600082015250565b6000611be06010836113ae565b9150611beb82611baa565b602082019050919050565b60006020820190508181036000830152611c0f81611bd3565b9050919050565b6000606082019050611c2b6000830186611504565b611c386020830185611504565b611c456040830184611513565b949350505050565b6000602082019050611c626000830184611504565b92915050565b7f4e6f742073656c6c657200000000000000000000000000000000000000000000600082015250565b6000611c9e600a836113ae565b9150611ca982611c68565b602082019050919050565b60006020820190508181036000830152611ccd81611c91565b9050919050565b7f416c726561647920696e61637469766500000000000000000000000000000000600082015250565b6000611d0a6010836113ae565b9150611d1582611cd4565b602082019050919050565b60006020820190508181036000830152611d3981611cfd565b9050919050565b60007fffffffff0000000000000000000000000000000000000000000000000000000082169050919050565b611d7581611d40565b82525050565b6000602082019050611d906000830184611d6c565b92915050565b611d9f81611522565b8114611daa57600080fd5b50565b600081519050611dbc81611d96565b92915050565b600060208284031215611dd857611dd761142b565b5b6000611de684828501611dad565b9150509291505056fea26469706673582212203c9b11070c724c5800f96a4b4daf90607c1f448ffe39fe496cf1daaf2e80f52864736f6c634300081c0033",
  "linkReferences": {},
  "deployedLinkReferences": {}
}